:1000000031C2000057C2000055C2000053C20000B8
:1000100051C200004FC200004DC200000C94C81431
:1000200049C2000047C200000C94E3110C94471130
:100030000C9483123FC200003DC200003BC200008E
:100040000C94130E37C200003FC3000063C30000CE
:1000500031C200002FC200002DC200002BC20000E0
:1000600029C2000027C20000B105B505C705DD059E
:10007000D405E805F30507061C064106410644457C
:1000800041435400436F6E6E6563746564210043A1
:100090006F6E6E656374696E6720746F205544508F
:1000A000205365727665720041504E20536574008E
:1000B000526567697374657265643A20537461723E
:1000C00074696E6720436F6E6669677572617469E3
:1000D0006F6E0053494D383030205265616479208D
:1000E00026204C6F6164696E6700496E69746961AE
:1000F0006C697A696E672E2E2E0054696D657232B6
:1001000053657269616C20737065656420746573F2
:100110007420763132333435363738393020693D02
:1001200025640A003E0A0053003D0052003D005B7A
:10013000434F4E4649475D0A0052003D0052003D84
:10014000005B434F4E4649475D0A0067736D2D6D56
:100150006F64656D0A004F4B00434F4E4E4543544C
:1001600000222C002B43495053544152543D2255F8
:100170004450222C22004F4B002B434C504F5254E2
:100180003D22554450222C002B4349465352002E09
:10019000004F4B002B4349494352002B43535454C7
:1001A0003D22696E7465726E6574222C22222C22A7
:1001B00022002B43474154543F004F4B00434741DB
:1001C00054543A2031002B434950434346473D386D
:1001D0002C31302C3430302C302C302C3436302C28
:1001E0003530002B4349504D4F44453D31002B43A2
:1001F00049504D55583D30002B4347455245503DE1
:1002000032002B43495552433D31002B4353434C5D
:100210004B3D30002B43534D494E533D31002B4352
:10022000534E533D34002B4352433D31002B435238
:100230003D31002B434D45453D32002B4352454750
:100240003D32002B435553443A0023220041542BA6
:10025000435553443D312C220023323C2000444579
:10026000414354004552524F52003D002300415437
:1002700000233E20415400232077616E743A2025EC
:10028000530A003C20002B4346554E3D312C310093
:100290002B43504F57443D3100444F574E002B43A2
:1002A0004E45544C494748543D30002B4346554E2B
:1002B0003D312C31002B4343414C523F00434341DD
:1002C0004C523A2031002B435343423D31002B43E3
:1002D00046554E3D3100453020563120583120538F
:1002E000303D300000435245473A20302C00327CEC
:1002F0008900EDD968770000005900000000000077
:100300000000D69FDCA81817AA90437327F6B96897
:10031000EDF4DED409FEE61C1C84DDE80B992927E8
:10032000D6DF8D210F036418EFEE1E99B782527647
:10033000941500347C000026149E988F0000006AFB
:1003400031168F8C059600E7B73F3600000000009D
:100350000000AF669ED0385D8A6C20B95422007CC4
:10036000ED044C80387486EDCBFA57CBDC19E200F3
:100370001DDF5506E5CB01C30000000000000000B2
:10038000009AB20086DBD0BC5416131586004E448A
:10039000BD7F6F151590010000B500000000000042
:1003A0002F000034E50000000000000000000047BE
:1003B000000000000000000000000000000000003D
:1003C000000000000000000000000000000000002D
:1003D0000000000000000000000000000000005AC3
:1003E00000000000000008CC31AA2C532E006372DC
:1003F0006173683A001C383D43413A004F4B00435B
:1004000050494E3A205245414459002B43524547EA
:100410003F002B4350494E3F00010204081020408A
:1004200080010204081020010204081020040404C2
:10043000040404040402020202020203030303038D
:100440000300000000230026002900000000002512
:100450000028002B0000000000240027002A0000D4
:10046000F60D0C0E11241FBECFEFD8E0DEBFCDBFBE
:1004700011E0A0E0B1E0E2E8F1E302C005900D92E6
:10048000AE3EB107D9F726E0AEEEB1E001C01D9255
:10049000AF36B207E1F712E0C1E3D2E004C0219722
:1004A000FE010E948018C033D107C9F70E949B103B
:1004B0000C94EF16A5CDCF92DF92EF92FF920F939F
:1004C0001F93E82FF92F05C00150110921093109A7
:1004D00061F1908196239417B9F305C00150110979
:1004E0002109310911F1908196239413F7CFC12C82
:1004F000D12CE12CF12C0AC08FEFC81AD80AE80AD7
:10050000F80A0C151D052E053F0579F0808186231C
:10051000841791F36C2D7D2D8E2D9F2D1F910F91A2
:10052000FF90EF90DF90CF90089560E070E080E062
:1005300090E01F910F91FF90EF90DF90CF90089582
:10054000FA01AA27283051F1203181F1E8946F9304
:100550006E7F6E5F7F4F8F4F9F4FAF4FB1E03ED0AA
:10056000B4E03CD0670F781F891F9A1FA11D680F48
:10057000791F8A1F911DA11D6A0F711D811D911D7B
:10058000A11D20D009F468943F912AE0269F1124F0
:100590003019305D3193DEF6CF010895462F477054
:1005A000405D4193B3E00FD0C9F7F6CF462F4F70AF
:1005B000405D4A3318F0495D31FD4052419302D00D
:1005C000A9F7EACFB4E0A6959795879577956795B3
:1005D000BA95C9F700976105710508959B01AC01B3
:1005E0000A2E06945795479537952795BA95C9F7DA
:1005F000620F731F841F951FA01D0895FB012081AA
:10060000822790E1899F900111242827822F90E072
:10061000582F44279C0163E0220F331F6A95E1F7AE
:1006200042275327218130E02427352774E0959510
:1006300087957A95E1F782279327918380830895A0
:100640009C01862FB901DACF0C94DE110895EF9248
:10065000FF920F931F93CF93DF931F92CDB7DEB717
:100660007C018B01081B190B442361F0C8018E0D1E
:100670009F1D49830E949F18F70181937F01498143
:100680004150F2CF0F90DF91CF911F910F91FF90CA
:10069000EF900895EF92FF921F93CF93DF937C0129
:1006A000C62FD72F142F160F1C1741F0F701619199
:1006B0007F01CE010E94A7182196F6CFDF91CF913E
:1006C0001F91FF90EF9008951F920F920FB60F9217
:1006D00011242F938F939F93EF93FF939091C600D4
:1006E000809165068F5F8F7720916606821741F0B3
:1006F000E0916506F0E0ED51FA4F90838093650636
:10070000FF91EF919F918F912F910F900FBE0F90BE
:100710001F9018951F920F920FB60F9211248F936E
:100720009F93EF93FF9390916406809163069817CF
:1007300079F0E0916406F0E0ED52FA4F8081809309
:10074000C600809164068F5F8F708093640605C039
:100750008091C1008F7D8093C100FF91EF919F91A7
:100760008F910F900FBE0F901F901895CF9361E05F
:100770008CE00E94310F0E947B13C82F80915E0491
:10078000882319F08C2F0E94F01060E08CE00E940A
:10079000310F8C2FCF9108950F931F93CF93DF9339
:1007A000EC018B010E945D0EDC01CB01800F911FDB
:1007B000A11DB11D88839983AA83BB83DF91CF914B
:1007C0001F910F910895FC011382128229E931E0F3
:1007D00031832083089561E081E10E94310F61E05F
:1007E00081E10E94F50E61E089E00E94310F61E035
:1007F00089E00E94F50E61E083E00E94310F61E024
:1008000083E00E94F50E60E088E00C94F50ECF9234
:10081000DF92EF92FF92CF93DF936A017B01E901B0
:10082000BC018AE594E00E94C1132AE030E0B701E0
:10083000A6018AE594E00E947410BE018AE594E066
:100840000E94C113DF91CF91FF90EF90DF90CF9086
:10085000089561E070E080E090E00C948E0E6AE014
:1008600070E080E090E00C948E0E62E370E080E037
:1008700090E00C948E0EF9DFF8CFFDDFFCDFFBCFAC
:1008800060E083E00E94310FF8DF61E083E00E94C6
:10089000310FF1CF68EE73E080E090E00C948E0EA3
:1008A00060E081E10E94310FF5DF61E081E10E94AB
:1008B000310FF0CF0F931F93CF93DF9300D000D071
:1008C000CDB7DEB742E062E070E0CE010196BFDE58
:1008D00089819A810B9791F58FEF9FEF90936C042C
:1008E00080936B0484E890E09A838983CE01039619
:1008F0009C838B8304E010E089819A81892B71F0BD
:10090000C8010E949F186BE674E078DE89819A81A5
:1009100001979A8389830F5F1F4FEECF42E060E01B
:1009200070E0CE01019693DE81E049815A812091E9
:100930006B0430916C044217530709F080E00F906C
:100940000F900F900F90DF91CF911F910F9108950D
:1009500044E864E070E083E091E079CEEF92FF92AA
:100960001F93CF93DF938FEF9FEF90936C0480934F
:100970006B0483E0E82E81E0F82EC4E0D0E0F701BC
:1009800011917F01612FCE010E94A7186BE674E0E0
:10099000812F34DE2196C838D10589F742E060E026
:1009A00070E08BE694E076DE8BE090E090936C0450
:1009B00080936B0442E062E070E08BE694E06ADED4
:1009C000DF91CF911F91FF90EF9008956FE271E05A
:1009D0008AE594E00E94C1132DE231E040E050E04E
:1009E000BA018BE291E013DF4091030150910401C1
:1009F00060910501709106012AE030E08AE594E0FB
:100A00000E94641029E231E041E050E060E070E0D3
:100A100087E291E0FCDEEFE8F1E0659174918AE510
:100A200094E00E94D20F29E231E042E050E060E021
:100A300070E087E291E0EBDEE2E9F1E0659174912C
:100A40008AE594E00E94D20F64E271E08AE594E0C6
:100A50000C94C1138A3011F08D3021F4FBD48AEF4D
:100A600091E017C0E0910101F091020192E0E937B5
:100A7000F907A0F0EFD4A0910101B09102011A97FB
:100A80008AE0EAEFF1E001900D928A95E1F784E0C7
:100A900092E0909302018093010108959F012F5FDE
:100AA0003F4F309302012093010180830895CF933B
:100AB0000E94ED12882379F061E08BE00E94310FF3
:100AC0000E94C812C82F0E9498138C2FC3DF60E0C9
:100AD0008BE00E94310FCF91089580915E048111C7
:100AE000E6DF0C946C132F923F924F925F926F92BD
:100AF0007F928F929F92AF92BF92CF92DF92EF92AE
:100B0000FF920F931F93CF93DF9310921F05712CC9
:100B1000D1E001E010E086E0282E312C95E0492E4E
:100B2000512C24E0C22ED12C32E0A32EB12C8824EB
:100B30008A94982C52E3652ED0DF882309F450C2A2
:100B400015DEC82F1092EE012091F1013091F201D3
:100B50002B30310508F0AEC0F901EC5CFF4F0C946E
:100B600080181092F9011092F801CE3F29F01093ED
:100B7000F2010093F1019EC0B092F201A092F10146
:100B800010924D0390924B0380924A0393C080933E
:100B90004D031092F301682F8AE493E051DDD09267
:100BA000F201C092F10186C080934E03682F8AE45F
:100BB00093E046DD83E090E022C080934F03682FEE
:100BC0008AE493E03DDD5092F2014092F10172C05F
:100BD00080935003682F8AE493E032DD3092F20173
:100BE0002092F10167C080935103682F8AE493E05B
:100BF00027DD80914D03811107C088E090E090933C
:100C0000F2018093F10156C087E090E0F8CFE091C7
:100C1000F30181E08E0F8093F301F0E0EE5AFC4F78
:100C2000C0836C2F8AE493E00BDD9091F3018091F7
:100C30004D0398133FC0E1CFE0915103F0E0E25142
:100C4000FD4F64918AE493E0FBDC2C2F30E080912F
:100C50004A0390914B0399272817390731F0CE3F6B
:100C600009F48ACF8AE090E0CACF89E090E09093BF
:100C7000F2018093F101E091F301F0E0EE5AFC4FB4
:100C800018C0482F50E0E0904B03F12C4E155F0543
:100C900009F06BCF2A30310509F467CFD093EE010C
:100CA0001093F2010093F101E091F301F0E0ED5AAD
:100CB000FC4FC0832091EE01222399F080914E03D6
:100CC0008093F4018091F6019091F701009721F44F
:100CD0001092F9011092F80101969093F701809318
:100CE000F6011092F001222309F472C160E070E075
:100CF00082E994E051DDD0931F05D09322058091C5
:100D00005103882309F45DC090919104992321F047
:100D100020914F03921364C18E3309F424C190F4DF
:100D2000883109F463C08E3109F48DC0813009F037
:100D30004FC18091600390916103909372048093FE
:100D4000710446C1893609F4A8C08D3F09F425C154
:100D50008A3409F03DC18091640380938E0420E0C1
:100D600030E048EC52E460915A0370915B0380914B
:100D70005C0390915D030E94DF170E945D176093F2
:100D80008A0470938B0480938C0490938D0420E0EC
:100D900030E048EC52E460915E0370915F03809113
:100DA0006003909161030E94DF170E945D176093BA
:100DB000860470938704809388049093890412D7E3
:100DC00007C180915603863009F402C180914F0318
:100DD0008093910480915203809381048091580301
:100DE000881F8827881F80932605F2C080915A03A8
:100DF00090915B03A0915C03B0915D038093170514
:100E000090931805A0931905B0931A0580915E037D
:100E100090915F03A0916003B091610380931B05E3
:100E200090931C05A0931D05B0931E0580916E0341
:100E300080938F0480916F0380939004D093270553
:100E400077247394C5C021EE3EE245E652E46091FA
:100E50005A0370915B0380915C0390915D030E9443
:100E6000DF170E945D17709385046093840421EE60
:100E70003EE245E652E4609156037091570380913B
:100E80005803909159030E94DF170E945D177093D9
:100E9000830460938204A7D69BC0809179049091CB
:100EA0007A04A0917B04B0917C0480936D049093AC
:100EB0006E04A0936F04B093700420E030E048EC1F
:100EC00052E460918603709187038091880390912A
:100ED00089030E94DF170E945D1760937904709365
:100EE0007A0480937B0490937C0420E030E04AE70E
:100EF00054E460915A0370915B0380915C0390917C
:100F00005D030E94DF170E945D1770937804609361
:100F1000770420E030E04AE754E460915E0370918A
:100F20005F0380916003909161030E94DF170E942C
:100F30005D17709376046093750420E030E04AE713
:100F400054E4609162037091630380916403909113
:100F500065030E94DF170E945D177093740460930D
:100F6000730442D635C020E030E048EC52E4609192
:100F70005A0370915B0380915C0390915D030E9422
:100F8000DF170E945D1760937D0470937E04809349
:100F90007F049093800429D61BC080915203843033
:100FA000B8F4E3E5F3E0A6E9B4E0862D01900D92F4
:100FB0008A95E1F71092C80446E050E06EEE73E0C7
:100FC00086E994E00E94F116892B11F4D09328054C
:100FD0000E946C138111B0CD8AEA90E0D8D6ACCDD6
:100FE000872DDF91CF911F910F91FF90EF90DF90B0
:100FF000CF90BF90AF909F908F907F906F905F90B9
:101000004F903F902F900895CF92DF92EF92FF92F2
:10101000CF93DF9380912205882331F064DD909196
:101020002205909323056AC0809123058111F6CF94
:101030000E94691361E08BE014D761E08CE011D766
:101040003CD66B017C0124E6C20ED11CE11CF11CD4
:10105000DAEFCFEF24EC39E040E050E060E080E0F0
:1010600021D76F3F71058105910509F05CF4662376
:1010700049F06C1708F4C62F20D6C616D706E80626
:10108000F90610F0D15031F7CF3F19F4C0910001AB
:1010900002C0C0930001CB3060F0C33160F0CD31AD
:1010A00060F0C83260F0CC3360F0C63960F081E0A7
:1010B0000BC088E109C08CE007C088E005C086E06D
:1010C00003C084E001C082E020EC32E1829FB001E5
:1010D000839F700D1124072E000C880B990B0E9422
:1010E000351360E08CE0BDD660E08BE0BAD681E0DD
:1010F0008093230580912905811190CFDF91CF91B5
:10110000FF90EF90DF90CF900895EF92FF920F93B2
:101110001F93CF938C017B01C0E0DFDC811108C0FD
:10112000E114F10419F0F7010995F7CF92DBF5CF3F
:101130001DDB8D3051F4F801EC0FF11D1082CF91C1
:101140001F910F91FF90EF900895CC2319F08A30F2
:1011500019F4F1CF8A3009F3F801EC0FF11D808307
:10116000C7FDDBCFCF5FD9CF60E070E0CECFCF93AC
:101170000E94ED128823B1F063E872E08AE594E002
:101180000E94C1130E94ED12882351F00E94C812E0
:10119000C82F682F8AE594E0FAD68C2F5BDCF2CF5B
:1011A0005EDBE6CFCF910895CF92DF92EF92FF9270
:1011B0000F931F93CF93DF938C01D62FC72F7A0104
:1011C0006901D5DFCF93DF9387E792E09F938F93F9
:1011D0008AE594E09F938F930E94DE1361E772E0AB
:1011E0008AE594E00E94C113B8018AE594E00E9468
:1011F000D5136EE672E08FE594E00E94C113B8014A
:101200008FE594E00E94D513A601B7018D2F9C2F86
:101210004FD091E00F900F900F900F900F900F9084
:10122000813009F090E0892FDF91CF911F910F91CC
:10123000FF90EF90DF90CF90089520E137E2B4CF98
:10124000CF93CDE3C150B1F045EE52E06CEF73E0C7
:101250008BE094E0F2DF882369F0E0917B02F0916B
:101260007C028085833331F0853331F0813321F086
:1012700011DBE8CF80E001C081E0CF9108959A01B1
:1012800040E050E091CF40E157E2F9CF6CEF73E0DE
:10129000FACF80918002882351F0F2DA01DB1092BC
:1012A000800286E892E0F2DFEE27FF270994089596
:1012B0004F925F926F927F929F92AF92BF92CF9226
:1012C000DF92EF92FF920F931F93CF93DF935C0116
:1012D0007B01EA01F2D42B013C014C0E5D1E611C26
:1012E000711C10927C0210927B02D1E0E114F10497
:1012F00009F0D0E061E08BE0B4D5BDDA60E08BE0CE
:10130000B0D56CE672E08AE594E00E94C113C0E0BB
:1013100002E812E089E5C82E82E0D82EA0DA0E9409
:10132000ED12882309F46FC061E08CE09AD50F5F5D
:101330001F4F0E94C812982EF80131978083F80140
:101340001082682F8AE594E022D6FAE09F1204C04A
:1013500063E28AE594E01BD60E94ED128111E7CF8B
:1013600060E08CE07ED5C1112DC0B50182E892E02D
:101370000E94141790937E0280937D02892B41F086
:101380006AE672E08AE594E00E94C113C1E00DC0F4
:1013900064E672E082E892E00E94141790937E0265
:1013A00080937D02892B09F0C3E06EE572E082E84C
:1013B00092E00E94141790937E0280937D02892B05
:1013C00009F067DFE114F10411F1B70182E892E05E
:1013D0000E94141790937C0280937B02D1E00097C7
:1013E00009F4D0E09F938F93DF92CF928AE594E047
:1013F0009F938F930E94DE130F900F900F900F908A
:101400000F900F9004C0CC2311F0D11107C055D418
:10141000641575058605970508F480CF67E871E0C7
:101420008AE594E0BFD5C09381028C2FDF91CF91E4
:101430001F910F91FF90EF90DF90CF90BF90AF90F2
:101440009F907F906F905F904F900895AB0160E008
:1014500070E02ECF45E050E06EE770E08AEF91E05B
:101460000E94F116892B09F414CF08958BE392E0C2
:101470000DDF882309F438C083E392E007DF882377
:1014800099F18DE292E002DF882371F186E292E029
:10149000FDDE882349F18EE192E0F8DE882321F118
:1014A00084E192E0F3DE8823F9F08BE092E0EEDE57
:1014B0008823D1F082E092E0E9DE8823A9F088EF6A
:1014C00091E0E4DE882381F08EEE91E0DFDE882378
:1014D00059F083EE91E0DADE882331F086EC91E07A
:1014E000D5DE91E0811101C090E0892F0895AB0114
:1014F0006CEF73E0C4CECF93C7E368EC70E084EE8A
:1015000092E0F5DF811103C0C150B9F701C081E05D
:10151000CF910895CF93DF9320917F02211150C086
:101520009B01AC0180916400877F80936400DA01A5
:10153000C901B695A79597958795BC01CD017C5DAE
:101540008B409F4F0E944218CA01B901F9D5A8D912
:10155000CBE0D1DF8823E1F086ED92E097DE8EECE0
:1015600092E094DE86EC92E091DE6FEF73E082E130
:1015700094E089DE882371F063DE882359F06DEBF7
:1015800072E085EB92E07FDE982F882319F01AC075
:1015900077D986D98BEA92E079DED7E07BD9D15032
:1015A000E9F7C150B1F60E94FD1280916400886095
:1015B0008093640090E081E0911108C080E006C053
:1015C00081E004C081E080937F02F5CFDF91CF916D
:1015D000089560E071EE80E090E09CCF68EC70E0F0
:1015E0008EE992E084DF48EC50E069E972E080E93E
:1015F00092E045DE0E94FD12E4E6F0E08081886022
:10160000808310927F02089520E63AEE4DEB51E080
:101610006AEB71E082EB91E0C7DD882331F08BE962
:1016200091E034DE91E0811101C090E0892F0895AE
:10163000AF92BF92DF92EF92FF920F931F93CF93DF
:10164000DF931F92CDB7DEB78C0191DDD12C6DE415
:1016500072E08FE594E00E94C113DD2011F06AE290
:1016600001C063E28FE594E00ED64AE050E0B80195
:101670008FE594E046D56AE472E08FE594E00E943D
:10168000D51368E97AE383E492E0E0DE813039F053
:10169000D11003C0DD24D394DACF80E05EC089830B
:1016A000ECD8A0917D02B0917E025D0196E0A90E7A
:1016B000B11C50E0E6E9F4E020E030E060E040E01A
:1016C0007DE28981D5019D915D01992309F444C092
:1016D000923221F4611141C061E0F4CF662391F3AD
:1016E000DD20B1F1890124E0000F111F2A95E1F7F7
:1016F00091360CF0905230ED390F3A3014F039EC4D
:10170000390F7801E30EF11C37FDFA9497014F5F12
:101710004430C1F69E2D052F10E00B501C4FD80110
:101720004C91E41202C05F5F07C0563021F4708311
:101730001182319601C050E02F3F310529F020F091
:1017400020E030E040E0BECF908311823196F8CFA8
:10175000908311823196B6CF862F0F90DF91CF9173
:101760001F910F91FF90EF90DF90BF90AF90089581
:10177000BF92CF92DF92EF92FF920F931F93CF937E
:10178000DF93CDB7DEB7C458D1090FB6F894DEBFEA
:101790000FBECDBF84E8E3E0F1E0DE0111960190D9
:1017A0000D928A95E1F761E08CE05BD361E08BE01C
:1017B00058D360E071EE80E090E057D76BE471E0C1
:1017C0008AE594E0DED78AE594E0E9D305E175D2B5
:1017D0006B017C0128EBC20E2BE0D21EE11CF11C38
:1017E00010E06BD26C157D058E059F0588F475D9C8
:1017F0008823B9F30E94B6031A3008F0BAC0E12F6B
:10180000F0E0E55BFE4FE4918E13EACF1F5FE9CF76
:10181000193009F0AEC04ED8811101C09FD898D8B8
:1018200094E8B92E61E471E08AE594E0AAD7CED8B5
:1018300086E994E099DC10919604112309F43EC0E6
:101840008091970481113AC01D36C1F030F41436EE
:1018500051F0173639F7BDDE1AC0113709F4A9C0A7
:10186000173751F0DFCFFE013196A3E0B1E08B2DA9
:1018700001900D928A95E1F771D8D4CF84E690E07B
:10188000D7DE66E974E08AE594E07FD3CBCF67E5E5
:1018900075E086E994E039DC06E914E0F80161912D
:1018A0008F018FE594E0662311F0EDD4F7CF77D365
:1018B000809196048111EBCF91DEB4CF87E994E05B
:1018C0000E94C9166B017C01062F1C3419F01335D8
:1018D00039F1A8CF623008F0A5CF2FE331E0AB019A
:1018E000BC015527662777278DE391E00E94070406
:1018F00086E994E039DC80919604882309F492CF3C
:1019000086E994E00E94C916F4E0CF9E900111246C
:10191000F901ED5FFE4F608371838283938382CFF1
:10192000633008F07FCF2BE331E0AB01BC015527DA
:101930006627772789E391E00E94070486E994E00F
:1019400013DC023009F46ECFD12CF601EE0FFF1F2D
:10195000CF018C0D9D1DFC01E157FE4F428150E0EF
:101960004150510966E974E0808191810E942E17EF
:1019700059CF0E945A04882319F00E94A80419C064
:10198000015019F40E94AE0414C013E060E08BE033
:1019900068D20E943D0461E08BE063D260E08CE09D
:1019A00060D20E943D0461E08CE05BD2115071F77F
:1019B0000ECF60E08CE055D260E08BE052D2CC5785
:1019C000DF4F0FB6F894DEBF0FBECDBFDF91CF91D2
:1019D0001F910F91FF90EF90DF90CF90BF900895EF
:1019E000CF93DF93EC0168EB7BE084E991E07FDD4E
:1019F0008823E9F041E951E06FE871E088E891E07F
:101A00001CDC8823A1F0B3DB69E771E08FE594E08B
:101A1000B8D64AE050E0BE018FE594E077D368EE97
:101A200073E086E791E012DD91E0813009F090E00B
:101A3000892FDF91CF9108950F931F93CF93DF9359
:101A40008C01EB0194DB64E671E08FE594E099D6BC
:101A5000B8018FE594E099D261E671E08FE594E0FA
:101A600090D64AE050E0BE018FE594E04FD348EBBA
:101A70005BE069E571E086E591E01ADC813019F4FC
:101A80008093800201C080E0DF91CF911F910F9180
:101A900008950F931F93CF93DF9361E08CE0A5D15E
:101AA00061E08BE0A2D160E08CE0DBD161E08BE013
:101AB000D8D161E083E0D5D10E94EB0360E076E904
:101AC00080E090E00BD760E071EE80E090E0CDD553
:101AD0004FDE60E08BE0C5D18AE080936A060AEFB2
:101AE00010E0C3E6D4E080916A068F5F80936A06B7
:101AF00080916A061F928F931F930F93DF93CF936A
:101B00005DD680916A060F900F900F900F900F9006
:101B10000F908F3F41F761E083E067D16AEE70E09C
:101B200083E694E042D655DD811117C0CFE0D0E0C6
:101B300060E08BE096D10E943D0461E08BE091D1A2
:101B400060E08CE08ED10E943D0461E08CE089D1A0
:101B5000219771F7EE27FF27099463ED70E083E684
:101B600094E023D6C1E0C0937A0260EB70E083E694
:101B700094E01BD67BDC60ED77E080E090E0CED097
:101B800087E491E041DD68EA70E083E694E00DD6F9
:101B9000809103019091040123DF6FE870E083E6F8
:101BA00094E003D6609103017091040187E091E015
:101BB00043DFC0935E0464E870E083E694E0F5D50B
:101BC00061E08CE04ED160E08BE04BD10E944A0492
:101BD00060E08CE046D1DF91CF911F910F91089585
:101BE00013CA0895089508950895089587E694E026
:101BF00034D544E060E083E694E067D68FE594E076
:101C00000E94E3038AE594E028D589EA91E0909365
:101C10005B0480935A04089582EC91E090936004F1
:101C200080935F04EAC41F920F920FB60F921124A3
:101C30002F933F938F939F93AF93BF9380912B05E7
:101C400090912C05A0912D05B0912E0530912A057B
:101C500023E0230F2D3720F40196A11DB11D05C0EF
:101C600026E8230F0296A11DB11D20932A0580931B
:101C70002B0590932C05A0932D05B0932E058091F4
:101C80002F0590913005A0913105B0913205019654
:101C9000A11DB11D80932F0590933005A0933105B0
:101CA000B0933205BF91AF919F918F913F912F914A
:101CB0000F900FBE0F901F9018952FB7F89460915A
:101CC0002B0570912C0580912D0590912E052FBF2D
:101CD00008953FB7F89480912F0590913005A09119
:101CE0003105B091320526B5A89B05C02F3F19F0EC
:101CF0000196A11DB11D3FBFBA2FA92F982F88278C
:101D0000820F911DA11DB11DBC01CD0142E0660FE6
:101D1000771F881F991F4A95D1F708958F929F9238
:101D2000AF92BF92CF92DF92EF92FF926B017C0154
:101D3000D0DF4B015C01C114D104E104F104F1F0E6
:101D4000B0D0C7DFDC01CB0188199909AA09BB090A
:101D5000883E9340A105B10570F321E0C21AD10875
:101D6000E108F10888EE880E83E0981EA11CB11CE2
:101D7000C114D104E104F10421F7DDCFFF90EF900D
:101D8000DF90CF90BF90AF909F908F90089582305A
:101D9000910538F0880F991F880F991F05970197B3
:101DA000F1F70895789484B5826084BD84B581602C
:101DB00084BD85B5826085BD85B5816085BDEEE653
:101DC000F0E0808181608083EAE7F0E080818460D8
:101DD0008083808182608083808181608083808134
:101DE000806880831092C1000895CF93DF9390E0C4
:101DF000FC01E75EFB4F2491FC01E35DFB4F849106
:101E0000882361F190E0880F991FFC01EB5AFB4F8A
:101E1000C591D491FC01E55BFB4FA591B491611193
:101E200009C09FB7F8948881209582238883EC911C
:101E30002E230BC0623061F49FB7F8943881822F53
:101E4000809583238883EC912E2B2C939FBF06C013
:101E50008FB7F894E8812E2B28838FBFDF91CF9125
:101E6000089590E0FC01E75EFB4F2491FC01E35DE7
:101E7000FB4FE491EE23A1F0F0E0EE0FFF1FE55BD6
:101E8000FB4FA591B4918FB7F894611105C09C9157
:101E9000E22FE095E92302C0EC91E22BEC938FBF97
:101EA000089508950F931F9390E0FC01E75EFB4FA8
:101EB0007491FC01E35DFB4FE491662311F0672F01
:101EC00001C060E0F0E0EE0FFF1FEF5BFB4F85917C
:101ED000949189019A013F70462F672F0E945B02FF
:101EE000611571058105910549F0DC01CB01019671
:101EF000A11DB11DBC01CD019F7003C060E070E069
:101F0000CB011F910F910895CF92DF92EF92FF9234
:101F10000F931F93CF93DF936C017A018B01C0E085
:101F2000D0E0CE15DF0589F0D8016D918D01D60185
:101F3000ED91FC910190F081E02DC6010995892B6E
:101F400011F47E0102C02196ECCFC701DF91CF9141
:101F50001F910F91FF90EF90DF90CF900895611542
:101F6000710581F0FB0101900020E9F73197AF0185
:101F7000461B570BDC01ED91FC910280F381E02DB3
:101F80000995089580E090E00895E9CF0895DC0177
:101F9000ED91FC910190F081E02D0995089565EB9C
:101FA00071E0DDCF0F931F93CF93DF93EC01D7DF69
:101FB0008C01CE01F4DF800F911FDF91CF911F9133
:101FC0000F9108954F925F926F927F92EF92FF92DE
:101FD0000F931F93CF93DF93CDB7DEB7A1970FB6C3
:101FE000F894DEBF0FBECDBF7C01FA01CB0119A270
:101FF000223008F42AE08E010F5D1F4F422E512C33
:10200000612C712CBF01A30192010E944218F901B9
:10201000CA01015011096A3014F4605D01C0695CA5
:10202000D8016C93232B242B252B61F7B801C70112
:1020300096DFA1960FB6F894DEBF0FBECDBFDF913D
:10204000CF911F910F91FF90EF907F906F905F90D5
:102050004F900895CF92DF92EF92FF920F931F93CC
:10206000CF93DF938C016A017B012115310549F47F
:10207000DC01ED91FC910190F081E02D642F099538
:102080001AC02A30310599F477FF10C06DE27FDF66
:10209000EC0144275527BA014C195D096E097F09E7
:1020A0002AE0C8018FDF8C0F9D1F05C02AE0B70111
:1020B000A601C80187DFDF91CF911F910F91FF909B
:1020C000EF90DF90CF9008950F931F93CF93DF93FE
:1020D000EC01C0DF8C01CE0162DF800F911FDF9128
:1020E000CF911F910F9108952115310549F4DC011D
:1020F000ED91FC910190F081E02D642F09950895F8
:1021000061CF9A01AB0160E070E0EECF0F931F93B7
:10211000CF93DF93EC019A01AB0160E070E0E4DF64
:102120008C01CE013CDF800F911FDF91CF911F9179
:102130000F910895089536DEFDDFABDC51DDFECF53
:102140009B01AC012D3A8BE138074105510530F474
:1021500010926F001092800081E812C063E05695E3
:102160004795379527956A95D1F72D3A8BE1380732
:1021700041055105A0F510926F001092800082E891
:10218000809381003093D2052093D105A5E2B0E081
:10219000BDD7DC01CB0122E0B695A7959795879531
:1021A0002A95D1F79093CB058093CA0562E088E029
:1021B0001CDE61E089E055DE61E089E016DE109208
:1021C000D0051092C9051092C805109247051092CB
:1021D00044051092430580E286BB80936F0008950A
:1021E000CF92DF92EF92FF92CF93DF93D82FC091DF
:1021F0004405CF5FCF7061DD6B017C0124E1C20E2D
:10220000D11CE11CF11C809143058C1308C055DDE5
:10221000C616D706E806F906B0F780E02DC02FB73E
:10222000F89480914705882341F0EC2FF0E0ED5CB5
:10223000FA4FD083C09344051DC081E080934705C9
:10224000D09346051092450582E086BB80916F00D1
:10225000826080936F00809180008F73806880938C
:102260008000809184009091850040969093890031
:10227000809388002FBF81E0DF91CF91FF90EF9096
:10228000DF90CF900895862FABDF90E008951F92E6
:102290000F920FB60F9211242F933F934F935F939A
:1022A0006F937F938F939F93EF93FF938091470555
:1022B0006091460520918800309189004091D105B8
:1022C0005091D205909145058A30F8F4240F351FBE
:1022D000893019F0762F717001C071E066958F5FBB
:1022E000791791F390918000772311F0906C02C0E0
:1022F0009F739068909380003093890020938800AA
:10230000709345056093460548C0E0914305909160
:1023100044059E1319C08A3051F48BE08093470521
:10232000240F351F309389002093880038C0109205
:102330004705809180008F738093800080916F00AB
:102340008D7F80936F002BC0EF5FEF70E0934305AC
:10235000F0E0ED5CFA4F90819093460510924505B0
:10236000909180009F739068909380008A3059F418
:102370008091D1059091D205280F391F30938900A3
:102380002093880009C08091840090918500409638
:10239000909389008093880081E080934705FF91A6
:1023A000EF919F918F917F916F915F914F913F91AD
:1023B0002F910F900FBE0F901F9018958091470599
:1023C0008111FCCF08951F920F920FB60F92112426
:1023D0002F933F934F935F936F937F938F939F932D
:1023E000EF93FF9380918600909187004091CE05F6
:1023F00020918100442331F02F7B209381001092A3
:10240000CE0506C020642093810020E82093CE05ED
:102410003091D005311125C0411166C02091CA0507
:102420003091CB05280F391F30938B0020938A0001
:1024300024E026BB20916F00246020936F00209140
:10244000D1053091D205820F931F36952795820FC3
:10245000931F9093CD058093CC0581E08093D005A8
:1024600043C04091CC055091CD052091CF05E0911E
:10247000CE056091D1057091D205841B950B97FD17
:102480002BC026952E2B460F571F3F5F861B970BA1
:102490003930A8F32093CF0580916F008B7F809314
:1024A0006F008091C9058F5F8F779091C80589175C
:1024B00049F0E82FF0E09091CF05E85BFA4F908368
:1024C0008093C905809181008F7B80938100109259
:1024D000CE051092D00508C02093CF055093CD05AE
:1024E0004093CC053093D005FF91EF919F918F9150
:1024F0007F916F915F914F913F912F910F900FBE00
:102500000F901F9018951F920F920FB60F921124E3
:102510002F938F939F93EF93FF9380916F008B7F07
:1025200080936F00809181008F7B809381008091E8
:10253000D0052091CE0520589091CF05893020F408
:102540009695922B8F5FFACF9093CF058091C90516
:102550008F5F8F772091C805821739F0E82FF0E060
:10256000E85BFA4F90838093C9051092D005809163
:1025700081008F7B809381001092CE05FF91EF91B7
:102580009F918F912F910F900FBE0F901F901895D4
:102590009091C8058091C905891751F09F5F9F7779
:1025A000E92FF0E0E85BFA4F80819093C805089529
:1025B00080E00895EDCF0895E091C8058091C905A8
:1025C0008E1739F0EF5FEF77F0E0E85BFA4F80812C
:1025D000089580E00895F0CF08958091C905909105
:1025E000C805891708F48058891B0895F6CF089507
:1025F0008091C8058093C9050895CF93DF93CFE6F6
:10260000D0E088818B7F888388818F7D8883F0DF0D
:10261000D5DE88818D7F8883DF91CF910895909159
:10262000C100892F807194FF0EC090916506809142
:102630006606981302C080E00895E0916606F0E017
:10264000ED51FA4F80810895E5E6F6E081818083BF
:10265000E3E6F6E0808181830895FC011382128213
:1026600022ED31E03183208308959B01AC018091FC
:10267000C10084FD1092C10010926406109263069E
:1026800010926606109265061216130614061506B9
:10269000CCF482E08093C00060E874E88EE190E0C2
:1026A00013D5CA01B901615071098109910922E06C
:1026B00030E040E050E008D5832F99278093C50093
:1026C0002093C40088E98093C10086E08093C20013
:1026D00008951092C10008959091C100892F8071D2
:1026E00094FF06C08091650690916606891B8F77DE
:1026F0000895F2CF08959091C100892F807194FFC1
:1027000014C09091650680916606981302C080E01F
:102710000895E0916606F0E0ED51FA4F80819091C6
:1027200066069F5F9F77909366060895E4CF0895AD
:102730009091C10094FF18C0909163069F5F9F70B5
:10274000209164069217E1F3E0916306F0E0ED5208
:10275000FA4F8083909363068091C10080628093DA
:10276000C10081E090E0089580E090E00895862F18
:10277000DFCFDC01ED91FC910190F081E02D099516
:1027800008950F931F93CF93DF938C01FB01649106
:10279000EF012196662321F0C801EBDFFE01F7CFA0
:1027A000DF91CF911F910F910895CF93DF93EC01AB
:1027B000E8DFCE01F4DBDF91CF910895CF93DF9373
:1027C000CDB7DEB79E01275F3F4F4F81588561E04F
:1027D0008D819E8104D1DF91CF91089580E008958D
:1027E00080E0089580E00895089520916A062111FF
:1027F00008C021E030E0FC013383228380E090E0D8
:10280000089580916A06109268061092B200809333
:10281000B30082E08093B000809167068093B1009E
:10282000B99A80917000826080937000109269065E
:10283000809169068823E1F388E0962F9170909348
:102840006806669510926906909169069923E1F3EE
:10285000815099F781E08093680610926906809113
:1028600069068823E1F3109269068091690688233E
:10287000E1F3109270001092B10081E090E00895B1
:10288000CF93C82F61E0EDDA61E08C2FAEDA8C2FA8
:1028900090E0FC01E75EFB4FE491E0936E0620912F
:1028A0006E06209520936D06FC01E35DFB4FE491DD
:1028B000F0E0EE0FFF1FE55BFB4F85919491909345
:1028C0006C0680936B06CF910895FC01842F1382D0
:1028D000128222EE31E031832083D2CFCF92DF9279
:1028E000EF92FF92CF936B017C01C1148BE4D80669
:1028F000E104F10409F144F480E8C81685E2D80641
:10290000E104F104C9F01DC0C11486E9D806E10450
:10291000F10459F0C11481EED806E104F10489F400
:1029200082E080936706C8E010C082E0809367066B
:1029300084E380936A0626C083E080936706C0E242
:1029400004C081E080936706C1E0C701B60122E0C0
:1029500030E040E050E0B8D3CA01B9017C5D8B4063
:102960009F4FA7019601B0D3CC2ED12CE12CF12C96
:10297000CA01B901A7019601A7D320936A0681E095
:1029800080936906CF91FF90EF90DF90CF900895EC
:102990001F920F920FB60F9211248F939F93EF9374
:1029A000FF9380916806E0916B06F0916C06882396
:1029B00029F080916E069081892B04C080916D066C
:1029C00090818923808381E080936906FF91EF9154
:1029D0009F918F910F900FBE0F901F9018952F927F
:1029E0003F924F925F926F927F928F929F92AF929F
:1029F000BF92CF92DF92EF92FF920F931F93CF93EC
:102A0000DF93CDB7DEB72C970FB6F894DEBF0FBEBD
:102A1000CDBF7C01262E6A018901CE0101964C01B1
:102A2000F60120FC359120FE31916F01332309F42A
:102A300097C1353241F420FC359120FE31916F0170
:102A4000353261F407C03A3029F46DE0C7013C87A4
:102A500090DE3C85632FC7018CDEE2CF512C312CF8
:102A600020E02032A0F43B3269F030F4303259F0EB
:102A7000333269F420612CC03D3239F0303339F4FF
:102A8000216026C02260246023C0286021C027FD69
:102A900028C080ED830F8A3078F426FF06C0FAE064
:102AA0005F9E800D1124582E13C09AE0399E800D30
:102AB0001124382E20620CC03E3221F426FD50C174
:102AC000206406C03C3611F4206802C0383649F450
:102AD000F60120FC359120FE31916F013111C1CFFB
:102AE0008FC0333629F0333769F0333509F156C0DA
:102AF000F801808189830E5F1F4F44244394512C39
:102B0000540114C03801F2E06F0E711CF801A0806E
:102B1000B18026FF03C0652D70E002C06FEF7FEF2C
:102B2000C5012C87AAD12C0183012C852F7715C0D4
:102B30003801F2E06F0E711CF801A080B18026FF11
:102B400003C0652D70E002C06FEF7FEFC5012C87D9
:102B500060D12C012C852068830123FD1BC0832DAF
:102B600090E048165906B0F460E2C7012C8701DEF8
:102B70003A942C85F4CFF50127FD659127FF6191EB
:102B80005F01C7012C87F5DD2C8531103A94F1E007
:102B90004F1A51084114510471F7DAC0343611F05C
:102BA000393639F5F80127FF07C0608171818281CC
:102BB00093810C5F1F4F08C060817181072E000C4C
:102BC000880B990B0E5F1F4F2F76722E97FF09C04F
:102BD00090958095709561957F4F8F4F9F4F20689E
:102BE000722E2AE030E0A4010E94A002A82EA818AC
:102BF00044C0353729F42F7EB22E2AE030E025C0BC
:102C0000F22FF97FBF2E3F36C1F018F4383579F036
:102C1000A7C0303719F0383721F0A2C02F2F20611C
:102C2000B22EB4FE0DC08B2D8460B82E09C024FFD7
:102C30000AC09F2F9660B92E06C028E030E005C07C
:102C400020E130E002C020E132E0F801B7FE07C029
:102C500060817181828193810C5F1F4F06C060810A
:102C6000718180E090E00E5F1F4FA4010E94A002DE
:102C7000A82EA818FB2DFF777F2E76FE0BC0372DD0
:102C80003E7FA51450F474FE0AC072FC08C0372DB4
:102C90003E7E05C0BA2C372D03C0BA2C01C0B52C1E
:102CA00034FF0DC0FE01EA0DF11D8081803311F467
:102CB000397E09C032FF06C0B394B39404C0832F99
:102CC000867809F0B39433FD13C030FF08C0B31405
:102CD00028F4532C5A0C5B18B32C01C05A2CB31493
:102CE00058F460E2C7013C8744DDB3943C85F7CFDC
:102CF000B31410F43B1801C0312C34FF0DC060E355
:102D0000C7013C8736DD3C8532FF12C031FD02C071
:102D100068E70CC068E50AC0832F867849F031FF68
:102D200002C06BE201C060E237FD6DE2C70121DD48
:102D3000A51428F460E3C7011CDD5A94F9CFAA94C6
:102D4000F401EA0DF11D6081C70113DDA110F7CF79
:102D5000332009F465CE60E2C7010BDD3A94F8CF69
:102D60002C960FB6F894DEBF0FBECDBFDF91CF918A
:102D70001F910F91FF90EF90DF90CF90BF90AF9099
:102D80009F908F907F906F905F904F903F902F908B
:102D900008951F93FC0199278827BC01E89411919D
:102DA0001032E9F3193010F01E30C8F31B3249F02D
:102DB0001D3241F4689405C06BD0610F711D811DF7
:102DC000911D119110531A30B8F33EF490958095EF
:102DD000709561957F4F8F4F9F4F1F910895F89485
:102DE000C4C1FB01DC014150504088F08D91813419
:102DF0001CF08B350CF4805E659161341CF06B35F2
:102E00000CF4605E861B611171F3990B0895881BA9
:102E1000FCCFFC010590615070400110D8F78095FF
:102E200090958E0F9F1F0895FB0155915523A9F092
:102E3000BF01DC014D9145174111E1F759F4CD0176
:102E40000590002049F04D9140154111C9F3FB0157
:102E50004111EFCF81E090E001970895FB01DC0183
:102E60004150504048F001900D920020C9F701C038
:102E70001D9241505040E0F70895FC0161507040B0
:102E800001900110D8F7809590958E0F9F1F08959F
:102E9000592F482F372F262F660F771F881F991F0E
:102EA000660F771F881F991F620F731F841F951F5E
:102EB000660F771F881F991F089504D06894B11179
:102EC00078C008955BD088F09F5790F0B92F99276C
:102ED000B751A0F0D1F0660F771F881F991F1AF025
:102EE000BA95C9F712C0B13081F062D0B1E008954F
:102EF0005FC0672F782F8827B85F39F0B93FCCF3D0
:102F0000869577956795B395D9F73EF4909580951A
:102F1000709561957F4F8F4F9F4F089597F99F67E9
:102F200080E870E060E008959FEF80EC0895002451
:102F30000A941616170618060906089500240A941E
:102F400012161306140605060895092E0394000CA4
:102F500011F4882352F0BB0F40F4BF2B11F460FF33
:102F600004C06F5F7F4F8F4F9F4F089557FD90585C
:102F7000440F551F59F05F3F71F04795880F97FB3D
:102F8000991F61F09F3F79F08795089512161306F7
:102F90001406551FF2CF4695F1DF08C01616170626
:102FA0001806991FF1CF869571056105089408955B
:102FB000E894BB2766277727CB0197F908950BD0B4
:102FC000C4CFB5DF28F0BADF18F0952309F0A6CFFB
:102FD000ABCF1124EECFCADFA0F3959FD1F3950FAD
:102FE00050E0551F629FF001729FBB27F00DB11D8D
:102FF000639FAA27F00DB11DAA1F649F6627B00D1D
:10300000A11D661F829F2227B00DA11D621F739F05
:10301000B00DA11D621F839FA00D611D221F749F13
:103020003327A00D611D231F849F600D211D822F5A
:10303000762F6A2F11249F5750408AF0E1F08823A1
:103040004AF0EE0FFF1FBB1F661F771F881F9150AE
:103050005040A9F79E3F510570F060CFAACF5F3F67
:10306000ECF3983EDCF3869577956795B795F795E1
:10307000E7959F5FC1F7FE2B880F911D9695879569
:1030800097F90895A1E21A2EAA1BBB1BFD010DC0E2
:10309000AA1FBB1FEE1FFF1FA217B307E407F50708
:1030A00020F0A21BB30BE40BF50B661F771F881FE4
:1030B000991F1A9469F760957095809590959B017A
:1030C000AC01BD01CF010895052E97FB16F40094C5
:1030D0000FD057FD05D0D6DF07FC02D046F408C05C
:1030E00050954095309521953F4F4F4F5F4F089534
:1030F00090958095709561957F4F8F4F9F4F089564
:10310000EE0FFF1F0590F491E02D099409D0A59FC3
:10311000900DB49F900DA49F800D911D11240895D2
:10312000A29FB001B39FC001A39F700D811D112408
:10313000911DB29F700D811D1124911D0895F99963
:10314000FECF92BD81BDF89A992780B50895262FAC
:10315000F999FECF1FBA92BD81BD20BD0FB6F8947C
:10316000FA9AF99A0FBE0196089512E0C1E3D2E0EF
:1031700003C0FE01C5DF2196C233D107D1F7F89411
:02318000FFCF7F
:103182000FFA01B822000000000000000000000059
:10319200000000000000000000000000000000002D
:1031A200000000000000000000000000000000001D
:1031B200000000000000000000000000000000000D
:1031C20000000000000000000000000000000000FD
:1031D20000000000000000000000000000000000ED
:1031E20000000000000000000000000000000000DD
:1031F20000000000000000000000000000000000CD
:10320200000000000000000A2320646F6E650007C2
:103212000140470140000000004311840FF612DA1A
:1032220012EB12240300000000B713840F791396E7
:10323200130F1324130D0A006F7666002E00000090
:1032420000004311840FF612DA12EB12240300007D
:103252000000B713840F791396130F132413000081
:0E3262000000F513840FF013F213EE13F413B3
:00000001FF
