:100000002BC2000051C200004FC200004DC20000D0
:100010004BC2000049C2000047C200000C94C51446
:1000200043C2000041C200000C94F5110C94591118
:100030000C94951239C2000037C2000035C200008E
:100040000C940D0E31C2000039C300005DC30000E6
:100050002BC2000029C2000027C2000025C20000F8
:1000600023C2000021C20000040908091A0930094E
:1000700027093B0946095A096F099409940944451F
:1000800041435400436F6E6E656374696E672074FC
:100090006F20554450205365727665720041504E72
:1000A0002053657400526567697374657265643ABC
:1000B000205374617274696E6720436F6E6669675E
:1000C00075726174696F6E0053494D38303020523B
:1000D000656164792026204C6F6164696E67004910
:1000E0006E697469616C697A696E672E2E2E005490
:1000F000696D65723253657269616C2073706565F4
:100100006420746573742076313233343536373871
:10011000393020693D25640A003E0A0053003D0045
:1001200052003D005B434F4E4649475D0A00520076
:100130003D0052003D005B434F4E4649475D0A007B
:1001400067736D2D6D6F64656D0A004F4B00434FF3
:100150004E4E45435400222C002B434950535441EA
:1001600052543D22554450222C22004F4B002B4329
:100170004C504F52543D22554450222C002B4349A1
:10018000465352002E004F4B002B43494943520027
:100190002B435354543D22696E7465726E6574220C
:1001A0002C22222C2222002B43474154543F004F43
:1001B0004B0043474154543A2031002B43495043AC
:1001C0004346473D382C31302C3430302C302C30E5
:1001D0002C3436302C3530002B4349504D4F44459C
:1001E0003D31002B4349504D55583D30002B43477E
:1001F000455245503D32002B43495552433D310055
:100200002B4353434C4B3D30002B43534D494E53EE
:100210003D31002B43534E533D34002B4352433D5D
:1002200031002B43523D31002B434D45453D3200BB
:100230002B435245473D32002B435553443A00234C
:10024000220041542B435553443D312C2200444558
:10025000414354004552524F520023004154002361
:100260003E20415400232077616E743A2025530AC2
:10027000004445414354003C20002B4346554E3D2D
:10028000312C31002B43504F57443D3100444F57E0
:100290004E002B434E45544C494748543D30002BAB
:1002A0004346554E3D312C31002B4343414C523F88
:1002B000004343414C523A2031002B435343423DCB
:1002C00031002B4346554E3D3100453020563120FC
:1002D00058312053303D300000435245473A2030DA
:1002E0002C00327C8900EDD96877000000590000AD
:1002F000000000000000D69FDCA81817AA904373E6
:1003000027F6B968EDF4DED409FEE61C1C84DDE8AE
:100310000B992927D6DF8D210F036418EFEE1E9964
:10032000B7825276941500347C000026149E988F74
:100330000000006A31168F8C059600E7B73F360043
:10034000000000000000AF669ED0385D8A6C20B9C6
:100350005422007CED044C80387486EDCBFA57CBE8
:10036000DC19E2001DDF5506E5CB01C300000000EB
:1003700000000000009AB20086DBD0BC54161315B2
:1003800086004E44BD7F6F151590010000B500003A
:10039000000000002F000034E50000000000000015
:1003A0000000004700000000000000000000000006
:1003B000000000000000000000000000000000003D
:1003C000000000000000000000000000000000002D
:1003D0000000005A00000000000008CC31AA2C5395
:1003E0002E0063726173683A001C383D43413A0045
:1003F0004F4B004350494E3A205245414459002B3F
:10040000435245473F002B4350494E3F00010204F1
:100410000810204080010204081020010204081086
:10042000200404040404040404020202020202037D
:10043000030303030300000000230026002900003B
:10044000000000250028002B0000000000240027E9
:10045000002A0000F00D060E11241FBECFEFD8E0D9
:10046000DEBFCDBF12E0A0E0B1E0ECE7F1E302C0F7
:1004700005900D92A430B107D9F725E0A4E0B2E0D1
:1004800001C01D92AD37B207E1F712E0CBE2D2E036
:1004900004C02197FE010E947D18CA32D107C9F716
:1004A0000E94AD100C94EC16ABCDCF92DF92EF9280
:1004B000FF920F931F93E82FF92F05C001501109E8
:1004C0002109310961F1908196239417B9F305C090
:1004D000015011092109310911F1908196239413DA
:1004E000F7CFC12CD12CE12CF12C0AC08FEFC81A08
:1004F000D80AE80AF80A0C151D052E053F0579F003
:1005000080818623841791F36C2D7D2D8E2D9F2D58
:100510001F910F91FF90EF90DF90CF90089560E0D2
:1005200070E080E090E01F910F91FF90EF90DF90DE
:10053000CF900895FA01AA27283051F1203181F196
:10054000E8946F936E7F6E5F7F4F8F4F9F4FAF4FDB
:10055000B1E03ED0B4E03CD0670F781F891F9A1FEE
:10056000A11D680F791F8A1F911DA11D6A0F711DA2
:10057000811D911DA11D20D009F468943F912AE0AE
:10058000269F11243019305D3193DEF6CF01089596
:10059000462F4770405D4193B3E00FD0C9F7F6CFC7
:1005A000462F4F70405D4A3318F0495D31FD40528F
:1005B000419302D0A9F7EACFB4E0A6959795879525
:1005C00077956795BA95C9F7009761057105089504
:1005D0009B01AC010A2E06945795479537952795B0
:1005E000BA95C9F7620F731F841F951FA01D089548
:1005F000FB012081822790E1899F90011124282707
:10060000822F90E0582F44279C0163E0220F331F74
:100610006A95E1F742275327218130E024273527C7
:1006200074E0959587957A95E1F7822793279183D2
:10063000808308959C01862FB901DACF0C94F011C4
:100640000895EF92FF920F931F93CF93DF931F9222
:10065000CDB7DEB77C018B01081B190B442361F079
:10066000C8018E0D9F1D49830E949C18F70181933C
:100670007F0149814150F2CF0F90DF91CF911F91BF
:100680000F91FF90EF900895EF92FF921F93CF93F9
:10069000DF937C01C62FD72F142F160F1C1741F0A4
:1006A000F70161917F01CE010E94A4182196F6CF37
:1006B000DF91CF911F91FF90EF9008951F920F92BD
:1006C0000FB60F9211242F938F939F93EF93FF9365
:1006D0009091C600809173058F5F8F77209174058C
:1006E000821741F0E0917305F0E0EF50FB4F9083EB
:1006F00080937305FF91EF919F918F912F910F90B0
:100700000FBE0F901F9018951F920F920FB60F9269
:1007100011248F939F93EF93FF9390917205809193
:100720007105981779F0E0917205F0E0EF51FB4FF9
:1007300080818093C600809172058F5F8F70809357
:10074000720505C08091C1008F7D8093C100FF912B
:10075000EF919F918F910F900FBE0F901F90189562
:10076000CF9361E08CE00E94290F0E948D13C82F67
:100770008091AC03882319F08C2F0E94021160E055
:100780008CE00E94290F8C2FCF9108950F931F9317
:10079000CF93DF93EC018B010E94570EDC01CB015C
:1007A000800F911FA11DB11D88839983AA83BB83EC
:1007B000DF91CF911F910F910895FC011382128256
:1007C0002FEA31E0318320830895CF92DF92EF92B8
:1007D000FF92CF93DF936A017B01E901BC0188EAB4
:1007E00093E00E94D3132AE030E0B701A60188EA23
:1007F00093E00E948610BE0188EA93E00E94D31322
:10080000DF91CF91FF90EF90DF90CF90089561E05E
:1008100070E080E090E00C94880E6AE070E080E088
:1008200090E00C94880E62E370E080E090E00C941D
:10083000880EF9DFF8CFFDDFFCDFFBCF60E086E05C
:100840000E94290FF8DF61E086E00E94290FF1CFB6
:1008500068EE73E080E090E00C94880E60E08AE03F
:100860000E94290FF5DF61E08AE00E94290FF0CF96
:1008700080919602882341F0E1DFF0DF8AE792E081
:1008800042D1EE27FF27099408951F93CF93DF935A
:10089000C8E9D2E00E94FF12882359F167E772E0AD
:1008A00088EA93E00E94D3138DEA93E00E94081334
:1008B0008823E9F00E94DA12182F682F88EA93E063
:1008C0000E94D90F188361E772E088E992E00E94E4
:1008D00011179093940280939302892B09F0C8DF3B
:1008E0001A3011F02196E0CFC8E9D2E0DDCF95DFD4
:1008F000D1CFDF91CF911F9108957F928F929F92D8
:10090000AF92BF92CF92DF92EF92FF920F931F931D
:10091000CF93DF936C017B01EA010E94570E4B01DC
:100920005C018C0E9D1EA11CB11C109292021092B3
:100930009102D1E0E114F10409F0D0E061E08BE034
:100940000E94290F76DF60E08BE00E94290F6AE5A4
:1009500072E088EA93E00E94D313C0E008E912E055
:100960005CDF0E94FF12882309F45DC061E08CE027
:100970000E94290F0F5F1F4F0E94DA12782EF80194
:1009800031978083F8011082682F88EA93E00E94F3
:10099000D90FFAE07F1205C063E288EA93E00E9473
:1009A000D90F0E94FF128111E5CF60E08CE00E9418
:1009B000290FC11127C0B60188E992E00E941117E2
:1009C0009093940280939302892B71F464E572E012
:1009D00088E992E00E941117909394028093930209
:1009E000892B19F0C3E001C0C1E06EE472E088E930
:1009F00092E00E9411179093940280939302892BA6
:100A000009F036DFE114F10491F0B70188E992E0D2
:100A10000E9411179093920280939102D1E0892B4A
:100A200031F4D0E004C0CC2311F0D11108C00E94F1
:100A3000570E681579058A059B0508F491CFC09378
:100A400097028C2FDF91CF911F910F91FF90EF9024
:100A5000DF90CF90BF90AF909F908F907F90089540
:100A6000CF92DF92EF92FF920F931F93CF93DF937A
:100A70008C01D62FC72F7A01690107DFCF93DF934F
:100A800085E692E09F938F9388EA93E09F938F93FC
:100A90000E94F0136FE572E088EA93E00E94D3139E
:100AA000B80188EA93E00E94E7136CE572E08DEAF2
:100AB00093E00E94D313B8018DEA93E00E94E713FC
:100AC000A601B7018D2F9C2F18DF91E00F900F909A
:100AD0000F900F900F900F90813009F090E0892FC8
:100AE000DF91CF911F910F91FF90EF90DF90CF900A
:100AF000089520E137E2B4CF9A0140E050E0B0CF52
:100B000040E157E2F9CF60EF73E0FACF80E392E083
:100B1000FADF882309F438C088E292E0F4DF882302
:100B200099F182E292E0EFDF882371F18BE192E0AC
:100B3000EADF882349F183E192E0E5DF882321F1B0
:100B400089E092E0E0DF8823F9F080E092E0DBDFEB
:100B50008823D1F087EF91E0D6DF8823A9F08DEECE
:100B600091E0D1DF882381F083EE91E0CCDF882310
:100B700059F088ED91E0C7DF882331F08BEB91E0ED
:100B8000C2DF91E0811101C090E0892F0895AB018F
:100B900060EF73E0B1CFCF93C9E168EC70E088ED0E
:100BA00092E0F5DF811103C0C150B9F701C081E0C7
:100BB000CF91089568EC70E082E992E0E8DF48ECBC
:100BC00050E06DE872E084E892E096DF0E940F1337
:100BD000E4E6F0E0808188608083109295020895B9
:100BE00020E63AEE42EB51E06FEA71E087EA91E0ED
:100BF00037DF882331F080E991E085DF91E08111D2
:100C000001C090E0892F0895AB0160E070E075CEDF
:100C1000AF92BF92DF92EF92FF920F931F93CF9309
:100C2000DF931F92CDB7DEB78C012FDED12C62E4AB
:100C300072E08DEA93E00E94D313DD2011F06AE2A6
:100C400001C063E28DEA93E00E9455114AE050E052
:100C5000B8018DEA93E00E9493106FE372E08DEA91
:100C600093E00E94E71368E97AE388E392E0CCDF3F
:100C7000813039F0D11003C0DD24D394D8CF80E087
:100C80005EC08983D8DDA0919302B09194025D018A
:100C900096E0A90EB11C50E0E4EEF3E020E030E075
:100CA00060E040E07DE28981D5019D915D0199235D
:100CB00009F444C0923221F4611141C061E0F4CFE3
:100CC000662391F3DD20B1F1890124E0000F111FAB
:100CD0002A95E1F791360CF0905230ED390F3A3009
:100CE00014F039EC390F7801E30EF11C37FDFA945A
:100CF00097014F5F4430C1F69E2D052F10E007513C
:100D00001C4FD8014C91E41202C05F5F07C05630FF
:100D100021F470831182319601C050E02F3F3105DC
:100D200029F020F020E030E040E0BECF9083118237
:100D30003196F8CF908311823196B6CF862F0F90DF
:100D4000DF91CF911F910F91FF90EF90DF90BF90B7
:100D5000AF900895CF93DF93EC0168EB7BE089E8D7
:100D600091E015DF8823F9F046E851E064E871E08E
:100D70008DE791E0BEDE8823B1F087DD6EE671E09D
:100D80008DEA93E00E94D3134AE050E0BE018DEA61
:100D900093E00E94981068EE73E08BE691E034DFF8
:100DA00091E0813009F090E0892FDF91CF91089593
:100DB0000F931F93CF93DF938C01EB0166DD69E501
:100DC00071E08DEA93E00E94D313B8018DEA93E0BD
:100DD0000E94D70F66E571E08DEA93E00E94D3137D
:100DE0004AE050E0BE018DEA93E00E94981048EB83
:100DF0005BE06EE471E08BE491E07FDD813019F41B
:100E00008093960201C080E0DF91CF911F910F91F6
:100E10000895CF93CDE3C150B1F049ED52E060EFBA
:100E200073E08FEF93E065DE882369F0E091910233
:100E3000F09192028085833331F0853331F0813334
:100E400021F006DDE8CF80E001C081E0CF91089578
:100E5000CF9320919502211152C09B01AC0180914A
:100E60006400877F80936400DA01C901B695A79575
:100E700097958795BC01CD017E5E85489F4F0E9466
:100E80003F18CA01B9010E94B210E8DCCBE083DE52
:100E90008823E1F08AEC92E036DE82EC92E033DEE9
:100EA0008AEB92E030DE63EF73E086E094E028DEC8
:100EB000882371F0AEDF882359F061EB72E089EA94
:100EC00092E01EDE982F882319F01BC0B7DCC6DC29
:100ED0008FE992E018DEBCDCBBDCBADCB9DCB8DC44
:100EE000C150A9F60E940F1380916400886080931E
:100EF000640090E081E0911108C080E006C081E0CC
:100F000004C081E080939502F5CFCF91089560E011
:100F100076E980E090E09CCF0F931F93CF93DF930F
:100F200000D000D0CDB7DEB742E062E070E0CE0185
:100F3000019687DB89819A810B9791F58FEF9FEF5F
:100F40009093BA038093B9038CE990E09A838983E4
:100F5000CE0103969C838B8304E010E089819A8103
:100F6000892B71F0C8010E949C1869EB73E040DB8B
:100F700089819A8101979A8389830F5F1F4FEECFF2
:100F800042E060E070E0CE0101965BDB81E04981E8
:100F90005A812091B9033091BA034217530709F0DF
:100FA00080E00F900F900F900F90DF91CF911F91E5
:100FB0000F9108954CE964E070E083E091E041CB4B
:100FC000EF92FF921F93CF93DF938FEF9FEF90935A
:100FD000BA038093B90383E0E82E81E0F82EC4E0E1
:100FE000D0E0F70111917F01612FCE010E94A4187A
:100FF00069EB73E0812FFCDA2196C03AD10589F7BD
:1010000042E060E070E089EB93E03EDB8BE090E053
:101010009093BA038093B90342E062E070E089EBF9
:1010200093E032DBDF91CF911F91FF90EF90089515
:10103000CF92DF92EF92FF92CF93DF9364E271E061
:1010400088EA93E00E94D31322E231E040E050E0CE
:10105000BA0180E291E0B9DB4091030150910401B3
:1010600060910501709106012AE030E088EA93E082
:101070000E947610CFE9D1E0C12CD12C7601C39427
:101080002EE131E0B701A6018CE191E09EDBFE018B
:101090006591749188EA93E097D78FEFC81AD80AC0
:1010A000E80AF80A239685E0C816D104E104F104A1
:1010B00039F769E171E088EA93E00E94D313DF9188
:1010C000CF91FF90EF90DF90CF90089560E082E0A5
:1010D000C0D668EE73E080E090E01AD661E082E06E
:1010E000B8D660ED77E080E090E012D660E082E074
:1010F000B0D668EB7BE080E090E00AD681E008950E
:101100008A3051F08D3041F0E0910101F0910201FF
:1011100092E0EF38F907B8F045E050E06EE770E094
:1011200080E192E00E94EE16892B31F4CFDF882314
:1011300019F060E083E08DD680E192E090930201A7
:101140008093010108959F012F5F3F4F309302016B
:101150002093010180830895CF930E94FF1288237A
:1011600069F061E08BE075D60E94DA12C82F0E9408
:10117000AA138C2FC5DF60E08BE06BD6CF9108956A
:101180008091AC038111E8DF0C947E132F923F9283
:101190004F925F926F927F928F929F92AF92BF9287
:1011A000CF92DF92EF92FF920F931F93CF93DF9333
:1011B00010922D04712CD1E001E010E086E0282E81
:1011C000312C95E0492E512C24E0C22ED12C32E056
:1011D000A32EB12C88248A94982C52E3652ED0DF5C
:1011E000882309F450C2BCDAC82F1092040220915F
:1011F0000702309108022B30310508F0AEC0F9012A
:10120000EC5CFF4F0C947D1810920F0210920E02AE
:10121000CE3F29F010930802009307029EC0B092BF
:101220000802A092070210929B029092990280926B
:10123000980293C080939B0210920902682F88E95C
:1012400092E0F8D9D0920802C092070286C080933B
:101250009C02682F88E992E0EDD983E090E022C0FB
:1012600080939D02682F88E992E0E4D950920802A9
:101270004092070272C080939E02682F88E992E034
:10128000D9D9309208022092070267C080939F024A
:10129000682F88E992E0CED980919B02811107C026
:1012A00088E090E0909308028093070256C087E0A0
:1012B00090E0F8CFE091090281E08E0F809309025F
:1012C000F0E0E056FD4FC0836C2F88E992E0B2D980
:1012D0009091090280919B0298133FC0E1CFE09169
:1012E0009F02F0E0EE51FD4F649188E992E0A2D9AF
:1012F0002C2F30E08091980290919902992728171D
:10130000390731F0CE3F09F48ACF8AE090E0CACFA6
:1013100089E090E09093080280930702E09109022F
:10132000F0E0E056FD4F18C0482F50E0E0909902E1
:10133000F12C4E155F0509F06BCF2A30310509F409
:1013400067CFD09304021093080200930702E09144
:101350000902F0E0EF55FD4FC083209104022223E3
:1013600099F080919C0280930A0280910C029091E6
:101370000D02009721F410920F0210920E020196B6
:1013800090930D0280930C0210920602222309F41E
:1013900072C160E070E080EE93E0F8D9D0932D0444
:1013A000D093300480919F02882309F45DC090910E
:1013B000DF03992321F020919D02921364C18E33A3
:1013C00009F424C190F4883109F463C08E3109F422
:1013D0008DC0813009F04FC18091AE029091AF0273
:1013E0009093C0038093BF0346C1893609F4A8C017
:1013F0008D3F09F425C18A3409F03DC18091B202C4
:101400008093DC0320E030E048EC52E46091A802D5
:101410007091A9028091AA029091AB020E94DC1700
:101420000E945A176093D8037093D9038093DA030C
:101430009093DB0320E030E048EC52E46091AC0292
:101440007091AD028091AE029091AF020E94DC17C4
:101450000E945A176093D4037093D5038093D603E8
:101460009093D703B9D307C18091A402863009F4C1
:1014700002C180919D028093DF038091A00280933E
:10148000CF038091A602881F8827881F8093340489
:10149000F2C08091A8029091A902A091AA02B091F5
:1014A000AB028093250490932604A0932704B09365
:1014B00028048091AC029091AD02A091AE02B0914F
:1014C000AF028093290490932A04A0932B04B09335
:1014D0002C048091BC028093DD038091BD02809337
:1014E000DE03D093350477247394C5C021EE3EE229
:1014F00045E652E46091A8027091A9028091AA0287
:101500009091AB020E94DC170E945A177093D3038C
:101510006093D20321EE3EE245E652E46091A402DC
:101520007091A5028091A6029091A7020E94DC17FB
:101530000E945A177093D1036093D0034ED39BC07F
:101540008091C7039091C803A091C903B091CA03C9
:101550008093BB039093BC03A093BD03B093BE03E1
:1015600020E030E048EC52E46091D4027091D50262
:101570008091D6029091D7020E94DC170E945A17E0
:101580006093C7037093C8038093C9039093CA0301
:1015900020E030E04AE754E46091A8027091A9028B
:1015A0008091AA029091AB020E94DC170E945A1708
:1015B0007093C6036093C50320E030E04AE754E42B
:1015C0006091AC027091AD028091AE029091AF0239
:1015D0000E94DC170E945A177093C4036093C303E0
:1015E00020E030E04AE754E46091B0027091B1022B
:1015F0008091B2029091B3020E94DC170E945A17A8
:101600007093C2036093C103E9D235C020E030E09B
:1016100048EC52E46091A8027091A9028091AA025C
:101620009091AB020E94DC170E945A176093CB0383
:101630007093CC038093CD039093CE03D0D21BC084
:101640008091A0028430B8F4E1EAF2E0A4EEB3E0C5
:10165000862D01900D928A95E1F71092160446E0CE
:1016600050E062EE73E084EE93E00E94EE16892B68
:1016700011F4D09336040E947E138111B0CD8AEA12
:1016800090E07FD3ACCD872DDF91CF911F910F914B
:10169000FF90EF90DF90CF90BF90AF909F908F9092
:1016A0007F906F905F904F903F902F900895CF92D2
:1016B000DF92EF92FF92CF93DF93809130048823E3
:1016C00031F064DD909130049093310473C08091C7
:1016D00031048111F6CF0E947B1361E08BE0B9D316
:1016E00061E08CE0B6D3E3D26B017C0124E6C20E4C
:1016F000D11CE11CF11CDAEFCFEF24EC39E040E023
:1017000050E060E080E0C6D36F3F71058105910530
:1017100009F05CF4662349F06C1708F4C62FC7D2B1
:10172000C616D706E806F90610F0D15031F7CF3FBC
:1017300019F4C091000102C0C0930001CB3078F0D1
:10174000C33190F0CD31A8F0C832C0F0CC33D8F01E
:10175000C639F0F060EC72E180E090E01DC060E01E
:1017600072EC81E090E018C060E071EE80E090E003
:1017700013C060E076E980E090E00EC060E870E7BA
:1017800080E090E009C060E07BE480E090E004C08D
:1017900060E875E280E090E07AD760E08CE059D3B1
:1017A00060E08BE056D381E0809331048091370470
:1017B000811187CFDF91CF91FF90EF90DF90CF9095
:1017C0000895EF92FF920F931F93CF938C017B01AB
:1017D000C0E0D6DC811108C0E114F10419F0F70172
:1017E0000995F7CF14D8F5CF0E94B0038D3051F48E
:1017F000F801EC0FF11D1082CF911F910F91FF9016
:10180000EF900895CC2319F08A3019F4F1CF8A3083
:1018100001F3F801EC0FF11D8083C034D0F6CF5FE7
:10182000D8CF60E070E0CDCFBF92CF92DF92EF9241
:10183000FF920F931F93CF93DF93CDB7DEB7CC59B1
:10184000D1090FB6F894DEBF0FBECDBF8CE9E3E03F
:10185000F1E0DE01119601900D928A95E1F761E0C9
:101860008CE0F7D261E08BE0F4D260E071EE80E0D2
:1018700090E00DD760E471E088EA93E094D788EABD
:1018800093E09FD305E113D26B017C0128EBC20EDC
:101890002BE0D21EE11CF11C10E009D26C157D0575
:1018A0008E059F0588F46CDC8823B9F30E94B00391
:1018B0001A3008F0BAC0E12FF0E0E05CFE4FE4918E
:1018C0008E13EACF1F5FE9CF193009F0AEC024DBD9
:1018D000811101C075DB6EDB9CE9B92E66E371E016
:1018E00088EA93E060D7A4DB84EE93E09ADF10915E
:1018F000E403112309F43EC08091E50381113AC04D
:101900001D36C1F030F4143651F0173639F7FFDACE
:101910001AC0113709F4A6C0173751F0DFCFFE0106
:101920003196A3E0B1E08B2D01900D928A95E1F7FD
:1019300047DBD4CF84E690E06BD964EE73E088EAAD
:1019400093E035D3CBCF6CEA78E084EE93E039DFD7
:1019500004EE13E0F80161918F018DEA93E06623B4
:1019600011F0A3D4F7CF2DD38091E4038111EBCFF5
:1019700021D9B4CF85EE93E00E94C6166B017C019D
:10198000062F1C3419F0133539F1A8CF623008F056
:10199000A5CF24E331E0AB01BC01552766277727AB
:1019A00082E391E00E94E50384EE93E03ADF8091C8
:1019B000E403882309F492CF84EE93E00E94C616D4
:1019C000F4E0CF9E90011124F901ED5FFE4F60839A
:1019D00071838283938382CF653008F07FCF20E3C9
:1019E00031E0AB01BC015527662777278EE291E0F5
:1019F0000E94E50384EE93E014DF043009F46ECF17
:101A0000D12CF601EE0FFF1FCF018C0D9D1DFC01A7
:101A1000E156FE4F428150E04150510964EE73E0BF
:101A2000808191810E942B1759CF76DA882311F09B
:101A3000C1DA18C0015011F4C3DA14C013E060E039
:101A40008BE007D20E941B0461E08BE002D260E0D1
:101A50008CE0FFD10E941B0461E08CE0FAD11150B0
:101A600071F711CF60E08CE0F4D160E08BE0F1D150
:101A700042D6C456DF4F0FB6F894DEBF0FBECDBFBF
:101A8000DF91CF911F910F91FF90EF90DF90CF905A
:101A9000BF9008950F931F93CF93DF9361E08CE085
:101AA0009CD161E08BE099D160E08CE0D2D161E023
:101AB00083E0CFD161E082E090D160E071EE80E020
:101AC00090E01ED760E071EE80E090E0C1D960E068
:101AD00071EE80E090E0DBD5A7DE60E08BE0B9D16D
:101AE0008AE0809378050FEE10E0C1EBD3E080919F
:101AF00078058F5F80937805809178051F928F938A
:101B00001F930F93DF93CF936BD6809178050F903F
:101B10000F900F900F900F900F908F3F41F761E063
:101B200083E05BD16FED70E081EB93E050D6EFD9AD
:101B3000811111C060E08BE08CD10E941B0461E038
:101B40008BE087D160E08CE084D10E941B0461E0CF
:101B50008CE07FD1EFCF68EC70E081EB93E037D67B
:101B6000C1E0C093900265EA70E081EB93E02FD66C
:101B70000E94860560ED77E080E090E0C9D083E7C1
:101B800091E02ED86DE970E081EB93E020D6809152
:101B9000030190910401DED864E870E081EB93E0EA
:101BA00016D6609103017091040187E491E000D999
:101BB00061E08CE04ED160E08BE04BD10E942804C4
:101BC00060E08CE046D1C093AC03DF91CF911F91D0
:101BD0000F9108956CCD089508950895089508957E
:101BE00085EB93E04CD544E060E081EB93E07FD659
:101BF0008DEA93E00E94DD0388EA93E040D58FEB05
:101C000091E09093A9038093A803089588ED91E053
:101C10009093AE038093AD0302C51F920F920FB64F
:101C20000F9211242F933F938F939F93AF93BF9362
:101C30008091390490913A04A0913B04B0913C0406
:101C40003091380426E0230F2D3720F40296A11D91
:101C5000B11D05C029E8230F0396A11DB11D2093D6
:101C600038048093390490933A04A0933B04B093D2
:101C70003C0480913D0490913E04A0913F04B091BA
:101C800040040196A11DB11D80933D0490933E0434
:101C9000A0933F04B0934004BF91AF919F918F9167
:101CA0003F912F910F900FBE0F901F9018952FB757
:101CB000F8946091390470913A0480913B049091BA
:101CC0003C042FBF08953FB7F89480913D04909154
:101CD0003E04A0913F04B091400426B5A89B05C0E6
:101CE0002F3F19F00196A11DB11D3FBFBA2FA92F9B
:101CF000982F8827820F911DA11DB11DBC01CD0118
:101D000043E0660F771F881F991F4A95D1F7089502
:101D10008F929F92AF92BF92CF92DF92EF92FF92FB
:101D20006B017C01D0DF4B015C01C114D104E104E3
:101D3000F104F1F0AED0C7DFDC01CB0188199909BD
:101D4000AA09BB09883E9340A105B10570F321E0C3
:101D5000C21AD108E108F10888EE880E83E0981EC7
:101D6000A11CB11CC114D104E104F10421F7DDCFA1
:101D7000FF90EF90DF90CF90BF90AF909F908F90AB
:101D800008958330910528F0880F991F04970197D3
:101D9000F1F70895789484B5826084BD84B581603C
:101DA00084BD85B5826085BD85B5816085BDEEE663
:101DB000F0E0808181608083EAE7F0E080818460E8
:101DC000808380818260808380818E7F8083808118
:101DD000806880831092C1000895CF93DF9390E0D4
:101DE000FC01E35FFB4F2491FC01EF5DFB4F84910D
:101DF000882361F190E0880F991FFC01E75BFB4F9E
:101E0000C591D491FC01E15CFB4FA591B4916111A6
:101E100009C09FB7F8948881209582238883EC912C
:101E20002E230BC0623061F49FB7F8943881822F63
:101E3000809583238883EC912E2B2C939FBF06C023
:101E40008FB7F894E8812E2B28838FBFDF91CF9135
:101E5000089590E0FC01E35FFB4F2491FC01EF5DEE
:101E6000FB4FE491EE23A1F0F0E0EE0FFF1FE15CE9
:101E7000FB4FA591B4918FB7F894611105C09C9167
:101E8000E22FE095E92302C0EC91E22BEC938FBFA7
:101E9000089508950F931F9390E0FC01E35FFB4FBB
:101EA0007491FC01EF5DFB4FE491662311F0672F05
:101EB00001C060E0F0E0EE0FFF1FEB5CFB4F85918F
:101EC000949189019A01B3E0000F111F221F331F63
:101ED000BA95D1F744E036952795179507954A9519
:101EE000D1F7462F672F0E945502611571058105B4
:101EF0009105B1F0DC01CB010196A11DB11D24E0DB
:101F0000880F991FAA1FBB1F2A95D1F7BC01CD01CD
:101F100033E096958795779567953A95D1F703C005
:101F200060E070E0CB011F910F910895CF92DF9296
:101F3000EF92FF920F931F93CF93DF936C017A017F
:101F40008B01C0E0D0E0CE15DF0589F0D8016D919E
:101F50008D01D601ED91FC910190F081E02DC6013B
:101F60000995892B11F47E0102C02196ECCFC7019F
:101F7000DF91CF911F910F91FF90EF90DF90CF9065
:101F800008956115710581F0FB0101900020E9F7CA
:101F90003197AF01461B570BDC01ED91FC9102809C
:101FA000F381E02D0995089580E090E00895E9CF50
:101FB0000895DC01ED91FC910190F081E02D0995EF
:101FC00008956BEC71E0DDCF0F931F93CF93DF93F8
:101FD000EC01D7DF8C01CE01F4DF800F911FDF9180
:101FE000CF911F910F9108954F925F926F927F92C0
:101FF000EF92FF920F931F93CF93DF93CDB7DEB78E
:10200000A1970FB6F894DEBF0FBECDBF7C01FA01D9
:10201000CB0119A2223008F42AE08E010F5D1F4F78
:10202000422E512C612C712CBF01A30192010E9400
:102030003F18F901CA01015011096A3014F4605DBA
:1020400001C0695CD8016C93232B242B252B61F7ED
:10205000B801C70196DFA1960FB6F894DEBF0FBE98
:10206000CDBFDF91CF911F910F91FF90EF907F90A7
:102070006F905F904F900895CF92DF92EF92FF9212
:102080000F931F93CF93DF938C016A017B0121157E
:10209000310549F4DC01ED91FC910190F081E02DD6
:1020A000642F09951AC02A30310599F477FF10C0C2
:1020B0006DE27FDFEC0144275527BA014C195D0919
:1020C0006E097F092AE0C8018FDF8C0F9D1F05C0B4
:1020D0002AE0B701A601C80187DFDF91CF911F91E8
:1020E0000F91FF90EF90DF90CF9008950F931F9383
:1020F000CF93DF93EC01C0DF8C01CE0162DF800F54
:10210000911FDF91CF911F910F91089521153105F6
:1021100049F4DC01ED91FC910190F081E02D642FF8
:102120000995089561CF9A01AB0160E070E0EECFB0
:102130000F931F93CF93DF93EC019A01AB0160E003
:1021400070E0E4DF8C01CE013CDF800F911FDF9156
:10215000CF911F910F91089508951CDEFDDF9ADC49
:1021600039DDFECF9B01AC012D3A8BE138074105EB
:10217000510530F410926F001092800081E812C077
:1021800063E056954795379527956A95D1F72D3A8F
:102190008BE1380741055105A0F510926F001092B0
:1021A000800082E8809381003093E0042093DF0474
:1021B000A5E2B0E0A8D7DC01CB0122E0B695A79557
:1021C000979587952A95D1F79093D9048093D80451
:1021D00062E088E002DE61E089E03BDE61E089E008
:1021E000FCDD1092DE041092D7041092D6041092F7
:1021F0005504109252041092510480E286BB8093E1
:102200006F000895CF92DF92EF92FF92CF93DF930A
:10221000D82FC0915204CF5FCF7049DD6B017C0194
:1022200024E1C20ED11CE11CF11C809151048C13DD
:1022300008C03DDDC616D706E806F906B0F780E00F
:102240002DC02FB7F89480915504882341F0EC2FCE
:10225000F0E0EF5BFB4FD083C09352041DC081E0E0
:1022600080935504D09354041092530482E086BBAB
:1022700080916F00826080936F00809180008F73E7
:1022800080688093800080918400909185004096C2
:1022900090938900809388002FBF81E0DF91CF91D8
:1022A000FF90EF90DF90CF900895862FABDF90E006
:1022B00008951F920F920FB60F9211242F933F9300
:1022C0004F935F936F937F938F939F93EF93FF93BE
:1022D00080915504609154042091880030918900C8
:1022E0004091DF045091E004909153048A30F8F457
:1022F000240F351F893019F0762F717001C071E0FD
:1023000066958F5F791791F390918000772311F094
:10231000906C02C09F739068909380003093890006
:1023200020938800709353046093540448C0E09154
:102330005104909152049E1319C08A3051F48BE0DD
:1023400080935504240F351F309389002093880013
:1023500038C010925504809180008F738093800064
:1023600080916F008D7F80936F002BC0EF5FEF70C7
:10237000E0935104F0E0EF5BFB4F908190935404A5
:1023800010925304909180009F7390689093800006
:102390008A3059F48091DF049091E004280F391FAE
:1023A000309389002093880009C080918400909127
:1023B00085004096909389008093880081E0809307
:1023C0005504FF91EF919F918F917F916F915F9154
:1023D0004F913F912F910F900FBE0F901F90189526
:1023E000809155048111FCCF08951F920F920FB672
:1023F0000F9211242F933F934F935F936F937F938B
:102400008F939F93EF93FF93809186009091870025
:102410004091DC0420918100442331F02F7B2093F4
:1024200081001092DC0406C020642093810020E823
:102430002093DC043091DE04311125C0411166C0C7
:102440002091D8043091D904280F391F30938B0084
:1024500020938A0024E026BB20916F002460209303
:102460006F002091DF043091E004820F931F3695B6
:102470002795820F931F9093DB048093DA0481E009
:102480008093DE0443C04091DA045091DB04209134
:10249000DD04E091DC046091DF047091E004841BB2
:1024A000950B97FD2BC026952E2B460F571F3F5F90
:1024B000861B970B3930A8F32093DD0480916F00C1
:1024C0008B7F80936F008091D7048F5F8F7790917F
:1024D000D604891749F0E82FF0E09091DD04EA5A1C
:1024E000FB4F90838093D704809181008F7B8093F2
:1024F00081001092DC041092DE0408C02093DD04F9
:102500005093DB044093DA043093DE04FF91EF91A3
:102510009F918F917F916F915F914F913F912F91FB
:102520000F900FBE0F901F9018951F920F920FB62D
:102530000F9211242F938F939F93EF93FF9380918A
:102540006F008B7F80936F00809181008F7B8093E1
:1025500081008091DE042091DC0420589091DD04FC
:10256000893020F49695922B8F5FFACF9093DD04FB
:102570008091D7048F5F8F772091D604821739F02E
:10258000E82FF0E0EA5AFB4F90838093D704109233
:10259000DE04809181008F7B809381001092DC04A7
:1025A000FF91EF919F918F912F910F900FBE0F9000
:1025B0001F9018959091D6048091D704891751F0F7
:1025C0009F5F9F77E92FF0E0EA5AFB4F808190935D
:1025D000D604089580E00895EDCF0895E091D604E3
:1025E0008091D7048E1739F0EF5FEF77F0E0EA5A69
:1025F000FB4F8081089580E00895F0CF0895809189
:10260000D7049091D604891708F48058891B08953F
:10261000F6CF08958091D6048093D7040895CF9380
:10262000DF93CFE6D0E088818B7F888388818F7DA0
:102630008883F0DFD5DE88818D7F8883DF91CF911D
:1026400008959091C100892F807194FF0EC09091E0
:10265000730580917405981302C080E00895E0919D
:102660007405F0E0EF50FB4F80810895E3E7F5E05B
:1026700081818083E1E7F5E0808181830895FC0119
:102680001382128228EE31E03183208308959B016A
:10269000AC018091C10084FD1092C10010927205BE
:1026A000109271051092740510927305121613069C
:1026B00014061506CCF482E08093C00060E874E84C
:1026C0008EE190E0FED4CA01B9016150710981091F
:1026D000910922E030E040E050E0F3D4832F9927C5
:1026E0008093C5002093C40088E98093C10086E0F0
:1026F0008093C20008951092C10008959091C10086
:10270000892F807194FF06C08091730590917405A4
:10271000891B8F770895F2CF08959091C100892F7A
:10272000807194FF14C09091730580917405981383
:1027300002C080E00895E0917405F0E0EF50FB4F97
:102740008081909174059F5F9F77909374050895A1
:10275000E4CF08959091C10094FF18C09091710545
:102760009F5F9F70209172059217E1F3E0917105D0
:10277000F0E0EF51FB4F8083909371058091C10091
:1027800080628093C10081E090E0089580E090E055
:102790000895862FDFCFDC01ED91FC910190F0814F
:1027A000E02D099508950F931F93CF93DF938C012C
:1027B000FB016491EF012196662321F0C801EBDF54
:1027C000FE01F7CFDF91CF911F910F910895CF9325
:1027D000DF93EC01E8DFCE01F4DBDF91CF910895C8
:1027E000CF93DF93CDB7DEB79E01275F3F4F4F8179
:1027F000588561E08D819E81EFD0DF91CF91089562
:1028000080E0089580E0089580E008950895209183
:102810007805211108C021E030E0FC0133832283D8
:1028200080E090E0089580917805109276051092EE
:10283000B2008093B30082E08093B0008091750570
:102840008093B100B99A809170008260809370008B
:1028500010927705809177058823E1F388E0962F21
:102860009170909376056695109277059091770513
:102870009923E1F3815099F781E0809376051092D6
:102880007705809177058823E1F310927705809191
:1028900077058823E1F3109270001092B10081E077
:1028A00090E00895CF93C82F61E0D3DA61E08C2FD8
:1028B00094DA8C2F90E0FC01E35FFB4FE491E0930E
:1028C0007C0520917C05209520937B05FC01EF5D24
:1028D000FB4FE491F0E0EE0FFF1FE15CFB4F8591B1
:1028E000949190937A0580937905CF910895FC0196
:1028F000842F1382128228EF31E031832083D2CFDC
:102900000F939B01AC0121158BE43807410551055C
:1029100001F13CF4203885E2380741055105C9F042
:102920001DC0211586E938074105510559F02115CB
:1029300081EE38074105510589F482E080937505E1
:1029400008E010C082E0809375058AE180937805E5
:102950001AC083E08093750500E204C081E0809393
:10296000750501E060E072E18AE790E0AAD3CA0150
:10297000B901202F30E040E050E0A3D32093780548
:1029800081E0809377050F9108951F920F920FB603
:102990000F9211248F939F93EF93FF93809176056D
:1029A000E0917905F0917A05882329F080917C05E2
:1029B0009081892B04C080917B059081892380833D
:1029C00081E080937705FF91EF919F918F910F9018
:1029D0000FBE0F901F9018952F923F924F925F92CB
:1029E0006F927F928F929F92AF92BF92CF92DF921F
:1029F000EF92FF920F931F93CF93DF93CDB7DEB784
:102A00002C970FB6F894DEBF0FBECDBF7C01262EEB
:102A10006A018901CE0101964C01F60120FC359135
:102A200020FE31916F01332309F497C1353241F40F
:102A300020FC359120FE31916F01353261F407C0E1
:102A40003A3029F46DE0C7013C87A5DE3C85632F51
:102A5000C701A1DEE2CF512C312C20E02032A0F4BE
:102A60003B3269F030F4303259F0333269F420618E
:102A70002CC03D3239F0303339F4216026C0226059
:102A8000246023C0286021C027FD28C080ED830F6B
:102A90008A3078F426FF06C0FAE05F9E800D11248C
:102AA000582E13C09AE0399E800D1124382E2062D2
:102AB0000CC03E3221F426FD50C1206406C03C36D5
:102AC00011F4206802C0383649F4F60120FC359133
:102AD00020FE31916F013111C1CF8FC0333629F003
:102AE000333769F0333509F156C0F80180818983A5
:102AF0000E5F1F4F44244394512C540114C03801DD
:102B0000F2E06F0E711CF801A080B18026FF03C0B7
:102B1000652D70E002C06FEF7FEFC5012C87AAD151
:102B20002C0183012C852F7715C03801F2E06F0E40
:102B3000711CF801A080B18026FF03C0652D70E0F4
:102B400002C06FEF7FEFC5012C8760D12C012C856F
:102B50002068830123FD1BC0832D90E04816590691
:102B6000B0F460E2C7012C8716DE3A942C85F4CFCE
:102B7000F50127FD659127FF61915F01C7012C8752
:102B80000ADE2C8531103A94F1E04F1A51084114B5
:102B9000510471F7DAC0343611F0393639F5F801DD
:102BA00027FF07C060817181828193810C5F1F4F75
:102BB00008C060817181072E000C880B990B0E5F95
:102BC0001F4F2F76722E97FF09C0909580957095B4
:102BD00061957F4F8F4F9F4F2068722E2AE030E023
:102BE000A4010E949A02A82EA81844C0353729F4DF
:102BF0002F7EB22E2AE030E025C0F22FF97FBF2EC3
:102C00003F36C1F018F4383579F0A7C0303719F0E5
:102C1000383721F0A2C02F2F2061B22EB4FE0DC094
:102C20008B2D8460B82E09C024FF0AC09F2F9660A8
:102C3000B92E06C028E030E005C020E130E002C037
:102C400020E132E0F801B7FE07C060817181828126
:102C500093810C5F1F4F06C06081718180E090E01E
:102C60000E5F1F4FA4010E949A02A82EA818FB2DE8
:102C7000FF777F2E76FE0BC0372D3E7FA51450F4D4
:102C800074FE0AC072FC08C0372D3E7E05C0BA2C07
:102C9000372D03C0BA2C01C0B52C34FF0DC0FE0186
:102CA000EA0DF11D8081803311F4397E09C032FFB5
:102CB00006C0B394B39404C0832F867809F0B3940C
:102CC00033FD13C030FF08C0B31428F4532C5A0C42
:102CD0005B18B32C01C05A2CB31458F460E2C7013E
:102CE0003C8759DDB3943C85F7CFB31410F43B18FF
:102CF00001C0312C34FF0DC060E3C7013C874BDDC0
:102D00003C8532FF12C031FD02C068E70CC068E5A7
:102D10000AC0832F867849F031FF02C06BE201C000
:102D200060E237FD6DE2C70136DDA51428F460E3EB
:102D3000C70131DD5A94F9CFAA94F401EA0DF11DCF
:102D40006081C70128DDA110F7CF332009F465CEDB
:102D500060E2C70120DD3A94F8CF2C960FB6F894C4
:102D6000DEBF0FBECDBFDF91CF911F910F91FF90BE
:102D7000EF90DF90CF90BF90AF909F908F907F901B
:102D80006F905F904F903F902F9008951F93FC019C
:102D900099278827BC01E89411911032E9F3193082
:102DA00010F01E30C8F31B3249F01D3241F4689414
:102DB00005C06BD0610F711D811D911D11911053C4
:102DC0001A30B8F33EF490958095709561957F4FD9
:102DD0008F4F9F4F1F910895F894C4C1FB01DC01F0
:102DE0004150504088F08D9181341CF08B350CF4AB
:102DF000805E659161341CF06B350CF4605E861B5F
:102E0000611171F3990B0895881BFCCFFC010590AB
:102E1000615070400110D8F7809590958E0F9F1FDC
:102E20000895FB0155915523A9F0BF01DC014D9197
:102E300045174111E1F759F4CD010590002049F003
:102E40004D9140154111C9F3FB014111EFCF81E0D4
:102E500090E001970895FB01DC014150504048F09B
:102E600001900D920020C9F701C01D9241505040C1
:102E7000E0F70895FC016150704001900110D8F70F
:102E8000809590958E0F9F1F0895592F482F372FAB
:102E9000262F660F771F881F991F660F771F881FC1
:102EA000991F620F731F841F951F660F771F881F5E
:102EB000991F089504D06894B11178C008955BD02B
:102EC00088F09F5790F0B92F9927B751A0F0D1F013
:102ED000660F771F881F991F1AF0BA95C9F712C09D
:102EE000B13081F062D0B1E008955FC0672F782FD4
:102EF0008827B85F39F0B93FCCF386957795679509
:102F0000B395D9F73EF490958095709561957F4F74
:102F10008F4F9F4F089597F99F6780E870E060E0BA
:102F200008959FEF80EC089500240A941616170662
:102F300018060906089500240A94121613061406AA
:102F400005060895092E0394000C11F4882352F00D
:102F5000BB0F40F4BF2B11F460FF04C06F5F7F4FC5
:102F60008F4F9F4F089557FD9058440F551F59F0AC
:102F70005F3F71F04795880F97FB991F61F09F3F66
:102F800079F087950895121613061406551FF2CF8F
:102F90004695F1DF08C0161617061806991FF1CFDF
:102FA00086957105610508940895E894BB27662706
:102FB0007727CB0197F908950BD0C4CFB5DF28F060
:102FC000BADF18F0952309F0A6CFABCF1124EECFCE
:102FD000CADFA0F3959FD1F3950F50E0551F629F74
:102FE000F001729FBB27F00DB11D639FAA27F00D62
:102FF000B11DAA1F649F6627B00DA11D661F829F89
:103000002227B00DA11D621F739FB00DA11D621F6D
:10301000839FA00D611D221F749F3327A00D611D8A
:10302000231F849F600D211D822F762F6A2F11246C
:103030009F5750408AF0E1F088234AF0EE0FFF1FBF
:10304000BB1F661F771F881F91505040A9F79E3FF6
:10305000510570F060CFAACF5F3FECF3983EDCF3F0
:10306000869577956795B795F795E7959F5FC1F733
:10307000FE2B880F911D9695879597F90895A1E2EB
:103080001A2EAA1BBB1BFD010DC0AA1FBB1FEE1FE2
:10309000FF1FA217B307E407F50720F0A21BB30B2D
:1030A000E40BF50B661F771F881F991F1A9469F7A9
:1030B00060957095809590959B01AC01BD01CF0105
:1030C0000895052E97FB16F400940FD057FD05D0F8
:1030D000D6DF07FC02D046F408C0509540953095E5
:1030E00021953F4F4F4F5F4F089590958095709574
:1030F00061957F4F8F4F9F4F0895EE0FFF1F0590F3
:10310000F491E02D099409D0A59F900DB49F900DE6
:10311000A49F800D911D11240895A29FB001B39F1B
:10312000C001A39F700D811D1124911DB29F700DD0
:10313000811D1124911D0895F999FECF92BD81BD85
:10314000F89A992780B50895262FF999FECF1FBACE
:1031500092BD81BD20BD0FB6F894FA9AF99A0FBEC0
:103160000196089512E0CBE2D2E003C0FE01C5DF74
:0C3170002196CC32D107D1F7F894FFCFA4
:10317C000F1002B822000000000000000000000048
:10318C000000000000000000000000000000000033
:10319C000000000000000000000000000000000023
:1031AC000000000000000000000000000000000013
:1031BC000000000000000000000000000000000003
:1031CC0000000000000000000000000000000000F3
:1031DC0000000000000000000000000000000000E3
:1031EC0000000000000000000000000000000000D3
:1031FC0000000000000000000000000000000000C3
:10320C0000000000000000000000000000000007AB
:10321C00011017011047012C73012C000000005500
:10322C0011960F0813EC12FD121E0300000000C9CA
:10323C0013960F8B13A813211336130D0A006F76F8
:10324C0066002E00000000005511960F0813EC12BA
:10325C00FD121E0300000000C913960F8B13A81358
:10326C0021133613000000000714960F02140414E7
:04327C000014061420
:00000001FF
