:100000000C94BF020C94E7020C94E7020C94E702F4
:100010000C94E7020C94E7020C94E7020C945D1830
:100020000C94E7020C94E7020C944C150C94B01459
:100030000C94EF150C94E7020C94E7020C94E70281
:100040000C9474110C94E7020C94E7020C94E702F0
:100050000C94E7020C94E7020C94E7020C94E7027C
:100060000C94E7020C94E7025E06620672068E06A6
:1000700080069A06A606B906CF06F706F706FD0F14
:10008000C20F9F0F9F0F10109F0F9F0F9F0F9F0F6B
:100090009F0FD00FE80F9F0F9F0FE6109F0F9F0F2E
:1000A0009F0F9F0F9F0FCB0F436F6E6E656374653D
:1000B000642100436F6E6E656374696E6720746FB0
:1000C0002055445020536572766572004445414383
:1000D00054006578697420636F6E736F6C650A00F5
:1000E0006E6577207325643D25730A006E65772061
:1000F0007225643D25730A00636F6E6E656374201C
:10010000646F6E650A00636F6E6E6563742073744E
:100110006172740A004D6F64656D20636F6E6E6569
:1001200063746564204F4B210047534D204D6F642D
:10013000656D20636F6E6E6563746564204F4B213F
:1001400000756E6B6E6F776E00656570726F6D20F7
:1001500077726974650A005B434F4E4649475D0AF2
:1001600000435243210A00636F6E736F6C65204F2A
:100170004B00633D25780A00636F6E736F6C6500FA
:1001800067736D2D6D6F64656D000A255320302EE9
:1001900030370A0041504E2053657400526567693C
:1001A0007374657265643A205374617274696E6722
:1001B00020436F6E66696775726174696F6E005374
:1001C000494D3830302052656164792026204C6FCB
:1001D0006164696E6700496E697469616C697A6906
:1001E0006E672E2E2E00454550524F4D2077726976
:1001F000746520646F6E652100434F4E4E45435435
:10020000005D00636F6E6E656374205B00222C00DE
:100210002B43495053544152543D22554450222CB3
:1002200022002B434C504F52543D22554450222C17
:10023000002B4349465352002E002B434949435259
:1002400000222C22222C2222002B435354543D22E4
:100250000022002B53415042523D332C312C22417D
:10026000504E222C220043474154543A002B43471E
:100270004154543F002B43474154543D31002B43DC
:100280004950434346473D382C31302C3330302CD5
:10029000302C302C3436302C3530002B4349504D27
:1002A0004F44453D31002B4349504D55583D30009A
:1002B0002B4347455245503D31002B43495552434E
:1002C0003D31002B4353434C4B3D30002B43534DAA
:1002D000494E533D31002B43534E533D34002B4385
:1002E00052433D31002B43523D31002B434D454598
:1002F0003D32002B435245473D32002B4349504489
:100300005044503D312C3130002B53415042523D2E
:10031000332C312C22434F4E54595045222C224726
:1003200050525322002B47534D425553593D3100F3
:100330002B435553443A002322002B435553443D4D
:10034000312C220023323C20003D00204641494C04
:10035000004641494C0020455252004552524F52EE
:10036000000A00233E20415400232077616E743A36
:10037000204F4B206F7220000A233E204154002062
:100380006F7220255300232077616E743A20255325
:10039000003C20002B4346554E3D312C31002B4371
:1003A00046554E3D31002B4343414C523F004343A1
:1003B000414C523A2031002B434C49503D31002BE7
:1003C000434950534855543D31002B435343423D1C
:1003D000310045302056312058312053303D300017
:1003E00000435245473A20302C00327C8900EDD939
:1003F0006877000000590000000000000000D69F50
:10040000DCA81817AA90437327F6B968EDF4DED478
:1004100009FEE61C1C84DDE80B992927D6DF8D2117
:100420000F036418EFEE1E99B782527694150034CC
:100430007C000026149E988F0000006A31168F8C75
:10044000059600E7B73F3600000000000000AF66E9
:100450009ED0385D8A6C20B95422007CED044C801B
:10046000387486EDCBFA57CBDC19E2001DDF550658
:10047000E5CB01C30000000000000000009AB200BC
:1004800086DBD0BC5416131586004E44BD7F6F1515
:100490001590010000B50000000000002F0000AE24
:1004A000E500000000000000000000470000000020
:1004B000000000000000000000000000000000003C
:1004C000000000000000000000000000000000002C
:1004D00000000000000000000000005A00000000C2
:1004E000000008CC31AA2C532E0063726173683A65
:1004F000003E0A003D0053003D0052005B434F4E5A
:100500004649475D0A001C383D43413A00415400CA
:100510004F4B004350494E3A205245414459002B1D
:10052000435245473F002B4350494E3F000701408F
:100530004701400102040810204080010204081015
:10054000200102040810200404040404040404022A
:10055000020202020203030303030300000000235C
:10056000002600290000000000250028002B0000C4
:10057000000000240027002A00004E116B111124F6
:100580001FBECFEFD8E0DEBFCDBF11E0A0E0B1E0ED
:10059000E0E1F9E302C005900D92A63FB107D9F75B
:1005A00026E0A6EFB1E001C01D92AA37B207E1F73D
:1005B00012E0CEEBD2E004C02197FE010E94451C60
:1005C000CD3BD107C9F70E94F9130C94A11A0C94E2
:1005D0000000CF92DF92EF92FF920F931F93E82FCC
:1005E000F92F05C0015011092109310961F19081EC
:1005F00096239417B9F305C0015011092109310957
:1006000011F1908196239413F7CFC12CD12CE12CBA
:10061000F12C0AC08FEFC81AD80AE80AF80A0C159C
:100620001D052E053F0579F080818623841791F3FF
:100630006C2D7D2D8E2D9F2D1F910F91FF90EF9092
:10064000DF90CF90089560E070E080E090E01F912F
:100650000F91FF90EF90DF90CF900895FA01AA27B5
:10066000283051F1203181F1E8946F936E7F6E5FF5
:100670007F4F8F4F9F4FAF4FB1E03ED0B4E03CD0A3
:10068000670F781F891F9A1FA11D680F791F8A1F86
:10069000911DA11D6A0F711D811D911DA11D20D0ED
:1006A00009F468943F912AE0269F11243019305DA7
:1006B0003193DEF6CF010895462F4770405D419398
:1006C000B3E00FD0C9F7F6CF462F4F70405D4A33E5
:1006D00018F0495D31FD4052419302D0A9F7EACFAD
:1006E000B4E0A6959795879577956795BA95C9F7DC
:1006F00000976105710508959B01AC010A2E0694CF
:100700005795479537952795BA95C9F7620F731F87
:10071000841F951FA01D0895E091F601F091F70147
:10072000CF0101969093F7018093F6016083E091E9
:10073000F601F091F701108281E090E0089580E0E9
:1007400008950895FB012081822790E1899F9001FF
:1007500011242827822F90E0582F44279C0163E022
:10076000220F331F6A95E1F742275327218130E09A
:100770002427352774E0959587957A95E1F78227A8
:1007800093279183808308959C01862FB9010E944D
:10079000A20308950E9447150895EF92FF920F93C8
:1007A0001F93CF93DF931F92CDB7DEB77C018B01F0
:1007B000081B190B442361F0C8018E0D9F1D49834E
:1007C0000E94651CF70181937F0149814150F2CF5E
:1007D0000F90DF91CF911F910F91FF90EF900895AF
:1007E000EF92FF920F931F93CF93DF931F92CDB79A
:1007F000DEB77B018C01442369F0F80161918F0120
:10080000C70149830E946D1C49814150FFEFEF1AD7
:10081000FF0AF1CF0F90DF91CF911F910F91FF90C1
:10082000EF900895CF9361E08CE00E9495120E94B2
:10083000FF16C82F80916904882319F08C2F0E941D
:10084000561460E08CE00E9495128C2FCF91089591
:100850000F931F93CF93DF93EC018B010E94BE1186
:10086000DC01CB01800F911FA11DB11D88839983ED
:10087000AA83BB83DF91CF911F910F910895FC0153
:100880001382128223EA31E031832083089561E0EC
:1008900081E10E94951261E081E10E94591261E0BC
:1008A00089E00E94951261E089E00E94591261E09E
:1008B00083E00E94951261E083E00E94591260E09B
:1008C00088E00E9459120895CF92DF92EF92FF9232
:1008D000CF93DF936A017B01E901BC0185E694E0D7
:1008E0000E9440172AE030E0B701A60185E694E0B7
:1008F0000E949313BE0185E694E00E944017DF91A9
:10090000CF91FF90EF90DF90CF90089561E070E07D
:1009100080E090E00E94EF1108956AE070E080E0CE
:1009200090E00E94EF11089562E370E080E090E0B3
:100930000E94EF1108950E9494040E949404089567
:100940000E949B040E949B040E949B04089560E007
:1009500083E00E9495120E94A00461E083E00E945F
:1009600095120E949B040895CF93DF93CFE0D0E0CF
:1009700060E08BE00E9495120E94A00461E08BE091
:100980000E94951260E08CE00E9495120E94A004E3
:1009900061E08CE00E949512219751F7EE27FF2726
:1009A0000994DF91CF91089568EE73E080E090E0C4
:1009B0000E94EF11089560E081E10E9495120E946B
:1009C000D40461E081E10E9495120E94D40408954C
:1009D0000F931F93CF93DF9300D000D0CDB7DEB736
:1009E00042E062E070E0CE0101960E94CD03898171
:1009F0009A810B97A1F58FEF9FEF909373048093EB
:100A0000720484E890E09A838983CE0103969C83E4
:100A10008B8304E010E089819A81892B79F0C801E9
:100A20000E94651C62E774E00E94A20389819A819A
:100A300001979A8389830F5F1F4FEDCF42E060E0FB
:100A400070E0CE0101960E94CD0381E049815A8178
:100A500020917204309173044217530709F080E02B
:100A60000F900F900F900F90DF91CF911F910F91EA
:100A7000089544E864E070E083E091E00E94CD03D3
:100A80000895EF92FF921F93CF93DF938FEF9FEF25
:100A9000909373048093720483E0E82E81E0F82E33
:100AA000C4E0D0E0F70111917F01612FCE010E94D7
:100AB0006D1C62E774E0812F0E94A2032196C83862
:100AC000D10581F742E060E070E082E794E00E94A7
:100AD000F0038BE090E0909373048093720442E003
:100AE00062E070E082E794E00E94F00366EE71E05D
:100AF0008AE694E00E9440178AE694E00E9433134D
:100B0000DF91CF911F91FF90EF9008956CEF74E00B
:100B100085E694E00E94401728EF34E040E050E082
:100B2000BA018AEF94E00E9464044091030150915D
:100B3000040160910501709106012AE030E085E62C
:100B400094E00E94E61324EF34E041E050E060E0DE
:100B500070E086EF94E00E946404EDE2F5E06591B8
:100B6000749185E694E00E94381324EF34E042E06B
:100B700050E060E070E086EF94E00E946404E0E3FF
:100B8000F5E06591749185E694E00E94381361EF79
:100B900074E085E694E00E94401708958A3011F0D1
:100BA0008D3029F40E94180B84E092E018C0E09187
:100BB0000101F091020192E0E338F907A8F00E94E8
:100BC000180BA0910101B09102011A978AE0E4E0AC
:100BD000F2E001900D928A95E1F78EE092E0909319
:100BE00002018093010108959F012F5F3F4F3093D1
:100BF00002012093010180830895CF930E94621621
:100C0000882381F061E08BE00E9495120E943B16E0
:100C1000C82F0E941D178C2F0E94CE0560E08BE02C
:100C20000E949512CF9108958091690481110E94CC
:100C3000FD050E94EF1608952F923F924F925F920A
:100C40006F927F928F929F92AF92BF92CF92DF92DC
:100C5000EF92FF920F931F93CF93DF931F92CDB725
:100C6000DEB710922605612C7724739487E0282E36
:100C7000312C96E0492E512C05E010E024E0C22EE4
:100C8000D12C32E0A32EB12C88248A94982C0E9477
:100C90001406882309F461C20E941204282F1092BE
:100CA000F8018091FB019091FC018B30910508F0D7
:100CB000B8C0FC01EC5CFF4F0C94451C1092030281
:100CC000109202022E3F19F081E090E022C0B09213
:100CD000FC01A092FB01109258039092560380925F
:100CE00055039FC0209358031092FD01622F85E5A4
:100CF00093E00E94C403D092FC01C092FB0191C01A
:100D000020935903622F85E593E00E94C40383E09A
:100D100090E09093FC018093FB0183C020935A03E1
:100D2000622F85E593E00E94C4031093FC010093B9
:100D3000FB0177C020935B03622F85E593E00E945F
:100D4000C4035092FC014092FB016BC020935C03F2
:100D5000622F85E593E00E94C403809158038111BE
:100D600003C088E090E0D5CF3092FC012092FB01D7
:100D700058C0E091FD0181E08E0F8093FD01F0E00D
:100D8000E35AFC4F2083622F85E593E00E94C40361
:100D90009091FD0180915803981343C0E2CFE091F8
:100DA0005C03F0E0E651FC4F649185E593E0298314
:100DB0000E94C4032981422F50E0809155039091F5
:100DC000560399274817590731F02E3F09F47FCF72
:100DD0008AE090E09ECF89E090E09093FC018093C0
:100DE000FB01E091FD01F0E0E35AFC4F19C0422FF6
:100DF00050E0E0905603F12C4E155F0509F062CFEC
:100E00000A9709F45FCF7092F80181E090E0909327
:100E1000FC018093FB01E091FD01F0E0E25AFC4F00
:100E200020832091F801222399F080915903809327
:100E3000FE018091000290910102009721F410922E
:100E40000302109202020196909301028093000225
:100E50001092FA01222309F477C160E070E089E979
:100E600094E00E94280470922605709229058091D2
:100E70005C03882309F45EC090919804992321F0C3
:100E800020915A03921369C18E3309F427C190F45B
:100E9000883109F464C08E3109F48EC0813009F0C4
:100EA00053C180916B0390916C039093790480936C
:100EB00078044AC1893609F4AAC08D3F09F429C1D2
:100EC0008A3409F041C180916F038093950420E03A
:100ED00030E048EC52E460916503709166038091C4
:100EE0006703909168030E94971B0E94101B6093F8
:100EF000910470939204809393049093940420E05F
:100F000030E048EC52E46091690370916A0380918B
:100F10006B0390916C030E94971B0E94101B6093BF
:100F20008D0470938E0480938F04909390040E949C
:100F30004A110AC180916103863009F405C180918C
:100F40005A038093980480915D0380938804809174
:100F50006303881F8827881F80932D05F5C0809123
:100F6000650390916603A0916703B0916803809335
:100F70001E0590931F05A0932005B0932105809135
:100F8000690390916A03A0916B03B0916C03809305
:100F9000220590932305A0932405B0932505809105
:100FA00079038093960480917A03809397047092DA
:100FB0002E0566246394C8C021EE3EE245E652E465
:100FC0006091650370916603809167039091680357
:100FD0000E94971B0E94101B70938C0460938B04DB
:100FE00021EE3EE245E652E46091610370916203B6
:100FF00080916303909164030E94971B0E94101BD1
:1010000070938A04609389040E944B119DC0809163
:10101000800490918104A0918204B0918304809314
:10102000740490937504A0937604B093770420E041
:1010300030E048EC52E4609191037091920380910A
:101040009303909194030E94971B0E94101B60933E
:10105000800470938104809382049093830420E041
:1010600030E04AE754E46091650370916603809133
:101070006703909168030E94971B0E94101B709356
:101080007F0460937E0420E030E04AE754E46091FE
:10109000690370916A0380916B0390916C030E94C5
:1010A000971B0E94101B70937D0460937C0420E0CA
:1010B00030E04AE754E460916D0370916E038091D3
:1010C0006F03909170030E94971B0E94101B7093F6
:1010D0007B0460937A040E944C1136C020E030E01B
:1010E00048EC52E460916503709166038091670358
:1010F000909168030E94971B0E94101B60938404C8
:101100007093850480938604909387040E944D1108
:101110001BC080915D038430B8F482E3EEE5F3E018
:10112000ADE9B4E001900D928A95E1F71092CF04F9
:1011300046E050E06AEE74E08DE994E00E94A41A63
:10114000892B11F470922F050E94EF1681119FCD0B
:101150008AEA90E00E942B129ACD862D0F90DF91A3
:10116000CF911F910F91FF90EF90DF90CF90BF90A4
:10117000AF909F908F907F906F905F904F903F9037
:101180002F900895CF92DF92EF92FF92CF93DF934B
:1011900080912905882339F00E941C069091290529
:1011A00090932A0571C080912A058111F5CF0E9484
:1011B000EC1661E08BE00E94951261E08CE00E94E9
:1011C00095120E94BE116B017C0124E6C20ED11C57
:1011D000E11CF11CDAEFCFEF24EC39E040E050E005
:1011E00060E080E00E94B6126F3F710581059105B5
:1011F00009F064F4662351F06C1708F4C62F0E94BE
:10120000BE11C616D706E806F90610F0D15021F730
:10121000CF3F19F4C091000102C0C0930001CB3050
:1012200060F0C33160F0CD3160F0C83260F0CC3393
:1012300060F0C63960F081E00BC088E109C08CE045
:1012400007C088E005C086E003C084E001C082E0FA
:1012500020EC32E1829FB001839F700D1124072E94
:10126000000C880B990B0E94AD1660E08CE00E9488
:10127000951260E08BE00E94951281E080932A0530
:1012800080913005811188CFDF91CF91FF90EF9051
:10129000DF90CF900895EF92FF920F931F93CF931B
:1012A0008C017B01C0E00E941406811109C0E11489
:1012B000F10419F0F7010995F6CF0E948604F3CFE7
:1012C0000E9412048D3051F4F801EC0FF11D1082D0
:1012D000CF911F910F91FF90EF900895CC2319F0BB
:1012E0008A3019F4F1CF8A30F1F2F801EC0FF11DD8
:1012F0008083C7FDD8CFCF5FD6CF60E070E00E947B
:101300004B090895CF930E9462168823C9F061E9C2
:1013100073E08AE694E00E9440170E9462168823D8
:1013200061F00E943B16C82F682F8AE694E00E9465
:101330002B138C2F0E94CE05F0CF0E948D04E3CF9B
:10134000CF910895AF92BF92CF92DF92EF92FF922A
:101350000F931F93CF93DF936C017B01EA01590137
:101360000E948209FF92EF9286E893E09F938F9309
:101370000AE614E01F930F930E9465170F900F90D9
:101380000F900F900F900F90209781F0DF93CF93E5
:101390008FE793E09F938F931F930F930E9465179E
:1013A0000F900F900F900F900F900F9068E773E0E1
:1013B0008AE694E00E944017B6018AE694E00E9413
:1013C0005A176DE075E08EE694E00E944017B60172
:1013D0008EE694E00E945A17A501BE01C7010E9443
:1013E0003F0A91E0813009F090E0892FDF91CF91A1
:1013F0001F910F91FF90EF90DF90CF90BF90AF9033
:101400000895CF93CDE3C150D1F028EE33E041EE03
:1014100053E060E175E08FE195E00E94A209882326
:1014200071F0E0918502F09186028085833339F076
:10143000853339F0813329F00E94D404E4CF80E071
:1014400001C081E0CF91089528EE33E040E050E004
:1014500060E175E00E94A209089580918B028823C3
:1014600069F00E94A7040E94DB0410928B0284E9B9
:1014700093E00E94240AEE27FF27099408958F9293
:101480009F92AF92BF92DF92EF92FF920F931F93C2
:10149000CF93DF937C018B01EA010E94BE1144E6E9
:1014A0004C9F90014D9F300D11244B015C01820E29
:1014B000931EA11CB11C109286021092850261E05D
:1014C0008BE00E9495120E949B0460E08BE00E94DA
:1014D000951261E673E08AE694E00E944017CDE839
:1014E000D2E00E948D040E946216882381F161E09F
:1014F0008CE00E949512D12C21960E943B16FE0191
:101500003197808318828A3011F08D3011F4DD24F8
:10151000D394682F8AE694E00E942B130E946216EF
:101520008111EACF60E08CE00E949512DD2079F015
:101530006BE573E08DE892E00E94C71A90938802F1
:1015400080938702892B59F066E573E016C00E94EC
:10155000BE11681579058A059B0518F2E9CF61E58A
:1015600073E08DE892E00E94C71A909388028093FE
:101570008702892B41F06BE473E08AE694E00E94D5
:101580004017C3E014C0B7018DE892E00E94C71A6B
:101590009093880280938702892B41F069E473E07D
:1015A0008AE694E00E944017C1E001C0C0E06CEC04
:1015B00070E08DE892E00E94C71A909388028093B1
:1015C0008702892B11F00E942D0A01151105D9F00F
:1015D000B8018DE892E00E94C71A8093850290932B
:1015E00086029F938F9384E493E09F938F938AE680
:1015F00094E09F938F930E9465170F900F900F9028
:101600000F900F900F9067E971E08AE694E00E94D6
:101610003813C0938C028C2FDF91CF911F910F91C3
:10162000FF90EF90DF90BF90AF909F908F900895C4
:1016300045E050E06CEC70E084E092E00E94A41A77
:10164000892B11F40E942D0A08959B0140E050E07F
:1016500060E175E00E94A2090895CF93C7E362E0BC
:1016600070E080EE93E00E94250B811103C0C15011
:10167000B1F701C081E0CF910895CF93DF939B0133
:10168000AC0180918A0281116FC080916400877FD4
:1016900080936400DA01C901B695A795979587955F
:1016A000BC01CD017C5D8B409F4F0E94041CCA0190
:1016B000B9010E9402140E94DB04CBE00E942D0BB2
:1016C0008823A9F182ED93E00E94240A8EE993E039
:1016D0000E94240A8AEC93E00E94240A62E070E0EF
:1016E0008FEB93E00E94250B28EE33E040E050E0C2
:1016F00063E175E086E295E00E94A209D82F87EBAE
:1017000093E00E94240ADD23B1F00E94010A88239D
:1017100091F028EE33E040E050E06EEA73E086EAB4
:1017200093E00E94A209982F882329F01FC00E94ED
:10173000A7040E94DB0484E993E00E94240AD7E016
:101740000E94D404D150E1F7C15009F0B7CF0E94F4
:1017500073168091640088608093640090E081E05B
:10176000911108C080E006C081E004C081E0809350
:101770008A02F5CFDF91CF91089560E071EE80E0AD
:1017800090E00E943D0B089585E293E00E94240AB8
:1017900089E093E00E94240A8BEF92E00E94240AE1
:1017A00083EF92E00E94240A882309F44DC08BEE57
:1017B00092E00E94240A882309F446C085EE92E054
:1017C0000E94240A882309F43FC08EED92E00E9413
:1017D000240A8823C9F186ED92E00E94240A882316
:1017E00099F18CEC92E00E94240A882369F183EC41
:1017F00092E00E94240A882339F18AEB92E00E9449
:10180000240A882309F180EB92E00E94240A8823AD
:10181000D9F086EA92E00E94240A8823A9F08BE995
:1018200092E00E94240A882379F08EE792E00E94D9
:10183000240A882349F06EEE72E085E792E00E9468
:10184000250B91E0811101C090E0892F0895EF925E
:10185000FF920F931F93CF93DF9300D0CDB7DEB7E6
:101860008C017B0149835A830E94820969E673E0F7
:101870008AE694E00E944017B7018AE694E00E944D
:101880005A1763E673E08AE694E00E944017B801B5
:101890008AE694E00E945A176DE075E08EE694E0C7
:1018A0000E944017B8018EE694E00E9438134981E7
:1018B0005A81B70180E195E00E943F0A91E08130B2
:1018C00009F090E0892F0F900F90DF91CF911F9139
:1018D0000F91FF90EF900895EF92FF920F931F9357
:1018E000CF93DF93CDB7DEB7C055D1090FB6F894CB
:1018F000DEBF0FBECDBF7C0128E532E046E652E0F8
:1019000060E175E08DE692E00E94A2098823A9F0CB
:101910002091850230918602295F3F4FC9012F5FD8
:101920003F4FFC0140814032C9F30E947A1A81E0A6
:10193000611101C080E0809389028E010F5F1F4F0B
:101940001093F7010093F60163E572E081E395E0FF
:101950000E944017B70181E395E00E94281361E5DA
:1019600072E081E395E00E94401748EE53E060E0AA
:1019700070E0C8010E94270C8823F9F01093F7014A
:101980000093F60169E472E081E395E00E9440175C
:10199000B70181E395E00E94281361E472E081E3DE
:1019A00095E00E94401748EE53E060E070E0C80107
:1019B0000E94270C91E0813009F090E0892FC05BF4
:1019C000DF4F0FB6F894DEBF0FBECDBFDF91CF91D2
:1019D0001F910F91FF90EF900895CF9366ED71E006
:1019E0008AE694E00E945A17C1E00E94BD0B811163
:1019F00002C00E94B4046FEB71E08AE694E00E949A
:101A00005A17C09384026CE971E08AE694E00E9460
:101A10005A170E94C40B882341F387E491E00E9487
:101A20006C0C882311F364E971E08AE694E00E946B
:101A30005A17CF9108958F929F92BF92CF92DF92C3
:101A4000EF92FF920F931F93CF93DF93CDB7DEB743
:101A5000A1970FB6F894DEBF0FBECDBF6C010E94F8
:101A60008209B12C8E010F5F1F4F7801F092F701B0
:101A7000E092F6016AE373E081E395E00E9440178B
:101A8000BB2011F06AE201C063E281E395E00E94AD
:101A90008C034AE050E0B60181E395E00E94A21376
:101AA00067E373E081E395E00E94401748EC50E063
:101AB00060E373E0C7010E94270C813039F0B11058
:101AC00003C0BB24B394D2CF80E060C089A30E943E
:101AD000A004A0918502B09186024D0116E0810E0E
:101AE000911C50E0EDE9F4E020E030E060E040E0FF
:101AF0007DE289A1D4019D914D01992309F445C04E
:101B0000923221F4611142C061E0F4CF662391F377
:101B1000BB20B9F1790124E0EE0CFF1C2A95E1F716
:101B200091360CF0905230ED390F3A3014F039EC18
:101B3000390F6701C30ED11C37FDDA9496014F5F50
:101B40004430C1F69C2DE52EF12C87010A5F1A4F17
:101B5000D8014C91C41202C05F5F07C0563021F417
:101B600070831182319601C050E02F3F310529F07A
:101B700020F020E030E040E0BDCF9083118231962C
:101B8000F8CF908311823196B5CF862FA1960FB6EC
:101B9000F894DEBF0FBECDBFDF91CF911F910F91A3
:101BA000FF90EF90DF90CF90BF909F908F9008951F
:101BB000EF92FF920F931F93CF93DF93CDB7DEB7D2
:101BC000C054D1090FB6F894DEBF0FBECDBF7C0163
:101BD0006EE170E08AE392E00E94250B882389F190
:101BE00028EE33E040E155E068E372E081E392E003
:101BF0000E94A209882329F10E9482098E010F5FA9
:101C00001F4F1093F7010093F60162E272E081E347
:101C100095E00E9440174AE050E0B70181E395E06B
:101C20000E94A213B8018AE694E00E94281348EEAD
:101C300053E060E070E0C8010E94270C91E0813021
:101C400009F090E0892FC05CDF4F0FB6F894DEBF3B
:101C50000FBECDBFDF91CF911F910F91FF90EF90FD
:101C60000895CF92DF92EF92FF920F931F93CF933D
:101C7000DF93CDB7DEB7C054D1090FB6F894DEBFFD
:101C80000FBECDBF6C017B010E9482098E010F5FE8
:101C90001F4F1093F7010093F60160E172E081E3BA
:101CA00095E00E944017B60181E395E00E94281359
:101CB0006DE072E081E395E00E9440174AE050E059
:101CC000B70181E395E00E94A21363E072E08AE627
:101CD00094E00E944017B8018AE694E00E9428131D
:101CE00061E072E08AE694E00E945A1740E456E010
:101CF00069EF71E0C8010E94270C813019F48093CC
:101D00008B0201C080E0C05CDF4F0FB6F894DEBFED
:101D10000FBECDBFDF91CF911F910F91FF90EF903C
:101D2000DF90CF9008950E94C208809129058823F2
:101D3000F1F18091690481113AC061E08BE00E9469
:101D4000951261E08CE00E949512809103019091C0
:101D500004010E94D80D811102C00E94B40463EBFB
:101D600070E08AE694E00E945A1760910301709136
:101D7000040187E091E00E94310E8823C1F081E0E8
:101D80008093690468EA70E08AE694E00E945A173A
:101D900061E08CE00E94951260E08BE00E94951259
:101DA0000E94D40460E08CE00E949512089508958A
:101DB0002F923F924F925F926F927F928F929F925B
:101DC000AF92BF92CF92DF92EF92FF920F931F9349
:101DD000CF93DF93CDB7DEB7C558D1090FB6F894CE
:101DE000DEBF0FBECDBF84E8E3E0F1E0DE01119677
:101DF00001900D928A95E1F761E08CE00E949512C6
:101E000061E08BE00E94951268EE73E080E090E064
:101E10000E94EF1180E891E09F938F938AE891E010
:101E20009F938F9385E694E09F938F930E9465170D
:101E300068E771E08AE694E00E9440178AE694E041
:101E40000E9433130F900F900F900F900F900F90F0
:101E500005E1F2E7EF2EF1E0FF2EAAE6CA2EA4E09C
:101E6000DA2E0E94BE114B015C0128EB820E2BE0A2
:101E7000921EA11CB11C10E00E94BE1168157905CC
:101E80008A059B0548F50E9414068823A9F30E9441
:101E900012041F928F93FF92EF92DF92CF92CB5753
:101EA000DF4F8883C558D0400E9465170F900F9070
:101EB0000F900F900F900F90CB57DF4F8881C55830
:101EC000D040193048F4E12FF0E0E058FE4FE491A3
:101ED0008E13D1CF1F5FD0CF193009F053C167E601
:101EE00071E08AE694E00E945A170E94E80481118A
:101EF0000CC061E671E08AE694E00E9440178AE631
:101F000094E00E9433130E9441050E9439054CEE73
:101F1000642E40E0742E0AE614E050EEE52E50E008
:101F2000F52E66E0C62E61E0D62E78EFA72E70E083
:101F3000B72E33243394E9E48E2EE1E09E2E67E53C
:101F400071E085E694E00E9440170E9486058DE9C5
:101F500094E00E947D0920919D04222309F49FC0F2
:101F600080919E0481119BC010929D04822F90E06D
:101F7000FC01E356F109E531F10508F7E15CFF4F9B
:101F80000C94451C84E8FE013196A3E0B1E0019079
:101F90000D928A95E1F70E9441059F928F9265C04C
:101FA00080918402811102C00E94ED0C84E690E0D1
:101FB0000E941B0D80919D04882339F06DE974E027
:101FC00085E694E00E943813BACF61E471E010C056
:101FD00080918402811102C00E94ED0C85E690E0A0
:101FE0000E941B0D80919D048111E8CF61E471E096
:101FF00085E694E00E945A17A2CF80918402811155
:1020000002C00E94ED0C309229050E94930E69E2F5
:1020100071E08EE694E00E945A1765E171E0E8CF26
:1020200080918402811102C00E94ED0CDF92CF9258
:102030001F930F930E9465170F900F900F900F90B2
:102040006DEF75E08DE994E00E944B0980919D044D
:102050008E3229F03DE9432E34E0532E0FC080919B
:102060009E048111F7CFBF92AF921F930F930E94EE
:1020700065170F900F900F900F9061CFF201619153
:102080002F018EE694E0662319F00E94AB14F6CF80
:102090000E94331380919D048111D2CFE4CF8EE949
:1020A00094E0CB57DF4F2883C558D0400E947A1A5E
:1020B000262EEDE9F4E0CB57DF4F2881C558D040FC
:1020C0002F018191882319F02F018D33C9F7223513
:1020D00029F0233549F12C3409F031CFF1E0F21524
:1020E00008F42DCFF2018081882309F428CFC201A2
:1020F0000E947A1A24E0229EF0011124ED5FFE4F27
:1021000060837183828393835F924F921F922F9299
:102110007F926F921F930F930E9465170FB6F894EA
:10212000DEBF0FBECDBF0BCF92E0921508F407CFF4
:102130005F924F921F922F92FF92EF921F930F93F5
:102140000E9465178FEF820D0FB6F894DEBF0FBEA9
:10215000CDBF823008F0F3CE90E0FC01EE0FFF1F00
:102160008E0F9F1FFC01E15DFA4F4491FC01E35D7E
:10217000FA4F8591949150E041505109B2010E946B
:10218000E11ADDCE0E94E804882319F00E94390587
:102190001DC0015019F40E94410518C013E060E011
:1021A0008BE00E9495120E94A00461E08BE00E94E7
:1021B000951260E08CE00E9495120E94A00461E0FC
:1021C0008CE00E949512115051F74BCE82ED90E0B9
:1021D0009F938F938AE694E09F938F930E94651755
:1021E00060E08CE00E94951260E08BE00E94951206
:1021F0000F900F900F900F90CB57DF4F0FB6F894C2
:10220000DEBF0FBECDBFDF91CF911F910F91FF9029
:10221000EF90DF90CF90BF90AF909F908F907F9086
:102220006F905F904F903F902F90089561E08CE009
:102230000E94591261E08BE00E94591260E08CE02C
:102240000E94951261E08BE00E94951261E083E0AC
:102250000E94951261E083E00E9459120E94470497
:1022600060E071EE80E090E00E94F61760E071EEB1
:1022700080E090E00E94AD1678940E94D80E809184
:102280008402811102C00E94ED0C60E08BE00E948C
:10229000951208950895089508950895E1E3F5E0ED
:1022A000138212828BE891E0918380838EE694E022
:1022B0000E943F044DE060E08AE694E00E94EB1744
:1022C00085E694E00E94A51683EB91E09093660466
:1022D0008093650408958AEC91E090936F04809355
:1022E0006E040E94731608951F920F920FB60F92FC
:1022F00011242F933F938F939F93AF93BF9380911C
:10230000360590913705A0913805B0913905309187
:10231000350523E0230F2D3720F40196A11DB11DB3
:1023200005C026E8230F0296A11DB11D2093350597
:102330008093360590933705A0933805B0933905FF
:1023400080913A0590913B05A0913C05B0913D05E7
:102350000196A11DB11D80933A0590933B05A09372
:102360003C05B0933D05BF91AF919F918F913F91F7
:102370002F910F900FBE0F901F9018952FB7F894C4
:102380006091360570913705809138059091390537
:102390002FBF08953FB7F89480913A0590913B057F
:1023A000A0913C05B0913D0526B5A89B05C02F3FE7
:1023B00019F00196A11DB11D3FBFBA2FA92F982F6B
:1023C0008827820F911DA11DB11DBC01CD0142E0E6
:1023D000660F771F881F991F4A95D1F708958F922E
:1023E0009F92AF92BF92CF92DF92EF92FF926B01DA
:1023F0007C010E94CA114B015C01C114D104E104AB
:10240000F10401F10E94B5120E94CA11DC01CB0156
:1024100088199909AA09BB09883E9340A105B1050D
:1024200060F321E0C21AD108E108F10888EE880EB5
:1024300083E0981EA11CB11CC114D104E104F10475
:1024400019F7DBCFFF90EF90DF90CF90BF90AF9068
:102450009F908F9008958230910538F0880F991FD2
:10246000880F991F05970197F1F70895789484B51F
:10247000826084BD84B5816084BD85B5826085BD80
:1024800085B5816085BDEEE6F0E080818160808366
:10249000EAE7F0E0808184608083808182608083CD
:1024A0008081816080838081806880831092C100F8
:1024B0000895CF93DF9390E0FC01ED5CFA4F2491F7
:1024C000FC01E95BFA4F8491882361F190E0880F69
:1024D000991FFC01E159FA4FC591D491FC01EB59C8
:1024E000FA4FA591B491611109C09FB7F894888102
:1024F000209582238883EC912E230BC0623061F4F7
:102500009FB7F8948881322F309583238883EC918C
:102510002E2B2C939FBF06C08FB7F894E8812E2BEB
:1025200028838FBFDF91CF91089590E0FC01ED5C8F
:10253000FA4F2491FC01E95BFA4FE491EE23A1F0FC
:10254000F0E0EE0FFF1FEB59FA4FA591B4919FB742
:10255000F894611105C08C91E22FE095E82302C048
:10256000EC91E22BEC939FBF089508950F931F9376
:1025700090E0FC01ED5CFA4F7491FC01E95BFA4FCD
:10258000E491662311F0672F01C060E0F0E0EE0FE8
:10259000FF1FE55AFA4F8591949189019A013F7086
:1025A000462F672F0E94E90261157105810591058B
:1025B00049F0DC01CB010196A11DB11DBC01CD018B
:1025C0009F7003C060E070E0CB011F910F910895F0
:1025D000CF92DF92EF92FF920F931F93CF93DF93EF
:1025E0006C017A018B01C0E0D0E0CE15DF0581F0EF
:1025F000D8016D918D01D601ED91FC910190F08192
:10260000E02DC6010995892B11F02196EECF7E01B0
:10261000C701DF91CF911F910F91FF90EF90DF9055
:10262000CF9008956115710581F0FB0101900020A4
:10263000E9F73197AF01461B570BDC01ED91FC9197
:102640000280F381E02D0995089580E090E00895DF
:102650000E9412130895DC01ED91FC910190F0812C
:10266000E02D099508956FEB71E00E941213089513
:102670000F931F93CF93DF93EC010E9412138C01F1
:10268000CE010E943313800F911FDF91CF911F91D4
:102690000F9108958F929F92AF92BF92EF92FF9207
:1026A0000F931F93CF93DF93CDB7DEB7A1970FB6EC
:1026B000F894DEBF0FBECDBF7C01FA01CB0119A299
:1026C000223008F42AE08E010F5D1F4F822E912CDC
:1026D000A12CB12CBF01A50194010E94041CF90199
:1026E000CA01015011096A3014F4605D01C0695CCF
:1026F000D8016C93232B242B252B61F7B801C7013C
:102700000E941213A1960FB6F894DEBF0FBECDBF84
:10271000DF91CF911F910F91FF90EF90BF90AF90FD
:102720009F908F9008952115310549F4DC01ED91BA
:10273000FC910190F081E02D642F099508950E948D
:102740004A1308959A01AB0160E070E00E94931370
:102750000895CF92DF92EF92FF920F931F93CF9342
:10276000DF938C016A017B012115310549F4DC01FD
:10277000ED91FC910190F081E02D642F09951DC031
:102780002A303105A9F477FF12C06DE20E942B13A5
:10279000EC0144275527BA014C195D096E097F09E0
:1027A0002AE0C8010E944A138C0F9D1F06C02AE030
:1027B000B701A601C8010E944A13DF91CF911F9172
:1027C0000F91FF90EF90DF90CF9008950F931F939C
:1027D000CF93DF93EC010E94A9138C01CE010E94DC
:1027E0003313800F911FDF91CF911F910F910895A7
:1027F00008950E9436120E94F8130E9416110E943A
:10280000930EFDCF9B01AC012D3A8BE138074105BA
:10281000510530F410926F001092800081E812C0D0
:1028200063E056954795379527956A95D1F72D3AE8
:102830008BE1380741055105C0F510926F001092E9
:10284000800082E8809381003093DD052093DC05D1
:10285000A5E2B0E00E944B1CDC01CB0122E0B69562
:10286000A795979587952A95D1F79093D60580934C
:10287000D50562E088E00E94591261E089E00E947B
:10288000951261E089E00E9459121092DB051092C6
:10289000D4051092D3051092520510924F05109254
:1028A0004E0580E286BB80936F000895CF92DF9241
:1028B000EF92FF92CF93DF93D82FC0914F05CF5F58
:1028C000CF700E94BE116B017C0124E1C20ED11CAD
:1028D000E11CF11C80914E05C81309C00E94BE1175
:1028E000C616D706E806F906A8F780E02DC02FB770
:1028F000F89480915205882341F0EC2FF0E0E25CDF
:10290000FA4FD083C0934F051DC081E080935205DC
:10291000D09351051092500582E086BB80916F00E4
:10292000826080936F00809180008F7B80688093AD
:10293000800080918400909185004096909389005A
:10294000809388002FBF81E0DF91CF91FF90EF90BF
:10295000DF90CF900895862F0E94561490E008953E
:102960001F920F920FB60F9211242F933F934F9304
:102970005F936F937F938F939F93EF93FF938091D8
:102980005205609151052091880030918900409155
:10299000DC055091DD05909150058A30F8F4240F44
:1029A000351F893019F0762F717001C071E066957E
:1029B0008F5F791791F390918000772311F0906CDD
:1029C00002C09F7B90689093800030938900209391
:1029D0008800709350056093510548C0E0914E0502
:1029E00090914F05E91319C08A3051F48BE0809320
:1029F0005205240F351F309389002093880038C07A
:102A000010925205809180008F7380938000809196
:102A10006F008D7F80936F002BC0EF5FEF70E093AE
:102A20004E05F0E0E25CFA4F9081909351051092D0
:102A30005005909180009F7B9068909380008A3031
:102A400059F48091DC059091DD05280F391F3093F2
:102A500089002093880009C08091840090918500AE
:102A60004096909389008093880081E0809352057E
:102A7000FF91EF919F918F917F916F915F914F9116
:102A80003F912F910F900FBE0F901F90189580913E
:102A900052058111FCCF08951F920F920FB60F922D
:102AA00011242F933F934F935F936F937F938F9353
:102AB0009F93EF93FF9380918600909187004091C0
:102AC000D90520918100442331F02F7B2093810090
:102AD0001092D90506C020642093810020E820933D
:102AE000D9053091DB05311125C0411169C0209114
:102AF000D5053091D605280F391F30938B002093D0
:102B00008A0024E026BB20916F00246020936F0090
:102B10002091DC053091DD05820F931F36952795B6
:102B2000820F931F9093D8058093D70581E08093FF
:102B3000DB0546C04091D7055091D8052091DA05B4
:102B40007091D905E091DC05F091DD05841B950BB2
:102B500060E097FD2CC02695272B4E0F5F1F3F5F2F
:102B60008E1B9F0B61E03930A0F32093DA05809132
:102B70006F008B7F80936F008091D4058F5F8F777C
:102B80009091D305891749F0E82FF0E09091DA058C
:102B9000ED5AFA4F90838093D405809181008F7B0A
:102BA000809381001092D9051092DB0509C0611154
:102BB0002093DA055093D8054093D7053093DB0571
:102BC000FF91EF919F918F917F916F915F914F91C5
:102BD0003F912F910F900FBE0F901F9018951F924D
:102BE0000F920FB60F9211242F933F938F939F93C1
:102BF000EF93FF9380916F008B7F80936F008091A4
:102C000081008F7B809381009091DB052091D90515
:102C100020588091DA0530E0993028F48695822B8F
:102C20009F5F31E0F9CF31118093DA058091D405AF
:102C30008F5F8F779091D305891749F0E82FF0E0E7
:102C40009091DA05ED5AFA4F90838093D405109253
:102C5000DB05809181008F7B809381001092D905E4
:102C6000FF91EF919F918F913F912F910F900FBE08
:102C70000F901F9018959091D3058091D4059817C7
:102C800051F09F5F9F77E92FF0E0ED5AFA4F808176
:102C90009093D305089580E008950E943B1608950F
:102CA000E091D3058091D405E81739F0EF5FEF7715
:102CB000F0E0ED5AFA4F8081089580E008950E9477
:102CC000501608958091D4059091D305891708F482
:102CD0008058891B08950E94621608958091D3053B
:102CE0008093D4050895CF93DF93CFE6D0E0888119
:102CF0008B7F888388818F7D88830E946E160E94D7
:102D0000471588818D7F8883DF91CF9108959091B9
:102D1000C100892F807194FF0EC090917006809140
:102D20007106981302C080E00895E0917106F0E00A
:102D3000E251FA4F80810895E0E7F6E081818083D7
:102D4000EEE6F6E0808181830895FC011382128211
:102D50002AED31E03183208308959B01AC018091FD
:102D6000C10084FD1092C10010926F0610926E0691
:102D700010927106109270061216130614061506AC
:102D8000FCF4211581EE38074105510501F182E07F
:102D90008093C00060E079E08DE390E00E94261C03
:102DA000CA01B901615071098109910922E030E03D
:102DB00040E050E00E94261C3093C5002093C400E0
:102DC00088E98093C10086E08093C2000895109244
:102DD000C00020E130E0F0CF1092C1000895909142
:102DE000C100892F807194FF06C080917006909178
:102DF0007106891B8F7708950E94EF1608959091B0
:102E0000C100892F807194FF14C090917006809149
:102E10007106981302C080E00895E0917106F0E019
:102E2000E251FA4F8081909171069F5F9F77909356
:102E3000710608950E94FF1608959091C10094FFB5
:102E400018C090916E069F5F9F7020916F06921739
:102E5000E1F3E0916E06F0E0E252FA4F8083909346
:102E60006E068091C10080628093C10081E090E095
:102E7000089580E090E00895862F0E941D17089520
:102E80000F931F93CF93DF938C01FB016491EF01AC
:102E90002196662351F0D801ED91FC910190F081CB
:102EA000E02DC8010995FE01F1CFDF91CF911F916F
:102EB0000F910895CF93DF93EC010E944017CE014C
:102EC0000E943313DF91CF910895CF93DF93CDB755
:102ED000DEB79E01275F3F4F4F81588561E08D81AE
:102EE0009E810E948C18DF91CF91089580E0089513
:102EF000089520917506211108C021E030E0FC0101
:102F00003383228380E090E00895809175061092CB
:102F100073061092B2008093B30082E08093B000F9
:102F2000809172068093B100B99A8091700082609E
:102F30008093700010927406809174068823E1F3E8
:102F400088E0962F917090937306669510927406A0
:102F5000909174069923E1F3815099F781E0809371
:102F6000730610927406809174068823E1F3109220
:102F70007406809174068823E1F310927000109219
:102F8000B10081E090E00895CF93C82F61E00E94E6
:102F9000951261E08C2F0E9459128C2F90E0FC0159
:102FA000ED5CFA4FE491E093790620917906209543
:102FB00020937806FC01E95BFA4FE491F0E0EE0F14
:102FC000FF1FEB59FA4F8591949190937706809368
:102FD0007606CF910895FC01842F138212822AEE87
:102FE00031E0318320830E94C4170895CF92DF928D
:102FF000EF92FF92CF936B017C01C1148BE4D80652
:10300000E104F10459F194F480E8C81685E2D80689
:10301000E104F10419F1C1148DE2D806E104F104D0
:1030200011F582E08093720680E115C0C11486E933
:10303000D806E104F10459F0C11481EED806E10488
:10304000F10489F482E08093720682E204C082E097
:103050008093720683E38093750629C083E0809392
:103060007206C0E204C081E080937206C1E0C7012D
:10307000B60122E030E040E050E00E94261CCA0188
:10308000B9017C5D8B409F4FA70196010E94261CD1
:10309000CC2ED12CE12CF12CCA01B901A70196014B
:1030A0000E94261C2093750681E080937406CF91C0
:1030B000FF90EF90DF90CF9008951F920F920FB680
:1030C0000F9211248F939F93EF93FF938091730638
:1030D000E0917606F0917706882329F090917906A1
:1030E0008081892B04C09091780680818923808318
:1030F00081E080937406FF91EF919F918F910F90E3
:103100000FBE0F901F901895DC01ED91FC9101907E
:10311000F081E02D099508952F923F924F925F9292
:103120006F927F928F929F92AF92BF92CF92DF92D7
:10313000EF92FF920F931F93CF93DF93CDB7DEB73C
:103140002C970FB6F894DEBF0FBECDBF6C01262EB4
:103150008A017901AE014F5F5F4F4A01F80120FCFF
:10316000359120FE31918F01332309F4AAC1353204
:1031700041F420FC359120FE31918F01353271F4FC
:1031800008C03A3031F46DE0C6013C870E948418D3
:103190003C85632FC6010E948418E0CF512C312C4E
:1031A00020E02032A0F43B3269F030F4303259F0A4
:1031B000333269F420612CC03D3239F0303339F4B8
:1031C000216026C02260246023C0286021C027FD22
:1031D00028C080ED830F8A3078F426FF06C05AE0BD
:1031E000559E800D1124582E13C09AE0399E800DF3
:1031F0001124382E20620CC03E3221F426FD61C11C
:10320000206406C03C3611F4206802C0383649F408
:10321000F80120FC359120FE31918F013111C1CF91
:1032200098C0333629F0333779F0333521F15CC05B
:10323000F70180818983A7014E5F5F4F7A014424A3
:103240004394512C540115C0370152E0650E711C96
:10325000F701A080B18026FF03C0652D70E002C099
:103260006FEF7FEFC5012C870E94F01A2C017301CC
:103270002C852F7716C03701F2E06F0E711CF70115
:10328000A080B18026FF03C0652D70E002C06FEF03
:103290007FEFC5012C870E94BC1A2C012C85206869
:1032A000730123FD1DC0832D90E048165906C0F41C
:1032B00060E2C6012C870E9484183A942C85F3CFD3
:1032C000F50127FD659127FF61915F01C6012C87FC
:1032D0000E9484182C8531103A94F1E04F1A51085D
:1032E0004114510469F7E4C0343611F0393651F510
:1032F000F70127FF08C06081718182819381A70156
:103300004C5F5F4F09C060817181072E000C880BF4
:10331000990BA7014E5F5F4F7A012F76722E97FFB0
:1033200009C090958095709561957F4F8F4F9F4F05
:103330002068722E2AE030E0A4010E942E03A82EFD
:10334000A81847C0353729F42F7EB22E2AE030E086
:1033500025C0522F597FB52E3F36C1F018F43835AD
:1033600079F0AFC0303719F0383721F0AAC0852F77
:103370008061B82EB4FE0DC09B2D9460B92E09C09B
:1033800024FF0AC0E52FE660BE2E06C028E030E02C
:1033900005C020E130E002C020E132E0F701B7FED5
:1033A00008C06081718182819381A7014C5F5F4F6A
:1033B00007C06081718180E090E0A7014E5F5F4FA0
:1033C0007A01A4010E942E03A82EA8185B2D5F7716
:1033D000752E76FE0BC0372D3E7FA51450F474FE7B
:1033E0000AC072FC08C0372D3E7E05C0BA2C372DAE
:1033F00003C0BA2C01C0B52C34FF0DC0FE01EA0D8C
:10340000F11D8081803311F4397E09C032FF06C07E
:10341000B394B39404C0832F867809F0B39433FD3A
:1034200012C030FF06C0B31490F43A0C532C5B1852
:103430000FC0B31468F460E2C6013C870E94841890
:10344000B3943C85F6CFB31418F43B1802C05A2C41
:10345000312C34FF0EC060E3C6013C870E94841803
:103460003C8532FF13C031FF02C068E50CC068E73D
:103470000AC0832F867851F031FF02C06BE201C091
:1034800060E237FD6DE2C6010E948418A51430F495
:1034900060E3C6010E9484185A94F8CFAA94F401FC
:1034A000EA0DF11D6081C6010E948418A110F6CFBB
:1034B000332009F453CE60E2C6010E9484183A9486
:1034C000F7CF2C960FB6F894DEBF0FBECDBFDF91BD
:1034D000CF911F910F91FF90EF90DF90CF90BF9011
:1034E000AF909F908F907F906F905F904F903F90A4
:1034F0002F9008951F93FC0199278827BC01E89419
:1035000011911032E9F3193010F01E30C8F31B325C
:1035100051F01D3249F4689406C00E94FB1A610FF5
:10352000711D811D911D119110531A30B0F33EF49D
:1035300090958095709561957F4F8F4F9F4F1F910C
:103540000895F8940C947B1CFB01DC014150504021
:1035500088F08D9181341CF08B350CF4805E659180
:1035600061341CF06B350CF4605E861B611171F3E5
:10357000990B0895881BFCCFFC01059061507040A9
:103580000110D8F7809590958E0F9F1F0895FB012D
:1035900055915523A9F0BF01DC014D91451741110B
:1035A000E1F759F4CD010590002049F04D91401507
:1035B0004111C9F3FB014111EFCF81E090E0019788
:1035C0000895FB01DC014150504048F001900D92FC
:1035D0000020C9F701C01D9241505040E0F7089506
:1035E000FC016150704001900110D8F780959095D2
:1035F0008E0F9F1F0895592F482F372F262F660FA4
:10360000771F881F991F660F771F881F991F620FEA
:10361000731F841F951F660F771F881F991F0895BA
:103620000E94171B6894B1110C94911B08950E947D
:10363000761B88F09F5798F0B92F9927B751B0F0B3
:10364000E1F0660F771F881F991F1AF0BA95C9F726
:1036500014C0B13091F00E94901BB1E008950C9419
:10366000901B672F782F8827B85F39F0B93FCCF3CC
:10367000869577956795B395D9F73EF490958095A3
:10368000709561957F4F8F4F9F4F089597F99F6772
:1036900080E870E060E008959FEF80EC08950024DA
:1036A0000A941616170618060906089500240A94A7
:1036B00012161306140605060895092E0394000C2D
:1036C00011F4882352F0BB0F40F4BF2B11F460FFBC
:1036D00004C06F5F7F4F8F4F9F4F089557FD9058E5
:1036E000440F551F59F05F3F71F04795880F97FBC6
:1036F000991F61F09F3F79F0879508951216130680
:103700001406551FF2CF4695F1DF08C016161706AE
:103710001806991FF1CF86957105610508940895E3
:10372000E894BB2766277727CB0197F908950E9475
:10373000AA1B0C945D1B0E944F1B38F00E94561B65
:1037400020F0952311F00C94461B0C944C1B112473
:103750000C94911B0E946E1B70F3959FC1F3950F03
:1037600050E0551F629FF001729FBB27F00DB11D05
:10377000639FAA27F00DB11DAA1F649F6627B00D95
:10378000A11D661F829F2227B00DA11D621F739F7E
:10379000B00DA11D621F839FA00D611D221F749F8C
:1037A0003327A00D611D231F849F600D211D822FD3
:1037B000762F6A2F11249F5750409AF0F1F08823FA
:1037C0004AF0EE0FFF1FBB1F661F771F881F915027
:1037D0005040A9F79E3F510580F00C94461B0C9475
:1037E000911B5F3FE4F3983ED4F3869577956795F8
:1037F000B795F795E7959F5FC1F7FE2B880F911D51
:103800009695879597F90895A1E21A2EAA1BBB1BDE
:10381000FD010DC0AA1FBB1FEE1FFF1FA217B3079C
:10382000E407F50720F0A21BB30BE40BF50B661FB2
:10383000771F881F991F1A9469F760957095809576
:1038400090959B01AC01BD01CF010895052E97FB1A
:103850001EF400940E943D1C57FD07D00E94041CDA
:1038600007FC03D04EF40C943D1C509540953095C8
:1038700021953F4F4F4F5F4F0895909580957095DC
:1038800061957F4F8F4F9F4F0895EE0FFF1F05905B
:10389000F491E02D09940E94561CA59F900DB49FB1
:1038A000900DA49F800D911D11240895A29FB00139
:1038B000B39FC001A39F700D811D1124911DB29F64
:1038C000700D811D1124911D0895F999FECF92BDAF
:1038D00081BDF89A992780B50895262FF999FECFD2
:1038E0001FBA92BD81BD20BD0FB6F894FA9AF99A1D
:1038F0000FBE0196089512E0CEEBD2E004C0FE01A7
:103900000E94451C2196CF3BD107C9F7F894FFCF01
:103910000F0402B8220000796B6F637470612E721D
:103920007500000000000000000000000000000022
:103930000000000000000000000000000000000087
:103940000000000000000000000000000000000077
:103950000000000000000000000000000000000067
:103960000000000000000000000000000000000057
:103970000000000000000000000000000000000047
:103980000000000000000000000000000000000037
:1039900000000000000000000000008C03E8129FFF
:1039A000039F039F03A1030A2320646F6E65000039
:1039B000000000AB14E8126B164D165F16CA030028
:1039C0000000003C17E812FC161A1787169C160D0B
:1039D0000A006F76660000000000AB14E8126B1658
:1039E0004D165F16CA03000000003C17E812FC16D3
:1039F0001A1787169C16000000007917E812761730
:063A000076177617781717
:00000001FF
