:100000000C94B7020C94DF020C94DF020C94DF0214
:100010000C94DF020C94DF020C94DF020C949F1806
:100020000C94DF020C94DF020C948E150C94F214E5
:100030000C9431160C94DF020C94DF020C94DF0256
:100040000C94B6110C94DF020C9412040C94380436
:100050000C94DF020C94DF020C94DF020C94DF029C
:100060000C94DF020C94DF0290069406A406C006EE
:10007000B206CC06D806EB06010729072907691046
:100080002E100B100B107C100B100B100B100B1004
:100090000B103C1054100B100B1052110B100B10C6
:1000A0000B100B100B103710436F6E6E6563746589
:1000B000642100436F6E6E656374696E6720746FB0
:1000C0002055445020536572766572004445414383
:1000D00054006578697420636F6E736F6C650A00F5
:1000E0006E6577207325643D25730A006E65772061
:1000F0007225643D25730A00636F6E6E656374201C
:10010000646F6E650A00636F6E6E6563742073744E
:100110006172740A004D6F64656D20636F6E6E6569
:1001200063746564204F4B210047534D204D6F642D
:10013000656D20636F6E6E6563746564204F4B213F
:1001400000756E6B6E6F776E00656570726F6D20F7
:1001500077726974650A005B434F4E4649475D0AF2
:1001600000435243210A00636F6E736F6C65204F2A
:100170004B00633D25780A00636F6E736F6C6500FA
:1001800067736D2D6D6F64656D000A255320302EE9
:1001900030350A0041504E2053657400526567693E
:1001A0007374657265643A205374617274696E6722
:1001B00020436F6E66696775726174696F6E005374
:1001C000494D3830302052656164792026204C6FCB
:1001D0006164696E6700496E697469616C697A6906
:1001E0006E672E2E2E00454550524F4D2077726976
:1001F000746520646F6E652100434F4E4E45435435
:10020000005D00636F6E6E656374205B00222C00DE
:100210002B43495053544152543D22554450222CB3
:1002200022002B434C504F52543D22554450222C17
:10023000002B4349465352002E002B434949435259
:1002400000222C22222C2222002B435354543D22E4
:100250000022002B53415042523D332C312C22417D
:10026000504E222C220043474154543A002B43471E
:100270004154543F002B43474154543D31002B43DC
:100280004950434346473D382C31302C3330302CD5
:10029000302C302C3436302C3530002B4349504D27
:1002A0004F44453D31002B4349504D55583D30009A
:1002B0002B4347455245503D31002B43495552434E
:1002C0003D31002B4353434C4B3D30002B43534DAA
:1002D000494E533D31002B43534E533D34002B4385
:1002E00052433D31002B43523D31002B434D454598
:1002F0003D32002B435245473D32002B4349504489
:100300005044503D312C3130002B53415042523D2E
:10031000332C312C22434F4E54595045222C224726
:1003200050525322002B47534D425553593D3100F3
:100330002B435553443A002322002B435553443D4D
:10034000312C220023323C200020455252004552DD
:10035000524F52003D000A00233E2041540023200A
:1003600077616E743A204F4B206F722025530A003C
:10037000232077616E743A202553206F7220255315
:100380000A003C20002B4346554E3D312C31002BBA
:100390004346554E3D31002B4343414C523F0043B1
:1003A00043414C523A2031002B434C49503D3100DF
:1003B0002B434950534855543D31002B435343423E
:1003C0003D310045302056312058312053303D30EA
:1003D0000000435245473A20302C00327C8900ED22
:1003E000D96877000000590000000000000000D626
:1003F0009FDCA81817AA90437327F6B968EDF4DEBE
:10040000D409FEE61C1C84DDE80B992927D6DF8D74
:10041000210F036418EFEE1E99B7825276941500EF
:10042000347C000026149E988F0000006A31168FDD
:100430008C059600E7B73F3600000000000000AFD3
:10044000669ED0385D8A6C20B95422007CED044C45
:1004500080387486EDCBFA57CBDC19E2001DDF55EE
:1004600006E5CB01C30000000000000000009AB2C6
:100470000086DBD0BC5416131586004E44BD7F6F3A
:10048000151590010000B50000000000002F0000CD
:10049000AEE5000000000000000000004700000082
:1004A000000000000000000000000000000000004C
:1004B000000000000000000000000000000000003C
:1004C0000000000000000000000000005A000000D2
:1004D00000000008CC31AA2C532E006372617368AF
:1004E0003A003E0A003D0053003D0052005B434F7E
:1004F0004E4649475D0A001C383D43413A0041548D
:10050000004F4B004350494E3A2052454144590058
:100510002B435245473F002B4350494E3F000701B4
:1005200040470140010204081020408001020408F5
:10053000102001020408102004040404040404042C
:10054000020202020202030303030303000000008D
:1005500023002600290000000000250028002B00B1
:1005600000000000240027002A00610E7E0E1124E6
:100570001FBECFEFD8E0DEBFCDBF11E0A0E0B1E0FD
:10058000E4E9F9E302C005900D92A63FB107D9F75F
:1005900026E0A6EFB1E001C01D92AE37B207E1F749
:1005A00012E0C6EBD2E004C02197FE010E94871C36
:1005B000C53BD107C9F70E943B140C94E31A0C9475
:1005C0000000CF92DF92EF92FF920F931F93E82FDC
:1005D000F92F05C0015011092109310961F19081FC
:1005E00096239417B9F305C0015011092109310967
:1005F00011F1908196239413F7CFC12CD12CE12CCB
:10060000F12C0AC08FEFC81AD80AE80AF80A0C15AC
:100610001D052E053F0579F080818623841791F30F
:100620006C2D7D2D8E2D9F2D1F910F91FF90EF90A2
:10063000DF90CF90089560E070E080E090E01F913F
:100640000F91FF90EF90DF90CF900895FA01AA27C5
:10065000283051F1203181F1E8946F936E7F6E5F05
:100660007F4F8F4F9F4FAF4FB1E03ED0B4E03CD0B3
:10067000670F781F891F9A1FA11D680F791F8A1F96
:10068000911DA11D6A0F711D811D911DA11D20D0FD
:1006900009F468943F912AE0269F11243019305DB7
:1006A0003193DEF6CF010895462F4770405D4193A8
:1006B000B3E00FD0C9F7F6CF462F4F70405D4A33F5
:1006C00018F0495D31FD4052419302D0A9F7EACFBD
:1006D000B4E0A6959795879577956795BA95C9F7EC
:1006E00000976105710508959B01AC010A2E0694DF
:1006F0005795479537952795BA95C9F7620F731F98
:10070000841F951FA01D0895E091F601F091F70157
:10071000CF0101969093F7018093F6016083E091F9
:10072000F601F091F701108281E090E0089580E0F9
:1007300008950895FC01138212822BE831E0318381
:1007400020830895FB012081822790E1899F9001F9
:1007500011242827822F90E0582F44279C0163E022
:10076000220F331F6A95E1F742275327218130E09A
:100770002427352774E0959587957A95E1F78227A8
:1007800093279183808308959C01862FB9010E944D
:10079000A20308950E9489150895EF92FF920F9386
:1007A0001F93CF93DF931F92CDB7DEB77C018B01F0
:1007B000081B190B442361F0C8018E0D9F1D49834E
:1007C0000E94A71CF70181937F0149814150F2CF1C
:1007D0000F90DF91CF911F910F91FF90EF900895AF
:1007E000EF92FF920F931F93CF93DF931F92CDB79A
:1007F000DEB77B018C01442369F0F80161918F0120
:10080000C70149830E94AF1C49814150FFEFEF1A95
:10081000FF0AF1CF0F90DF91CF911F910F91FF90C1
:10082000EF9008951F920F920FB60F9211242F93FD
:100830008F939F93EF93FF939091C60080917406DE
:100840008F5F8F7720917506821741F0E0917406D3
:10085000F0E0EE50FA4F908380937406FF91EF9191
:100860009F918F912F910F900FBE0F901F90189511
:100870001F920F920FB60F9211248F939F93EF93B5
:10088000FF939091730680917206981779F0E0912A
:100890007306F0E0EE51FA4F80818093C60080919C
:1008A00073068F5F8F708093730605C08091C100BF
:1008B0008F7D8093C100FF91EF919F918F910F9059
:1008C0000FBE0F901F901895CF9361E08CE00E94AF
:1008D000D7120E944117C82F80916904882319F00C
:1008E0008C2F0E94981460E08CE00E94D7128C2F0D
:1008F000CF9108950F931F93CF93DF93EC018B015A
:100900000E940012DC01CB01800F911FA11DB11DBF
:1009100088839983AA83BB83DF91CF911F910F9125
:100920000895FC011382128223EA31E0318320838F
:10093000089561E081E10E94D71261E081E10E94A7
:100940009B1261E089E00E94D71261E089E00E9479
:100950009B1261E083E00E94D71261E083E00E9475
:100960009B1260E088E00E949B120895CF92DF9274
:10097000EF92FF92CF93DF936A017B01E901BC0103
:1009800085E694E00E9482172AE030E0B701A601D4
:1009900085E694E00E94D513BE0185E694E00E94AE
:1009A0008217DF91CF91FF90EF90DF90CF90089565
:1009B00061E070E080E090E00E94311208956AE00A
:1009C00070E080E090E00E943112089562E370E0F0
:1009D00080E090E00E94311208950E94E6040E9497
:1009E000E60408950E94ED040E94ED040E94ED04C7
:1009F000089560E083E00E94D7120E94F20461E053
:100A000083E00E94D7120E94ED04089568EE73E01F
:100A100080E090E00E943112089560E081E10E9440
:100A2000D7120E94060561E081E10E94D7120E9460
:100A3000060508950F931F93CF93DF9300D000D046
:100A4000CDB7DEB742E062E070E0CE0101960E94D1
:100A5000CD0389819A810B97A1F58FEF9FEF90933A
:100A600077048093760484E890E09A838983CE01AA
:100A700003969C838B8304E010E089819A81892B03
:100A800079F0C8010E94A71C66E774E00E94A203E7
:100A900089819A8101979A8389830F5F1F4FEDCFD8
:100AA00042E060E070E0CE0101960E94CD0381E05B
:100AB00049815A8120917604309177044217530777
:100AC00009F080E00F900F900F900F90DF91CF9181
:100AD0001F910F91089544E864E070E083E091E095
:100AE0000E94CD030895EF92FF921F93CF93DF935F
:100AF0008FEF9FEF909377048093760483E0E82E46
:100B000081E0F82EC4E0D0E0F70111917F01612F60
:100B1000CE010E94AF1C66E774E0812F0E94A20301
:100B20002196C838D10581F742E060E070E086E7A1
:100B300094E00E94F0038BE090E090937704809320
:100B4000760442E062E070E086E794E00E94F00301
:100B500066EE71E08EE694E00E9482178EE694E0E5
:100B60000E947513DF91CF911F91FF90EF90089530
:100B70006DEE74E085E694E00E94821729EE34E081
:100B800040E050E0BA018BEE94E00E94B604409140
:100B900003015091040160910501709106012AE062
:100BA00030E085E694E00E94281425EE34E041E030
:100BB00050E060E070E087EE94E00E94B604EEE161
:100BC000F5E06591749185E694E00E947A1325EE34
:100BD00034E042E050E060E070E087EE94E00E9494
:100BE000B604E1E2F5E06591749185E694E00E9437
:100BF0007A1362EE74E085E694E00E94821708950D
:100C00008A3011F08D3029F40E943D0B84E092E08F
:100C100018C0E0910101F091020192E0E338F90778
:100C2000A8F00E943D0BA0910101B09102011A971A
:100C30008AE0E4E0F2E001900D928A95E1F78EE01F
:100C400092E0909302018093010108959F012F5F2C
:100C50003F4F309302012093010180830895CF9389
:100C60000E94A416882381F061E08BE00E94D712D5
:100C70000E947D16C82F0E945F178C2F0E940006CD
:100C800060E08BE00E94D712CF91089580916904B3
:100C900081110E942F060E94311708952F923F92D2
:100CA0004F925F926F927F928F929F92AF92BF927C
:100CB000CF92DF92EF92FF920F931F93CF93DF9328
:100CC0001F92CDB7DEB710922A05612C772473945A
:100CD00087E0282E312C96E0492E512C05E010E0BB
:100CE00024E0C22ED12C32E0A32EB12C88248A9489
:100CF000982C0E944606882309F461C20E9464046D
:100D0000282F1092F8018091FB019091FC018B300B
:100D1000910508F0B8C0FC01EC5CFF4F0C94871CF7
:100D200010920302109202022E3F19F081E090E02F
:100D300022C0B092FC01A092FB0110925803909245
:100D40005603809255039FC0209358031092FD01D3
:100D5000622F85E593E00E94C403D092FC01C0920B
:100D6000FB0191C020935903622F85E593E00E9417
:100D7000C40383E090E09093FC018093FB0183C067
:100D800020935A03622F85E593E00E94C4031093D9
:100D9000FC010093FB0177C020935B03622F85E584
:100DA00093E00E94C4035092FC014092FB016BC08F
:100DB00020935C03622F85E593E00E94C403809139
:100DC0005803811103C088E090E0D5CF3092FC0138
:100DD0002092FB0158C0E091FD0181E08E0F8093CD
:100DE000FD01F0E0E35AFC4F2083622F85E593E09C
:100DF0000E94C4039091FD0180915803981343C051
:100E0000E2CFE0915C03F0E0E552FC4F649185E5B0
:100E100093E029830E94C4032981422F50E08091EE
:100E200055039091560399274817590731F02E3FE3
:100E300009F47FCF8AE090E09ECF89E090E0909324
:100E4000FC018093FB01E091FD01F0E0E35AFC4FCF
:100E500019C0422F50E0E0905603F12C4E155F056B
:100E600009F062CF0A9709F45FCF7092F80181E030
:100E700090E09093FC018093FB01E091FD01F0E094
:100E8000E25AFC4F20832091F801222399F08091AF
:100E900059038093FE018091000290910102009716
:100EA00021F4109203021092020201969093010223
:100EB000809300021092FA01222309F477C160E0C6
:100EC00070E08DE994E00E947A0470922A05709295
:100ED0002D0580915C03882309F45EC090919C04E9
:100EE000992321F020915A03921369C18E3309F49A
:100EF00027C190F4883109F464C08E3109F48EC0A2
:100F0000813009F053C180916B0390916C039093F1
:100F10007D0480937C044AC1893609F4AAC08D3FC0
:100F200009F429C18A3409F041C180916F0380938B
:100F3000990420E030E048EC52E460916503709140
:100F4000660380916703909168030E94D91B0E94F9
:100F5000521B60939504709396048093970490932A
:100F6000980420E030E048EC52E46091690370910D
:100F70006A0380916B0390916C030E94D91B0E94BD
:100F8000521B609391047093920480939304909306
:100F900094040E945D0E0AC180916103863009F4B9
:100FA00005C180915A0380939C0480915D038093D6
:100FB0008C0480916303881F8827881F80933105E4
:100FC000F5C08091650390916603A0916703B0918D
:100FD00068038093220590932305A0932405B09382
:100FE00025058091690390916A03A0916B03B091EC
:100FF0006C038093260590932705A0932805B09352
:1010000029058091790380939A0480917A038093D3
:101010009B047092320566246394C8C021EE3EE2C0
:1010200045E652E460916503709166038091670321
:10103000909168030E94D91B0E94521B70939004E8
:1010400060938F0421EE3EE245E652E46091610335
:101050007091620380916303909164030E94D91B95
:101060000E94521B70938E0460938D040E945E0E4A
:101070009DC08091840490918504A0918604B091D4
:1010800087048093780490937904A0937A04B093B2
:101090007B0420E030E048EC52E4609191037091D1
:1010A000920380919303909194030E94D91B0E9414
:1010B000521B6093840470938504809386049093FC
:1010C000870420E030E04AE754E4609165037091C2
:1010D000660380916703909168030E94D91B0E9468
:1010E000521B709383046093820420E030E04AE74F
:1010F00054E46091690370916A0380916B0390914D
:101100006C030E94D91B0E94521B70938104609350
:10111000800420E030E04AE754E460916D03709170
:101120006E0380916F03909170030E94D91B0E94FF
:10113000521B70937F0460937E040E945F0E36C042
:1011400020E030E048EC52E4609165037091660362
:1011500080916703909168030E94D91B0E94521BE3
:10116000609388047093890480938A0490938B041D
:101170000E94600E1BC080915D038430B8F482E34E
:10118000EEE5F3E0A1EAB4E001900D928A95E1F773
:101190001092D30446E050E06BED74E081EA94E0F5
:1011A0000E94E61A892B11F4709233050E943117C0
:1011B00081119FCD8AEA90E00E946D129ACD862D12
:1011C0000F90DF91CF911F910F91FF90EF90DF90E3
:1011D000CF90BF90AF909F908F907F906F905F90D7
:1011E0004F903F902F900895CF92DF92EF92FF9211
:1011F000CF93DF9380912D05882339F00E944E060E
:1012000090912D0590932E0571C080912E0581112E
:10121000F5CF0E942E1761E08BE00E94D71261E0AB
:101220008CE00E94D7120E9400126B017C0124E620
:10123000C20ED11CE11CF11CDAEFCFEF24EC39E037
:1012400040E050E060E080E00E94F8126F3F7105DE
:101250008105910509F064F4662351F06C1708F4D8
:10126000C62F0E940012C616D706E806F90610F02F
:10127000D15021F7CF3F19F4C091000102C0C093B3
:101280000001CB3060F0C33160F0CD3160F0C83286
:1012900060F0CC3360F0C63960F081E00BC088E1CB
:1012A00009C08CE007C088E005C086E003C084E088
:1012B00001C082E020EC32E1829FB001839F700D7B
:1012C0001124072E000C880B990B0E94EF1660E08A
:1012D0008CE00E94D71260E08BE00E94D71281E080
:1012E00080932E0580913405811188CFDF91CF91B5
:1012F000FF90EF90DF90CF900895EF92FF920F93C1
:101300001F93CF938C017B01C0E00E9446068111A0
:1013100009C0E114F10419F0F7010995F6CF0E9414
:10132000D804F3CF0E9464048D3051F4F801EC0F1F
:10133000F11D1082CF911F910F91FF90EF900895B2
:10134000CC2319F08A3019F4F1CF8A30F1F2F80188
:10135000EC0FF11D8083C7FDD8CFCF5FD6CF60E003
:1013600070E00E947D090895CF930E94A4168823FF
:10137000C9F062E873E08EE694E00E9482170E9452
:10138000A416882361F00E947D16C82F682F8EE670
:1013900094E00E946D138C2F0E940006F0CF0E94F3
:1013A000DF04E3CFCF910895CF92DF92EF92FF92C7
:1013B0000F931F93CF93DF937C01D62FC72F8A0102
:1013C00069010E94B4091F930F93CF93DF9380E7C5
:1013D00093E09F938F938EE694E09F938F930E9468
:1013E000A71768E573E08EE694E00E948217B701C4
:1013F0008EE694E00E949C176EEF74E08AE694E01B
:101400000E948217B7018AE694E00E949C17A60109
:10141000B8018D2F9C2F0E94620A91E02DB73EB734
:10142000285F3F4F0FB6F8943EBF0FBE2DBF8130EF
:1014300009F090E0892FDF91CF911F910F91FF90DC
:10144000EF90DF90CF900895CF93CDE3C150D1F0CE
:1014500028EE33E042ED53E061E075E080E195E095
:101460000E94D409882371F0E0918502F0918602F0
:101470008085833339F0853339F0813329F00E9438
:101480000605E4CF80E001C081E0CF91089528EE09
:1014900033E040E050E061E075E00E94D409089537
:1014A00080918B02882369F00E94F9040E940D0547
:1014B00010928B0285E893E00E94470AEE27FF27EF
:1014C000099408954F925F926F927F92AF92BF926C
:1014D000CF92DF92EF92FF920F931F93CF93DF9300
:1014E0005C017B01EA010E94001244E64C9F9001DE
:1014F0004D9F300D11242B013C01420E531E611CE7
:10150000711C1092860210928502D1E0E114F10460
:1015100009F0D0E061E08BE00E94D7120E94ED0458
:1015200060E08BE00E94D71266E573E08EE694E0FF
:101530000E948217C0E00DE812E084E4C82E83E028
:10154000D82E0E94DF040E94A416882309F471C0DB
:1015500061E08CE00E94D7120F5F1F4F0E947D1642
:10156000F80131978083F8011082682F8EE694E0AD
:101570000E946D130E94A4168111EECF60E08CE0F2
:101580000E94D712C11134C0B5018DE892E00E94CB
:10159000091B9093880280938702892B41F064E5B0
:1015A00073E08EE694E00E948217C1E013C06EE4FF
:1015B00073E08DE892E00E94091B9093880280936B
:1015C0008702892B39F069E473E08EE694E00E948B
:1015D0008217C3E06CEC70E08DE892E00E94091B7A
:1015E0009093880280938702892B11F00E94500A01
:1015F000E114F10411F1B7018DE892E00E94091B9A
:101600009093860280938502D1E0009709F4D0E0A0
:101610009F938F93DF92CF928EE694E09F938F9368
:101620000E94A7170F900F900F900F900F900F90A0
:1016300004C0CC2311F0D11108C00E94001264151F
:1016400075058605970508F47CCF67E971E08EE69D
:1016500094E00E947A13C0938C028C2FDF91CF917B
:101660001F910F91FF90EF90DF90CF90BF90AF90C0
:101670007F906F905F904F90089545E050E06CEC44
:1016800070E084E092E00E94E61A892B11F40E9437
:10169000500A08959B0140E050E061E075E00E942F
:1016A000D4090895CF93C7E362E070E081ED93E041
:1016B0000E944A0B811103C0C150B1F701C081E003
:1016C000CF910895CF93DF939B01AC0180918A0263
:1016D00081116FC080916400877F80936400DA017C
:1016E000C901B695A79597958795BC01CD017C5DFD
:1016F0008B409F4F0E94461CCA01B9010E944414AE
:101700000E940D05CBE00E94520B8823A9F183ECC7
:1017100093E00E94470A8FE893E00E94470A8BEB10
:1017200093E00E94470A62E070E080EB93E00E9441
:101730004A0B28EE33E040E050E064E075E087E1DA
:1017400095E00E94D409D82F88EA93E00E94470AC6
:10175000DD23B1F00E94240A882391F028EE33E0C3
:1017600040E050E06FE973E087E993E00E94D4091C
:10177000982F882329F01FC00E94F9040E940D05AC
:1017800085E893E00E94470AD7E00E940605D15001
:10179000E1F7C15009F0B7CF0E94B51680916400FF
:1017A00088608093640090E081E0911108C080E03F
:1017B00006C081E004C081E080938A02F5CFDF910A
:1017C000CF91089560E071EE80E090E00E94620B9E
:1017D000089585E293E00E94470A89E093E00E9421
:1017E000470A8BEF92E00E94470A83EF92E00E9443
:1017F000470A882309F44DC08BEE92E00E94470A05
:10180000882309F446C085EE92E00E94470A8823A7
:1018100009F43FC08EED92E00E94470A8823C9F187
:1018200086ED92E00E94470A882399F18CEC92E0C1
:101830000E94470A882369F183EC92E00E94470ADC
:10184000882339F18AEB92E00E94470A882309F144
:1018500080EB92E00E94470A8823D9F086EA92E062
:101860000E94470A8823A9F08BE992E00E94470A68
:10187000882379F08EE792E00E94470A882349F096
:101880006EEE72E085E792E00E944A0B91E08111D2
:1018900001C090E0892F0895EF92FF920F931F935C
:1018A000CF93DF9300D0CDB7DEB78C01F62EE72EB5
:1018B00049835A830E94B409EF92FF928EE593E028
:1018C0009F938F938EE694E09F938F930E94A71728
:1018D00068E573E08EE694E00E948217B8018EE618
:1018E00094E00E949C176EEF74E08AE694E00E94F8
:1018F0008217B8018AE694E00E947A1349815A81DE
:101900006F2D7E2D81E095E00E94620A91E00F909C
:101910000F900F900F900F900F90813009F090E092
:10192000892F0F900F90DF91CF911F910F91FF9012
:10193000EF900895EF92FF920F931F93CF93DF9351
:10194000CDB7DEB7C055D1090FB6F894DEBF0FBED4
:10195000CDBF7C0128E532E046E652E061E075E06B
:101960008DE692E00E94D4098823A9F02091850297
:1019700030918602295F3F4FC9012F5F3F4FFC0125
:1019800040814032C9F30E94BC1A81E0611101C05C
:1019900080E0809389028E010F5F1F4F1093F70143
:1019A0000093F60163E572E085E395E00E948217FB
:1019B000B70185E395E00E946A1361E572E085E373
:1019C00095E00E94821748EE53E060E070E0C801A5
:1019D0000E944C0C8823F9F01093F7010093F60154
:1019E00069E472E085E395E00E948217B70185E320
:1019F00095E00E946A1361E472E085E395E00E943D
:101A0000821748EE53E060E070E0C8010E944C0C81
:101A100091E0813009F090E0892FC05BDF4F0FB675
:101A2000F894DEBF0FBECDBFDF91CF911F910F9114
:101A3000FF90EF900895CF93DF9366ED71E08EE60F
:101A400094E00E949C170E94E20B81111BC0CFE022
:101A5000D0E060E08BE00E94D7120E94F20461E0C7
:101A60008BE00E94D71260E08CE00E94D7120E94A7
:101A7000F20461E08CE00E94D712219751F7EE2723
:101A8000FF2709946FEB71E08EE694E00E949C17AB
:101A900081E0809384026CE971E08EE694E00E941C
:101AA0009C170E94E90B882371F287E491E00E9461
:101AB0009A0C882341F264E971E08EE694E00E947A
:101AC0009C17DF91CF910895EF92FF920F931F9390
:101AD000CF93DF93CDB7DEB7C054D1090FB6F894DA
:101AE000DEBF0FBECDBF7C016EE170E08AE392E005
:101AF0000E944A0B882389F128EE33E041E055E04B
:101B000068E372E081E392E00E94D409882329F11E
:101B10000E94B4098E010F5F1F4F1093F7010093CD
:101B2000F60162E272E085E395E00E9482174AE0E6
:101B300050E0B70185E395E00E94E413B8018EE61A
:101B400094E00E946A1348EE53E060E070E0C80140
:101B50000E944C0C91E0813009F090E0892FC05C2C
:101B6000DF4F0FB6F894DEBF0FBECDBFDF91CF9130
:101B70001F910F91FF90EF900895CF92DF92EF9217
:101B8000FF920F931F93CF93DF93CDB7DEB7C0546F
:101B9000D1090FB6F894DEBF0FBECDBF6C017B013B
:101BA0000E94B4098E010F5F1F4F1093F70100933D
:101BB000F60160E172E085E395E00E948217B601CC
:101BC00085E395E00E946A136DE072E085E395E09D
:101BD0000E9482174AE050E0B70185E395E00E9439
:101BE000E41363E072E08EE694E00E948217B8018D
:101BF0008EE694E00E946A1361E072E08EE694E063
:101C00000E949C1740E456E069EF71E0C8010E9411
:101C10004C0C813019F480938B0201C080E0C05CD1
:101C2000DF4F0FB6F894DEBF0FBECDBFDF91CF916F
:101C30001F910F91FF90EF90DF90CF9008950E9439
:101C4000F40880912D058823B9F1809169048111F0
:101C500033C061E08BE00E94D71261E08CE00E940B
:101C6000D71280910301909104010E94640D63EBEF
:101C700070E08EE694E00E949C17609103017091E1
:101C8000040187E091E00E94BD0D81E0809369042A
:101C900068EA70E08EE694E00E949C1761E08CE0B8
:101CA0000E94D71260E08BE00E94D7120E940605C6
:101CB00060E08CE00E94D712089508950895089579
:101CC000089585E395E00E949A0382E794E00E94DC
:101CD000E7164DE060E08EE694E00E942D188AE65B
:101CE00094E00E94910485E694E00E94E71683EB5D
:101CF00091E0909366048093650408958AEC91E0E6
:101D000090936B0480936A040E94B51608958F9295
:101D10009F92BF92CF92DF92EF92FF920F931F9309
:101D2000CF93DF93CDB7DEB7A1970FB6F894DEBFA0
:101D30000FBECDBF6C010E94B409B12C8E010F5FA4
:101D40001F4F7801F092F701E092F6016AE373E029
:101D500085E395E00E948217BB2011F06AE201C082
:101D600063E285E395E00E9484034AE050E0B60117
:101D700085E395E00E94E41367E373E085E395E073
:101D80000E94821748EC50E060E373E0C7010E94B4
:101D90004C0C813039F0B11003C0BB24B394D2CFC6
:101DA00080E060C089A30E94F204A0918502B091F6
:101DB00086024D0116E0810E911C50E0E1EAF4E04C
:101DC00020E030E060E040E07DE289A1D4019D9117
:101DD0004D01992309F445C0923221F4611142C0AA
:101DE00061E0F4CF662391F3BB20B9F1790124E0DF
:101DF000EE0CFF1C2A95E1F791360CF0905230ED75
:101E0000390F3A3014F039EC390F6701C30ED11C89
:101E100037FDDA9496014F5F4430C1F69C2DE52ED4
:101E2000F12C870109501B4FD8014C91C41202C0FC
:101E30005F5F07C0563021F470831182319601C074
:101E400050E02F3F310529F020F020E030E040E065
:101E5000BDCF908311823196F8CF90831182319655
:101E6000B5CF862FA1960FB6F894DEBF0FBECDBFBB
:101E7000DF91CF911F910F91FF90EF90DF90CF9066
:101E8000BF909F908F9008952F923F924F925F92B4
:101E90006F927F928F929F92AF92BF92CF92DF927A
:101EA000EF92FF920F931F93CF93DF93CDB7DEB7DF
:101EB000C558D1090FB6F894DEBF0FBECDBF84E878
:101EC000E3E0F1E0DE01119601900D928A95E1F7D1
:101ED00061E08CE00E94D71261E08BE00E94D71293
:101EE00068EE73E080E090E00E94311280E891E0BB
:101EF0009F938F938AE891E09F938F9385E694E078
:101F00009F938F930E94A71768E771E08EE694E095
:101F10000E9482178EE694E00E9475130F900F9036
:101F20000F900F900F900F9005E1F2E7EF2EF1E088
:101F3000FF2EAEE6CA2EA4E0DA2E0E9400124B015C
:101F40005C0128EB820E2BE0921EA11CB11C10E05C
:101F50000E940012681579058A059B0548F50E94C4
:101F600046068823A9F30E9464041F928F93FF9270
:101F7000EF92DF92CF92CB57DF4F8883C558D04086
:101F80000E94A7170F900F900F900F900F900F9037
:101F9000CB57DF4F8881C558D040193048F4E12F26
:101FA000F0E0E058FE4FE4918E13D1CF1F5FD0CF09
:101FB000193009F053C167E671E08EE694E00E94A3
:101FC0009C170E941A0581110CC061E671E08EE633
:101FD00094E00E9482178EE694E00E9475130E949E
:101FE00073050E946B054CEE642E40E0742E0EE6E5
:101FF00014E050EEE52E50E0F52E66E0C62E61E0CE
:10200000D62E78EFA72E70E0B72E33243394E9E470
:102010008E2EE1E09E2E67E571E085E694E00E9459
:1020200082170E94B80581EA94E00E94AF092091CE
:10203000A104222309F49FC08091A20481119BC0B6
:102040001092A104822F90E0FC01E356F109E531E2
:10205000F10508F7E15CFF4F0C94871C84E8FE0152
:102060003196A3E0B1E001900D928A95E1F70E94CC
:1020700073059F928F9265C080918402811102C086
:102080000E941B0D84E690E00E94870E8091A104BF
:10209000882339F061EA74E085E694E00E947A13BF
:1020A000BACF61E471E010C080918402811102C056
:1020B0000E941B0D85E690E00E94870E8091A1048E
:1020C0008111E8CF61E471E085E694E00E949C17FD
:1020D000A2CF80918402811102C00E941B0D309218
:1020E0002D050E941F0E69E271E08AE694E00E94CD
:1020F0009C1765E171E0E8CF80918402811102C0F4
:102100000E941B0DDF92CF921F930F930E94A7177F
:102110000F900F900F900F906FE276E081EA94E0BD
:102120000E947D098091A1048E3229F031EA432E6C
:1021300034E0532E0FC08091A2048111F7CFBF92DB
:10214000AF921F930F930E94A7170F900F900F90BD
:102150000F9061CFF20161912F018AE694E066232E
:1021600019F00E94ED14F6CF0E9475138091A1041E
:102170008111D2CFE4CF82EA94E0CB57DF4F28839E
:10218000C558D0400E94BC1A262EE1EAF4E0CB5795
:10219000DF4F2881C558D0402F018191882319F045
:1021A0002F018D33C9F7223529F0233549F12C341D
:1021B00009F031CFF1E0F21508F42DCFF201808162
:1021C000882309F428CFC2010E94BC1A24E0229E71
:1021D000F0011124ED5FFE4F60837183828393834E
:1021E0005F924F921F922F927F926F921F930F9345
:1021F0000E94A7170FB6F894DEBF0FBECDBF0BCF5E
:1022000092E0921508F407CF5F924F921F922F929F
:10221000FF92EF921F930F930E94A7178FEF820DEB
:102220000FB6F894DEBF0FBECDBF823008F0F3CEFC
:1022300090E0FC01EE0FFF1F8E0F9F1FFC01E05E80
:10224000FA4F4491FC01E25EFA4F8591949150E07F
:1022500041505109B2010E94231BDDCE0E941A0594
:10226000882319F00E946B051DC0015019F40E94CB
:10227000730518C013E060E08BE00E94D7120E9443
:10228000F20461E08BE00E94D71260E08CE00E94D3
:10229000D7120E94F20461E08CE00E94D712115024
:1022A00051F74BCE82ED90E09F938F938EE694E0B2
:1022B0009F938F930E94A71760E08CE00E94D71233
:1022C00060E08BE00E94D7120F900F900F900F905C
:1022D000CB57DF4F0FB6F894DEBF0FBECDBFDF91F7
:1022E000CF911F910F91FF90EF90DF90CF90BF9013
:1022F000AF909F908F907F906F905F904F903F90A6
:102300002F90089561E08CE00E949B1261E08BE0C9
:102310000E949B1260E08CE00E94D71261E08BE08B
:102320000E94D71261E083E00E94D71261E083E04F
:102330000E949B120E94990460E071EE80E090E0A0
:102340000E94381860E071EE80E090E00E94EF1685
:1023500078940E94440F80918402811102C00E94EF
:102360001B0D60E08BE00E94D71208951F920F9220
:102370000FB60F9211242F933F938F939F93AF9398
:10238000BF9380913A0590913B05A0913C05B09197
:102390003D053091390523E0230F2D3720F40196B8
:1023A000A11DB11D05C026E8230F0296A11DB11D78
:1023B0002093390580933A0590933B05A0933C0503
:1023C000B0933D0580913E0590913F05A091400559
:1023D000B09141050196A11DB11D80933E059093DA
:1023E0003F05A0934005B0934105BF91AF919F91E8
:1023F0008F913F912F910F900FBE0F901F901895C6
:102400002FB7F89460913A0570913B0580913C0597
:1024100090913D052FBF08953FB7F89480913E05F8
:1024200090913F05A0914005B091410526B5A89B2C
:1024300005C02F3F19F00196A11DB11D3FBFBA2F56
:10244000A92F982F8827820F911DA11DB11DBC01B6
:10245000CD0142E0660F771F881F991F4A95D1F77B
:1024600008958F929F92AF92BF92CF92DF92EF9298
:10247000FF926B017C010E940C124B015C01C114A4
:10248000D104E104F10401F10E94F7120E940C1240
:10249000DC01CB0188199909AA09BB09883E934040
:1024A000A105B10560F321E0C21AD108E108F108E5
:1024B00088EE880E83E0981EA11CB11CC114D104C3
:1024C000E104F10419F7DBCFFF90EF90DF90CF909C
:1024D000BF90AF909F908F9008958230910538F013
:1024E000880F991F880F991F05970197F1F7089595
:1024F000789484B5826084BD84B5816084BD85B5DF
:10250000826085BD85B5816085BDEEE6F0E08081A5
:1025100081608083EAE7F0E080818460808380814D
:1025200082608083808181608083808180688083F5
:102530001092C1000895CF93DF9390E0FC01EC5D11
:10254000FA4F2491FC01E85CFA4F8491882361F1F1
:1025500090E0880F991FFC01E05AFA4FC591D49181
:10256000FC01EA5AFA4FA591B491611109C09FB7D5
:10257000F8948881209582238883EC912E230BC0C8
:10258000623061F49FB7F8948881322F30958323AD
:102590008883EC912E2B2C939FBF06C08FB7F894A5
:1025A000E8812E2B28838FBFDF91CF91089590E093
:1025B000FC01EC5DFA4F2491FC01E85CFA4FE491D8
:1025C000EE23A1F0F0E0EE0FFF1FEA5AFA4FA591BB
:1025D000B4919FB7F894611105C08C91E22FE095FA
:1025E000E82302C0EC91E22BEC939FBF089508957D
:1025F0000F931F9390E0FC01EC5DFA4F7491FC0186
:10260000E85CFA4FE491662311F0672F01C060E0A7
:10261000F0E0EE0FFF1FE45BFA4F85919491890182
:102620009A013F70462F672F0E94E10261157105E4
:102630008105910549F0DC01CB010196A11DB11D79
:10264000BC01CD019F7003C060E070E0CB011F9121
:102650000F910895CF92DF92EF92FF920F931F9305
:10266000CF93DF936C017A018B01C0E0D0E0CE15EF
:10267000DF0581F0D8016D918D01D601ED91FC91BE
:102680000190F081E02DC6010995892B11F021966A
:10269000EECF7E01C701DF91CF911F910F91FF9087
:1026A000EF90DF90CF9008956115710581F0FB01E7
:1026B00001900020E9F73197AF01461B570BDC0171
:1026C000ED91FC910280F381E02D0995089580E061
:1026D00090E008950E9454130895DC01ED91FC915F
:1026E0000190F081E02D099508956FEB71E00E9453
:1026F000541308950F931F93CF93DF93EC010E941F
:1027000054138C01CE010E947513800F911FDF912D
:10271000CF911F910F9108958F929F92AF92BF9288
:10272000EF92FF920F931F93CF93DF93CDB7DEB756
:10273000A1970FB6F894DEBF0FBECDBF7C01FA01A2
:10274000CB0119A2223008F42AE08E010F5D1F4F41
:10275000822E912CA12CB12CBF01A50194010E94C5
:10276000461CF901CA01015011096A3014F4605D78
:1027700001C0695CD8016C93232B242B252B61F7B6
:10278000B801C7010E945413A1960FB6F894DEBF9A
:102790000FBECDBFDF91CF911F910F91FF90EF90B2
:1027A000BF90AF909F908F9008952115310549F407
:1027B000DC01ED91FC910190F081E02D642F0995F1
:1027C00008950E948C1308959A01AB0160E070E0B7
:1027D0000E94D5130895CF92DF92EF92FF920F934C
:1027E0001F93CF93DF938C016A017B012115310583
:1027F00049F4DC01ED91FC910190F081E02D642F12
:1028000009951DC02A303105A9F477FF12C06DE289
:102810000E946D13EC0144275527BA014C195D093C
:102820006E097F092AE0C8010E948C138C0F9D1F3E
:1028300006C02AE0B701A601C8010E948C13DF91EF
:10284000CF911F910F91FF90EF90DF90CF9008955F
:102850000F931F93CF93DF93EC010E94EB138C0136
:10286000CE010E947513800F911FDF91CF911F91B0
:102870000F91089508950E9478120E943A140E94C0
:1028800082110E941F0EFDCF9B01AC012D3A8BE1FE
:1028900038074105510530F410926F001092800006
:1028A00081E812C063E056954795379527956A955C
:1028B000D1F72D3A8BE1380741055105C0F510924B
:1028C0006F001092800082E8809381003093E105D0
:1028D0002093E005A5E2B0E00E948D1CDC01CB0155
:1028E00022E0B695A795979587952A95D1F790936D
:1028F000DA058093D90562E088E00E949B1261E0CE
:1029000089E00E94D71261E089E00E949B12109238
:10291000DF051092D8051092D70510925605109237
:1029200053051092520580E286BB80936F00089594
:10293000CF92DF92EF92FF92CF93DF93D82FC09187
:102940005305CF5FCF700E9400126B017C0124E120
:10295000C20ED11CE11CF11C80915205C81309C0A4
:102960000E940012C616D706E806F906A8F780E00E
:102970002DC02FB7F89480915605882341F0EC2F95
:10298000F0E0EE5BFA4FD083C09353051DC081E0A9
:1029900080935605D09355051092540582E086BB6E
:1029A00080916F00826080936F00809180008F7BA8
:1029B000806880938000809184009091850040968B
:1029C00090938900809388002FBF81E0DF91CF91A1
:1029D000FF90EF90DF90CF900895862F0E9498147B
:1029E00090E008951F920F920FB60F9211242F932B
:1029F0003F934F935F936F937F938F939F93EF9347
:102A0000FF93809156056091550520918800309183
:102A100089004091E0055091E105909154058A307C
:102A2000F8F4240F351F893019F0762F717001C02A
:102A300071E066958F5F791791F39091800077230D
:102A400011F0906C02C09F7B90689093800030934F
:102A5000890020938800709354056093550548C001
:102A6000E091520590915305E91319C08A3051F451
:102A70008BE080935605240F351F309389002093F7
:102A8000880038C010925605809180008F73809323
:102A9000800080916F008D7F80936F002BC0EF5F6F
:102AA000EF70E0935205F0E0EE5BFA4F9081909367
:102AB000550510925405909180009F7B90689093EB
:102AC00080008A3059F48091E0059091E105280F4B
:102AD000391F309389002093880009C080918400B9
:102AE000909185004096909389008093880081E0C2
:102AF00080935605FF91EF919F918F917F916F91F8
:102B00005F914F913F912F910F900FBE0F901F90AB
:102B10001895809156058111FCCF08951F920F9250
:102B20000FB60F9211242F933F934F935F936F93A0
:102B30007F938F939F93EF93FF9380918600909163
:102B400087004091DD0520918100442331F02F7BE7
:102B5000209381001092DD0506C02064209381003F
:102B600020E82093DD053091DF05311125C04111AA
:102B700069C02091D9053091DA05280F391F3093AB
:102B80008B0020938A0024E026BB20916F002460F4
:102B900020936F002091E0053091E105820F931F93
:102BA00036952795820F931F9093DC058093DB0564
:102BB00081E08093DF0546C04091DB055091DC0544
:102BC0002091DE057091DD05E091E005F091E105D1
:102BD000841B950B60E097FD2CC02695272B4E0F8C
:102BE0005F1F3F5F8E1B9F0B61E03930A0F3209386
:102BF000DE0580916F008B7F80936F008091D805F8
:102C00008F5F8F779091D705891749F0E82FF0E013
:102C10009091DE05E95AFA4F90838093D805809110
:102C200081008F7B809381001092DD051092DF057B
:102C300009C061112093DE055093DC054093DB054C
:102C40003093DF05FF91EF919F918F917F916F916D
:102C50005F914F913F912F910F900FBE0F901F905A
:102C600018951F920F920FB60F9211242F933F9336
:102C70008F939F93EF93FF9380916F008B7F80934F
:102C80006F00809181008F7B809381009091DF05A0
:102C90002091DD0520588091DE0530E0993028F440
:102CA0008695822B9F5F31E0F9CF31118093DE054D
:102CB0008091D8058F5F8F779091D705891749F05C
:102CC000E82FF0E09091DE05E95AFA4F9083809367
:102CD000D8051092DF05809181008F7B8093810061
:102CE0001092DD05FF91EF919F918F913F912F9170
:102CF0000F900FBE0F901F9018959091D70580915F
:102D0000D805981751F09F5F9F77E92FF0E0E95AB7
:102D1000FA4F80819093D705089580E008950E942E
:102D20007D160895E091D7058091D805E81739F010
:102D3000EF5FEF77F0E0E95AFA4F8081089580E085
:102D400008950E94921608958091D8059091D70514
:102D5000891708F48058891B08950E94A4160895C5
:102D60008091D7058093D8050895CF93DF93CFE660
:102D7000D0E088818B7F888388818F7D88830E94C3
:102D8000B0160E94891588818D7F8883DF91CF914D
:102D900008959091C100892F807194FF0EC0909189
:102DA000740680917506981302C080E00895E09142
:102DB0007506F0E0EE50FA4F80810895E4E7F6E002
:102DC00081818083E2E7F6E0808181830895FC01C0
:102DD000138212822AED31E03183208308959B0112
:102DE000AC018091C10084FD1092C1001092730665
:102DF000109272061092750610927406121613063F
:102E000014061506FCF4211581EE3807410551051D
:102E100001F182E08093C00060E079E08DE390E012
:102E20000E94681CCA01B9016150710981099109A8
:102E300022E030E040E050E00E94681C3093C50082
:102E40002093C40088E98093C10086E08093C2008B
:102E500008951092C00020E130E0F0CF1092C10040
:102E600008959091C100892F807194FF06C08091D0
:102E7000740690917506891B8F7708950E9431170B
:102E800008959091C100892F807194FF14C0909192
:102E9000740680917506981302C080E00895E09151
:102EA0007506F0E0EE50FA4F8081909175069F5FB5
:102EB0009F779093750608950E9441170895909109
:102EC000C10094FF18C0909172069F5F9F7020917F
:102ED00073069217E1F3E0917206F0E0EE51FA4FBB
:102EE0008083909372068091C10080628093C100BC
:102EF00081E090E0089580E090E00895862F0E94A0
:102F00005F1708950F931F93CF93DF938C01FB01FD
:102F10006491EF012196662351F0D801ED91FC9167
:102F20000190F081E02DC8010995FE01F1CFDF91FC
:102F3000CF911F910F910895CF93DF93EC010E94E1
:102F40008217CE010E947513DF91CF910895CF9320
:102F5000DF93CDB7DEB79E01275F3F4F4F81588586
:102F600061E08D819E810E94CE18DF91CF910895FE
:102F700080E00895089520917906211108C021E08C
:102F800030E0FC013383228380E090E0089580915B
:102F90007906109277061092B2008093B30082E017
:102FA0008093B000809176068093B100B99A8091A9
:102FB000700082608093700010927806809178068D
:102FC0008823E1F388E0962F9170909377066695B9
:102FD00010927806909178069923E1F3815099F741
:102FE00081E0809377061092780680917806882396
:102FF000E1F310927806809178068823E1F310922D
:1030000070001092B10081E090E00895CF93C82F36
:1030100061E00E94D71261E08C2F0E949B128C2FDE
:1030200090E0FC01EC5DFA4FE491E0937D06209185
:103030007D06209520937C06FC01E85CFA4FE49124
:10304000F0E0EE0FFF1FEA5AFA4F859194919093AA
:103050007B0680937A06CF910895FC01842F13821A
:1030600012822AEE31E0318320830E9406180895EF
:10307000CF92DF92EF92FF92CF936B017C01C1144C
:103080008BE4D806E104F10459F194F480E8C81601
:1030900085E2D806E104F10419F1C1148DE2D806E5
:1030A000E104F10411F582E08093760680E115C019
:1030B000C11486E9D806E104F10459F0C11481EE87
:1030C000D806E104F10489F482E08093760682E276
:1030D00004C082E08093760683E38093790629C05A
:1030E00083E080937606C0E204C081E08093760698
:1030F000C1E0C701B60122E030E040E050E00E94AC
:10310000681CCA01B9017C5D8B409F4FA7019601E5
:103110000E94681CCC2ED12CE12CF12CCA01B901E3
:10312000A70196010E94681C2093790681E0809394
:103130007806CF91FF90EF90DF90CF9008951F9287
:103140000F920FB60F9211248F939F93EF93FF93DB
:1031500080917706E0917A06F0917B06882329F02A
:1031600090917D068081892B04C090917C0680819E
:103170008923808381E080937806FF91EF919F916E
:103180008F910F900FBE0F901F901895DC01ED915D
:10319000FC910190F081E02D099508952F923F92C6
:1031A0004F925F926F927F928F929F92AF92BF9257
:1031B000CF92DF92EF92FF920F931F93CF93DF9303
:1031C000CDB7DEB72C970FB6F894DEBF0FBECDBFDC
:1031D0006C01262E8A017901AE014F5F5F4F4A01D3
:1031E000F80120FC359120FE31918F01332309F441
:1031F000AAC1353241F420FC359120FE31918F0176
:10320000353271F408C03A3031F46DE0C6013C87C4
:103210000E94C6183C85632FC6010E94C618E0CFE5
:10322000512C312C20E02032A0F43B3269F030F4F4
:10323000303259F0333269F420612CC03D3239F01C
:10324000303339F4216026C02260246023C0286016
:1032500021C027FD28C080ED830F8A3078F426FF37
:1032600006C05AE0559E800D1124582E13C09AE0D6
:10327000399E800D1124382E20620CC03E3221F47C
:1032800026FD61C1206406C03C3611F4206802C0EE
:10329000383649F4F80120FC359120FE31918F0138
:1032A0003111C1CF98C0333629F0333779F0333537
:1032B00021F15CC0F70180818983A7014E5F5F4FD8
:1032C0007A0144244394512C540115C0370152E033
:1032D000650E711CF701A080B18026FF03C0652D2B
:1032E00070E002C06FEF7FEFC5012C870E94321B98
:1032F0002C0173012C852F7716C03701F2E06F0E79
:10330000711CF701A080B18026FF03C0652D70E01D
:1033100002C06FEF7FEFC5012C870E94FE1A2C01BF
:103320002C852068730123FD1DC0832D90E0481675
:103330005906C0F460E2C6012C870E94C6183A9470
:103340002C85F3CFF50127FD659127FF61915F0182
:10335000C6012C870E94C6182C8531103A94F1E0E2
:103360004F1A51084114510469F7E4C0343611F082
:10337000393651F5F70127FF08C0608171818281DC
:103380009381A7014C5F5F4F09C060817181072E57
:10339000000C880B990BA7014E5F5F4F7A012F76C7
:1033A000722E97FF09C090958095709561957F4F1B
:1033B0008F4F9F4F2068722E2AE030E0A4010E94B8
:1033C0002603A82EA81847C0353729F42F7EB22E21
:1033D0002AE030E025C0522F597FB52E3F36C1F08C
:1033E00018F4383579F0AFC0303719F0383721F09C
:1033F000AAC0852F8061B82EB4FE0DC09B2D9460AD
:10340000B92E09C024FF0AC0E52FE660BE2E06C013
:1034100028E030E005C020E130E002C020E132E0E9
:10342000F701B7FE08C06081718182819381A70195
:103430004C5F5F4F07C06081718180E090E0A70121
:103440004E5F5F4F7A01A4010E942603A82EA818A0
:103450005B2D5F77752E76FE0BC0372D3E7FA51452
:1034600050F474FE0AC072FC08C0372D3E7E05C0C1
:10347000BA2C372D03C0BA2C01C0B52C34FF0DC0B7
:10348000FE01EA0DF11D8081803311F4397E09C0FF
:1034900032FF06C0B394B39404C0832F867809F03A
:1034A000B39433FD12C030FF06C0B31490F43A0C4D
:1034B000532C5B180FC0B31468F460E2C6013C875C
:1034C0000E94C618B3943C85F6CFB31418F43B1889
:1034D00002C05A2C312C34FF0EC060E3C6013C8779
:1034E0000E94C6183C8532FF13C031FF02C068E558
:1034F0000CC068E70AC0832F867851F031FF02C004
:103500006BE201C060E237FD6DE2C6010E94C618A1
:10351000A51430F460E3C6010E94C6185A94F8CF8F
:10352000AA94F401EA0DF11D6081C6010E94C6183B
:10353000A110F6CF332009F453CE60E2C6010E94F9
:10354000C6183A94F7CF2C960FB6F894DEBF0FBE8C
:10355000CDBFDF91CF911F910F91FF90EF90DF9042
:10356000CF90BF90AF909F908F907F906F905F9023
:103570004F903F902F9008951F93FC019927882723
:10358000BC01E89411911032E9F3193010F01E30AB
:10359000C8F31B3251F01D3249F4689406C00E94F2
:1035A0003D1B610F711D811D911D119110531A302A
:1035B000B0F33EF490958095709561957F4F8F4F55
:1035C0009F4F1F910895F8940C94BD1CFB01DC01E2
:1035D0004150504088F08D9181341CF08B350CF4B3
:1035E000805E659161341CF06B350CF4605E861B67
:1035F000611171F3990B0895881BFCCFFC010590B4
:10360000615070400110D8F7809590958E0F9F1FE4
:103610000895FB0155915523A9F0BF01DC014D919F
:1036200045174111E1F759F4CD010590002049F00B
:103630004D9140154111C9F3FB014111EFCF81E0DC
:1036400090E001970895FB01DC014150504048F0A3
:1036500001900D920020C9F701C01D9241505040C9
:10366000E0F70895FC016150704001900110D8F717
:10367000809590958E0F9F1F0895592F482F372FB3
:10368000262F660F771F881F991F660F771F881FC9
:10369000991F620F731F841F951F660F771F881F66
:1036A000991F08950E94591B6894B1110C94D31B63
:1036B00008950E94B81B88F09F5798F0B92F99275A
:1036C000B751B0F0E1F0660F771F881F991F1AF00D
:1036D000BA95C9F714C0B13091F00E94D21BB1E085
:1036E00008950C94D21B672F782F8827B85F39F084
:1036F000B93FCCF3869577956795B395D9F73EF4A6
:1037000090958095709561957F4F8F4F9F4F08954D
:1037100097F99F6780E870E060E008959FEF80EC84
:10372000089500240A941616170618060906089527
:1037300000240A9412161306140605060895092E8D
:103740000394000C11F4882352F0BB0F40F4BF2BFC
:1037500011F460FF04C06F5F7F4F8F4F9F4F08953C
:1037600057FD9058440F551F59F05F3F71F0479532
:10377000880F97FB991F61F09F3F79F08795089517
:10378000121613061406551FF2CF4695F1DF08C036
:10379000161617061806991FF1CF86957105610553
:1037A00008940895E894BB2766277727CB0197F9FB
:1037B00008950E94EC1B0C949F1B0E94911B38F0F3
:1037C0000E94981B20F0952311F00C94881B0C94F8
:1037D0008E1B11240C94D31B0E94B01B70F3959F79
:1037E000C1F3950F50E0551F629FF001729FBB27F8
:1037F000F00DB11D639FAA27F00DB11DAA1F649F94
:103800006627B00DA11D661F829F2227B00DA11D46
:10381000621F739FB00DA11D621F839FA00D611DCC
:10382000221F749F3327A00D611D231F849F600DED
:10383000211D822F762F6A2F11249F5750409AF016
:10384000F1F088234AF0EE0FFF1FBB1F661F771FA2
:10385000881F91505040A9F79E3F510580F00C946D
:10386000881B0C94D31B5F3FE4F3983ED4F38695FA
:1038700077956795B795F795E7959F5FC1F7FE2B0D
:10388000880F911D9695879597F90895A1E21A2EB4
:10389000AA1BBB1BFD010DC0AA1FBB1FEE1FFF1FF4
:1038A000A217B307E407F50720F0A21BB30BE40B44
:1038B000F50B661F771F881F991F1A9469F760958B
:1038C0007095809590959B01AC01BD01CF01089545
:1038D000052E97FB1EF400940E947F1C57FD07D015
:1038E0000E94461C07FC03D04EF40C947F1C50959C
:1038F0004095309521953F4F4F4F5F4F08959095DC
:103900008095709561957F4F8F4F9F4F0895EE0F73
:10391000FF1F0590F491E02D09940E94981CA59F2B
:10392000900DB49F900DA49F800D911D11240895BA
:10393000A29FB001B39FC001A39F700D811D1124F0
:10394000911DB29F700D811D1124911D0895F9994B
:10395000FECF92BD81BDF89A992780B50895262F94
:10396000F999FECF1FBA92BD81BD20BD0FB6F89464
:10397000FA9AF99A0FBE0196089512E0C6EBD2E0CA
:1039800004C0FE010E94871C2196C73BD107C9F7DE
:04399000F894FFCFD9
:103994000F0402B8220000796B6F637470612E7299
:1039A400750000000000000000000000000000009E
:1039B4000000000000000000000000000000000003
:1039C40000000000000000000000000000000000F3
:1039D40000000000000000000000000000000000E3
:1039E40000000000000000000000000000000000D3
:1039F40000000000000000000000000000000000C3
:103A040000000000000000000000000000000000B2
:103A1400000000000000000000000084032A139747
:103A2400039703970399030A2320646F6E650000CC
:103A3400000000ED142A13AD168F16A116CA030058
:103A44000000007E172A133E175C17C916DE160DF8
:103A54000A006F76660000000000ED142A13AD160C
:103A64008F16A116CA03000000007E172A133E1702
:103A74005C17C916DE1600000000BB172A13B8171E
:063A8400B817B817BA17CD
:00000001FF
