:100000000C94C6020C94EE020C94EE020C94EE02D8
:100010000C94EE020C94EE020C94EE020C94A018D8
:100020000C94EE020C94EE020C9492150C94F614BF
:100030000C9432160C94EE020C94EE020C94EE0228
:100040000C94B9110C94EE020C941D040C9443040E
:100050000C94EE020C94EE020C94EE020C94EE0260
:100060000C94EE020C94EE0299069D06AF06C706AC
:10007000BD06D306DF06F4060A07300730076B100B
:1000800030100D100D107F100D100D100D100D10F3
:100090000D103E1056100D100D1055110D100D10B5
:1000A0000D100D100D103910436F6E6E6563746581
:1000B000642100436F6E6E656374696E6720746FB0
:1000C0002055445020536572766572004445414383
:1000D00054003E0A0053003D0052003D005B434F78
:1000E0004E4649475D0A006578697420636F6E73F8
:1000F0006F6C650A006E6577207325643D25730A71
:10010000006E6577207225643D25730A00636F6E6B
:100110006E65637420646F6E650A00636F6E6E6552
:1001200063742073746172740A004D6F64656D208E
:10013000636F6E6E6563746564204F4B2100475397
:100140004D204D6F64656D20636F6E6E65637465E1
:1001500064204F4B2100756E6B6E6F776E00756E6D
:100160006B6E6F776E00656570726F6D2077726968
:1001700074650A005B434F4E4649475D0A0043528F
:1001800043210A00636F6E736F6C65204F4B0063F1
:100190003D25780A00636F6E736F6C650067736D41
:1001A0002D6D6F64656D000A255320302E30330AA3
:1001B0000041504E20536574005265676973746541
:1001C0007265643A205374617274696E6720436F7C
:1001D0006E66696775726174696F6E0053494D3858
:1001E00030302052656164792026204C6F6164694B
:1001F0006E6700496E697469616C697A696E672E11
:100200002E2E00454550524F4D207772697465205F
:10021000646F6E652100434F4E4E454354005D00B0
:10022000636F6E6E656374205B00222C002B434964
:100230005053544152543D22554450222C22002BFD
:10024000434C504F52543D22554450222C002B43D6
:1002500049465352002E002B434949435200222C59
:1002600022222C2222002B435354543D22002200F0
:100270002B53415042523D332C312C2241504E22BF
:100280002C220043474154543A002B4347415454D5
:100290003F002B43474154543D31002B43495043C9
:1002A0004346473D382C31302C3330302C302C3005
:1002B0002C3436302C3530002B4349504D4F4445BB
:1002C0003D31002B4349504D55583D30002B43479D
:1002D000455245503D31002B43495552433D310075
:1002E0002B4353434C4B3D30002B43534D494E530E
:1002F0003D31002B43534E533D34002B4352433D7D
:1003000031002B43523D31002B434D45453D3200DA
:100310002B435245473D32002B43495044504450F3
:100320003D312C3130002B53415042523D332C3162
:100330002C22434F4E54595045222C2247505253A1
:1003400022002B47534D425553593D31002B435505
:1003500053443A002322002B435553443D312C2271
:100360000023323C20004445414354002045525272
:10037000004552524F52003D000A00233E20415496
:1003800000232077616E743A204F4B206F72202536
:10039000530A00233E20415400232077616E743AB3
:1003A000202553206F722025530A003C20002B4348
:1003B00046554E3D312C31002B4346554E3D312C98
:1003C00031002B4343414C523F004343414C523A8E
:1003D0002031002B434C49503D31002B43495053B1
:1003E0004855543D31002B435343423D31002B438C
:1003F00046554E3D3100453020563120583120536E
:10040000303D300000435245473A20302C00327CCA
:100410008900EDD968770000005900000000000055
:100420000000D69FDCA81817AA90437327F6B96876
:10043000EDF4DED409FEE61C1C84DDE80B992927C7
:10044000D6DF8D210F036418EFEE1E99B782527626
:10045000941500347C000026149E988F0000006ADA
:1004600031168F8C059600E7B73F3600000000007C
:100470000000AF669ED0385D8A6C20B95422007CA3
:10048000ED044C80387486EDCBFA57CBDC19E200D2
:100490001DDF5506E5CB01C3000000000000000091
:1004A000009AB20086DBD0BC5416131586004E4469
:1004B000BD7F6F151590010000B500000000000021
:1004C0002F000034E500000000000000000000479D
:1004D000000000000000000000000000000000001C
:1004E000000000000000000000000000000000000C
:1004F0000000000000000000000000000000005AA2
:1005000000000000000008CC31AA2C532E006372BA
:100510006173683A001C383D43413A00415400433E
:1005200050494E3A205245414459002B43524547C9
:100530003F002B4350494E3F000701404701404FC9
:100540004B00010204081020408001020408102022
:100550000102040810200404040404040404020238
:10056000020202020303030303030000000023004E
:100570002600290000000000250028002B000000B4
:100580000000240027002A00660E830E11241FBEDF
:10059000CFEFD8E0DEBFCDBF11E0A0E0B1E0E6E7ED
:1005A000F9E302C005900D92A83FB107D9F726E004
:1005B000A8EFB1E001C01D92A038B207E1F712E048
:1005C000C5ECD2E004C02197FE010E94781CC43C17
:1005D000D107C9F70E943F140C94D41A0C94000060
:1005E000CF92DF92EF92FF920F931F93E82FF92F94
:1005F00005C0015011092109310961F1908196234B
:100600009417B9F305C0015011092109310911F1FD
:10061000908196239413F7CFC12CD12CE12CF12C8F
:100620000AC08FEFC81AD80AE80AF80A0C151D0587
:100630002E053F0579F080818623841791F36C2D78
:100640007D2D8E2D9F2D1F910F91FF90EF90DF90AC
:10065000CF90089560E070E080E090E01F910F91EE
:10066000FF90EF90DF90CF900895FA01AA272830ED
:1006700051F1203181F1E8946F936E7F6E5F7F4F6F
:100680008F4F9F4FAF4FB1E03ED0B4E03CD0670FEB
:10069000781F891F9A1FA11D680F791F8A1F911D3E
:1006A000A11D6A0F711D811D911DA11D20D009F48E
:1006B00068943F912AE0269F11243019305D3193D0
:1006C000DEF6CF010895462F4770405D4193B3E0B9
:1006D0000FD0C9F7F6CF462F4F70405D4A3318F060
:1006E000495D31FD4052419302D0A9F7EACFB4E011
:1006F000A6959795879577956795BA95C9F70097C9
:100700006105710508959B01AC010A2E0694579569
:10071000479537952795BA95C9F7620F731F841FC0
:10072000951FA01D0895E091F801F091F901CF0106
:1007300001969093F9018093F8016083E091F801AC
:10074000F091F901108281E090E0089580E0089531
:1007500080E0089580E008950895FC0113821282DC
:100760002BE831E0318320830895FB01208182272B
:1007700090E1899F900111242827822F90E0582F23
:1007800044279C0163E0220F331F6A95E1F742275B
:100790005327218130E02427352774E095958795EC
:1007A0007A95E1F7822793279183808308959C01AE
:1007B000862FB9010E94B50308950E948D150895F2
:1007C000EF92FF920F931F93CF93DF931F92CDB7BA
:1007D000DEB77C018B01081B190B442361F0C801B3
:1007E0008E0D9F1D49830E94981CF70181937F0104
:1007F00049814150F2CF0F90DF91CF911F910F911E
:10080000FF90EF900895EF92FF921F93CF93DF93A5
:100810007C01C62FD72F142F160F1C1741F0F7019C
:1008200061917F01CE010E94A01C2196F6CFDF913D
:10083000CF911F91FF90EF9008951F920F920FB6E6
:100840000F9211242F938F939F93EF93FF93909187
:10085000C600809176068F5F8F772091770682178A
:1008600041F0E0917606F0E0EC50FA4F90838093EF
:100870007606FF91EF919F918F912F910F900FBE70
:100880000F901F9018951F920F920FB60F92112480
:100890008F939F93EF93FF939091750680917406C9
:1008A000981779F0E0917506F0E0EC51FA4F8081ED
:1008B0008093C600809175068F5F8F708093750658
:1008C00005C08091C1008F7D8093C100FF91EF91A1
:1008D0009F918F910F900FBE0F901F901895CF93FF
:1008E00061E08CE00E94DA120E943B17C82F8091D1
:1008F0006B04882319F08C2F0E949C1460E08CE01C
:100900000E94DA128C2FCF9108950F931F93CF93EB
:10091000DF93EC018B010E940312DC01CB01800FFD
:10092000911FA11DB11D88839983AA83BB83DF9189
:10093000CF911F910F910895FC011382128223EA37
:1009400031E031832083089561E081E10E94DA1271
:1009500061E081E10E949E1261E089E00E94DA126A
:1009600061E089E00E949E1261E083E00E94DA1259
:1009700061E083E00E949E1260E088E00E949E1287
:100980000895CF92DF92EF92FF92CF93DF936A01A7
:100990007B01E901BC0187E694E00E9484172AE00C
:1009A00030E0B701A60187E694E00E942814BE015A
:1009B00087E694E00E948417DF91CF91FF90EF903B
:1009C000DF90CF90089561E070E080E090E00E94B9
:1009D000341208956AE070E080E090E00E943412E2
:1009E000089562E370E080E090E00E943412089580
:1009F0000E94F1040E94F10408950E94F8040E94EC
:100A0000F8040E94F804089560E083E00E94DA127E
:100A10000E94FD0461E083E00E94DA120E94F80463
:100A2000089568EE73E080E090E00E94341208952B
:100A300060E081E10E94DA120E94110561E081E12B
:100A40000E94DA120E94110508950F931F93CF930D
:100A5000DF9300D000D0CDB7DEB742E062E070E0B7
:100A6000CE0101960E94E00389819A810B97A1F53E
:100A70008FEF9FEF909379048093780484E890E05F
:100A80009A838983CE0103969C838B8304E010E0D4
:100A900089819A81892B79F0C8010E94981C68E7A6
:100AA00074E00E94B50389819A8101979A838983B2
:100AB0000F5F1F4FEDCF42E060E070E0CE01019686
:100AC0000E94E00381E049815A81209178043091AD
:100AD00079044217530709F080E00F900F900F90B0
:100AE0000F90DF91CF911F910F91089544E864E03A
:100AF00070E083E091E00E94E0030895EF92FF929E
:100B00001F93CF93DF938FEF9FEF909379048093A0
:100B1000780483E0E82E81E0F82EC4E0D0E0F7010D
:100B200011917F01612FCE010E94A01C68E774E043
:100B3000812F0E94B5032196C838D10581F742E084
:100B400060E070E088E794E00E9403048BE090E0AE
:100B5000909379048093780442E062E070E088E743
:100B600094E00E94030463E072E080E794E00E9456
:100B7000841780E794E00E947913DF91CF911F9151
:100B8000FF90EF9008956DED70E087E694E00E948D
:100B900084172BED30E040E050E0BA0189ED90E0A1
:100BA0000E94C1044091030150910401609105012C
:100BB000709106012AE030E087E694E00E94161466
:100BC00027ED30E041E050E060E070E085ED90E03E
:100BD0000E94C104E9E3F5E06591749187E694E031
:100BE0000E947E1327ED30E042E050E060E070E0CC
:100BF00085ED90E00E94C104ECE3F5E0659174910D
:100C000087E694E00E947E1362ED70E087E694E050
:100C10000E94841708958A3011F08D3029F40E94C3
:100C2000420B86E092E018C0E0910101F0910201D0
:100C300092E0E538F907A8F00E94420BA09101016B
:100C4000B09102011A978AE0E6E0F2E001900D927D
:100C50008A95E1F780E192E090930201809301018F
:100C600008959F012F5F3F4F3093020120930101B0
:100C700080830895CF930E949E16882381F061E0BF
:100C80008DE00E94DA120E947716C82F0E94591731
:100C90008C2F0E940B0660E08DE00E94DA12CF914B
:100CA000089580916B0481110E943A060E942B17CF
:100CB00008952F923F924F925F926F927F928F9200
:100CC0009F92AF92BF92CF92DF92EF92FF920F93DB
:100CD0001F93CF93DF9310922C05712CD1E001E08C
:100CE00010E086E0282E312C95E0492E512C24E08E
:100CF000C22ED12C32E0A32EB12C88248A94982CB9
:100D000052E3652E0E945106882309F45EC20E94B8
:100D10006F04C82F1092FA012091FD013091FE015D
:100D20002B30310508F0B5C0F901EC5CFF4F0C9495
:100D3000781C1092050210920402CE3F29F0109305
:100D4000FE010093FD01A5C0B092FE01A092FD013D
:100D500010925A0390925803809257039AC080933E
:100D60005A031092FF01682F87E593E00E94D70392
:100D7000D092FE01C092FD018CC080935B03682F6E
:100D800087E593E00E94D70383E090E025C080933D
:100D90005C03682F87E593E00E94D7035092FE0121
:100DA0004092FD0176C080935D03682F87E593E054
:100DB0000E94D7033092FE012092FD016AC0809309
:100DC0005E03682F87E593E00E94D70380915A0362
:100DD000811107C088E090E09093FE018093FD01AF
:100DE00058C087E090E0F8CFE091FF0181E08E0FDE
:100DF0008093FF01F0E0E15AFC4FC0836C2F87E540
:100E000093E00E94D7039091FF0180915A039813B9
:100E100040C0E0CFE0915E03F0E0E25FFB4F649101
:100E200087E593E00E94D7032C2F30E08091570391
:100E30009091580399272817390731F0CE3F09F4CC
:100E400083CF8AE090E0C8CF89E090E09093FE01E4
:100E50008093FD01E091FF01F0E0E15AFC4F18C0E2
:100E6000482F50E0E0905803F12C4E155F0509F033
:100E700064CF2A30310509F460CFD093FA01109382
:100E8000FE010093FD01E091FF01F0E0E05AFC4F0C
:100E9000C0832091FA01222399F080915B03809313
:100EA00000028091020290910302009721F41092B7
:100EB00005021092040201969093030280930202AD
:100EC0001092FC01222309F477C160E070E08FE901
:100ED00094E00E948504D0932C05D0932F05809137
:100EE0005E03882309F45EC090919E04992321F04B
:100EF00020915C03921369C18E3309F427C190F4E9
:100F0000883109F464C08E3109F48EC0813009F053
:100F100053C180916D0390916E0390937F048093F1
:100F20007E044AC1893609F4AAC08D3F09F429C15B
:100F30008A3409F041C18091710380939B0420E0C1
:100F400030E048EC52E4609167037091680380914F
:100F5000690390916A030E94CA1B0E94431B60931D
:100F60009704709398048093990490939A0420E0D6
:100F700030E048EC52E460916B0370916C03809117
:100F80006D0390916E030E94CA1B0E94431B6093E5
:100F900093047093940480939504909396040E9414
:100FA000620E0AC180916303863009F405C1809105
:100FB0005C0380939E0480915F0380938E048091F4
:100FC0006503881F8827881F80933305F5C08091AB
:100FD000670390916803A0916903B0916A038093BD
:100FE000240590932505A0932605B09327058091AD
:100FF0006B0390916C03A0916D03B0916E0380938D
:10100000280590932905A0932A05B0932B0580917C
:101010007B0380939C0480917C0380939D04D093F8
:10102000340577247394C8C021EE3EE245E652E4CD
:1010300060916703709168038091690390916A03DE
:101040000E94CA1B0E94431B7093920460939104F8
:1010500021EE3EE245E652E4609163037091640341
:1010600080916503909166030E94CA1B0E94431BF6
:101070007093900460938F040E94630E9DC08091D2
:10108000860490918704A0918804B091890480938C
:101090007A0490937B04A0937C04B0937D0420E0B9
:1010A00030E048EC52E46091930370919403809196
:1010B0009503909196030E94CA1B0E94431B609364
:1010C000860470938704809388049093890420E0B9
:1010D00030E04AE754E460916703709168038091BF
:1010E000690390916A030E94CA1B0E94431B70937C
:1010F00085046093840420E030E04AE754E4609182
:101100006B0370916C0380916D0390916E030E944C
:10111000CA1B0E94431B709383046093820420E0E7
:1011200030E04AE754E460916F037091700380915E
:101130007103909172030E94CA1B0E94431B70931B
:101140008104609380040E94640E36C020E030E089
:1011500048EC52E4609167037091680380916903E1
:1011600090916A030E94CA1B0E94431B60938A04E9
:1011700070938B0480938C0490938D040E94650E71
:101180001BC080915F038430B8F4E0E6F3E0A3EA8B
:10119000B4E0862D01900D928A95E1F71092D50466
:1011A00046E050E06EE075E083EA94E00E94D71AD2
:1011B000892B11F4D09335050E942B178111A2CDF4
:1011C0008AEA90E00E9470129DCD872DDF91CF9129
:1011D0001F910F91FF90EF90DF90CF90BF90AF9055
:1011E0009F908F907F906F905F904F903F902F9047
:1011F0000895CF92DF92EF92FF92CF93DF93809189
:101200002F05882339F00E94590690912F0590935D
:10121000300571C0809130058111F5CF0E942817EB
:1012200061E08DE00E94DA1261E08CE00E94DA1247
:101230000E9403126B017C0124E6C20ED11CE11C4A
:10124000F11CDAEFCFEF24EC39E040E050E060E051
:1012500080E00E94FB126F3F71058105910509F046
:1012600064F4662351F06C1708F4C62F0E94031231
:10127000C616D706E806F90610F0D15021F7CF3F81
:1012800019F4C091000102C0C0930001CB3060F09E
:10129000C33160F0CD3160F0C83260F0CC3360F023
:1012A000C63960F081E00BC088E109C08CE007C05E
:1012B00088E005C086E003C084E001C082E020EC45
:1012C00032E1829FB001839F700D1124072E000C24
:1012D000880B990B0E94E91660E08CE00E94DA12FC
:1012E00060E08DE00E94DA1281E080933005809109
:1012F0003605811188CFDF91CF91FF90EF90DF907D
:10130000CF900895EF92FF920F931F93CF938C018C
:101310007B01C0E00E945106811109C0E114F10473
:1013200019F0F7010995F6CF0E94E304F3CF0E946C
:101330006F048D3051F4F801EC0FF11D1082CF9144
:101340001F910F91FF90EF900895CC2319F08A30F0
:1013500019F4F1CF8A30F1F2F801EC0FF11D80831E
:10136000C7FDD8CFCF5FD6CF60E070E00E94820982
:101370000895CF930E949E168823C9F06BEA73E00C
:1013800080E794E00E9484170E949E16882361F0F3
:101390000E947716C82F682F80E794E00E9471138F
:1013A0008C2F0E940B06F0CF0E94EA04E3CFCF916E
:1013B0000895CF92DF92EF92FF920F931F93CF93F6
:1013C000DF937C01D62FC72F8A0169010E94B909DA
:1013D0001F930F93CF93DF9389E993E09F938F93AC
:1013E00080E794E09F938F930E94A41763E973E0D2
:1013F00080E794E00E948417B70180E794E00E94A0
:1014000099176CE175E08CE694E00E948417B701AF
:101410008CE694E00E949917A601B8018D2F9C2FAD
:101420000E94670A91E02DB73EB7285F3F4F0FB685
:10143000F8943EBF0FBE2DBF813009F090E0892F98
:10144000DF91CF911F910F91FF90EF90DF90CF90A0
:101450000895CF93CDE3C150D1F028EE33E045E0BD
:1014600054E06FE375E08BE295E00E94D909882390
:1014700071F0E0918702F09188028085833339F022
:10148000853339F0813329F00E941105E4CF80E0E3
:1014900001C081E0CF91089528EE33E040E050E0B4
:1014A0006FE375E00E94D909089580918D02882329
:1014B00069F00E9404050E94180510928D028EEAC0
:1014C00093E00E944C0AEE27FF27099408954F925B
:1014D0005F926F927F92AF92BF92CF92DF92EF9224
:1014E000FF920F931F93CF93DF935C017B01EA017F
:1014F0000E94031244E64C9F90014D9F300D112431
:101500002B013C01420E531E611C711C109288027B
:1015100010928702D1E0E114F10409F0D0E061E01B
:101520008DE00E94DA120E94F80460E08DE00E94D3
:10153000DA1269E773E080E794E00E948417C0E064
:101540000FE812E081E6C82E83E0D82E0E94EA045C
:101550000E949E16882309F471C061E08CE00E940D
:10156000DA120F5F1F4F0E947716F80131978083C0
:10157000F8011082682F80E794E00E9471130E94A6
:101580009E168111EECF60E08CE00E94DA12C1114C
:1015900034C0B5018FE892E00E94FA1A90938A0253
:1015A00080938902892B41F067E773E080E794E03C
:1015B0000E948417C1E013C061E773E08FE892E0F6
:1015C0000E94FA1A90938A0280938902892B39F03B
:1015D0006CE673E080E794E00E948417C3E066E65F
:1015E00073E08FE892E00E94FA1A90938A02809347
:1015F0008902892B11F00E94550AE114F10411F1BE
:10160000B7018FE892E00E94FA1A909388028093C3
:101610008702D1E0009709F4D0E09F938F93DF9287
:10162000CF9280E794E09F938F930E94A4170F902E
:101630000F900F900F900F900F9004C0CC2311F0DB
:10164000D11108C00E94031264157505860597051F
:1016500008F47CCF67E971E080E794E00E947E1394
:10166000C0938E028C2FDF91CF911F910F91FF902D
:10167000EF90DF90CF90BF90AF907F906F905F9092
:101680004F90089545E050E06CEC70E086E092E009
:101690000E94D71A892B11F40E94550A08959B01C4
:1016A00040E050E06FE375E00E94D9090895CF93C0
:1016B000C7E362E070E084E094E00E944F0B811188
:1016C00003C0C150B1F701C081E0CF910895CF931D
:1016D000DF9320918C02211171C09B01AC0180919C
:1016E0006400877F80936400DA01C901B695A795ED
:1016F00097958795BC01CD017C5D8B409F4F0E94E3
:10170000371CCA01B9010E9448140E941805CBE099
:101710000E94570B8823A9F186EF93E00E944C0AA0
:101720008EEE93E00E944C0A86EE93E00E944C0AF3
:1017300062E070E08BED93E00E944F0B28EE33E007
:1017400040E050E06FE175E082E395E00E94D90946
:10175000D82F83ED93E00E944C0ADD23B1F00E9464
:10176000290A882391F028EE33E040E050E06AEC4B
:1017700073E082EC93E00E94D909982F882329F026
:101780001FC00E9404050E94180588EB93E00E9488
:101790004C0AD7E00E941105D150E1F7C15009F081
:1017A000B7CF0E94AF168091640088608093640078
:1017B00090E081E0911108C080E006C081E004C0A3
:1017C00081E080938C02F5CFDF91CF91089560E0A6
:1017D00071EE80E090E00E94670B089582E493E050
:1017E0000E944C0A86E293E00E944C0A88E193E052
:1017F0000E944C0A80E193E00E944C0A882309F47D
:101800004DC088E093E00E944C0A882309F446C04A
:1018100082E093E00E944C0A882309F43FC08BEFDA
:1018200092E00E944C0A8823C9F183EF92E00E9463
:101830004C0A882399F189EE92E00E944C0A882391
:1018400069F180EE92E00E944C0A882339F187ED1D
:1018500092E00E944C0A882309F18DEC92E00E94EC
:101860004C0A8823D9F083EC92E00E944C0A88232A
:10187000A9F088EB92E00E944C0A882379F08BE96A
:1018800092E00E944C0A882349F06EEE72E082E9F1
:1018900092E00E944F0B91E0811101C090E0892FEE
:1018A0000895EF92FF920F931F93CF93DF9300D091
:1018B000CDB7DEB78C01F62EE72E49835A830E94FE
:1018C000B909EF92FF9281E893E09F938F9380E7AD
:1018D00094E09F938F930E94A4176BE773E080E7D7
:1018E00094E00E948417B80180E794E00E94991761
:1018F0006CE175E08CE694E00E948417B8018CE6F8
:1019000094E00E947E1349815A816F2D7E2D8FE3D2
:1019100095E00E94670A91E00F900F900F900F9052
:101920000F900F90813009F090E0892F0F900F9069
:10193000DF91CF911F910F91FF90EF900895EF925B
:10194000FF920F931F93CF93DF93CDB7DEB7C055B0
:10195000D1090FB6F894DEBF0FBECDBF7C0128E5DC
:1019600032E043E852E06FE375E08AE892E00E94DB
:10197000D9098823A9F02091870230918802295F34
:101980003F4FC9012F5F3F4FFC0140814032C9F3F7
:101990000E94AD1A81E0611101C080E080938B024A
:1019A0008E010F5F1F4F1093F9010093F80160E75C
:1019B00072E087E395E00E948417B70187E395E022
:1019C0000E946E136EE672E087E395E00E94841732
:1019D00048EE53E060E070E0C8010E94510C88239B
:1019E000F9F01093F9010093F80166E672E087E3DD
:1019F00095E00E948417B70187E395E00E946E137B
:101A00006EE572E087E395E00E94841748EE53E0AC
:101A100060E070E0C8010E94510C91E0813009F053
:101A200090E0892FC05BDF4F0FB6F894DEBF0FBE8A
:101A3000CDBFDF91CF911F910F91FF90EF9008954F
:101A4000CF93DF9363EF71E080E794E00E949917F2
:101A50000E94E70B81111BC0CFE0D0E060E08DE079
:101A60000E94DA120E94FD0461E08DE00E94DA1209
:101A700060E08CE00E94DA120E94FD0461E08CE0DC
:101A80000E94DA12219751F7EE27FF2709946CED97
:101A900071E080E794E00E94991781E080938602CC
:101AA00069EB71E080E794E00E9499170E94EE0BC9
:101AB000882371F287E491E00E949F0C882341F211
:101AC00061EB71E080E794E00E949917DF91CF917C
:101AD0000895EF92FF920F931F93CF93DF93CDB7AB
:101AE000DEB7C054D1090FB6F894DEBF0FBECDBF2C
:101AF0007C016EE170E087E592E00E944F0B882345
:101B000089F128EE33E04FE355E065E572E08EE4BD
:101B100092E00E94D909882329F10E94B9098E0117
:101B20000F5F1F4F1093F9010093F8016FE372E00C
:101B300087E395E00E9484174AE050E0B70187E30D
:101B400095E00E943714B80180E794E00E946E137C
:101B500048EE53E060E070E0C8010E94510C91E053
:101B6000813009F090E0892FC05CDF4F0FB6F89408
:101B7000DEBF0FBECDBFDF91CF911F910F91FF90C0
:101B8000EF900895CF92DF92EF92FF920F931F9301
:101B9000CF93DF93CDB7DEB7C054D1090FB6F89419
:101BA000DEBF0FBECDBF6C017B010E94B9098E0163
:101BB0000F5F1F4F1093F9010093F8016DE272E07F
:101BC00087E395E00E948417B60187E395E00E94C1
:101BD0006E136AE272E087E395E00E9484174AE0A0
:101BE00050E0B70187E395E00E94371460E272E0AD
:101BF00080E794E00E948417B80180E794E00E9497
:101C00006E136EE172E080E794E00E94991740E461
:101C100056E066E172E0C8010E94510C813019F46F
:101C200080938D0201C080E0C05CDF4F0FB6F89456
:101C3000DEBF0FBECDBFDF91CF911F910F91FF90FF
:101C4000EF90DF90CF9008950E94F90880912F05C2
:101C50008823B9F180916B04811133C061E08DE07C
:101C60000E94DA1261E08CE00E94DA128091030196
:101C7000909104010E94690D63EB70E080E794E0AD
:101C80000E949917609103017091040187E091E02F
:101C90000E94C20D81E080936B0468EA70E080E7E7
:101CA00094E00E94991761E08CE00E94DA1260E0F3
:101CB0008DE00E94DA120E94110560E08CE00E9423
:101CC000DA120895089508950895089587E395E038
:101CD0000E94AD0384E794E00E94E1164DE060E0CD
:101CE00080E794E00E942E188CE694E00E949C0409
:101CF00087E694E00E94E11683EB91E090936804FC
:101D00008093670408958CEC91E090936D04809328
:101D10006C040E94AF160895AF92BF92CF92DF92EB
:101D2000EF92FF920F931F93CF93DF93CDB7DEB760
:101D3000A0970FB6F894DEBF0FBECDBF6C010E9416
:101D4000B90900E0CE0101967C01F092F901E09220
:101D5000F80167E573E087E395E00E9484170023AC
:101D600011F06AE201C063E287E395E00E94930309
:101D70004AE050E0B60187E395E00E94371464E53D
:101D800073E087E395E00E94841748EC50E06DE42F
:101D900073E0C7010E94510C182F813031F00111FE
:101DA00002C001E0D2CF10E05EC00E94FD04A0910D
:101DB0008702B09188025D0196E0A90EB11C50E047
:101DC000E3EAF4E020E030E080E040E06DE2F62E6F
:101DD000D5019D915D01992309F444C0923221F40B
:101DE000811141C081E0F4CF882391F30023B1F148
:101DF000B90124E0660F771F2A95E1F791360CF0C0
:101E0000905230ED390F3A3014F039EC390F6B0144
:101E1000C30ED11C37FDDA9496014F5F4430C1F6F2
:101E20009C2D652F70E06B5E7A4FDB014C91C412E4
:101E300002C05F5F07C0563021F4F08211823196F4
:101E400001C050E02F3F310529F020F020E030E0C4
:101E500040E0BECF908311823196F8CF90831182FB
:101E60003196B6CF182F812FA0960FB6F894DEBF0B
:101E70000FBECDBFDF91CF911F910F91FF90EF90DB
:101E8000DF90CF90BF90AF9008952F923F924F92E6
:101E90005F926F927F928F929F92AF92BF92CF92FA
:101EA000DF92EF92FF920F931F93CF93DF93CDB703
:101EB000DEB7C558D1090FB6F894DEBF0FBECDBF4F
:101EC00084E8E3E0F1E0DE01119601900D928A953D
:101ED000E1F761E08CE00E94DA1261E08DE00E949F
:101EE000DA1268EE73E080E090E00E9434128DE92F
:101EF00091E09F938F9387EA91E09F938F9387E67A
:101F000094E09F938F930E94A41765E971E080E7A6
:101F100094E00E94841780E794E00E9479130F9068
:101F20000F900F900F900F900F9005E1AFE8EA2E01
:101F3000A1E0FA2EB0E7CB2EB4E0DB2E0E94031214
:101F40004B015C0128EB820E2BE0921EA11CB11C00
:101F500010E00E940312681579058A059B0500F5BB
:101F60000E9451068823A9F30E946F041F928F9349
:101F7000FF92EF92DF92CF92CB57DF4F8883C55805
:101F8000D0400E94A4170F900F900F900F900F90C9
:101F90000F90CB57DF4F8881C558D040193020F0C3
:101FA000193009F05EC109C0E12FF0E0E356FE4FA1
:101FB000E4918E13CDCF1F5FCCCF64E871E080E752
:101FC00094E00E9499170E94250581110CC06EE7CC
:101FD00071E080E794E00E94841780E794E00E941B
:101FE00079130E947E050E94760541E0642E41E04F
:101FF000742E00E714E055EFE52E50E0F52E6BE16E
:10200000C62E61E0D62E7DE0A72E71E0B72EE6E663
:102010008E2EE1E09E2EF4E82F2E64E771E087E635
:1020200094E00E9484170E94C30583EA94E00E9412
:10203000B4093091A304332309F49FC08091A40410
:1020400081119BC01092A304832F90E0FC01E35602
:10205000F109E531F10508F7E15CFF4F0C94781CBC
:10206000FE013196A3E0B1E0822D01900D928A9598
:10207000E1F70E947E059F928F926CC0809186024C
:10208000811102C00E94200D84E690E00E948C0E17
:102090008091A304882339F063EA74E087E694E032
:1020A0000E947E13BACF6EE571E010C08091860267
:1020B000811102C00E94200D85E690E00E948C0EE6
:1020C0008091A3048111E8CF66E571E087E694E092
:1020D0000E949917A2CF80918602811102C00E94AE
:1020E000200D81E080932F050E94240E6EE371E0A5
:1020F0008CE694E00E9499176AE271E0E7CF809144
:102100008602811102C00E94200DDF92CF921F93A0
:102110000F930E94A4170F900F900F900F906AE3F7
:1021200076E083EA94E00E9482098091A3048E32D3
:1021300021F48091A404882359F033EA432E34E03B
:10214000532E11C00E9479138091A3048111E7CF0F
:10215000BF92AF921F930F930E94A4170F900F90FE
:102160000F900F905ACFF20161912F018CE694E00D
:10217000662341F30E94F114F6CF84EA94E0CB5732
:10218000DF4F3883C558D0400E94AD1A362EE3EA9F
:10219000F4E0CB57DF4F3881C558D0402F018191F3
:1021A000882319F02F018D33C9F7323529F03335E3
:1021B00049F13C3409F031CFF1E0F31508F42DCFAB
:1021C000F2018081882309F428CFC2010E94AD1A50
:1021D00024E0329EF0011124ED5FFE4F6083718395
:1021E000828393835F924F921F923F927F926F926E
:1021F0001F930F930E94A4170FB6F894DEBF0FBE73
:10220000CDBF0BCF92E0931508F407CF5F924F92AA
:102210001F923F92FF92EF921F930F930E94A41779
:102220002FEF230D0FB6F894DEBF0FBECDBF2230C7
:1022300008F0F3CE822F90E0FC01EE0FFF1F8E0F0F
:102240009F1FFC01E55CFA4F4491FC01E75CFA4FEB
:102250008591949150E041505109B2010E94141BA4
:10226000DCCE0E942505882319F00E9476051DC04A
:10227000015019F40E947E0518C013E060E08DE063
:102280000E94DA120E94FD0461E08DE00E94DA12E1
:1022900060E08CE00E94DA120E94FD0461E08CE0B4
:1022A0000E94DA12115051F749CE87EE90E09F93C9
:1022B0008F9380E794E09F938F930E94A41760E030
:1022C0008CE00E94DA1260E08DE00E94DA120F903A
:1022D0000F900F900F90CB57DF4F0FB6F894DEBFE3
:1022E0000FBECDBFDF91CF911F910F91FF90EF9067
:1022F000DF90CF90BF90AF909F908F907F906F9026
:102300005F904F903F902F90089561E08CE00E9485
:102310009E1261E08DE00E949E1260E08CE00E94BF
:10232000DA1261E08DE00E94DA1261E083E00E943F
:10233000DA1261E083E00E949E120E94A40460E031
:1023400071EE80E090E00E94391860E071EE80E06C
:1023500090E00E94E91678940E94450F80918602D1
:10236000811102C00E94200D60E08DE00E94DA120F
:1023700008951F920F920FB60F9211242F933F933F
:102380008F939F93AF93BF9380913C0590913D05B0
:10239000A0913E05B0913F0530913B0523E0230F0E
:1023A0002D3720F40196A11DB11D05C026E8230F8D
:1023B0000296A11DB11D20933B0580933C0590938F
:1023C0003D05A0933E05B0933F0580914005909157
:1023D0004105A0914205B09143050196A11DB11D93
:1023E0008093400590934105A0934205B093430527
:1023F000BF91AF919F918F913F912F910F900FBE01
:102400000F901F9018952FB7F89460913C0570912C
:102410003D0580913E0590913F052FBF08953FB740
:10242000F8948091400590914105A0914205B091AA
:10243000430526B5A89B05C02F3F19F00196A11DA5
:10244000B11D3FBFBA2FA92F982F8827820F911D4A
:10245000A11DB11DBC01CD0142E0660F771F881F91
:10246000991F4A95D1F708958F929F92AF92BF928C
:10247000CF92DF92EF92FF926B017C010E940F12CC
:102480004B015C01C114D104E104F10401F10E948B
:10249000FA120E940F12DC01CB0188199909AA09CE
:1024A000BB09883E9340A105B10560F321E0C21A43
:1024B000D108E108F10888EE880E83E0981EA11C7F
:1024C000B11CC114D104E104F10419F7DBCFFF9072
:1024D000EF90DF90CF90BF90AF909F908F90089536
:1024E0008230910538F0880F991F880F991F059742
:1024F0000197F1F70895789484B5826084BD84B51E
:10250000816084BD85B5826085BD85B5816085BDEE
:10251000EEE6F0E0808181608083EAE7F0E0808190
:1025200084608083808182608083808181608083F9
:102530008081806880831092C1000895CF93DF93DB
:1025400090E0FC01EE5BFA4F2491FC01EA5AFA4F4D
:102550008491882361F190E0880F991FFC01E25873
:10256000FA4FC591D491FC01EC58FA4FA591B49162
:10257000611109C09FB7F8948881209582238883D0
:10258000EC912E230BC0623061F49FB7F894388130
:10259000822F809583238883EC912E2B2C939FBFD1
:1025A00006C08FB7F894E8812E2B28838FBFDF9168
:1025B000CF91089590E0FC01EE5BFA4F2491FC016D
:1025C000EA5AFA4FE491EE23A1F0F0E0EE0FFF1F7C
:1025D000EC58FA4FA591B4918FB7F894611105C0EA
:1025E0009C91E22FE095E92302C0EC91E22BEC9361
:1025F0008FBF089508950F931F9390E0FC01EE5B49
:10260000FA4F7491FC01EA5AFA4FE491662311F0F3
:10261000672F01C060E0F0E0EE0FFF1FE659FA4FB0
:102620008591949189019A013F70462F672F0E94EE
:10263000F002611571058105910549F0DC01CB01BE
:102640000196A11DB11DBC01CD019F7003C060E0CA
:1026500070E0CB011F910F910895CF92DF92EF921E
:10266000FF920F931F93CF93DF936C017A018B013D
:10267000C0E0D0E0CE15DF0589F0D8016D918D0165
:10268000D601ED91FC910190F081E02DC6010995F4
:10269000892B11F47E0102C02196ECCFC701DF9196
:1026A000CF911F910F91FF90EF90DF90CF90089501
:1026B0006115710581F0FB0101900020E9F7319768
:1026C000AF01461B570BDC01ED91FC910280F381B9
:1026D000E02D0995089580E090E008950E94581338
:1026E0000895DC01ED91FC910190F081E02D0995B8
:1026F00008956FEB71E00E94581308950F931F9394
:10270000CF93DF93EC010E9458138C01CE010E94FD
:102710007913800F911FDF91CF911F910F91089531
:102720004F925F926F927F92EF92FF920F931F935F
:10273000CF93DF93CDB7DEB7A1970FB6F894DEBF86
:102740000FBECDBF7C01FA01CB0119A2223008F4E3
:102750002AE08E010F5D1F4F422E512C612C712CEF
:10276000BF01A30192010E94371CF901CA01015067
:1027700011096A3014F4605D01C0695CD8016C9382
:10278000232B242B252B61F7B801C7010E94581376
:10279000A1960FB6F894DEBF0FBECDBFDF91CF91EB
:1027A0001F910F91FF90EF907F906F905F904F90EF
:1027B0000895CF92DF92EF92FF920F931F93CF93E2
:1027C000DF938C016A017B012115310549F4DC019D
:1027D000ED91FC910190F081E02D642F09951DC0D1
:1027E0002A303105A9F477FF12C06DE20E947113FF
:1027F000EC0144275527BA014C195D096E097F0980
:102800002AE0C8010E9490138C0F9D1F06C02AE089
:10281000B701A601C8010E949013DF91CF911F91CB
:102820000F91FF90EF90DF90CF9008950F931F933B
:10283000CF93DF93EC010E94D9138C01CE010E944B
:102840007913800F911FDF91CF911F910F91089500
:102850002115310549F4DC01ED91FC910190F081E5
:10286000E02D642F099508950E94901308959A0110
:10287000AB0160E070E00E942814089508950E9462
:102880007B120E943E140E9485110E94240EFDCFEF
:102890009B01AC012D3A8BE138074105510530F41D
:1028A00010926F001092800081E812C063E056958C
:1028B0004795379527956A95D1F72D3A8BE13807DB
:1028C00041055105C0F510926F001092800082E81A
:1028D000809381003093E3052093E205A5E2B0E008
:1028E0000E947E1CDC01CB0122E0B695A79597954E
:1028F00087952A95D1F79093DC058093DB0562E0FC
:1029000088E00E949E1261E089E00E94DA1261E094
:1029100089E00E949E121092E1051092DA05109251
:10292000D90510925805109255051092540580E271
:1029300086BB80936F000895CF92DF92EF92FF9253
:10294000CF93DF93D82FC0915505CF5FCF700E94F2
:1029500003126B017C0124E1C20ED11CE11CF11CAD
:10296000809154058C1309C00E940312C616D70625
:10297000E806F906A8F780E02DC02FB7F8948091FB
:102980005805882341F0EC2FF0E0EC5BFA4FD08340
:10299000C09355051DC081E080935805D09357051D
:1029A0001092560582E086BB80916F008260809312
:1029B0006F00809180008F73806880938000809189
:1029C00084009091850040969093890080938800C0
:1029D0002FBF81E0DF91CF91FF90EF90DF90CF90FC
:1029E0000895862F0E949C1490E008951F920F92E4
:1029F0000FB60F9211242F933F934F935F936F93D2
:102A00007F938F939F93EF93FF93809158056091ED
:102A1000570520918800309189004091E20550913E
:102A2000E305909156058A30F8F4240F351F89305C
:102A300019F0762F717001C071E066958F5F79177C
:102A400091F390918000772311F0906C02C09F73F6
:102A50009068909380003093890020938800709351
:102A600056056093570548C0E0915405909155056F
:102A70009E1319C08A3051F48BE080935805240FBF
:102A8000351F309389002093880038C01092580574
:102A9000809180008F738093800080916F008D7F84
:102AA00080936F002BC0EF5FEF70E0935405F0E070
:102AB000EC5BFA4F908190935705109256059091D8
:102AC00080009F739068909380008A3059F48091C1
:102AD000E2059091E305280F391F30938900209378
:102AE000880009C080918400909185004096909361
:102AF00089008093880081E080935805FF91EF91D1
:102B00009F918F917F916F915F914F913F912F9105
:102B10000F900FBE0F901F9018958091580581114E
:102B2000FCCF08951F920F920FB60F9211242F938E
:102B30003F934F935F936F937F938F939F93EF9305
:102B4000FF9380918600909187004091DF0520914E
:102B50008100442331F02F7B209381001092DF0508
:102B600006C020642093810020E82093DF05309187
:102B7000E105311125C0411166C02091DB0530917E
:102B8000DC05280F391F30938B0020938A0024E046
:102B900026BB20916F00246020936F002091E205F6
:102BA0003091E305820F931F36952795820F931F6F
:102BB0009093DE058093DD0581E08093E10543C0BD
:102BC0004091DD055091DE052091E005E091DF05A3
:102BD0006091E2057091E305841B950B97FD2BC076
:102BE00026952E2B460F571F3F5F861B970B3930BC
:102BF000A8F32093E00580916F008B7F80936F0096
:102C00008091DA058F5F8F779091D905891749F008
:102C1000E82FF0E09091E005E75AFA4F9083809317
:102C2000DA05809181008F7B809381001092DF050F
:102C30001092E10508C02093E0055093DE05409313
:102C4000DD053093E105FF91EF919F918F917F9189
:102C50006F915F914F913F912F910F900FBE0F9009
:102C60001F9018951F920F920FB60F9211242F9359
:102C70008F939F93EF93FF9380916F008B7F80934F
:102C80006F00809181008F7B809381008091E105AE
:102C90002091DF0520589091E005893020F4969529
:102CA000922B8F5FFACF9093E0058091DA058F5FCA
:102CB0008F772091D905821739F0E82FF0E0E75A95
:102CC000FA4F90838093DA051092E105809181009C
:102CD0008F7B809381001092DF05FF91EF919F9190
:102CE0008F912F910F900FBE0F901F90189590917C
:102CF000D9058091DA05891751F09F5F9F77E92FF9
:102D0000F0E0E75AFA4F80819093D905089580E06A
:102D100008950E9477160895E091D9058091DA050B
:102D20008E1739F0EF5FEF77F0E0E75AFA4F8081C6
:102D3000089580E008950E948C1608958091DA0528
:102D40009091D905891708F48058891B08950E942D
:102D50009E1608958091D9058093DA050895CF9342
:102D6000DF93CFE6D0E088818B7F888388818F7D59
:102D700088830E94AA160E948D1588818D7F888382
:102D8000DF91CF9108959091C100892F807194FFB8
:102D90000EC09091760680917706981302C080E06D
:102DA0000895E0917706F0E0EC50FA4F80810895A5
:102DB000E6E7F6E081818083E4E7F6E080818183C5
:102DC0000895FC01138212822CED31E031832083BF
:102DD00008959B01AC018091C10084FD1092C10057
:102DE000109275061092740610927706109276066D
:102DF0001216130614061506FCF4211581EE380789
:102E00004105510501F182E08093C00060E079E066
:102E10008DE390E00E94591CCA01B901615071090B
:102E20008109910922E030E040E050E00E94591C05
:102E30003093C5002093C40088E98093C10086E0E8
:102E40008093C20008951092C00020E130E0F0CFDE
:102E50001092C10008959091C100892F807194FF54
:102E600006C08091760690917706891B8F7708952A
:102E70000E942B1708959091C100892F807194FFB3
:102E800014C09091760680917706981302C080E076
:102E90000895E0917706F0E0EC50FA4F8081909130
:102EA00077069F5F9F779093770608950E943B1760
:102EB00008959091C10094FF18C0909174069F5F8F
:102EC0009F70209175069217E1F3E0917406F0E08F
:102ED000EC51FA4F8083909374068091C100806218
:102EE0008093C10081E090E0089580E090E0089533
:102EF000862F0E9459170895DC01ED91FC910190F5
:102F0000F081E02D099508950F931F93CF93DF93E0
:102F10008C01FB016491EF012196662329F0C80121
:102F20000E947C17FE01F6CFDF91CF911F910F9188
:102F30000895CF93DF93EC010E948417CE010E9485
:102F40007913DF91CF910895CF93DF93CDB7DEB79B
:102F50009E01275F3F4F4F81588561E08D819E81A3
:102F60000E94C718DF91CF91089580E0089580E016
:102F7000089580E00895089520917B06211108C0EE
:102F800021E030E0FC013383228380E090E008956B
:102F900080917B06109279061092B2008093B30064
:102FA00082E08093B000809178068093B100B99A56
:102FB0008091700082608093700010927A068091F8
:102FC0007A068823E1F388E0962F91709093790632
:102FD000669510927A0690917A069923E1F38150D2
:102FE00099F781E08093790610927A0680917A06AB
:102FF0008823E1F310927A0680917A068823E1F320
:10300000109270001092B10081E090E00895CF938B
:10301000C82F61E00E94DA1261E08C2F0E949E129C
:103020008C2F90E0FC01EE5BFA4FE491E0937F0679
:1030300020917F06209520937E06FC01EA5AFA4FE4
:10304000E491F0E0EE0FFF1FEC58FA4F8591949158
:1030500090937D0680937C06CF910895FC01842F88
:10306000138212822CEE31E0318320830E940718F4
:103070000895CF92DF92EF92FF92CF936B017C0184
:10308000C1148BE4D806E104F10459F194F480E80A
:10309000C81685E2D806E104F10419F1C1148DE2E5
:1030A000D806E104F10411F582E08093780680E10E
:1030B00015C0C11486E9D806E104F10459F0C11421
:1030C00081EED806E104F10489F482E08093780669
:1030D00082E204C082E08093780683E380937B06DB
:1030E00029C083E080937806C0E204C081E0809329
:1030F0007806C1E0C701B60122E030E040E050E0D0
:103100000E94591CCA01B9017C5D8B409F4FA701E9
:1031100096010E94591CCC2ED12CE12CF12CCA0115
:10312000B901A70196010E94591C20937B0681E0FA
:1031300080937A06CF91FF90EF90DF90CF90089523
:103140001F920F920FB60F9211248F939F93EF93BC
:10315000FF9380917906E0917C06F0917D068823AB
:1031600029F080917F069081892B04C080917E0692
:1031700090818923808381E080937A06FF91EF918B
:103180009F918F910F900FBE0F901F9018952F92C7
:103190003F924F925F926F927F928F929F92AF92E7
:1031A000BF92CF92DF92EF92FF920F931F93CF9334
:1031B000DF93CDB7DEB72C970FB6F894DEBF0FBE06
:1031C000CDBF7C01262E6A018901CE0101964C01FA
:1031D000F60120FC359120FE31916F01332309F473
:1031E000A3C1353241F420FC359120FE31916F01AD
:1031F000353271F408C03A3031F46DE0C7013C87D4
:103200000E947C173C85632FC7010E947C17E0CF8A
:10321000512C312C20E02032A0F43B3269F030F404
:10322000303259F0333269F420612CC03D3239F02C
:10323000303339F4216026C02260246023C0286026
:1032400021C027FD28C080ED830F8A3078F426FF47
:1032500006C0FAE05F9E800D1124582E13C09AE03C
:10326000399E800D1124382E20620CC03E3221F48C
:1032700026FD5AC1206406C03C3611F4206802C005
:10328000383649F4F60120FC359120FE31916F016A
:103290003111C1CF93C0333629F0333769F033355C
:1032A00011F15AC0F801808189830E5F1F4F4424B9
:1032B0004394512C540115C03801F2E06F0E711C7B
:1032C000F801A080B18026FF03C0652D70E002C028
:1032D0006FEF7FEFC5012C870E94231B2C01830118
:1032E0002C852F7716C03801F2E06F0E711CF801A3
:1032F000A080B18026FF03C0652D70E002C06FEF93
:103300007FEFC5012C870E94EF1A2C012C852068C5
:10331000830123FD1DC0832D90E048165906C0F49B
:1033200060E2C7012C870E947C173A942C85F3CF6A
:10333000F50127FD659127FF61915F01C7012C878A
:103340000E947C172C8531103A94F1E04F1A5108F5
:103350004114510469F7DFC0343611F0393639F5BC
:10336000F80127FF07C060817181828193810C5F22
:103370001F4F08C060817181072E000C880B990BCC
:103380000E5F1F4F2F76722E97FF09C09095809584
:10339000709561957F4F8F4F9F4F2068722E2AE066
:1033A00030E0A4010E943503A82EA81844C0353788
:1033B00029F42F7EB22E2AE030E025C0F22FF97FCB
:1033C000BF2E3F36C1F018F4383579F0ADC0303734
:1033D00019F0383721F0A8C02F2F2061B22EB4FE8B
:1033E0000DC08B2D8460B82E09C024FF0AC09F2F0A
:1033F0009660B92E06C028E030E005C020E130E03C
:1034000002C020E132E0F801B7FE07C0608171819F
:10341000828193810C5F1F4F06C06081718180E0C3
:1034200090E00E5F1F4FA4010E943503A82EA8183C
:10343000FB2DFF777F2E76FE0BC0372D3E7FA51428
:1034400050F474FE0AC072FC08C0372D3E7E05C0E1
:10345000BA2C372D03C0BA2C01C0B52C34FF0DC0D7
:10346000FE01EA0DF11D8081803311F4397E09C01F
:1034700032FF06C0B394B39404C0832F867809F05A
:10348000B39433FD14C030FF08C0B31428F4532C98
:103490005A0C5B18B32C01C05A2CB31460F460E2D0
:1034A000C7013C870E947C17B3943C85F6CFB314C8
:1034B00010F43B1801C0312C34FF0EC060E3C7018B
:1034C0003C870E947C173C8532FF13C031FD02C04F
:1034D00068E70CC068E50AC0832F867851F031FF99
:1034E00002C06BE201C060E237FD6DE2C7010E94DD
:1034F0007C17A51430F460E3C7010E947C175A942E
:10350000F8CFAA94F401EA0DF11D6081C7010E9471
:103510007C17A110F6CF332009F45ACE60E2C70120
:103520000E947C173A94F7CF2C960FB6F894DEBF22
:103530000FBECDBFDF91CF911F910F91FF90EF9004
:10354000DF90CF90BF90AF909F908F907F906F90C3
:103550005F904F903F902F9008951F93FC01992703
:103560008827BC01E89411911032E9F3193010F06A
:103570001E30C8F31B3251F01D3249F4689406C066
:103580000E942E1B610F711D811D911D1191105301
:103590001A30B0F33EF490958095709561957F4F09
:1035A0008F4F9F4F1F910895F8940C94AE1CFB0110
:1035B000DC014150504088F08D9181341CF08B35F6
:1035C0000CF4805E659161341CF06B350CF4605E28
:1035D000861B611171F3990B0895881BFCCFFC01C8
:1035E0000590615070400110D8F7809590958E0F2E
:1035F0009F1F0895FB0155915523A9F0BF01DC01E0
:103600004D9145174111E1F759F4CD010590002086
:1036100049F04D9140154111C9F3FB014111EFCF24
:1036200081E090E001970895FB01DC01415050409A
:1036300048F001900D920020C9F701C01D92415041
:103640005040E0F70895FC01615070400190011076
:10365000D8F7809590958E0F9F1F0895592F482F6A
:10366000372F262F660F771F881F991F660F771F2A
:10367000881F991F620F731F841F951F660F771F86
:10368000881F991F08950E944A1B6894B1110C94D9
:10369000C41B08950E94A91B88F09F5798F0B92F6A
:1036A0009927B751B0F0E1F0660F771F881F991F77
:1036B0001AF0BA95C9F714C0B13091F00E94C31B3B
:1036C000B1E008950C94C31B672F782F8827B85F4B
:1036D00039F0B93FCCF3869577956795B395D9F7CF
:1036E0003EF490958095709561957F4F8F4F9F4FD9
:1036F000089597F99F6780E870E060E008959FEF74
:1037000080EC089500240A94161617061806090678
:10371000089500240A941216130614060506089547
:10372000092E0394000C11F4882352F0BB0F40F4CF
:10373000BF2B11F460FF04C06F5F7F4F8F4F9F4F0F
:10374000089557FD9058440F551F59F05F3F71F091
:103750004795880F97FB991F61F09F3F79F08795F8
:103760000895121613061406551FF2CF4695F1DF81
:1037700008C0161617061806991FF1CF8695710511
:10378000610508940895E894BB2766277727CB0145
:1037900097F908950E94DD1B0C94901B0E94821BD8
:1037A00038F00E94891B20F0952311F00C94791BAE
:1037B0000C947F1B11240C94C41B0E94A11B70F35A
:1037C000959FC1F3950F50E0551F629FF001729FC6
:1037D000BB27F00DB11D639FAA27F00DB11DAA1FD5
:1037E000649F6627B00DA11D661F829F2227B00D22
:1037F000A11D621F739FB00DA11D621F839FA00DAD
:10380000611D221F749F3327A00D611D231F849FFC
:10381000600D211D822F762F6A2F11249F57504053
:103820009AF0F1F088234AF0EE0FFF1FBB1F661FCE
:10383000771F881F91505040A9F79E3F510580F097
:103840000C94791B0C94C41B5F3FE4F3983ED4F3B3
:10385000869577956795B795F795E7959F5FC1F73B
:10386000FE2B880F911D9695879597F90895A1E2F3
:103870001A2EAA1BBB1BFD010DC0AA1FBB1FEE1FEA
:10388000FF1FA217B307E407F50720F0A21BB30B35
:10389000E40BF50B661F771F881F991F1A9469F7B1
:1038A00060957095809590959B01AC01BD01CF010D
:1038B0000895052E97FB1EF400940E94701C57FD7E
:1038C00007D00E94371C07FC03D04EF40C94701CE8
:1038D00050954095309521953F4F4F4F5F4F08953C
:1038E00090958095709561957F4F8F4F9F4F08956C
:1038F000EE0FFF1F0590F491E02D09940E94891CA2
:10390000A59F900DB49F900DA49F800D911D112433
:103910000895A29FB001B39FC001A39F700D811DA8
:103920001124911DB29F700D811D1124911D0895C8
:10393000F999FECF92BD81BDF89A992780B5089577
:10394000262FF999FECF1FBA92BD81BD20BD0FB6BB
:10395000F894FA9AF99A0FBE0196089512E0C5EC10
:10396000D2E004C0FE010E94781C2196C63CD1071B
:06397000C9F7F894FFCF37
:103976000F0602B8220000796B6F637470612E72B5
:1039860075000000000000000000000000000000BC
:103996000000000000000000000000000000000021
:1039A6000000000000000000000000000000000011
:1039B6000000000000000000000000000000000001
:1039C60000000000000000000000000000000000F1
:1039D60000000000000000000000000000000000E1
:1039E60000000000000000000000000000000000D1
:1039F600000000000000000000000093032D13A645
:103A060003A803AA03AC030A2320646F6E650000B3
:103A1600000000F1142D13A71689169B16DD03006E
:103A260000000078172D1338175617C316D8160D31
:103A36000A006F7666002E0000000000F1142D13B8
:103A4600A71689169B16DD030000000078172D13B4
:103A560038175617C316D81600000000BC172D13CA
:083A6600B717B917B517BB171C
:00000001FF
