:100000000C94B6020C94DE020C94DE020C94DE0218
:100010000C94DE020C94DE020C94DE020C94951813
:100020000C94DE020C94DE020C9484150C94E814FB
:100030000C9427160C94DE020C94DE020C94DE0263
:100040000C94AC110C94DE020C9411040C94370443
:100050000C94DE020C94DE020C94DE020C94DE02A0
:100060000C94DE020C94DE028F069306A306BF06F4
:10007000B106CB06D706EA060007280728075F1057
:100080002410011001107210011001100110011054
:10009000011032104A100110011048110110011016
:1000A0000110011001102D10436F6E6E65637465B1
:1000B000642100436F6E6E656374696E6720746FB0
:1000C0002055445020536572766572004445414383
:1000D00054006578697420636F6E736F6C650A00F5
:1000E0006E6577207325643D25730A006E65772061
:1000F0007225643D25730A00636F6E6E656374201C
:10010000646F6E650A00636F6E6E6563742073744E
:100110006172740A004D6F64656D20636F6E6E6569
:1001200063746564204F4B210047534D204D6F642D
:10013000656D20636F6E6E6563746564204F4B213F
:1001400000756E6B6E6F776E00656570726F6D20F7
:1001500077726974650A005B434F4E4649475D0AF2
:1001600000435243210A00636F6E736F6C65204F2A
:100170004B00633D25780A00636F6E736F6C6500FA
:1001800067736D2D6D6F64656D000A255320302EE9
:1001900030360A0041504E2053657400526567693D
:1001A0007374657265643A205374617274696E6722
:1001B00020436F6E66696775726174696F6E005374
:1001C000494D3830302052656164792026204C6FCB
:1001D0006164696E6700496E697469616C697A6906
:1001E0006E672E2E2E00454550524F4D2077726976
:1001F000746520646F6E652100434F4E4E45435435
:10020000005D00636F6E6E656374205B00222C00DE
:100210002B43495053544152543D22554450222CB3
:1002200022002B434C504F52543D22554450222C17
:10023000002B4349465352002E002B434949435259
:1002400000222C22222C2222002B435354543D22E4
:100250000022002B53415042523D332C312C22417D
:10026000504E222C220043474154543A002B43471E
:100270004154543F002B43474154543D31002B43DC
:100280004950434346473D382C31302C3330302CD5
:10029000302C302C3436302C3530002B4349504D27
:1002A0004F44453D31002B4349504D55583D30009A
:1002B0002B4347455245503D31002B43495552434E
:1002C0003D31002B4353434C4B3D30002B43534DAA
:1002D000494E533D31002B43534E533D34002B4385
:1002E00052433D31002B43523D31002B434D454598
:1002F0003D32002B435245473D32002B4349504489
:100300005044503D312C3130002B53415042523D2E
:10031000332C312C22434F4E54595045222C224726
:1003200050525322002B47534D425553593D3100F3
:100330002B435553443A002322002B435553443D4D
:10034000312C220023323C200020455252004552DD
:10035000524F52003D000A00233E2041540023200A
:1003600077616E743A204F4B206F72200023207704
:10037000616E743A202553206F722025530A003C89
:1003800020002B4346554E3D312C31002B43465522
:100390004E3D31002B4343414C523F004343414CBF
:1003A000523A2031002B434C49503D31002B4349F8
:1003B00050534855543D31002B435343423D310087
:1003C00045302056312058312053303D3000004315
:1003D0005245473A20302C00327C8900EDD96877AD
:1003E000000000590000000000000000D69FDCA8BB
:1003F0001817AA90437327F6B968EDF4DED409FE06
:10040000E61C1C84DDE80B992927D6DF8D210F031C
:100410006418EFEE1E99B7825276941500347C0072
:100420000026149E988F0000006A31168F8C059666
:1004300000E7B73F3600000000000000AF669ED026
:10044000385D8A6C20B95422007CED044C803874ED
:1004500086EDCBFA57CBDC19E2001DDF5506E5CB64
:1004600001C30000000000000000009AB20086DB1B
:10047000D0BC5416131586004E44BD7F6F151590E1
:10048000010000B50000000000002F0000AEE500F4
:100490000000000000000000004700000000000015
:1004A000000000000000000000000000000000004C
:1004B000000000000000000000000000000000003C
:1004C0000000000000000000005A000000000000D2
:1004D00008CC31AA2C532E0063726173683A003E37
:1004E0000A003D0053003D0052005B434F4E464919
:1004F000475D0A001C383D43413A004154004F4BD0
:10050000004350494E3A205245414459002B435232
:1005100045473F002B4350494E3F000701404701EC
:10052000400102040810204080010204081020014C
:100530000204081020040404040404040402020257
:10054000020202030303030303000000002300264A
:1005500000290000000000250028002B00000000FA
:1005600000240027002A0000570E740E11241FBE1D
:10057000CFEFD8E0DEBFCDBF11E0A0E0B1E0E0E812
:10058000F9E302C005900D92A63FB107D9F726E026
:10059000A6EFB1E001C01D92AE37B207E1F712E05D
:1005A000C5EBD2E004C02197FE010E947D1CC43B34
:1005B000D107C9F70E9431140C94D91A0C94000089
:1005C000CF92DF92EF92FF920F931F93E82FF92FB4
:1005D00005C0015011092109310961F1908196236B
:1005E0009417B9F305C0015011092109310911F11E
:1005F000908196239413F7CFC12CD12CE12CF12CB0
:100600000AC08FEFC81AD80AE80AF80A0C151D05A7
:100610002E053F0579F080818623841791F36C2D98
:100620007D2D8E2D9F2D1F910F91FF90EF90DF90CC
:10063000CF90089560E070E080E090E01F910F910E
:10064000FF90EF90DF90CF900895FA01AA2728300D
:1006500051F1203181F1E8946F936E7F6E5F7F4F8F
:100660008F4F9F4FAF4FB1E03ED0B4E03CD0670F0B
:10067000781F891F9A1FA11D680F791F8A1F911D5E
:10068000A11D6A0F711D811D911DA11D20D009F4AE
:1006900068943F912AE0269F11243019305D3193F0
:1006A000DEF6CF010895462F4770405D4193B3E0D9
:1006B0000FD0C9F7F6CF462F4F70405D4A3318F080
:1006C000495D31FD4052419302D0A9F7EACFB4E031
:1006D000A6959795879577956795BA95C9F70097E9
:1006E0006105710508959B01AC010A2E069457958A
:1006F000479537952795BA95C9F7620F731F841FE1
:10070000951FA01D0895E091F601F091F701CF012A
:1007100001969093F7018093F6016083E091F601D2
:10072000F091F701108281E090E0089580E0089553
:100730000895FC01138212822BE831E0318320837B
:100740000895FB012081822790E1899F9001112467
:100750002827822F90E0582F44279C0163E0220F26
:10076000331F6A95E1F742275327218130E0242780
:10077000352774E0959587957A95E1F78227932739
:100780009183808308959C01862FB9010E94A10363
:1007900008950E947F150895EF92FF920F931F9383
:1007A000CF93DF931F92CDB7DEB77C018B01081B7F
:1007B000190B442361F0C8018E0D9F1D49830E94CF
:1007C0009D1CF70181937F0149814150F2CF0F9029
:1007D000DF91CF911F910F91FF90EF900895EF92CD
:1007E000FF920F931F93CF93DF931F92CDB7DEB786
:1007F0007B018C01442369F0F80161918F01C701ED
:1008000049830E94A51C49814150FFEFEF1AFF0A5E
:10081000F1CF0F90DF91CF911F910F91FF90EF904B
:1008200008951F920F920FB60F9211242F938F935A
:100830009F93EF93FF939091C600809174068F5F12
:100840008F7720917506821741F0E0917406F0E0F1
:10085000EE50FA4F908380937406FF91EF919F9131
:100860008F912F910F900FBE0F901F9018951F9290
:100870000F920FB60F9211248F939F93EF93FF93D4
:100880009091730680917206981779F0E091730643
:10089000F0E0EE51FA4F80818093C600809173069C
:1008A0008F5F8F708093730605C08091C1008F7D2C
:1008B0008093C100FF91EF919F918F910F900FBE98
:1008C0000F901F901895CF9361E08CE00E94CD129D
:1008D0000E943717C82F80916904882319F08C2F44
:1008E0000E948E1460E08CE00E94CD128C2FCF917C
:1008F00008950F931F93CF93DF93EC018B010E9418
:10090000F611DC01CB01800F911FA11DB11D888361
:100910009983AA83BB83DF91CF911F910F91089593
:10092000FC011382128223EA31E03183208308958F
:1009300061E081E10E94CD1261E081E10E949112AB
:1009400061E089E00E94CD1261E089E00E9491128D
:1009500061E083E00E94CD1261E083E00E94911289
:1009600060E088E00E9491120895CF92DF92EF92AA
:10097000FF92CF93DF936A017B01E901BC0185E619
:1009800094E00E9478172AE030E0B701A60185E6DE
:1009900094E00E94CB13BE0185E694E00E94781794
:1009A000DF91CF91FF90EF90DF90CF90089561E0BD
:1009B00070E080E090E00E94271208956AE070E005
:1009C00080E090E00E942712089562E370E080E0EA
:1009D00090E00E94271208950E94E5040E94E50419
:1009E00008950E94EC040E94EC040E94EC04089517
:1009F00060E083E00E94CD120E94F10461E083E098
:100A00000E94CD120E94EC04089568EE73E080E02D
:100A100090E00E942712089560E081E10E94CD12CB
:100A20000E94050561E081E10E94CD120E9405054A
:100A300008950F931F93CF93DF9300D000D0CDB7CD
:100A4000DEB742E062E070E0CE0101960E94CC0386
:100A500089819A810B97A1F58FEF9FEF909377048F
:100A60008093760484E890E09A838983CE0103968C
:100A70009C838B8304E010E089819A81892B79F033
:100A8000C8010E949D1C66E774E00E94A103898151
:100A90009A8101979A8389830F5F1F4FEDCF42E0C0
:100AA00060E070E0CE0101960E94CC0381E04981B4
:100AB0005A8120917604309177044217530709F048
:100AC00080E00F900F900F900F90DF91CF911F91CA
:100AD0000F91089544E864E070E083E091E00E94A3
:100AE000CC030895EF92FF921F93CF93DF938FEF84
:100AF0009FEF909377048093760483E0E82E81E063
:100B0000F82EC4E0D0E0F70111917F01612FCE01F2
:100B10000E94A51C66E774E0812F0E94A103219624
:100B2000C838D10581F742E060E070E086E794E0E4
:100B30000E94EF038BE090E090937704809376041B
:100B400042E062E070E086E794E00E94EF0366EE28
:100B500071E08EE694E00E9478178EE694E00E94A1
:100B60006B13DF91CF911F91FF90EF9008956AEE84
:100B700074E085E694E00E94781726EE34E040E0C9
:100B800050E0BA0188EE94E00E94B5044091030160
:100B90005091040160910501709106012AE030E056
:100BA00085E694E00E941E1422EE34E041E050E01D
:100BB00060E070E084EE94E00E94B504EBE1F5E0C3
:100BC0006591749185E694E00E94701322EE34E002
:100BD00042E050E060E070E084EE94E00E94B504F2
:100BE000EEE1F5E06591749185E694E00E94701362
:100BF0006FED74E085E694E00E94781708958A30DE
:100C000011F08D3029F40E943C0B84E092E018C072
:100C1000E0910101F091020192E0E338F907A8F0B8
:100C20000E943C0BA0910101B09102011A978AE049
:100C3000E4E0F2E001900D928A95E1F78EE092E017
:100C4000909302018093010108959F012F5F3F4F10
:100C5000309302012093010180830895CF930E9475
:100C60009A16882381F061E08BE00E94CD120E94E9
:100C70007316C82F0E9455178C2F0E94FF0560E045
:100C80008BE00E94CD12CF9108958091690481116B
:100C90000E942E060E94271708952F923F924F928E
:100CA0005F926F927F928F929F92AF92BF92CF92FC
:100CB000DF92EF92FF920F931F93CF93DF931F92D8
:100CC000CDB7DEB710922A05612C7724739487E0A4
:100CD000282E312C96E0492E512C05E010E024E01E
:100CE000C22ED12C32E0A32EB12C88248A94982CC9
:100CF0000E944506882309F461C20E946304282FDC
:100D00001092F8018091FB019091FC018B309105CC
:100D100008F0B8C0FC01EC5CFF4F0C947D1C1092F5
:100D20000302109202022E3F19F081E090E022C0EF
:100D3000B092FC01A092FB011092580390925603CE
:100D4000809255039FC0209358031092FD01622F9B
:100D500085E593E00E94C303D092FC01C092FB01A1
:100D600091C020935903622F85E593E00E94C3034D
:100D700083E090E09093FC018093FB0183C020937B
:100D80005A03622F85E593E00E94C3031093FC0190
:100D90000093FB0177C020935B03622F85E593E00E
:100DA0000E94C3035092FC014092FB016BC0209350
:100DB0005C03622F85E593E00E94C3038091580392
:100DC000811103C088E090E0D5CF3092FC012092E1
:100DD000FB0158C0E091FD0181E08E0F8093FD0181
:100DE000F0E0E35AFC4F2083622F85E593E00E94F8
:100DF000C3039091FD0180915803981343C0E2CF43
:100E0000E0915C03F0E0E852FC4F649185E593E0EB
:100E100029830E94C3032981422F50E0809155030A
:100E20009091560399274817590731F02E3F09F43E
:100E30007FCF8AE090E09ECF89E090E09093FC0124
:100E40008093FB01E091FD01F0E0E35AFC4F19C0F3
:100E5000422F50E0E0905603F12C4E155F0509F04B
:100E600062CF0A9709F45FCF7092F80181E090E0B9
:100E70009093FC018093FB01E091FD01F0E0E25AC8
:100E8000FC4F20832091F801222399F0809159038F
:100E90008093FE018091000290910102009721F45D
:100EA0001092030210920202019690930102809325
:100EB00000021092FA01222309F477C160E070E089
:100EC0008DE994E00E94790470922A0570922D05B4
:100ED00080915C03882309F45EC090919C0499235F
:100EE00021F020915A03921369C18E3309F427C16E
:100EF00090F4883109F464C08E3109F48EC08130D9
:100F000009F053C180916B0390916C0390937D0421
:100F100080937C044AC1893609F4AAC08D3F09F444
:100F200029C18A3409F041C180916F0380939904EB
:100F300020E030E048EC52E4609165037091660374
:100F400080916703909168030E94CF1B0E94481B09
:100F500060939504709396048093970490939804FB
:100F600020E030E048EC52E46091690370916A033C
:100F700080916B0390916C030E94CF1B0E94481BD1
:100F800060939104709392048093930490939404DB
:100F90000E94530E0AC180916103863009F405C195
:100FA00080915A0380939C0480915D0380938C040C
:100FB00080916303881F8827881F80933105F5C0BF
:100FC0008091650390916603A0916703B0916803D7
:100FD0008093220590932305A0932405B0932505C3
:100FE0008091690390916A03A0916B03B0916C03A7
:100FF0008093260590932705A0932805B093290593
:101000008091790380939A0480917A0380939B0462
:101010007092320566246394C8C021EE3EE245E634
:1010200052E460916503709166038091670390912B
:1010300068030E94CF1B0E94481B7093900460932A
:101040008F0421EE3EE245E652E460916103709127
:10105000620380916303909164030E94CF1B0E94FE
:10106000481B70938E0460938D040E94540E9DC0A3
:101070008091840490918504A0918604B0918704A6
:101080008093780490937904A0937A04B0937B04BE
:1010900020E030E048EC52E46091910370919203BB
:1010A00080919303909194030E94CF1B0E94481B50
:1010B00060938404709385048093860490938704DE
:1010C00020E030E04AE754E46091650370916603E4
:1010D00080916703909168030E94CF1B0E94481B78
:1010E000709383046093820420E030E04AE754E484
:1010F0006091690370916A0380916B0390916C0316
:101100000E94CF1B0E94481B70938104609380044F
:1011100020E030E04AE754E460916D0370916E0383
:1011200080916F03909170030E94CF1B0E94481B17
:1011300070937F0460937E040E94550E36C020E0B9
:1011400030E048EC52E46091650370916603809151
:101150006703909168030E94CF1B0E94481B609315
:1011600088047093890480938A0490938B040E946E
:10117000560E1BC080915D038430B8F482E3EEE527
:10118000F3E0A1EAB4E001900D928A95E1F71092A4
:10119000D30446E050E068ED74E081EA94E00E94F8
:1011A000DC1A892B11F4709233050E9427178111E4
:1011B0009FCD8AEA90E00E9463129ACD862D0F900F
:1011C000DF91CF911F910F91FF90EF90DF90CF9023
:1011D000BF90AF909F908F907F906F905F904F9057
:1011E0003F902F900895CF92DF92EF92FF92CF938E
:1011F000DF9380912D05882339F00E944D06909150
:101200002D0590932E0571C080912E058111F5CF8B
:101210000E94241761E08BE00E94CD1261E08CE017
:101220000E94CD120E94F6116B017C0124E6C20ED1
:10123000D11CE11CF11CDAEFCFEF24EC39E040E0E7
:1012400050E060E080E00E94EE126F3F7105810582
:10125000910509F064F4662351F06C1708F4C62F69
:101260000E94F611C616D706E806F90610F0D1500E
:1012700021F7CF3F19F4C091000102C0C0930001D3
:10128000CB3060F0C33160F0CD3160F0C83260F037
:10129000CC3360F0C63960F081E00BC088E109C052
:1012A0008CE007C088E005C086E003C084E001C090
:1012B00082E020EC32E1829FB001839F700D112407
:1012C000072E000C880B990B0E94E51660E08CE05D
:1012D0000E94CD1260E08BE00E94CD1281E08093ED
:1012E0002E0580913405811188CFDF91CF91FF9039
:1012F000EF90DF90CF900895EF92FF920F931F939E
:10130000CF938C017B01C0E00E944506811109C08A
:10131000E114F10419F0F7010995F6CF0E94D70402
:10132000F3CF0E9463048D3051F4F801EC0FF11DEE
:101330001082CF911F910F91FF90EF900895CC23D1
:1013400019F08A3019F4F1CF8A30F1F2F801EC0F7C
:10135000F11D8083C7FDD8CFCF5FD6CF60E070E0AE
:101360000E947C090895CF930E949A168823C9F0A1
:101370006FE773E08EE694E00E9478170E949A1659
:10138000882361F00E947316C82F682F8EE694E0C0
:101390000E9463138C2F0E94FF05F0CF0E94DE0491
:1013A000E3CFCF910895CF92DF92EF92FF920F9308
:1013B0001F93CF93DF937C01D62FC72F8A0169013A
:1013C0000E94B3091F930F93CF93DF938DE693E0B1
:1013D0009F938F938EE694E09F938F930E949D1727
:1013E00068E573E08EE694E00E947817B7018EE618
:1013F00094E00E9492176BEF74E08AE694E00E94FA
:101400007817B7018AE694E00E949217A601B80106
:101410008D2F9C2F0E94610A91E02DB73EB7285F67
:101420003F4F0FB6F8943EBF0FBE2DBF813009F07D
:1014300090E0892FDF91CF911F910F91FF90EF9056
:10144000DF90CF900895CF93CDE3C150D1F028EE37
:1014500033E04FEC53E06EEF74E08DE095E00E94D6
:10146000D309882371F0E0918502F091860280858E
:10147000833339F0853339F0813329F00E94050533
:10148000E4CF80E001C081E0CF91089528EE33E001
:1014900040E050E06EEF74E00E94D309089580911F
:1014A0008B02882369F00E94F8040E940C051092B8
:1014B0008B0282E893E00E94460AEE27FF270994F8
:1014C00008954F925F926F927F92AF92BF92CF92A8
:1014D000DF92EF92FF920F931F93CF93DF935C0104
:1014E0007B01EA010E94F61144E64C9F90014D9F5A
:1014F000300D11242B013C01420E531E611C711C46
:101500001092860210928502D1E0E114F10409F0F4
:10151000D0E061E08BE00E94CD120E94EC0460E01C
:101520008BE00E94CD1266E573E08EE694E00E94A7
:101530007817C0E00DE812E084E4C82E83E0D82ECE
:101540000E94DE040E949A16882309F471C061E0AB
:101550008CE00E94CD120F5F1F4F0E947316F8019E
:1015600031978083F8011082682F8EE694E00E9404
:1015700063130E949A168111EECF60E08CE00E9406
:10158000CD12C11134C0B5018DE892E00E94FF1A5E
:101590009093880280938702892B41F064E573E081
:1015A0008EE694E00E947817C1E013C06EE473E009
:1015B0008DE892E00E94FF1A909388028093870240
:1015C000892B39F069E473E08EE694E00E94781785
:1015D000C3E06CEC70E08DE892E00E94FF1A9093FB
:1015E000880280938702892B11F00E944F0AE11430
:1015F000F10411F1B7018DE892E00E94FF1A909377
:10160000860280938502D1E0009709F4D0E09F9391
:101610008F93DF92CF928EE694E09F938F930E94F8
:101620009D170F900F900F900F900F900F9004C088
:10163000CC2311F0D11108C00E94F6116415750574
:101640008605970508F47CCF67E971E08EE694E0A3
:101650000E947013C0938C028C2FDF91CF911F9149
:101660000F91FF90EF90DF90CF90BF90AF907F9061
:101670006F905F904F90089545E050E06CEC70E003
:1016800084E092E00E94DC1A892B11F40E944F0A38
:1016900008959B0140E050E06EEF74E00E94D30992
:1016A0000895CF93C7E362E070E08EEC93E00E9470
:1016B000490B811103C0C150B1F701C081E0CF9146
:1016C0000895CF93DF939B01AC0180918A02811131
:1016D0006FC080916400877F80936400DA01C90144
:1016E000B695A79597958795BC01CD017C5D8B40FC
:1016F0009F4F0E943C1CCA01B9010E943A140E94EB
:101700000C05CBE00E94510B8823A9F180EC93E0FB
:101710000E94460A8CE893E00E94460A88EB93E018
:101720000E94460A62E070E08DEA93E00E94490B55
:1017300028EE33E040E050E061E075E084E195E0C0
:101740000E94D309D82F85EA93E00E94460ADD2340
:10175000B1F00E94230A882391F028EE33E040E0A4
:1017600050E06CE973E084E993E00E94D309982F7C
:10177000882329F01FC00E94F8040E940C0582E80B
:1017800093E00E94460AD7E00E940505D150E1F798
:10179000C15009F0B7CF0E94AB16809164008860F9
:1017A0008093640090E081E0911108C080E006C061
:1017B00081E004C081E080938A02F5CFDF91CF9170
:1017C000089560E071EE80E090E00E94610B089562
:1017D00085E293E00E94460A89E093E00E94460A6F
:1017E0008BEF92E00E94460A83EF92E00E94460A45
:1017F000882309F44DC08BEE92E00E94460A8823AC
:1018000009F446C085EE92E00E94460A882309F456
:101810003FC08EED92E00E94460A8823C9F186ED12
:1018200092E00E94460A882399F18CEC92E00E9493
:10183000460A882369F183EC92E00E94460A8823D5
:1018400039F18AEB92E00E94460A882309F180EB85
:1018500092E00E94460A8823D9F086EA92E00E942C
:10186000460A8823A9F08BE992E00E94460A882361
:1018700079F08EE792E00E94460A882349F06EEEE6
:1018800072E085E792E00E94490B91E0811101C06E
:1018900090E0892F0895EF92FF920F931F93CF93BB
:1018A000DF9300D0CDB7DEB78C017B0149835A832B
:1018B0000E94B3096EE573E08EE694E00E9478170B
:1018C000B7018EE694E00E94921768E573E08EE619
:1018D00094E00E947817B8018EE694E00E94921777
:1018E0006BEF74E08AE694E00E947817B8018AE60C
:1018F00094E00E94701349815A81B7018EEF94E001
:101900000E94610A91E0813009F090E0892F0F90E8
:101910000F90DF91CF911F910F91FF90EF9008955D
:10192000EF92FF920F931F93CF93DF93CDB7DEB764
:10193000C055D1090FB6F894DEBF0FBECDBF7C01F4
:1019400028E532E046E652E06EEF74E08DE692E084
:101950000E94D3098823A9F0209185023091860244
:10196000295F3F4FC9012F5F3F4FFC01408140324B
:10197000C9F30E94B21A81E0611101C080E0809336
:1019800089028E010F5F1F4F1093F7010093F6013C
:1019900063E572E085E395E00E947817B70185E37F
:1019A00095E00E94601361E572E085E395E00E9496
:1019B000781748EE53E060E070E0C8010E944B0CDD
:1019C0008823F9F01093F7010093F60169E472E0BF
:1019D00085E395E00E947817B70185E395E00E94C2
:1019E000601361E472E085E395E00E94781748EEA9
:1019F00053E060E070E0C8010E944B0C91E0813040
:101A000009F090E0892FC05BDF4F0FB6F894DEBF7E
:101A10000FBECDBFDF91CF911F910F91FF90EF903F
:101A20000895CF93DF9366ED71E08EE694E00E9417
:101A300092170E94E10B81111BC0CFE0D0E060E063
:101A40008BE00E94CD120E94F10461E08BE00E94C5
:101A5000CD1260E08CE00E94CD120E94F10461E0A2
:101A60008CE00E94CD12219751F7EE27FF270994B1
:101A70006FEB71E08EE694E00E94921781E0809314
:101A800084026CE971E08EE694E00E9492170E9455
:101A9000E80B882371F287E491E00E94900C882380
:101AA00041F264E971E08EE694E00E949217DF91C2
:101AB000CF910895EF92FF920F931F93CF93DF93EF
:101AC000CDB7DEB7C054D1090FB6F894DEBF0FBE54
:101AD000CDBF7C016EE170E08AE392E00E94490B89
:101AE000882389F128EE33E04EEF54E068E372E09A
:101AF00081E392E00E94D309882329F10E94B3096F
:101B00008E010F5F1F4F1093F7010093F60162E201
:101B100072E085E395E00E9478174AE050E0B70153
:101B200085E395E00E94DA13B8018EE694E00E9406
:101B3000601348EE53E060E070E0C8010E944B0C77
:101B400091E0813009F090E0892FC05CDF4F0FB643
:101B5000F894DEBF0FBECDBFDF91CF911F910F91E3
:101B6000FF90EF900895CF92DF92EF92FF920F9344
:101B70001F93CF93DF93CDB7DEB7C054D1090FB613
:101B8000F894DEBF0FBECDBF6C017B010E94B3098C
:101B90008E010F5F1F4F1093F7010093F60160E174
:101BA00072E085E395E00E947817B60185E395E041
:101BB0000E9460136DE072E085E395E00E94781763
:101BC0004AE050E0B70185E395E00E94DA1363E054
:101BD00072E08EE694E00E947817B8018EE694E0F9
:101BE0000E94601361E072E08EE694E00E9492171A
:101BF00040E456E069EF71E0C8010E944B0C81306F
:101C000019F480938B0201C080E0C05CDF4F0FB6F7
:101C1000F894DEBF0FBECDBFDF91CF911F910F9122
:101C2000FF90EF90DF90CF9008950E94F30880918D
:101C30002D058823B9F180916904811133C061E0D9
:101C40008BE00E94CD1261E08CE00E94CD12809169
:101C50000301909104010E945A0D63EB70E08EE63F
:101C600094E00E949217609103017091040187E053
:101C700091E00E94B30D81E08093690468EA70E00E
:101C80008EE694E00E94921761E08CE00E94CD12F3
:101C900060E08BE00E94CD120E94050560E08CE0C0
:101CA0000E94CD120895089508950895089585E33A
:101CB00095E00E94990382E794E00E94DD164DE0D2
:101CC00060E08EE694E00E9423188AE694E00E9489
:101CD000900485E694E00E94DD1683EB91E09093FA
:101CE00066048093650408958AEC91E090936B04F8
:101CF00080936A040E94AB1608958F929F92BF92C0
:101D0000CF92DF92EF92FF920F931F93CF93DF93C7
:101D1000CDB7DEB7A1970FB6F894DEBF0FBECDBF2B
:101D20006C010E94B309B12C8E010F5F1F4F780127
:101D3000F092F701E092F6016AE373E085E395E043
:101D40000E947817BB2011F06AE201C063E285E3CC
:101D500095E00E9483034AE050E0B60185E395E0F8
:101D60000E94DA1367E373E085E395E00E94781739
:101D700048EC50E060E373E0C7010E944B0C8130F7
:101D800039F0B11003C0BB24B394D2CF80E060C05F
:101D900089A30E94F104A0918502B09186024D01B1
:101DA00016E0810E911C50E0E1EAF4E020E030E022
:101DB00060E040E07DE289A1D4019D914D0199232D
:101DC00009F445C0923221F4611142C061E0F4CFC0
:101DD000662391F3BB20B9F1790124E0EE0CFF1CDE
:101DE0002A95E1F791360CF0905230ED390F3A30E8
:101DF00014F039EC390F6701C30ED11C37FDDA94AA
:101E000096014F5F4430C1F69C2DE52EF12C8701E1
:101E10000C501B4FD8014C91C41202C05F5F07C029
:101E2000563021F470831182319601C050E02F3F6B
:101E3000310529F020F020E030E040E0BDCF908374
:101E400011823196F8CF908311823196B5CF862FCB
:101E5000A1960FB6F894DEBF0FBECDBFDF91CF9134
:101E60001F910F91FF90EF90DF90CF90BF909F90C8
:101E70008F9008952F923F924F925F926F927F9230
:101E80008F929F92AF92BF92CF92DF92EF92FF928A
:101E90000F931F93CF93DF93CDB7DEB7C558D1090A
:101EA0000FB6F894DEBF0FBECDBF84E8E3E0F1E0EB
:101EB000DE01119601900D928A95E1F761E08CE0C8
:101EC0000E94CD1261E08BE00E94CD1268EE73E0BB
:101ED00080E090E00E94271280E891E09F938F932A
:101EE0008AE891E09F938F9385E694E09F938F9388
:101EF0000E949D1768E771E08EE694E00E947817D3
:101F00008EE694E00E946B130F900F900F900F904D
:101F10000F900F9005E1F2E7EF2EF1E0FF2EAEE615
:101F2000CA2EA4E0DA2E0E94F6114B015C0128EBC8
:101F3000820E2BE0921EA11CB11C10E00E94F61133
:101F4000681579058A059B0548F50E944506882392
:101F5000A9F30E9463041F928F93FF92EF92DF9286
:101F6000CF92CB57DF4F8883C558D0400E949D1732
:101F70000F900F900F900F900F900F90CB57DF4F57
:101F80008881C558D040193048F4E12FF0E0E0587E
:101F9000FE4FE4918E13D1CF1F5FD0CF193009F0DF
:101FA00053C167E671E08EE694E00E9492170E94AA
:101FB000190581110CC061E671E08EE694E00E9483
:101FC00078178EE694E00E946B130E9472050E94BF
:101FD0006A054CEE642E40E0742E0EE614E050EEDE
:101FE000E52E50E0F52E66E0C62E61E0D62E78EFA5
:101FF000A72E70E0B72E33243394E9E48E2EE1E06F
:102000009E2E67E571E085E694E00E9478170E94B5
:10201000B70581EA94E00E94AE092091A104222331
:1020200009F49FC08091A20481119BC01092A10469
:10203000822F90E0FC01E356F109E531F10508F744
:10204000E15CFF4F0C947D1C84E8FE013196A3E017
:10205000B1E001900D928A95E1F70E9472059F927E
:102060008F9265C080918402811102C00E94110D7F
:1020700084E690E00E947D0E8091A104882339F0CF
:1020800061EA74E085E694E00E947013BACF61E4DF
:1020900071E010C080918402811102C00E94110D74
:1020A00085E690E00E947D0E8091A1048111E8CF29
:1020B00061E471E085E694E00E949217A2CF8091DE
:1020C0008402811102C00E94110D30922D050E94E0
:1020D000150E69E271E08AE694E00E94921765E1CC
:1020E00071E0E8CF80918402811102C00E94110D3D
:1020F000DF92CF921F930F930E949D170F900F9026
:102100000F900F906EE276E081EA94E00E947C09E5
:102110008091A1048E3229F031EA432E34E0532E0F
:102120000FC08091A2048111F7CFBF92AF921F938D
:102130000F930E949D170F900F900F900F9061CFFB
:10214000F20161912F018AE694E0662319F00E9462
:10215000E314F6CF0E946B138091A1048111D2CFBA
:10216000E4CF82EA94E0CB57DF4F2883C558D040B4
:102170000E94B21A262EE1EAF4E0CB57DF4F288105
:10218000C558D0402F018191882319F02F018D333C
:10219000C9F7223529F0233549F12C3409F031CF24
:1021A000F1E0F21508F42DCFF2018081882309F4C3
:1021B00028CFC2010E94B21A24E0229EF00111240D
:1021C000ED5FFE4F60837183828393835F924F92B2
:1021D0001F922F927F926F921F930F930E949D17D1
:1021E0000FB6F894DEBF0FBECDBF0BCF92E09215B5
:1021F00008F407CF5F924F921F922F92FF92EF92B7
:102200001F930F930E949D178FEF820D0FB6F894C6
:10221000DEBF0FBECDBF823008F0F3CE90E0FC01F0
:10222000EE0FFF1F8E0F9F1FFC01E35EFA4F4491DC
:10223000FC01E55EFA4F8591949150E041505109BF
:10224000B2010E94191BDDCE0E941905882319F0E6
:102250000E946A051DC0015019F40E94720518C041
:1022600013E060E08BE00E94CD120E94F10461E077
:102270008BE00E94CD1260E08CE00E94CD120E94A3
:10228000F10461E08CE00E94CD12115051F74BCE69
:1022900082ED90E09F938F938EE694E09F938F93CF
:1022A0000E949D1760E08CE00E94CD1260E08BE000
:1022B0000E94CD120F900F900F900F90CB57DF4FD1
:1022C0000FB6F894DEBF0FBECDBFDF91CF911F9147
:1022D0000F91FF90EF90DF90CF90BF90AF909F90C5
:1022E0008F907F906F905F904F903F902F900895C8
:1022F00061E08CE00E94911261E08BE00E949112FB
:1023000060E08CE00E94CD1261E08BE00E94CD1273
:1023100061E083E00E94CD1261E083E00E949112AF
:102320000E94980460E071EE80E090E00E942E1818
:1023300060E071EE80E090E00E94E51678940E94E3
:102340003A0F80918402811102C00E94110D60E059
:102350008BE00E94CD1208951F920F920FB60F923C
:1023600011242F933F938F939F93AF93BF938091AB
:102370003A0590913B05A0913C05B0913D05309107
:10238000390523E0230F2D3720F40196A11DB11D3F
:1023900005C026E8230F0296A11DB11D2093390523
:1023A00080933A0590933B05A0933C05B0933D057F
:1023B00080913E0590913F05A0914005B091410567
:1023C0000196A11DB11D80933E0590933F05A093FA
:1023D0004005B0934105BF91AF919F918F913F917F
:1023E0002F910F900FBE0F901F9018952FB7F89454
:1023F00060913A0570913B0580913C0590913D05B7
:102400002FBF08953FB7F89480913E0590913F0506
:10241000A0914005B091410526B5A89B05C02F3F6E
:1024200019F00196A11DB11D3FBFBA2FA92F982FFA
:102430008827820F911DA11DB11DBC01CD0142E075
:10244000660F771F881F991F4A95D1F708958F92BD
:102450009F92AF92BF92CF92DF92EF92FF926B0169
:102460007C010E9402124B015C01C114D104E10401
:10247000F10401F10E94ED120E940212DC01CB0175
:1024800088199909AA09BB09883E9340A105B1059D
:1024900060F321E0C21AD108E108F10888EE880E45
:1024A00083E0981EA11CB11CC114D104E104F10405
:1024B00019F7DBCFFF90EF90DF90CF90BF90AF90F8
:1024C0009F908F9008958230910538F0880F991F62
:1024D000880F991F05970197F1F70895789484B5AF
:1024E000826084BD84B5816084BD85B5826085BD10
:1024F00085B5816085BDEEE6F0E0808181608083F6
:10250000EAE7F0E08081846080838081826080835C
:102510008081816080838081806880831092C10087
:102520000895CF93DF9390E0FC01EF5DFA4F249183
:10253000FC01EB5CFA4F8491882361F190E0880FF5
:10254000991FFC01E35AFA4FC591D491FC01ED5A51
:10255000FA4FA591B491611109C09FB7F894888191
:10256000209582238883EC912E230BC0623061F486
:102570009FB7F8948881322F309583238883EC911C
:102580002E2B2C939FBF06C08FB7F894E8812E2B7B
:1025900028838FBFDF91CF91089590E0FC01EF5D1C
:1025A000FA4F2491FC01EB5CFA4FE491EE23A1F089
:1025B000F0E0EE0FFF1FED5AFA4FA591B4919FB7CF
:1025C000F894611105C08C91E22FE095E82302C0D8
:1025D000EC91E22BEC939FBF089508950F931F9306
:1025E00090E0FC01EF5DFA4F7491FC01EB5CFA4F57
:1025F000E491662311F0672F01C060E0F0E0EE0F78
:10260000FF1FE75BFA4F8591949189019A013F7012
:10261000462F672F0E94E002611571058105910523
:1026200049F0DC01CB010196A11DB11DBC01CD011A
:102630009F7003C060E070E0CB011F910F9108957F
:10264000CF92DF92EF92FF920F931F93CF93DF937E
:102650006C017A018B01C0E0D0E0CE15DF0581F07E
:10266000D8016D918D01D601ED91FC910190F08121
:10267000E02DC6010995892B11F02196EECF7E0140
:10268000C701DF91CF911F910F91FF90EF90DF90E5
:10269000CF9008956115710581F0FB010190002034
:1026A000E9F73197AF01461B570BDC01ED91FC9127
:1026B0000280F381E02D0995089580E090E008956F
:1026C0000E944A130895DC01ED91FC910190F08184
:1026D000E02D099508956FEB71E00E944A1308956B
:1026E0000F931F93CF93DF93EC010E944A138C0149
:1026F000CE010E946B13800F911FDF91CF911F912C
:102700000F9108958F929F92AF92BF92EF92FF9296
:102710000F931F93CF93DF93CDB7DEB7A1970FB67B
:10272000F894DEBF0FBECDBF7C01FA01CB0119A228
:10273000223008F42AE08E010F5D1F4F822E912C6B
:10274000A12CB12CBF01A50194010E943C1CF901F0
:10275000CA01015011096A3014F4605D01C0695C5E
:10276000D8016C93232B242B252B61F7B801C701CB
:102770000E944A13A1960FB6F894DEBF0FBECDBFDC
:10278000DF91CF911F910F91FF90EF90BF90AF908D
:102790009F908F9008952115310549F4DC01ED914A
:1027A000FC910190F081E02D642F099508950E941D
:1027B000821308959A01AB0160E070E00E94CB1390
:1027C0000895CF92DF92EF92FF920F931F93CF93D2
:1027D000DF938C016A017B012115310549F4DC018D
:1027E000ED91FC910190F081E02D642F09951DC0C1
:1027F0002A303105A9F477FF12C06DE20E946313FD
:10280000EC0144275527BA014C195D096E097F096F
:102810002AE0C8010E9482138C0F9D1F06C02AE087
:10282000B701A601C8010E948213DF91CF911F91C9
:102830000F91FF90EF90DF90CF9008950F931F932B
:10284000CF93DF93EC010E94E1138C01CE010E9433
:102850006B13800F911FDF91CF911F910F910895FE
:1028600008950E946E120E9430140E9478110E94F6
:10287000150EFDCF9B01AC012D3A8BE138074105C8
:10288000510530F410926F001092800081E812C060
:1028900063E056954795379527956A95D1F72D3A78
:1028A0008BE1380741055105C0F510926F00109279
:1028B000800082E8809381003093E1052093E00559
:1028C000A5E2B0E00E94831CDC01CB0122E0B695BA
:1028D000A795979587952A95D1F79093DA058093D8
:1028E000D90562E088E00E94911261E089E00E94CF
:1028F000CD1261E089E00E9491121092DF051092E2
:10290000D8051092D70510925605109253051092D3
:10291000520580E286BB80936F000895CF92DF92CC
:10292000EF92FF92CF93DF93D82FC0915305CF5FE3
:10293000CF700E94F6116B017C0124E1C20ED11C04
:10294000E11CF11C80915205C81309C00E94F611C8
:10295000C616D706E806F906A8F780E02DC02FB7FF
:10296000F89480915605882341F0EC2FF0E0EE5B5F
:10297000FA4FD083C09353051DC081E08093560564
:10298000D09355051092540582E086BB80916F006C
:10299000826080936F00809180008F7B806880933D
:1029A00080008091840090918500409690938900EA
:1029B000809388002FBF81E0DF91CF91FF90EF904F
:1029C000DF90CF900895862F0E948E1490E0089596
:1029D0001F920F920FB60F9211242F933F934F9394
:1029E0005F936F937F938F939F93EF93FF93809168
:1029F00056056091550520918800309189004091DD
:102A0000E0055091E105909154058A30F8F4240FC7
:102A1000351F893019F0762F717001C071E066950D
:102A20008F5F791791F390918000772311F0906C6C
:102A300002C09F7B90689093800030938900209320
:102A40008800709354056093550548C0E091520585
:102A500090915305E91319C08A3051F48BE08093AB
:102A60005605240F351F309389002093880038C005
:102A700010925605809180008F7380938000809122
:102A80006F008D7F80936F002BC0EF5FEF70E0933E
:102A90005205F0E0EE5BFA4F90819093550510924D
:102AA0005405909180009F7B9068909380008A30BD
:102AB00059F48091E0059091E105280F391F30937A
:102AC00089002093880009C080918400909185003E
:102AD0004096909389008093880081E0809356050A
:102AE000FF91EF919F918F917F916F915F914F91A6
:102AF0003F912F910F900FBE0F901F9018958091CE
:102B000056058111FCCF08951F920F920FB60F92B8
:102B100011242F933F934F935F936F937F938F93E2
:102B20009F93EF93FF93809186009091870040914F
:102B3000DD0520918100442331F02F7B209381001B
:102B40001092DD0506C020642093810020E82093C8
:102B5000DD053091DF05311125C0411169C020919B
:102B6000D9053091DA05280F391F30938B00209357
:102B70008A0024E026BB20916F00246020936F0020
:102B80002091E0053091E105820F931F369527953E
:102B9000820F931F9093DC058093DB0581E0809387
:102BA000DF0546C04091DB055091DC052091DE0534
:102BB0007091DD05E091E005F091E105841B950B36
:102BC00060E097FD2CC02695272B4E0F5F1F3F5FBF
:102BD0008E1B9F0B61E03930A0F32093DE058091BE
:102BE0006F008B7F80936F008091D8058F5F8F7708
:102BF0009091D705891749F0E82FF0E09091DE0514
:102C0000E95AFA4F90838093D805809181008F7B99
:102C1000809381001092DD051092DF0509C06111DB
:102C20002093DE055093DC054093DB053093DF05F0
:102C3000FF91EF919F918F917F916F915F914F9154
:102C40003F912F910F900FBE0F901F9018951F92DC
:102C50000F920FB60F9211242F933F938F939F9350
:102C6000EF93FF9380916F008B7F80936F00809133
:102C700081008F7B809381009091DF052091DD059D
:102C800020588091DE0530E0993028F48695822B1B
:102C90009F5F31E0F9CF31118093DE058091D80537
:102CA0008F5F8F779091D705891749F0E82FF0E073
:102CB0009091DE05E95AFA4F90838093D8051092DF
:102CC000DF05809181008F7B809381001092DD056C
:102CD000FF91EF919F918F913F912F910F900FBE98
:102CE0000F901F9018959091D7058091D80598174F
:102CF00051F09F5F9F77E92FF0E0E95AFA4F80810A
:102D00009093D705089580E008950E947316089562
:102D1000E091D7058091D805E81739F0EF5FEF779C
:102D2000F0E0E95AFA4F8081089580E008950E940A
:102D3000881608958091D8059091D705891708F4D1
:102D40008058891B08950E949A1608958091D7058E
:102D50008093D8050895CF93DF93CFE6D0E08881A4
:102D60008B7F888388818F7D88830E94A6160E942E
:102D70007F1588818D7F8883DF91CF910895909111
:102D8000C100892F807194FF0EC0909174068091CC
:102D90007506981302C080E00895E0917506F0E092
:102DA000EE50FA4F80810895E4E7F6E08181808358
:102DB000E2E7F6E0808181830895FC0113821282AC
:102DC0002AED31E03183208308959B01AC0180918D
:102DD000C10084FD1092C100109273061092720619
:102DE0001092750610927406121613061406150634
:102DF000FCF4211581EE38074105510501F182E00F
:102E00008093C00060E079E08DE390E00E945E1C5A
:102E1000CA01B901615071098109910922E030E0CC
:102E200040E050E00E945E1C3093C5002093C40037
:102E300088E98093C10086E08093C20008951092D3
:102E4000C00020E130E0F0CF1092C10008959091D1
:102E5000C100892F807194FF06C080917406909103
:102E60007506891B8F7708950E9427170895909102
:102E7000C100892F807194FF14C0909174068091D5
:102E80007506981302C080E00895E0917506F0E0A1
:102E9000EE50FA4F8081909175069F5F9F779093D7
:102EA000750608950E94371708959091C10094FF08
:102EB00018C0909172069F5F9F70209173069217C1
:102EC000E1F3E0917206F0E0EE51FA4F80839093C7
:102ED00072068091C10080628093C10081E090E021
:102EE000089580E090E00895862F0E945517089578
:102EF0000F931F93CF93DF938C01FB016491EF013C
:102F00002196662351F0D801ED91FC910190F0815A
:102F1000E02DC8010995FE01F1CFDF91CF911F91FE
:102F20000F910895CF93DF93EC010E947817CE01A3
:102F30000E946B13DF91CF910895CF93DF93CDB7AC
:102F4000DEB79E01275F3F4F4F81588561E08D813D
:102F50009E810E94C418DF91CF91089580E008956A
:102F6000089520917906211108C021E030E0FC018C
:102F70003383228380E090E0089580917906109257
:102F800077061092B2008093B30082E08093B00085
:102F9000809176068093B100B99A8091700082602A
:102FA0008093700010927806809178068823E1F370
:102FB00088E0962F91709093770666951092780628
:102FC000909178069923E1F3815099F781E08093FD
:102FD000770610927806809178068823E1F31092A4
:102FE0007806809178068823E1F3109270001092A1
:102FF000B10081E090E00895CF93C82F61E00E9476
:10300000CD1261E08C2F0E9491128C2F90E0FC0178
:10301000EF5DFA4FE491E0937D0620917D062095C7
:1030200020937C06FC01EB5CFA4FE491F0E0EE0F9C
:10303000FF1FED5AFA4F8591949190937B068093F0
:103040007A06CF910895FC01842F138212822AEE12
:1030500031E0318320830E94FC170895CF92DF92E4
:10306000EF92FF92CF936B017C01C1148BE4D806E1
:10307000E104F10459F194F480E8C81685E2D80619
:10308000E104F10419F1C1148DE2D806E104F10460
:1030900011F582E08093760680E115C0C11486E9BF
:1030A000D806E104F10459F0C11481EED806E10418
:1030B000F10489F482E08093760682E204C082E023
:1030C0008093760683E38093790629C083E080931A
:1030D0007606C0E204C081E080937606C1E0C701B5
:1030E000B60122E030E040E050E00E945E1CCA01E0
:1030F000B9017C5D8B409F4FA70196010E945E1C29
:10310000CC2ED12CE12CF12CCA01B901A7019601DA
:103110000E945E1C2093790681E080937806CF910F
:10312000FF90EF90DF90CF9008951F920F920FB60F
:103130000F9211248F939F93EF93FF9380917706C3
:10314000E0917A06F0917B06882329F090917D0624
:103150008081892B04C090917C06808189238083A3
:1031600081E080937806FF91EF919F918F910F906E
:103170000FBE0F901F901895DC01ED91FC9101900E
:10318000F081E02D099508952F923F924F925F9222
:103190006F927F928F929F92AF92BF92CF92DF9267
:1031A000EF92FF920F931F93CF93DF93CDB7DEB7CC
:1031B0002C970FB6F894DEBF0FBECDBF6C01262E44
:1031C0008A017901AE014F5F5F4F4A01F80120FC8F
:1031D000359120FE31918F01332309F4AAC1353294
:1031E00041F420FC359120FE31918F01353271F48C
:1031F00008C03A3031F46DE0C6013C870E94BC182B
:103200003C85632FC6010E94BC18E0CF512C312CA5
:1032100020E02032A0F43B3269F030F4303259F033
:10322000333269F420612CC03D3239F0303339F447
:10323000216026C02260246023C0286021C027FDB1
:1032400028C080ED830F8A3078F426FF06C05AE04C
:10325000559E800D1124582E13C09AE0399E800D82
:103260001124382E20620CC03E3221F426FD61C1AB
:10327000206406C03C3611F4206802C0383649F498
:10328000F80120FC359120FE31918F013111C1CF21
:1032900098C0333629F0333779F0333521F15CC0EB
:1032A000F70180818983A7014E5F5F4F7A01442433
:1032B0004394512C540115C0370152E0650E711C26
:1032C000F701A080B18026FF03C0652D70E002C029
:1032D0006FEF7FEFC5012C870E94281B2C01730123
:1032E0002C852F7716C03701F2E06F0E711CF701A5
:1032F000A080B18026FF03C0652D70E002C06FEF93
:103300007FEFC5012C870E94F41A2C012C852068C0
:10331000730123FD1DC0832D90E048165906C0F4AB
:1033200060E2C6012C870E94BC183A942C85F3CF2A
:10333000F50127FD659127FF61915F01C6012C878B
:103340000E94BC182C8531103A94F1E04F1A5108B4
:103350004114510469F7E4C0343611F0393651F59F
:10336000F70127FF08C06081718182819381A701E5
:103370004C5F5F4F09C060817181072E000C880B84
:10338000990BA7014E5F5F4F7A012F76722E97FF40
:1033900009C090958095709561957F4F8F4F9F4F95
:1033A0002068722E2AE030E0A4010E942503A82E96
:1033B000A81847C0353729F42F7EB22E2AE030E016
:1033C00025C0522F597FB52E3F36C1F018F438353D
:1033D00079F0AFC0303719F0383721F0AAC0852F07
:1033E0008061B82EB4FE0DC09B2D9460B92E09C02B
:1033F00024FF0AC0E52FE660BE2E06C028E030E0BC
:1034000005C020E130E002C020E132E0F701B7FE64
:1034100008C06081718182819381A7014C5F5F4FF9
:1034200007C06081718180E090E0A7014E5F5F4F2F
:103430007A01A4010E942503A82EA8185B2D5F77AE
:10344000752E76FE0BC0372D3E7FA51450F474FE0A
:103450000AC072FC08C0372D3E7E05C0BA2C372D3D
:1034600003C0BA2C01C0B52C34FF0DC0FE01EA0D1B
:10347000F11D8081803311F4397E09C032FF06C00E
:10348000B394B39404C0832F867809F0B39433FDCA
:1034900012C030FF06C0B31490F43A0C532C5B18E2
:1034A0000FC0B31468F460E2C6013C870E94BC18E8
:1034B000B3943C85F6CFB31418F43B1802C05A2CD1
:1034C000312C34FF0EC060E3C6013C870E94BC185B
:1034D0003C8532FF13C031FF02C068E50CC068E7CD
:1034E0000AC0832F867851F031FF02C06BE201C021
:1034F00060E237FD6DE2C6010E94BC18A51430F4ED
:1035000060E3C6010E94BC185A94F8CFAA94F40153
:10351000EA0DF11D6081C6010E94BC18A110F6CF12
:10352000332009F453CE60E2C6010E94BC183A94DD
:10353000F7CF2C960FB6F894DEBF0FBECDBFDF914C
:10354000CF911F910F91FF90EF90DF90CF90BF90A0
:10355000AF909F908F907F906F905F904F903F9033
:103560002F9008951F93FC0199278827BC01E894A8
:1035700011911032E9F3193010F01E30C8F31B32EC
:1035800051F01D3249F4689406C00E94331B610F4C
:10359000711D811D911D119110531A30B0F33EF42D
:1035A00090958095709561957F4F8F4F9F4F1F919C
:1035B0000895F8940C94B31CFB01DC014150504079
:1035C00088F08D9181341CF08B350CF4805E659110
:1035D00061341CF06B350CF4605E861B611171F375
:1035E000990B0895881BFCCFFC0105906150704039
:1035F0000110D8F7809590958E0F9F1F0895FB01BD
:1036000055915523A9F0BF01DC014D91451741119A
:10361000E1F759F4CD010590002049F04D91401596
:103620004111C9F3FB014111EFCF81E090E0019717
:103630000895FB01DC014150504048F001900D928B
:103640000020C9F701C01D9241505040E0F7089595
:10365000FC016150704001900110D8F78095909561
:103660008E0F9F1F0895592F482F372F262F660F33
:10367000771F881F991F660F771F881F991F620F7A
:10368000731F841F951F660F771F881F991F08954A
:103690000E944F1B6894B1110C94C91B08950E949D
:1036A000AE1B88F09F5798F0B92F9927B751B0F00B
:1036B000E1F0660F771F881F991F1AF0BA95C9F7B6
:1036C00014C0B13091F00E94C81BB1E008950C9471
:1036D000C81B672F782F8827B85F39F0B93FCCF324
:1036E000869577956795B395D9F73EF49095809533
:1036F000709561957F4F8F4F9F4F089597F99F6702
:1037000080E870E060E008959FEF80EC0895002469
:103710000A941616170618060906089500240A9436
:1037200012161306140605060895092E0394000CBC
:1037300011F4882352F0BB0F40F4BF2B11F460FF4B
:1037400004C06F5F7F4F8F4F9F4F089557FD905874
:10375000440F551F59F05F3F71F04795880F97FB55
:10376000991F61F09F3F79F087950895121613060F
:103770001406551FF2CF4695F1DF08C0161617063E
:103780001806991FF1CF8695710561050894089573
:10379000E894BB2766277727CB0197F908950E9405
:1037A000E21B0C94951B0E94871B38F00E948E1B15
:1037B00020F0952311F00C947E1B0C94841B112493
:1037C0000C94C91B0E94A61B70F3959FC1F3950F23
:1037D00050E0551F629FF001729FBB27F00DB11D95
:1037E000639FAA27F00DB11DAA1F649F6627B00D25
:1037F000A11D661F829F2227B00DA11D621F739F0E
:10380000B00DA11D621F839FA00D611D221F749F1B
:103810003327A00D611D231F849F600D211D822F62
:10382000762F6A2F11249F5750409AF0F1F0882389
:103830004AF0EE0FFF1FBB1F661F771F881F9150B6
:103840005040A9F79E3F510580F00C947E1B0C94CC
:10385000C91B5F3FE4F3983ED4F38695779567954F
:10386000B795F795E7959F5FC1F7FE2B880F911DE0
:103870009695879597F90895A1E21A2EAA1BBB1B6E
:10388000FD010DC0AA1FBB1FEE1FFF1FA217B3072C
:10389000E407F50720F0A21BB30BE40BF50B661F42
:1038A000771F881F991F1A9469F760957095809506
:1038B00090959B01AC01BD01CF010895052E97FBAA
:1038C0001EF400940E94751C57FD07D00E943C1CFA
:1038D00007FC03D04EF40C94751C50954095309520
:1038E00021953F4F4F4F5F4F08959095809570956C
:1038F00061957F4F8F4F9F4F0895EE0FFF1F0590EB
:10390000F491E02D09940E948E1CA59F900DB49F08
:10391000900DA49F800D911D11240895A29FB001C8
:10392000B39FC001A39F700D811D1124911DB29FF3
:10393000700D811D1124911D0895F999FECF92BD3E
:1039400081BDF89A992780B50895262FF999FECF61
:103950001FBA92BD81BD20BD0FB6F894FA9AF99AAC
:103960000FBE0196089512E0C5EBD2E004C0FE013F
:103970000E947D1C2196C63BD107C9F7F894FFCF62
:103980000F0402B8220000796B6F637470612E72AD
:1039900075000000000000000000000000000000B2
:1039A0000000000000000000000000000000000017
:1039B0000000000000000000000000000000000007
:1039C00000000000000000000000000000000000F7
:1039D00000000000000000000000000000000000E7
:1039E00000000000000000000000000000000000D7
:1039F00000000000000000000000000000000000C7
:103A00000000000000000000000000830320139667
:103A1000039603960398030A2320646F6E650000E3
:103A2000000000E3142013A31685169716C903009F
:103A30000000007417201334175217BF16D4160D48
:103A40000A006F76660000000000E3142013A3163E
:103A500085169716C9030000000074172013341749
:103A60005217BF16D41600000000B1172013AE176E
:063A7000AE17AE17B017FF
:00000001FF
