:100000000C94B9020C94E1020C94E1020C94E1020C
:100010000C94E1020C94E1020C94E1020C94A718F8
:100020000C94E1020C94E1020C9496150C94FA14D1
:100030000C9439160C94E1020C94E1020C94E10248
:100040000C94BE110C94E1020C9414040C943A0428
:100050000C94E1020C94E1020C94E1020C94E10294
:100060000C94E1020C94E10292069606A606C206E2
:10007000B406CE06DA06ED0603072B072B07711030
:1000800036101310131084101310131013101310C4
:10009000131044105C10131013105A111310131086
:1000A0001310131013103F10436F6E6E6563746569
:1000B000642100436F6E6E656374696E6720746FB0
:1000C0002055445020536572766572004445414383
:1000D00054006578697420636F6E736F6C650A00F5
:1000E0006E6577207325643D25730A006E65772061
:1000F0007225643D25730A00636F6E6E656374201C
:10010000646F6E650A00636F6E6E6563742073744E
:100110006172740A004D6F64656D20636F6E6E6569
:1001200063746564204F4B210047534D204D6F642D
:10013000656D20636F6E6E6563746564204F4B213F
:1001400000756E6B6E6F776E00656570726F6D20F7
:1001500077726974650A005B434F4E4649475D0AF2
:1001600000435243210A00636F6E736F6C65204F2A
:100170004B00633D25780A00636F6E736F6C6500FA
:1001800067736D2D6D6F64656D000A255320302EE9
:1001900030360A0041504E2053657400526567693D
:1001A0007374657265643A205374617274696E6722
:1001B00020436F6E66696775726174696F6E005374
:1001C000494D3830302052656164792026204C6FCB
:1001D0006164696E6700496E697469616C697A6906
:1001E0006E672E2E2E00454550524F4D2077726976
:1001F000746520646F6E652100434F4E4E45435435
:10020000005D00636F6E6E656374205B00222C00DE
:100210002B43495053544152543D22554450222CB3
:1002200022002B434C504F52543D22554450222C17
:10023000002B4349465352002E002B434949435259
:1002400000222C22222C2222002B435354543D22E4
:100250000022002B53415042523D332C312C22417D
:10026000504E222C220043474154543A002B43471E
:100270004154543F002B43474154543D31002B43DC
:100280004950434346473D382C31302C3330302CD5
:10029000302C302C3436302C3530002B4349504D27
:1002A0004F44453D31002B4349504D55583D30009A
:1002B0002B4347455245503D31002B43495552434E
:1002C0003D31002B4353434C4B3D30002B43534DAA
:1002D000494E533D31002B43534E533D34002B4385
:1002E00052433D31002B43523D31002B434D454598
:1002F0003D32002B435245473D32002B4349504489
:100300005044503D312C3130002B53415042523D2E
:10031000332C312C22434F4E54595045222C224726
:1003200050525322002B47534D425553593D3100F3
:100330002B435553443A002322002B435553443D4D
:10034000312C220023323C200020455252004552DD
:10035000524F52003D000A00233E2041540023200A
:1003600077616E743A204F4B206F7220000A233E53
:1003700020415400206F7220255300232077616EA6
:10038000743A202553003C20002B4346554E3D3106
:100390002C31002B4346554E3D31002B4343414CFD
:1003A000523F004343414C523A2031002B434C49C9
:1003B000503D31002B434950534855543D31002B9B
:1003C000435343423D3100453020563120583120BF
:1003D00053303D300000435245473A20302C003224
:1003E0007C8900EDD968770000005900000000000A
:1003F000000000D69FDCA81817AA90437327F6B90F
:1004000068EDF4DED409FEE61C1C84DDE80B9929B6
:1004100027D6DF8D210F036418EFEE1E99B78252A5
:1004200076941500347C000026149E988F000000FE
:100430006A31168F8C059600E7B73F360000000042
:10044000000000AF669ED0385D8A6C20B95422004F
:100450007CED044C80387486EDCBFA57CBDC19E286
:10046000001DDF5506E5CB01C300000000000000C1
:1004700000009AB20086DBD0BC5416131586004EDD
:1004800044BD7F6F151590010000B500000000000D
:10049000002F0000AEE5000000000000000000009A
:1004A0004700000000000000000000000000000005
:1004B000000000000000000000000000000000003C
:1004C000000000000000000000000000000000002C
:1004D0005A00000000000008CC31AA2C532E006303
:1004E000726173683A003E0A003D0053003D0052BD
:1004F000005B434F4E4649475D0A001C383D43416F
:100500003A004154004F4B004350494E3A20524567
:10051000414459002B435245473F002B4350494E1D
:100520003F000701404701400102040810204080BD
:10053000010204081020010204081020040404042D
:10054000040404040202020202020303030303037D
:100550000000000023002600290000000000250004
:1005600028002B0000000000240027002A00690E4C
:10057000860E11241FBECFEFD8E0DEBFCDBF11E045
:10058000A0E0B1E0E4EAF9E302C005900D92A63FD5
:10059000B107D9F726E0A6EFB1E001C01D92AE3752
:1005A000B207E1F712E0C8EBD2E004C02197FE01E8
:1005B0000E948F1CC73BD107C9F70E9443140C94BB
:1005C000EB1A0C940000CF92DF92EF92FF920F9300
:1005D0001F93E82FF92F05C0015011092109310996
:1005E00061F1908196239417B9F305C00150110968
:1005F0002109310911F1908196239413F7CFC12C71
:10060000D12CE12CF12C0AC08FEFC81AD80AE80AC5
:10061000F80A0C151D052E053F0579F0808186230B
:10062000841791F36C2D7D2D8E2D9F2D1F910F9191
:10063000FF90EF90DF90CF90089560E070E080E051
:1006400090E01F910F91FF90EF90DF90CF90089571
:10065000FA01AA27283051F1203181F1E8946F93F3
:100660006E7F6E5F7F4F8F4F9F4FAF4FB1E03ED099
:10067000B4E03CD0670F781F891F9A1FA11D680F37
:10068000791F8A1F911DA11D6A0F711D811D911D6A
:10069000A11D20D009F468943F912AE0269F1124DF
:1006A0003019305D3193DEF6CF010895462F477043
:1006B000405D4193B3E00FD0C9F7F6CF462F4F709E
:1006C000405D4A3318F0495D31FD4052419302D0FC
:1006D000A9F7EACFB4E0A6959795879577956795A2
:1006E000BA95C9F700976105710508959B01AC01A2
:1006F0000A2E06945795479537952795BA95C9F7C9
:10070000620F731F841F951FA01D0895E091F601CD
:10071000F091F701CF0101969093F7018093F601D4
:100720006083E091F601F091F701108281E090E0A2
:10073000089580E008950895FC01138212822BE849
:1007400031E0318320830895FB012081822790E1ED
:10075000899F900111242827822F90E0582F442749
:100760009C0163E0220F331F6A95E1F7422753276C
:10077000218130E02427352774E0959587957A9577
:10078000E1F7822793279183808308959C01862F28
:10079000B9010E94A40308950E9491150895EF9253
:1007A000FF920F931F93CF93DF931F92CDB7DEB7C6
:1007B0007C018B01081B190B442361F0C8018E0DCD
:1007C0009F1D49830E94AF1CF70181937F014981DE
:1007D0004150F2CF0F90DF91CF911F910F91FF9079
:1007E000EF900895EF92FF920F931F93CF93DF93B3
:1007F0001F92CDB7DEB77B018C01442369F0F8016D
:1008000061918F01C70149830E94B71C4981415002
:10081000FFEFEF1AFF0AF1CF0F90DF91CF911F91F9
:100820000F91FF90EF9008951F920F920FB60F92C5
:1008300011242F938F939F93EF93FF939091C60072
:10084000809174068F5F8F7720917506821741F033
:10085000E0917406F0E0EE50FA4F908380937406B6
:10086000FF91EF919F918F912F910F900FBE0F905D
:100870001F9018951F920F920FB60F9211248F930D
:100880009F93EF93FF939091730680917206981750
:1008900079F0E0917306F0E0EE51FA4F8081809399
:1008A000C600809173068F5F8F708093730605C0BA
:1008B0008091C1008F7D8093C100FF91EF919F9146
:1008C0008F910F900FBE0F901F901895CF9361E0FE
:1008D0008CE00E94DF120E944917C82F80916904A2
:1008E000882319F08C2F0E94A01460E08CE00E94F5
:1008F000DF128C2FCF9108950F931F93CF93DF9327
:10090000EC018B010E940812DC01CB01800F911FCA
:10091000A11DB11D88839983AA83BB83DF91CF91E9
:100920001F910F910895FC011382128223EA31E096
:1009300031832083089561E081E10E94DF1261E04C
:1009400081E10E94A31261E089E00E94DF1261E070
:1009500089E00E94A31261E083E00E94DF1261E05F
:1009600083E00E94A31260E088E00E94A312089531
:10097000CF92DF92EF92FF92CF93DF936A017B01D8
:10098000E901BC0185E694E00E948A172AE030E084
:10099000B701A60185E694E00E94DD13BE0185E65D
:1009A00094E00E948A17DF91CF91FF90EF90DF9043
:1009B000CF90089561E070E080E090E00E943912ED
:1009C00008956AE070E080E090E00E943912089596
:1009D00062E370E080E090E00E94391208950E9486
:1009E000E8040E94E80408950E94EF040E94EF04C6
:1009F0000E94EF04089560E083E00E94DF120E94ED
:100A0000F40461E083E00E94DF120E94EF04089585
:100A100068EE73E080E090E00E943912089560E093
:100A200081E10E94DF120E94080561E081E10E94DD
:100A3000DF120E94080508950F931F93CF93DF9351
:100A400000D000D0CDB7DEB742E062E070E0CE016A
:100A500001960E94CF0389819A810B97A1F58FEFB0
:100A60009FEF909377048093760484E890E09A83D4
:100A70008983CE0103969C838B8304E010E08981F7
:100A80009A81892B79F0C8010E94AF1C66E774E057
:100A90000E94A40389819A8101979A8389830F5FB9
:100AA0001F4FEDCF42E060E070E0CE0101960E9462
:100AB000CF0381E049815A812091760430917704F7
:100AC0004217530709F080E00F900F900F900F909E
:100AD000DF91CF911F910F91089544E864E070E099
:100AE00083E091E00E94CF030895EF92FF921F935D
:100AF000CF93DF938FEF9FEF9093770480937604EB
:100B000083E0E82E81E0F82EC4E0D0E0F7011191F7
:100B10007F01612FCE010E94B71C66E774E0812F30
:100B20000E94A4032196C838D10581F742E060E015
:100B300070E086E794E00E94F2038BE090E09093EF
:100B400077048093760442E062E070E086E794E008
:100B50000E94F20366EE71E08EE694E00E948A172E
:100B60008EE694E00E947D13DF91CF911F91FF905C
:100B7000EF90089561EF74E085E694E00E948A1793
:100B80002DEE34E040E050E0BA018FEE94E00E9498
:100B9000B8044091030150910401609105017091E6
:100BA00006012AE030E085E694E00E94301429EE48
:100BB00034E041E050E060E070E08BEE94E00E94B1
:100BC000B804E2E2F5E06591749185E694E00E9454
:100BD000821329EE34E042E050E060E070E08BEEFA
:100BE00094E00E94B804E5E2F5E06591749185E631
:100BF00094E00E94821366EE74E085E694E00E9421
:100C00008A1708958A3011F08D3029F40E944E0B16
:100C100084E092E018C0E0910101F091020192E0BD
:100C2000E338F907A8F00E944E0BA0910101B091A2
:100C300002011A978AE0E4E0F2E001900D928A95B1
:100C4000E1F78EE092E09093020180930101089514
:100C50009F012F5F3F4F309302012093010180835A
:100C60000895CF930E94AC16882381F061E08BE059
:100C70000E94DF120E948516C82F0E9467178C2FD2
:100C80000E94020660E08BE00E94DF12CF9108957F
:100C90008091690481110E9431060E9439170895DC
:100CA0002F923F924F925F926F927F928F929F927C
:100CB000AF92BF92CF92DF92EF92FF920F931F936A
:100CC000CF93DF931F92CDB7DEB710922A05612C28
:100CD0007724739487E0282E312C96E0492E512CEE
:100CE00005E010E024E0C22ED12C32E0A32EB12C7E
:100CF00088248A94982C0E944806882309F461C2AB
:100D00000E946604282F1092F8018091FB019091B7
:100D1000FC018B30910508F0B8C0FC01EC5CFF4F82
:100D20000C948F1C10920302109202022E3F19F0B5
:100D300081E090E022C0B092FC01A092FB011092F1
:100D4000580390925603809255039FC020935803F6
:100D50001092FD01622F85E593E00E94C603D092B8
:100D6000FC01C092FB0191C020935903622F85E5DD
:100D700093E00E94C60383E090E09093FC0180938F
:100D8000FB0183C020935A03622F85E593E00E9404
:100D9000C6031093FC010093FB0177C020935B0313
:100DA000622F85E593E00E94C6035092FC014092B9
:100DB000FB016BC020935C03622F85E593E00E94EA
:100DC000C60380915803811103C088E090E0D5CF1D
:100DD0003092FC012092FB0158C0E091FD0181E0BE
:100DE0008E0F8093FD01F0E0E35AFC4F2083622FC9
:100DF00085E593E00E94C6039091FD018091580320
:100E0000981343C0E2CFE0915C03F0E0E152FC4F65
:100E1000649185E593E029830E94C6032981422FCE
:100E200050E0809155039091560399274817590730
:100E300031F02E3F09F47FCF8AE090E09ECF89E029
:100E400090E09093FC018093FB01E091FD01F0E0C4
:100E5000E35AFC4F19C0422F50E0E0905603F12CAA
:100E60004E155F0509F062CF0A9709F45FCF7092C3
:100E7000F80181E090E09093FC018093FB01E09108
:100E8000FD01F0E0E25AFC4F20832091F80122237B
:100E900099F0809159038093FE0180910002909116
:100EA0000102009721F410920302109202020196AF
:100EB00090930102809300021092FA01222309F418
:100EC00077C160E070E08DE994E00E947C0470924C
:100ED0002A0570922D0580915C03882309F45EC079
:100EE00090919C04992321F020915A03921369C197
:100EF0008E3309F427C190F4883109F464C08E312F
:100F000009F48EC0813009F053C180916B03909138
:100F10006C0390937D0480937C044AC1893609F464
:100F2000AAC08D3F09F429C18A3409F041C18091DA
:100F30006F038093990420E030E048EC52E4609124
:100F400065037091660380916703909168030E9426
:100F5000E11B0E945A1B6093950470939604809342
:100F600097049093980420E030E048EC52E46091BC
:100F7000690370916A0380916B0390916C030E94E6
:100F8000E11B0E945A1B609391047093920480931A
:100F90009304909394040E94650E0AC180916103AA
:100FA000863009F405C180915A0380939C04809196
:100FB0005D0380938C0480916303881F8827881FBA
:100FC00080933105F5C08091650390916603A091EF
:100FD0006703B09168038093220590932305A09343
:100FE0002405B09325058091690390916A03A0912F
:100FF0006B03B0916C038093260590932705A09313
:101000002805B09329058091790380939A048091F3
:101010007A0380939B047092320566246394C8C05F
:1010200021EE3EE245E652E460916503709166036D
:1010300080916703909168030E94E11B0E945A1BF4
:101040007093900460938F0421EE3EE245E652E4F3
:1010500060916103709162038091630390916403D6
:101060000E94E11B0E945A1B70938E0460938D04B2
:101070000E94660E9DC08091840490918504A09189
:101080008604B09187048093780490937904A093A8
:101090007A04B0937B0420E030E048EC52E46091A5
:1010A00091037091920380919303909194030E9415
:1010B000E11B0E945A1B6093840470938504809303
:1010C00086049093870420E030E04AE754E460917E
:1010D00065037091660380916703909168030E9495
:1010E000E11B0E945A1B709383046093820420E0EA
:1010F00030E04AE754E46091690370916A0380919B
:101100006B0390916C030E94E11B0E945A1B709329
:1011100081046093800420E030E04AE754E4609169
:101120006D0370916E0380916F03909170030E9424
:10113000E11B0E945A1B70937F0460937E040E94FF
:10114000670E36C020E030E048EC52E46091650361
:101150007091660380916703909168030E94E11B80
:101160000E945A1B609388047093890480938A04B8
:1011700090938B040E94680E1BC080915D038430A5
:10118000B8F482E3EEE5F3E0A1EAB4E001900D9259
:101190008A95E1F71092D30446E050E06FED74E0D9
:1011A00081EA94E00E94EE1A892B11F470923305C3
:1011B0000E94391781119FCD8AEA90E00E94751232
:1011C0009ACD862D0F90DF91CF911F910F91FF90B7
:1011D000EF90DF90CF90BF90AF909F908F907F90D7
:1011E0006F905F904F903F902F900895CF92DF9235
:1011F000EF92FF92CF93DF9380912D05882339F0F2
:101200000E94500690912D0590932E0571C08091FB
:101210002E058111F5CF0E94361761E08BE00E9408
:10122000DF1261E08CE00E94DF120E9408126B0165
:101230007C0124E6C20ED11CE11CF11CDAEFCFEFD9
:1012400024EC39E040E050E060E080E00E940013D0
:101250006F3F71058105910509F064F4662351F033
:101260006C1708F4C62F0E940812C616D706E806A7
:10127000F90610F0D15021F7CF3F19F4C0910001C9
:1012800002C0C0930001CB3060F0C33160F0CD31BB
:1012900060F0C83260F0CC3360F0C63960F081E0B5
:1012A0000BC088E109C08CE007C088E005C086E07B
:1012B00003C084E001C082E020EC32E1829FB001F3
:1012C000839F700D1124072E000C880B990B0E9430
:1012D000F71660E08CE00E94DF1260E08BE00E9475
:1012E000DF1281E080932E0580913405811188CF33
:1012F000DF91CF91FF90EF90DF90CF900895EF9224
:10130000FF920F931F93CF938C017B01C0E00E944B
:101310004806811109C0E114F10419F0F70109959B
:10132000F6CF0E94DA04F3CF0E9466048D3051F4A8
:10133000F801EC0FF11D1082CF911F910F91FF90DA
:10134000EF900895CC2319F08A3019F4F1CF8A3048
:10135000F1F2F801EC0FF11D8083C7FDD8CFCF5F0C
:10136000D6CF60E070E00E947F090895CF930E947D
:10137000AC168823C9F066E873E08EE694E00E941C
:101380008A170E94AC16882361F00E948516C82F28
:10139000682F8EE694E00E9475138C2F0E9402063F
:1013A000F0CF0E94E104E3CFCF910895AF92BF92B6
:1013B000CF92DF92EF92FF920F931F93CF93DF9321
:1013C0006C017B01EA0159010E94B609FF92EF927C
:1013D0008BE793E09F938F930EE614E01F930F9398
:1013E0000E94AF170F900F900F900F900F900F90DB
:1013F000209781F0DF93CF9384E793E09F938F93BF
:101400001F930F930E94AF170F900F900F900F90A4
:101410000F900F906DE673E08EE694E00E948A17BD
:10142000B6018EE694E00E94A41762E075E08AE6B9
:1014300094E00E948A17B6018AE694E00E94A417FD
:10144000A501BE01C7010E94730A91E0813009F035
:1014500090E0892FDF91CF911F910F91FF90EF9036
:10146000DF90CF90BF90AF900895CF93CDE3C15060
:10147000D1F028EE33E046ED53E065E075E084E11D
:1014800095E00E94D609882371F0E0918502F091E1
:1014900086028085833339F0853339F0813329F032
:1014A0000E940805E4CF80E001C081E0CF9108955B
:1014B00028EE33E040E050E065E075E00E94D60998
:1014C000089580918B02882369F00E94FB040E949A
:1014D0000F0510928B0289E893E00E94580AEE27CC
:1014E000FF27099408954F925F926F927F92AF9277
:1014F000BF92CF92DF92EF92FF920F931F93CF9301
:10150000DF935C017B01EA010E94081244E64C9FD4
:1015100090014D9F300D11242B013C01420E531EB2
:10152000611C711C1092860210928502D1E0E114B8
:10153000F10409F0D0E061E08BE00E94DF120E942C
:10154000EF0460E08BE00E94DF1266E573E08EE658
:1015500094E00E948A17C0E00DE812E084E4C82EEF
:1015600083E0D82E0E94E1040E94AC16882309F47F
:1015700071C061E08CE00E94DF120F5F1F4F0E947C
:101580008516F80131978083F8011082682F8EE666
:1015900094E00E9475130E94AC168111EECF60E0BA
:1015A0008CE00E94DF12C11134C0B5018DE892E0D9
:1015B0000E94111B9093880280938702892B41F02F
:1015C00064E573E08EE694E00E948A17C1E013C0E0
:1015D0006EE473E08DE892E00E94111B9093880204
:1015E00080938702892B39F069E473E08EE694E0FA
:1015F0000E948A17C3E06CEC70E08DE892E00E94D4
:10160000111B9093880280938702892B11F00E940E
:10161000610AE114F10411F1B7018DE892E00E9432
:10162000111B9093860280938502D1E0009709F404
:10163000D0E09F938F93DF92CF928EE694E09F93BA
:101640008F930E94AF170F900F900F900F900F90F5
:101650000F9004C0CC2311F0D11108C00E940812D1
:10166000641575058605970508F47CCF67E971E078
:101670008EE694E00E948213C0938C028C2FDF913F
:10168000CF911F910F91FF90EF90DF90CF90BF907F
:10169000AF907F906F905F904F90089545E050E03D
:1016A0006CEC70E084E092E00E94EE1A892B11F459
:1016B0000E94610A08959B0140E050E065E075E0FA
:1016C0000E94D6090895CF93C7E362E070E085EDEC
:1016D00093E00E945B0B811103C0C150B1F701C0C0
:1016E00081E0CF910895CF93DF939B01AC0180916E
:1016F0008A0281116FC080916400877F80936400AB
:10170000DA01C901B695A79597958795BC01CD01DA
:101710007C5D8B409F4F0E944E1CCA01B9010E9404
:101720004C140E940F05CBE00E94630B8823A9F1A3
:1017300087EC93E00E94580A83E993E00E94580ADC
:101740008FEB93E00E94580A62E070E084EB93E034
:101750000E945B0B28EE33E040E050E068E075E06B
:101760008BE195E00E94D609D82F8CEA93E00E9485
:10177000580ADD23B1F00E94350A882391F028EE43
:1017800033E040E050E063EA73E08BE993E00E94CD
:10179000D609982F882329F01FC00E94FB040E94BD
:1017A0000F0589E893E00E94580AD7E00E940805D7
:1017B000D150E1F7C15009F0B7CF0E94BD1680911A
:1017C000640088608093640090E081E0911108C01B
:1017D00080E006C081E004C081E080938A02F5CFFA
:1017E000DF91CF91089560E071EE80E090E00E947B
:1017F000730B089585E293E00E94580A89E093E014
:101800000E94580A8BEF92E00E94580A83EF92E000
:101810000E94580A882309F44DC08BEE92E00E9482
:10182000580A882309F446C085EE92E00E94580ABF
:10183000882309F43FC08EED92E00E94580A882365
:10184000C9F186ED92E00E94580A882399F18CEC48
:1018500092E00E94580A882369F183EC92E00E948A
:10186000580A882339F18AEB92E00E94580A8823AB
:1018700009F180EB92E00E94580A8823D9F086EAA9
:1018800092E00E94580A8823A9F08BE992E00E9416
:10189000580A882379F08EE792E00E94580A88233C
:1018A00049F06EEE72E085E792E00E945B0B91E0FA
:1018B000811101C090E0892F0895EF92FF920F935C
:1018C0001F93CF93DF9300D0CDB7DEB78C017B01A0
:1018D00049835A830E94B6096EE573E08EE694E070
:1018E0000E948A17B7018EE694E00E94A41768E56B
:1018F00073E08EE694E00E948A17B8018EE694E0C9
:101900000E94A41762E075E08AE694E00E948A17BC
:10191000B8018AE694E00E94821349815A81B70196
:1019200085E095E00E94730A91E0813009F090E033
:10193000892F0F900F90DF91CF911F910F91FF9002
:10194000EF900895EF92FF920F931F93CF93DF9341
:10195000CDB7DEB7C055D1090FB6F894DEBF0FBEC4
:10196000CDBF7C0128E532E046E652E065E075E057
:101970008DE692E00E94D6098823A9F02091850285
:1019800030918602295F3F4FC9012F5F3F4FFC0115
:1019900040814032C9F30E94C41A81E0611101C044
:1019A00080E0809389028E010F5F1F4F1093F70133
:1019B0000093F60163E572E085E395E00E948A17E3
:1019C000B70185E395E00E94721361E572E085E35B
:1019D00095E00E948A1748EE53E060E070E0C8018D
:1019E0000E945D0C8823F9F01093F7010093F60133
:1019F00069E472E085E395E00E948A17B70185E308
:101A000095E00E94721361E472E085E395E00E9424
:101A10008A1748EE53E060E070E0C8010E945D0C58
:101A200091E0813009F090E0892FC05BDF4F0FB665
:101A3000F894DEBF0FBECDBFDF91CF911F910F9104
:101A4000FF90EF900895CF93DF9366ED71E08EE6FF
:101A500094E00E94A4170E94F30B81111BC0CFE0F9
:101A6000D0E060E08BE00E94DF120E94F40461E0AD
:101A70008BE00E94DF1260E08CE00E94DF120E9487
:101A8000F40461E08CE00E94DF12219751F7EE2709
:101A9000FF2709946FEB71E08EE694E00E94A41793
:101AA00081E0809384026CE971E08EE694E00E940C
:101AB000A4170E94FA0B882371F287E491E00E9438
:101AC000A20C882341F264E971E08EE694E00E9462
:101AD000A417DF91CF910895EF92FF920F931F9378
:101AE000CF93DF93CDB7DEB7C054D1090FB6F894CA
:101AF000DEBF0FBECDBF7C016EE170E08AE392E0F5
:101B00000E945B0B882389F128EE33E045E055E025
:101B100068E372E081E392E00E94D609882329F10C
:101B20000E94B6098E010F5F1F4F1093F7010093BB
:101B3000F60162E272E085E395E00E948A174AE0CE
:101B400050E0B70185E395E00E94EC13B8018EE602
:101B500094E00E94721348EE53E060E070E0C80128
:101B60000E945D0C91E0813009F090E0892FC05C0B
:101B7000DF4F0FB6F894DEBF0FBECDBFDF91CF9120
:101B80001F910F91FF90EF900895CF92DF92EF9207
:101B9000FF920F931F93CF93DF93CDB7DEB7C0545F
:101BA000D1090FB6F894DEBF0FBECDBF6C017B012B
:101BB0000E94B6098E010F5F1F4F1093F70100932B
:101BC000F60160E172E085E395E00E948A17B601B4
:101BD00085E395E00E9472136DE072E085E395E085
:101BE0000E948A174AE050E0B70185E395E00E9421
:101BF000EC1363E072E08EE694E00E948A17B8016D
:101C00008EE694E00E94721361E072E08EE694E04A
:101C10000E94A41740E456E069EF71E0C8010E94F9
:101C20005D0C813019F480938B0201C080E0C05CB0
:101C3000DF4F0FB6F894DEBF0FBECDBFDF91CF915F
:101C40001F910F91FF90EF90DF90CF9008950E9429
:101C5000F60880912D058823B9F1809169048111DE
:101C600033C061E08BE00E94DF1261E08CE00E94F3
:101C7000DF1280910301909104010E946C0D63EBCF
:101C800070E08EE694E00E94A417609103017091C9
:101C9000040187E091E00E94C50D81E08093690412
:101CA00068EA70E08EE694E00E94A41761E08CE0A0
:101CB0000E94DF1260E08BE00E94DF120E940805A4
:101CC00060E08CE00E94DF12089508950895089561
:101CD000089585E395E00E949C0382E794E00E94CA
:101CE000EF164DE060E08EE694E00E9435188AE63B
:101CF00094E00E94930485E694E00E94EF1683EB43
:101D000091E0909366048093650408958AEC91E0D5
:101D100090936B0480936A040E94BD1608958F927D
:101D20009F92BF92CF92DF92EF92FF920F931F93F9
:101D3000CF93DF93CDB7DEB7A1970FB6F894DEBF90
:101D40000FBECDBF6C010E94B609B12C8E010F5F92
:101D50001F4F7801F092F701E092F6016AE373E019
:101D600085E395E00E948A17BB2011F06AE201C06A
:101D700063E285E395E00E9486034AE050E0B60105
:101D800085E395E00E94EC1367E373E085E395E05B
:101D90000E948A1748EC50E060E373E0C7010E949C
:101DA0005D0C813039F0B11003C0BB24B394D2CFA5
:101DB00080E060C089A30E94F404A0918502B091E4
:101DC00086024D0116E0810E911C50E0E1EAF4E03C
:101DD00020E030E060E040E07DE289A1D4019D9107
:101DE0004D01992309F445C0923221F4611142C09A
:101DF00061E0F4CF662391F3BB20B9F1790124E0CF
:101E0000EE0CFF1C2A95E1F791360CF0905230ED64
:101E1000390F3A3014F039EC390F6701C30ED11C79
:101E200037FDDA9496014F5F4430C1F69C2DE52EC4
:101E3000F12C870105501B4FD8014C91C41202C0F0
:101E40005F5F07C0563021F470831182319601C064
:101E500050E02F3F310529F020F020E030E040E055
:101E6000BDCF908311823196F8CF90831182319645
:101E7000B5CF862FA1960FB6F894DEBF0FBECDBFAB
:101E8000DF91CF911F910F91FF90EF90DF90CF9056
:101E9000BF909F908F9008952F923F924F925F92A4
:101EA0006F927F928F929F92AF92BF92CF92DF926A
:101EB000EF92FF920F931F93CF93DF93CDB7DEB7CF
:101EC000C558D1090FB6F894DEBF0FBECDBF84E868
:101ED000E3E0F1E0DE01119601900D928A95E1F7C1
:101EE00061E08CE00E94DF1261E08BE00E94DF1273
:101EF00068EE73E080E090E00E94391280E891E0A3
:101F00009F938F938AE891E09F938F9385E694E067
:101F10009F938F930E94AF1768E771E08EE694E07D
:101F20000E948A178EE694E00E947D130F900F9016
:101F30000F900F900F900F9005E1F2E7EF2EF1E078
:101F4000FF2EAEE6CA2EA4E0DA2E0E9408124B0144
:101F50005C0128EB820E2BE0921EA11CB11C10E04C
:101F60000E940812681579058A059B0548F50E94AC
:101F700048068823A9F30E9466041F928F93FF925C
:101F8000EF92DF92CF92CB57DF4F8883C558D04076
:101F90000E94AF170F900F900F900F900F900F901F
:101FA000CB57DF4F8881C558D040193048F4E12F16
:101FB000F0E0E058FE4FE4918E13D1CF1F5FD0CFF9
:101FC000193009F053C167E671E08EE694E00E9493
:101FD000A4170E941C0581110CC061E671E08EE619
:101FE00094E00E948A178EE694E00E947D130E947E
:101FF00075050E946D054CEE642E40E0742E0EE6D1
:1020000014E050EEE52E50E0F52E66E0C62E61E0BD
:10201000D62E78EFA72E70E0B72E33243394E9E460
:102020008E2EE1E09E2E67E571E085E694E00E9449
:102030008A170E94BA0581EA94E00E94B1092091B2
:10204000A104222309F49FC08091A20481119BC0A6
:102050001092A104822F90E0FC01E356F109E531D2
:10206000F10508F7E15CFF4F0C948F1C84E8FE013A
:102070003196A3E0B1E001900D928A95E1F70E94BC
:1020800075059F928F9265C080918402811102C074
:102090000E94230D84E690E00E948F0E8091A1049F
:1020A000882339F061EA74E085E694E00E948213A7
:1020B000BACF61E471E010C080918402811102C046
:1020C0000E94230D85E690E00E948F0E8091A1046E
:1020D0008111E8CF61E471E085E694E00E94A417E5
:1020E000A2CF80918402811102C00E94230D309200
:1020F0002D050E94270E69E271E08AE694E00E94B5
:10210000A41765E171E0E8CF80918402811102C0DB
:102110000E94230DDF92CF921F930F930E94AF175F
:102120000F900F900F900F9061E376E081EA94E0BA
:102130000E947F098091A1048E3229F031EA432E5A
:1021400034E0532E0FC08091A2048111F7CFBF92CB
:10215000AF921F930F930E94AF170F900F900F90A5
:102160000F9061CFF20161912F018AE694E066231E
:1021700019F00E94F514F6CF0E947D138091A104FE
:102180008111D2CFE4CF82EA94E0CB57DF4F28838E
:10219000C558D0400E94C41A262EE1EAF4E0CB577D
:1021A000DF4F2881C558D0402F018191882319F035
:1021B0002F018D33C9F7223529F0233549F12C340D
:1021C00009F031CFF1E0F21508F42DCFF201808152
:1021D000882309F428CFC2010E94C41A24E0229E59
:1021E000F0011124ED5FFE4F60837183828393833E
:1021F0005F924F921F922F927F926F921F930F9335
:102200000E94AF170FB6F894DEBF0FBECDBF0BCF45
:1022100092E0921508F407CF5F924F921F922F928F
:10222000FF92EF921F930F930E94AF178FEF820DD3
:102230000FB6F894DEBF0FBECDBF823008F0F3CEEC
:1022400090E0FC01EE0FFF1F8E0F9F1FFC01EC5D65
:10225000FA4F4491FC01EE5DFA4F8591949150E064
:1022600041505109B2010E942B1BDDCE0E941C057A
:10227000882319F00E946D051DC0015019F40E94B9
:10228000750518C013E060E08BE00E94DF120E9429
:10229000F40461E08BE00E94DF1260E08CE00E94B9
:1022A000DF120E94F40461E08CE00E94DF12115002
:1022B00051F74BCE82ED90E09F938F938EE694E0A2
:1022C0009F938F930E94AF1760E08CE00E94DF1213
:1022D00060E08BE00E94DF120F900F900F900F9044
:1022E000CB57DF4F0FB6F894DEBF0FBECDBFDF91E7
:1022F000CF911F910F91FF90EF90DF90CF90BF9003
:10230000AF909F908F907F906F905F904F903F9095
:102310002F90089561E08CE00E94A31261E08BE0B1
:102320000E94A31260E08CE00E94DF1261E08BE06B
:102330000E94DF1261E083E00E94DF1261E083E02F
:102340000E94A3120E949B0460E071EE80E090E086
:102350000E94401860E071EE80E090E00E94F71665
:1023600078940E944C0F80918402811102C00E94D7
:10237000230D60E08BE00E94DF1208951F920F9200
:102380000FB60F9211242F933F938F939F93AF9388
:10239000BF9380913A0590913B05A0913C05B09187
:1023A0003D053091390523E0230F2D3720F40196A8
:1023B000A11DB11D05C026E8230F0296A11DB11D68
:1023C0002093390580933A0590933B05A0933C05F3
:1023D000B0933D0580913E0590913F05A091400549
:1023E000B09141050196A11DB11D80933E059093CA
:1023F0003F05A0934005B0934105BF91AF919F91D8
:102400008F913F912F910F900FBE0F901F901895B5
:102410002FB7F89460913A0570913B0580913C0587
:1024200090913D052FBF08953FB7F89480913E05E8
:1024300090913F05A0914005B091410526B5A89B1C
:1024400005C02F3F19F00196A11DB11D3FBFBA2F46
:10245000A92F982F8827820F911DA11DB11DBC01A6
:10246000CD0142E0660F771F881F991F4A95D1F76B
:1024700008958F929F92AF92BF92CF92DF92EF9288
:10248000FF926B017C010E9414124B015C01C1148C
:10249000D104E104F10401F10E94FF120E94141220
:1024A000DC01CB0188199909AA09BB09883E934030
:1024B000A105B10560F321E0C21AD108E108F108D5
:1024C00088EE880E83E0981EA11CB11CC114D104B3
:1024D000E104F10419F7DBCFFF90EF90DF90CF908C
:1024E000BF90AF909F908F9008958230910538F003
:1024F000880F991F880F991F05970197F1F7089585
:10250000789484B5826084BD84B5816084BD85B5CE
:10251000826085BD85B5816085BDEEE6F0E0808195
:1025200081608083EAE7F0E080818460808380813D
:1025300082608083808181608083808180688083E5
:102540001092C1000895CF93DF9390E0FC01E85D05
:10255000FA4F2491FC01E45CFA4F8491882361F1E5
:1025600090E0880F991FFC01EC59FA4FC591D49166
:10257000FC01E65AFA4FA591B491611109C09FB7C9
:10258000F8948881209582238883EC912E230BC0B8
:10259000623061F49FB7F8948881322F309583239D
:1025A0008883EC912E2B2C939FBF06C08FB7F89495
:1025B000E8812E2B28838FBFDF91CF91089590E083
:1025C000FC01E85DFA4F2491FC01E45CFA4FE491D0
:1025D000EE23A1F0F0E0EE0FFF1FE65AFA4FA591AF
:1025E000B4919FB7F894611105C08C91E22FE095EA
:1025F000E82302C0EC91E22BEC939FBF089508956D
:102600000F931F9390E0FC01E85DFA4F7491FC0179
:10261000E45CFA4FE491662311F0672F01C060E09B
:10262000F0E0EE0FFF1FE05BFA4F85919491890176
:102630009A013F70462F672F0E94E30261157105D2
:102640008105910549F0DC01CB010196A11DB11D69
:10265000BC01CD019F7003C060E070E0CB011F9111
:102660000F910895CF92DF92EF92FF920F931F93F5
:10267000CF93DF936C017A018B01C0E0D0E0CE15DF
:10268000DF0581F0D8016D918D01D601ED91FC91AE
:102690000190F081E02DC6010995892B11F021965A
:1026A000EECF7E01C701DF91CF911F910F91FF9077
:1026B000EF90DF90CF9008956115710581F0FB01D7
:1026C00001900020E9F73197AF01461B570BDC0161
:1026D000ED91FC910280F381E02D0995089580E051
:1026E00090E008950E945C130895DC01ED91FC9147
:1026F0000190F081E02D099508956FEB71E00E9443
:102700005C1308950F931F93CF93DF93EC010E9406
:102710005C138C01CE010E947D13800F911FDF910D
:10272000CF911F910F9108958F929F92AF92BF9278
:10273000EF92FF920F931F93CF93DF93CDB7DEB746
:10274000A1970FB6F894DEBF0FBECDBF7C01FA0192
:10275000CB0119A2223008F42AE08E010F5D1F4F31
:10276000822E912CA12CB12CBF01A50194010E94B5
:102770004E1CF901CA01015011096A3014F4605D60
:1027800001C0695CD8016C93232B242B252B61F7A6
:10279000B801C7010E945C13A1960FB6F894DEBF82
:1027A0000FBECDBFDF91CF911F910F91FF90EF90A2
:1027B000BF90AF909F908F9008952115310549F4F7
:1027C000DC01ED91FC910190F081E02D642F0995E1
:1027D00008950E94941308959A01AB0160E070E09F
:1027E0000E94DD130895CF92DF92EF92FF920F9334
:1027F0001F93CF93DF938C016A017B012115310573
:1028000049F4DC01ED91FC910190F081E02D642F01
:1028100009951DC02A303105A9F477FF12C06DE279
:102820000E947513EC0144275527BA014C195D0924
:102830006E097F092AE0C8010E9494138C0F9D1F26
:1028400006C02AE0B701A601C8010E949413DF91D7
:10285000CF911F910F91FF90EF90DF90CF9008954F
:102860000F931F93CF93DF93EC010E94F3138C011E
:10287000CE010E947D13800F911FDF91CF911F9198
:102880000F91089508950E9480120E9442140E94A0
:102890008A110E94270EFDCF9B01AC012D3A8BE1DE
:1028A00038074105510530F410926F0010928000F6
:1028B00081E812C063E056954795379527956A954C
:1028C000D1F72D3A8BE1380741055105C0F510923B
:1028D0006F001092800082E8809381003093E105C0
:1028E0002093E005A5E2B0E00E94951CDC01CB013D
:1028F00022E0B695A795979587952A95D1F790935D
:10290000DA058093D90562E088E00E94A31261E0B5
:1029100089E00E94DF1261E089E00E94A312109218
:10292000DF051092D8051092D70510925605109227
:1029300053051092520580E286BB80936F00089584
:10294000CF92DF92EF92FF92CF93DF93D82FC09177
:102950005305CF5FCF700E9408126B017C0124E108
:10296000C20ED11CE11CF11C80915205C81309C094
:102970000E940812C616D706E806F906A8F780E0F6
:102980002DC02FB7F89480915605882341F0EC2F85
:10299000F0E0EE5BFA4FD083C09353051DC081E099
:1029A00080935605D09355051092540582E086BB5E
:1029B00080916F00826080936F00809180008F7B98
:1029C000806880938000809184009091850040967B
:1029D00090938900809388002FBF81E0DF91CF9191
:1029E000FF90EF90DF90CF900895862F0E94A01463
:1029F00090E008951F920F920FB60F9211242F931B
:102A00003F934F935F936F937F938F939F93EF9336
:102A1000FF93809156056091550520918800309173
:102A200089004091E0055091E105909154058A306C
:102A3000F8F4240F351F893019F0762F717001C01A
:102A400071E066958F5F791791F3909180007723FD
:102A500011F0906C02C09F7B90689093800030933F
:102A6000890020938800709354056093550548C0F1
:102A7000E091520590915305E91319C08A3051F441
:102A80008BE080935605240F351F309389002093E7
:102A9000880038C010925605809180008F73809313
:102AA000800080916F008D7F80936F002BC0EF5F5F
:102AB000EF70E0935205F0E0EE5BFA4F9081909357
:102AC000550510925405909180009F7B90689093DB
:102AD00080008A3059F48091E0059091E105280F3B
:102AE000391F309389002093880009C080918400A9
:102AF000909185004096909389008093880081E0B2
:102B000080935605FF91EF919F918F917F916F91E7
:102B10005F914F913F912F910F900FBE0F901F909B
:102B20001895809156058111FCCF08951F920F9240
:102B30000FB60F9211242F933F934F935F936F9390
:102B40007F938F939F93EF93FF9380918600909153
:102B500087004091DD0520918100442331F02F7BD7
:102B6000209381001092DD0506C02064209381002F
:102B700020E82093DD053091DF05311125C041119A
:102B800069C02091D9053091DA05280F391F30939B
:102B90008B0020938A0024E026BB20916F002460E4
:102BA00020936F002091E0053091E105820F931F83
:102BB00036952795820F931F9093DC058093DB0554
:102BC00081E08093DF0546C04091DB055091DC0534
:102BD0002091DE057091DD05E091E005F091E105C1
:102BE000841B950B60E097FD2CC02695272B4E0F7C
:102BF0005F1F3F5F8E1B9F0B61E03930A0F3209376
:102C0000DE0580916F008B7F80936F008091D805E7
:102C10008F5F8F779091D705891749F0E82FF0E003
:102C20009091DE05E95AFA4F90838093D805809100
:102C300081008F7B809381001092DD051092DF056B
:102C400009C061112093DE055093DC054093DB053C
:102C50003093DF05FF91EF919F918F917F916F915D
:102C60005F914F913F912F910F900FBE0F901F904A
:102C700018951F920F920FB60F9211242F933F9326
:102C80008F939F93EF93FF9380916F008B7F80933F
:102C90006F00809181008F7B809381009091DF0590
:102CA0002091DD0520588091DE0530E0993028F430
:102CB0008695822B9F5F31E0F9CF31118093DE053D
:102CC0008091D8058F5F8F779091D705891749F04C
:102CD000E82FF0E09091DE05E95AFA4F9083809357
:102CE000D8051092DF05809181008F7B8093810051
:102CF0001092DD05FF91EF919F918F913F912F9160
:102D00000F900FBE0F901F9018959091D70580914E
:102D1000D805981751F09F5F9F77E92FF0E0E95AA7
:102D2000FA4F80819093D705089580E008950E941E
:102D300085160895E091D7058091D805E81739F0F8
:102D4000EF5FEF77F0E0E95AFA4F8081089580E075
:102D500008950E949A1608958091D8059091D705FC
:102D6000891708F48058891B08950E94AC160895AD
:102D70008091D7058093D8050895CF93DF93CFE650
:102D8000D0E088818B7F888388818F7D88830E94B3
:102D9000B8160E94911588818D7F8883DF91CF912D
:102DA00008959091C100892F807194FF0EC0909179
:102DB000740680917506981302C080E00895E09132
:102DC0007506F0E0EE50FA4F80810895E4E7F6E0F2
:102DD00081818083E2E7F6E0808181830895FC01B0
:102DE000138212822AED31E03183208308959B0102
:102DF000AC018091C10084FD1092C1001092730655
:102E0000109272061092750610927406121613062E
:102E100014061506FCF4211581EE3807410551050D
:102E200001F182E08093C00060E079E08DE390E002
:102E30000E94701CCA01B901615071098109910990
:102E400022E030E040E050E00E94701C3093C5006A
:102E50002093C40088E98093C10086E08093C2007B
:102E600008951092C00020E130E0F0CF1092C10030
:102E700008959091C100892F807194FF06C08091C0
:102E8000740690917506891B8F7708950E943917F3
:102E900008959091C100892F807194FF14C0909182
:102EA000740680917506981302C080E00895E09141
:102EB0007506F0E0EE50FA4F8081909175069F5FA5
:102EC0009F779093750608950E94491708959091F1
:102ED000C10094FF18C0909172069F5F9F7020916F
:102EE00073069217E1F3E0917206F0E0EE51FA4FAB
:102EF0008083909372068091C10080628093C100AC
:102F000081E090E0089580E090E00895862F0E948F
:102F1000671708950F931F93CF93DF938C01FB01E5
:102F20006491EF012196662351F0D801ED91FC9157
:102F30000190F081E02DC8010995FE01F1CFDF91EC
:102F4000CF911F910F910895CF93DF93EC010E94D1
:102F50008A17CE010E947D13DF91CF910895CF9300
:102F6000DF93CDB7DEB79E01275F3F4F4F81588576
:102F700061E08D819E810E94D618DF91CF910895E6
:102F800080E00895089520917906211108C021E07C
:102F900030E0FC013383228380E090E0089580914B
:102FA0007906109277061092B2008093B30082E007
:102FB0008093B000809176068093B100B99A809199
:102FC000700082608093700010927806809178067D
:102FD0008823E1F388E0962F9170909377066695A9
:102FE00010927806909178069923E1F3815099F731
:102FF00081E0809377061092780680917806882386
:10300000E1F310927806809178068823E1F310921C
:1030100070001092B10081E090E00895CF93C82F26
:1030200061E00E94DF1261E08C2F0E94A3128C2FBE
:1030300090E0FC01E85DFA4FE491E0937D06209179
:103040007D06209520937C06FC01E45CFA4FE49118
:10305000F0E0EE0FFF1FE65AFA4F8591949190939E
:103060007B0680937A06CF910895FC01842F13820A
:1030700012822AEE31E0318320830E940E180895D7
:10308000CF92DF92EF92FF92CF936B017C01C1143C
:103090008BE4D806E104F10459F194F480E8C816F1
:1030A00085E2D806E104F10419F1C1148DE2D806D5
:1030B000E104F10411F582E08093760680E115C009
:1030C000C11486E9D806E104F10459F0C11481EE77
:1030D000D806E104F10489F482E08093760682E266
:1030E00004C082E08093760683E38093790629C04A
:1030F00083E080937606C0E204C081E08093760688
:10310000C1E0C701B60122E030E040E050E00E949B
:10311000701CCA01B9017C5D8B409F4FA7019601CD
:103120000E94701CCC2ED12CE12CF12CCA01B901CB
:10313000A70196010E94701C2093790681E080937C
:103140007806CF91FF90EF90DF90CF9008951F9277
:103150000F920FB60F9211248F939F93EF93FF93CB
:1031600080917706E0917A06F0917B06882329F01A
:1031700090917D068081892B04C090917C0680818E
:103180008923808381E080937806FF91EF919F915E
:103190008F910F900FBE0F901F901895DC01ED914D
:1031A000FC910190F081E02D099508952F923F92B6
:1031B0004F925F926F927F928F929F92AF92BF9247
:1031C000CF92DF92EF92FF920F931F93CF93DF93F3
:1031D000CDB7DEB72C970FB6F894DEBF0FBECDBFCC
:1031E0006C01262E8A017901AE014F5F5F4F4A01C3
:1031F000F80120FC359120FE31918F01332309F431
:10320000AAC1353241F420FC359120FE31918F0165
:10321000353271F408C03A3031F46DE0C6013C87B4
:103220000E94CE183C85632FC6010E94CE18E0CFC5
:10323000512C312C20E02032A0F43B3269F030F4E4
:10324000303259F0333269F420612CC03D3239F00C
:10325000303339F4216026C02260246023C0286006
:1032600021C027FD28C080ED830F8A3078F426FF27
:1032700006C05AE0559E800D1124582E13C09AE0C6
:10328000399E800D1124382E20620CC03E3221F46C
:1032900026FD61C1206406C03C3611F4206802C0DE
:1032A000383649F4F80120FC359120FE31918F0128
:1032B0003111C1CF98C0333629F0333779F0333527
:1032C00021F15CC0F70180818983A7014E5F5F4FC8
:1032D0007A0144244394512C540115C0370152E023
:1032E000650E711CF701A080B18026FF03C0652D1B
:1032F00070E002C06FEF7FEFC5012C870E943A1B80
:103300002C0173012C852F7716C03701F2E06F0E68
:10331000711CF701A080B18026FF03C0652D70E00D
:1033200002C06FEF7FEFC5012C870E94061B2C01A6
:103330002C852068730123FD1DC0832D90E0481665
:103340005906C0F460E2C6012C870E94CE183A9458
:103350002C85F3CFF50127FD659127FF61915F0172
:10336000C6012C870E94CE182C8531103A94F1E0CA
:103370004F1A51084114510469F7E4C0343611F072
:10338000393651F5F70127FF08C0608171818281CC
:103390009381A7014C5F5F4F09C060817181072E47
:1033A000000C880B990BA7014E5F5F4F7A012F76B7
:1033B000722E97FF09C090958095709561957F4F0B
:1033C0008F4F9F4F2068722E2AE030E0A4010E94A8
:1033D0002803A82EA81847C0353729F42F7EB22E0F
:1033E0002AE030E025C0522F597FB52E3F36C1F07C
:1033F00018F4383579F0AFC0303719F0383721F08C
:10340000AAC0852F8061B82EB4FE0DC09B2D94609C
:10341000B92E09C024FF0AC0E52FE660BE2E06C003
:1034200028E030E005C020E130E002C020E132E0D9
:10343000F701B7FE08C06081718182819381A70185
:103440004C5F5F4F07C06081718180E090E0A70111
:103450004E5F5F4F7A01A4010E942803A82EA8188E
:103460005B2D5F77752E76FE0BC0372D3E7FA51442
:1034700050F474FE0AC072FC08C0372D3E7E05C0B1
:10348000BA2C372D03C0BA2C01C0B52C34FF0DC0A7
:10349000FE01EA0DF11D8081803311F4397E09C0EF
:1034A00032FF06C0B394B39404C0832F867809F02A
:1034B000B39433FD12C030FF06C0B31490F43A0C3D
:1034C000532C5B180FC0B31468F460E2C6013C874C
:1034D0000E94CE18B3943C85F6CFB31418F43B1871
:1034E00002C05A2C312C34FF0EC060E3C6013C8769
:1034F0000E94CE183C8532FF13C031FF02C068E540
:103500000CC068E70AC0832F867851F031FF02C0F3
:103510006BE201C060E237FD6DE2C6010E94CE1889
:10352000A51430F460E3C6010E94CE185A94F8CF77
:10353000AA94F401EA0DF11D6081C6010E94CE1823
:10354000A110F6CF332009F453CE60E2C6010E94E9
:10355000CE183A94F7CF2C960FB6F894DEBF0FBE74
:10356000CDBFDF91CF911F910F91FF90EF90DF9032
:10357000CF90BF90AF909F908F907F906F905F9013
:103580004F903F902F9008951F93FC019927882713
:10359000BC01E89411911032E9F3193010F01E309B
:1035A000C8F31B3251F01D3249F4689406C00E94E2
:1035B000451B610F711D811D911D119110531A3012
:1035C000B0F33EF490958095709561957F4F8F4F45
:1035D0009F4F1F910895F8940C94C51CFB01DC01CA
:1035E0004150504088F08D9181341CF08B350CF4A3
:1035F000805E659161341CF06B350CF4605E861B57
:10360000611171F3990B0895881BFCCFFC010590A3
:10361000615070400110D8F7809590958E0F9F1FD4
:103620000895FB0155915523A9F0BF01DC014D918F
:1036300045174111E1F759F4CD010590002049F0FB
:103640004D9140154111C9F3FB014111EFCF81E0CC
:1036500090E001970895FB01DC014150504048F093
:1036600001900D920020C9F701C01D9241505040B9
:10367000E0F70895FC016150704001900110D8F707
:10368000809590958E0F9F1F0895592F482F372FA3
:10369000262F660F771F881F991F660F771F881FB9
:1036A000991F620F731F841F951F660F771F881F56
:1036B000991F08950E94611B6894B1110C94DB1B43
:1036C00008950E94C01B88F09F5798F0B92F992742
:1036D000B751B0F0E1F0660F771F881F991F1AF0FD
:1036E000BA95C9F714C0B13091F00E94DA1BB1E06D
:1036F00008950C94DA1B672F782F8827B85F39F06C
:10370000B93FCCF3869577956795B395D9F73EF495
:1037100090958095709561957F4F8F4F9F4F08953D
:1037200097F99F6780E870E060E008959FEF80EC74
:10373000089500240A941616170618060906089517
:1037400000240A9412161306140605060895092E7D
:103750000394000C11F4882352F0BB0F40F4BF2BEC
:1037600011F460FF04C06F5F7F4F8F4F9F4F08952C
:1037700057FD9058440F551F59F05F3F71F0479522
:10378000880F97FB991F61F09F3F79F08795089507
:10379000121613061406551FF2CF4695F1DF08C026
:1037A000161617061806991FF1CF86957105610543
:1037B00008940895E894BB2766277727CB0197F9EB
:1037C00008950E94F41B0C94A71B0E94991B38F0CB
:1037D0000E94A01B20F0952311F00C94901B0C94D8
:1037E000961B11240C94DB1B0E94B81B70F3959F51
:1037F000C1F3950F50E0551F629FF001729FBB27E8
:10380000F00DB11D639FAA27F00DB11DAA1F649F83
:103810006627B00DA11D661F829F2227B00DA11D36
:10382000621F739FB00DA11D621F839FA00D611DBC
:10383000221F749F3327A00D611D231F849F600DDD
:10384000211D822F762F6A2F11249F5750409AF006
:10385000F1F088234AF0EE0FFF1FBB1F661F771F92
:10386000881F91505040A9F79E3F510580F00C945D
:10387000901B0C94DB1B5F3FE4F3983ED4F38695DA
:1038800077956795B795F795E7959F5FC1F7FE2BFD
:10389000880F911D9695879597F90895A1E21A2EA4
:1038A000AA1BBB1BFD010DC0AA1FBB1FEE1FFF1FE4
:1038B000A217B307E407F50720F0A21BB30BE40B34
:1038C000F50B661F771F881F991F1A9469F760957B
:1038D0007095809590959B01AC01BD01CF01089535
:1038E000052E97FB1EF400940E94871C57FD07D0FD
:1038F0000E944E1C07FC03D04EF40C94871C50957C
:103900004095309521953F4F4F4F5F4F08959095CB
:103910008095709561957F4F8F4F9F4F0895EE0F63
:10392000FF1F0590F491E02D09940E94A01CA59F13
:10393000900DB49F900DA49F800D911D11240895AA
:10394000A29FB001B39FC001A39F700D811D1124E0
:10395000911DB29F700D811D1124911D0895F9993B
:10396000FECF92BD81BDF89A992780B50895262F84
:10397000F999FECF1FBA92BD81BD20BD0FB6F89454
:10398000FA9AF99A0FBE0196089512E0C8EBD2E0B8
:1039900004C0FE010E948F1C2196C93BD107C9F7C4
:0439A000F894FFCFC9
:1039A4000F0402B8220000796B6F637470612E7289
:1039B400750000000000000000000000000000008E
:1039C40000000000000000000000000000000000F3
:1039D40000000000000000000000000000000000E3
:1039E40000000000000000000000000000000000D3
:1039F40000000000000000000000000000000000C3
:103A040000000000000000000000000000000000B2
:103A140000000000000000000000000000000000A2
:103A2400000000000000000000000086033213992B
:103A340003990399039B030A2320646F6E650000B6
:103A4400000000F5143213B5169716A916CC03001E
:103A54000000008617321346176417D116E6160DB8
:103A64000A006F76660000000000F5143213B516E4
:103A74009716A916CC0300000000861732134617C8
:103A84006417D116E61600000000C3173213C017DE
:063A9400C017C017C217A5
:00000001FF
