:100000000C94C6020C94EE020C94EE020C94EE02D8
:100010000C94EE020C94EE020C94EE020C949818E0
:100020000C94EE020C94EE020C948A150C94EE14CF
:100030000C942A160C94EE020C94EE020C94EE0230
:100040000C94B1110C94EE020C941D040C94430416
:100050000C94EE020C94EE020C94EE020C94EE0260
:100060000C94EE020C94EE0299069D06AF06C706AC
:10007000BD06D306DF06F4060A07300730076B100B
:1000800030100D100D107F100D100D100D100D10F3
:100090000D103E1056100D100D1055110D100D10B5
:1000A0000D100D100D103910436F6E6E6563746581
:1000B000642100436F6E6E656374696E6720746FB0
:1000C0002055445020536572766572004445414383
:1000D00054003E0A0053003D0052003D005B434F78
:1000E0004E4649475D0A006578697420636F6E73F8
:1000F0006F6C650A006E6577207325643D25730A71
:10010000006E6577207225643D25730A00636F6E6B
:100110006E65637420646F6E650A00636F6E6E6552
:1001200063742073746172740A004D6F64656D208E
:10013000636F6E6E6563746564204F4B2100475397
:100140004D204D6F64656D20636F6E6E65637465E1
:1001500064204F4B2100756E6B6E6F776E00756E6D
:100160006B6E6F776E00656570726F6D2077726968
:1001700074650A005B434F4E4649475D0A0043528F
:1001800043210A00636F6E736F6C65204F4B0063F1
:100190003D25780A00636F6E736F6C650067736D41
:1001A0002D6D6F64656D000A255320302E30340AA2
:1001B0000041504E20536574005265676973746541
:1001C0007265643A205374617274696E6720436F7C
:1001D0006E66696775726174696F6E0053494D3858
:1001E00030302052656164792026204C6F6164694B
:1001F0006E6700496E697469616C697A696E672E11
:100200002E2E00454550524F4D207772697465205F
:10021000646F6E652100434F4E4E454354005D00B0
:10022000636F6E6E656374205B00222C002B434964
:100230005053544152543D22554450222C22002BFD
:10024000434C504F52543D22554450222C002B43D6
:1002500049465352002E002B434949435200222C59
:1002600022222C2222002B435354543D22002200F0
:100270002B53415042523D332C312C2241504E22BF
:100280002C220043474154543A002B4347415454D5
:100290003F002B43474154543D31002B43495043C9
:1002A0004346473D382C31302C3330302C302C3005
:1002B0002C3436302C3530002B4349504D4F4445BB
:1002C0003D31002B4349504D55583D30002B43479D
:1002D000455245503D31002B43495552433D310075
:1002E0002B4353434C4B3D30002B43534D494E530E
:1002F0003D31002B43534E533D34002B4352433D7D
:1003000031002B43523D31002B434D45453D3200DA
:100310002B435245473D32002B43495044504450F3
:100320003D312C3130002B53415042523D332C3162
:100330002C22434F4E54595045222C2247505253A1
:1003400022002B47534D425553593D31002B435505
:1003500053443A002322002B435553443D312C2271
:100360000023323C20004445414354002045525272
:10037000004552524F52003D000A00233E20415496
:1003800000232077616E743A204F4B206F72202536
:10039000530A00233E20415400232077616E743AB3
:1003A000202553206F722025530A003C20002B4348
:1003B00046554E3D312C31002B4346554E3D312C98
:1003C00031002B4343414C523F004343414C523A8E
:1003D0002031002B434C49503D31002B43495053B1
:1003E0004855543D31002B435343423D31002B438C
:1003F00046554E3D3100453020563120583120536E
:10040000303D300000435245473A20302C00327CCA
:100410008900EDD968770000005900000000000055
:100420000000D69FDCA81817AA90437327F6B96876
:10043000EDF4DED409FEE61C1C84DDE80B992927C7
:10044000D6DF8D210F036418EFEE1E99B782527626
:10045000941500347C000026149E988F0000006ADA
:1004600031168F8C059600E7B73F3600000000007C
:100470000000AF669ED0385D8A6C20B95422007CA3
:10048000ED044C80387486EDCBFA57CBDC19E200D2
:100490001DDF5506E5CB01C3000000000000000091
:1004A000009AB20086DBD0BC5416131586004E4469
:1004B000BD7F6F151590010000B500000000000021
:1004C0002F0000AEE5000000000000000000004723
:1004D000000000000000000000000000000000001C
:1004E000000000000000000000000000000000000C
:1004F0000000000000000000000000000000005AA2
:1005000000000000000008CC31AA2C532E006372BA
:100510006173683A001C383D43413A00415400433E
:1005200050494E3A205245414459002B43524547C9
:100530003F002B4350494E3F000701404701404FC9
:100540004B00010204081020408001020408102022
:100550000102040810200404040404040404020238
:10056000020202020303030303030000000023004E
:100570002600290000000000250028002B000000B4
:100580000000240027002A00660E830E11241FBEDF
:10059000CFEFD8E0DEBFCDBF11E0A0E0B1E0E6E6EE
:1005A000F9E302C005900D92A63FB107D9F726E006
:1005B000A6EFB1E001C01D92AE37B207E1F712E03D
:1005C000C5ECD2E004C02197FE010E94701CC43C1F
:1005D000D107C9F70E9437140C94CC1A0C94000070
:1005E000CF92DF92EF92FF920F931F93E82FF92F94
:1005F00005C0015011092109310961F1908196234B
:100600009417B9F305C0015011092109310911F1FD
:10061000908196239413F7CFC12CD12CE12CF12C8F
:100620000AC08FEFC81AD80AE80AF80A0C151D0587
:100630002E053F0579F080818623841791F36C2D78
:100640007D2D8E2D9F2D1F910F91FF90EF90DF90AC
:10065000CF90089560E070E080E090E01F910F91EE
:10066000FF90EF90DF90CF900895FA01AA272830ED
:1006700051F1203181F1E8946F936E7F6E5F7F4F6F
:100680008F4F9F4FAF4FB1E03ED0B4E03CD0670FEB
:10069000781F891F9A1FA11D680F791F8A1F911D3E
:1006A000A11D6A0F711D811D911DA11D20D009F48E
:1006B00068943F912AE0269F11243019305D3193D0
:1006C000DEF6CF010895462F4770405D4193B3E0B9
:1006D0000FD0C9F7F6CF462F4F70405D4A3318F060
:1006E000495D31FD4052419302D0A9F7EACFB4E011
:1006F000A6959795879577956795BA95C9F70097C9
:100700006105710508959B01AC010A2E0694579569
:10071000479537952795BA95C9F7620F731F841FC0
:10072000951FA01D0895E091F601F091F701CF010A
:1007300001969093F7018093F6016083E091F601B2
:10074000F091F701108281E090E0089580E0089533
:1007500080E0089580E008950895FC0113821282DC
:100760002BE831E0318320830895FB01208182272B
:1007700090E1899F900111242827822F90E0582F23
:1007800044279C0163E0220F331F6A95E1F742275B
:100790005327218130E02427352774E095958795EC
:1007A0007A95E1F7822793279183808308959C01AE
:1007B000862FB9010E94B50308950E9485150895FA
:1007C000EF92FF920F931F93CF93DF931F92CDB7BA
:1007D000DEB77C018B01081B190B442361F0C801B3
:1007E0008E0D9F1D49830E94901CF70181937F010C
:1007F00049814150F2CF0F90DF91CF911F910F911E
:10080000FF90EF900895EF92FF921F93CF93DF93A5
:100810007C01C62FD72F142F160F1C1741F0F7019C
:1008200061917F01CE010E94981C2196F6CFDF9145
:10083000CF911F91FF90EF9008951F920F920FB6E6
:100840000F9211242F938F939F93EF93FF93909187
:10085000C600809174068F5F8F772091750682178E
:1008600041F0E0917406F0E0EE50FA4F90838093EF
:100870007406FF91EF919F918F912F910F900FBE72
:100880000F901F9018951F920F920FB60F92112480
:100890008F939F93EF93FF939091730680917206CD
:1008A000981779F0E0917306F0E0EE51FA4F8081ED
:1008B0008093C600809173068F5F8F70809373065C
:1008C00005C08091C1008F7D8093C100FF91EF91A1
:1008D0009F918F910F900FBE0F901F901895CF93FF
:1008E00061E087E00E94D2120E943317C82F8091E6
:1008F0006904882319F08C2F0E94941460E087E02B
:100900000E94D2128C2FCF9108950F931F93CF93F3
:10091000DF93EC018B010E94FB11DC01CB01800F06
:10092000911FA11DB11D88839983AA83BB83DF9189
:10093000CF911F910F910895FC011382128223EA37
:1009400031E031832083089561E08AE00E94D21271
:1009500061E08AE00E94961261E089E00E94D21272
:1009600061E089E00E94961261E086E00E94D21266
:1009700061E086E00E94961260E088E00E94961294
:100980000895CF92DF92EF92FF92CF93DF936A01A7
:100990007B01E901BC0185E694E00E947C172AE016
:1009A00030E0B701A60185E694E00E942014BE0164
:1009B00085E694E00E947C17DF91CF91FF90EF9045
:1009C000DF90CF90089561E070E080E090E00E94B9
:1009D0002C1208956AE070E080E090E00E942C12F2
:1009E000089562E370E080E090E00E942C12089588
:1009F0000E94F1040E94F10408950E94F8040E94EC
:100A0000F8040E94F804089560E086E00E94D21283
:100A10000E94FD0461E086E00E94D2120E94F80468
:100A2000089568EE73E080E090E00E942C12089533
:100A300060E08AE00E94D2120E94110561E08AE023
:100A40000E94D2120E94110508950F931F93CF9315
:100A5000DF9300D000D0CDB7DEB742E062E070E0B7
:100A6000CE0101960E94E00389819A810B97A1F53E
:100A70008FEF9FEF909377048093760484E890E063
:100A80009A838983CE0103969C838B8304E010E0D4
:100A900089819A81892B79F0C8010E94901C66E7B0
:100AA00074E00E94B50389819A8101979A838983B2
:100AB0000F5F1F4FEDCF42E060E070E0CE01019686
:100AC0000E94E00381E049815A81209176043091AF
:100AD00077044217530709F080E00F900F900F90B2
:100AE0000F90DF91CF911F910F91089544E864E03A
:100AF00070E083E091E00E94E0030895EF92FF929E
:100B00001F93CF93DF938FEF9FEF909377048093A2
:100B1000760483E0E82E81E0F82EC4E0D0E0F7010F
:100B200011917F01612FCE010E94981C66E774E04D
:100B3000812F0E94B5032196C838D10581F742E084
:100B400060E070E086E794E00E9403048BE090E0B0
:100B5000909377048093760442E062E070E086E749
:100B600094E00E94030463E072E08EE694E00E9449
:100B70007C178EE694E00E947113DF91CF911F9154
:100B8000FF90EF9008956DED70E085E694E00E948F
:100B90007C172BED30E040E050E0BA0189ED90E0A9
:100BA0000E94C1044091030150910401609105012C
:100BB000709106012AE030E085E694E00E940E1470
:100BC00027ED30E041E050E060E070E085ED90E03E
:100BD0000E94C104E9E3F5E06591749185E694E033
:100BE0000E94761327ED30E042E050E060E070E0D4
:100BF00085ED90E00E94C104ECE3F5E0659174910D
:100C000085E694E00E94761362ED70E085E694E05C
:100C10000E947C1708958A3011F08D3029F40E94CB
:100C2000420B84E092E018C0E0910101F0910201D2
:100C300092E0E338F907A8F00E94420BA09101016D
:100C4000B09102011A978AE0E4E0F2E001900D927F
:100C50008A95E1F78EE092E0909302018093010182
:100C600008959F012F5F3F4F3093020120930101B0
:100C700080830895CF930E949616882381F061E0C7
:100C800085E00E94D2120E946F16C82F0E94511751
:100C90008C2F0E940B0660E085E00E94D212CF915B
:100CA00008958091690481110E943A060E942317D9
:100CB00008952F923F924F925F926F927F928F9200
:100CC0009F92AF92BF92CF92DF92EF92FF920F93DB
:100CD0001F93CF93DF9310922A05712CD1E001E08E
:100CE00010E086E0282E312C95E0492E512C24E08E
:100CF000C22ED12C32E0A32EB12C88248A94982CB9
:100D000052E3652E0E945106882309F45EC20E94B8
:100D10006F04C82F1092F8012091FB013091FC0163
:100D20002B30310508F0B5C0F901EC5CFF4F0C9495
:100D3000701C1092030210920202CE3F29F0109311
:100D4000FC010093FB01A5C0B092FC01A092FB0145
:100D50001092580390925603809255039AC0809344
:100D600058031092FD01682F85E593E00E94D70398
:100D7000D092FC01C092FB018CC080935903682F74
:100D800085E593E00E94D70383E090E025C080933F
:100D90005A03682F85E593E00E94D7035092FC0127
:100DA0004092FB0176C080935B03682F85E593E05A
:100DB0000E94D7033092FC012092FB016AC080930D
:100DC0005C03682F85E593E00E94D7038091580368
:100DD000811107C088E090E09093FC018093FB01B3
:100DE00058C087E090E0F8CFE091FD0181E08E0FE0
:100DF0008093FD01F0E0E35AFC4FC0836C2F85E542
:100E000093E00E94D7039091FD01809158039813BD
:100E100040C0E0CFE0915C03F0E0E25FFB4F649103
:100E200085E593E00E94D7032C2F30E08091550395
:100E30009091560399272817390731F0CE3F09F4CE
:100E400083CF8AE090E0C8CF89E090E09093FC01E6
:100E50008093FB01E091FD01F0E0E35AFC4F18C0E4
:100E6000482F50E0E0905603F12C4E155F0509F035
:100E700064CF2A30310509F460CFD093F801109384
:100E8000FC010093FB01E091FD01F0E0E25AFC4F10
:100E9000C0832091F801222399F080915903809317
:100EA000FE018091000290910102009721F41092BE
:100EB00003021092020201969093010280930002B5
:100EC0001092FA01222309F477C160E070E08DE905
:100ED00094E00E948504D0932A05D0932D0580913B
:100EE0005C03882309F45EC090919C04992321F04F
:100EF00020915A03921369C18E3309F427C190F4EB
:100F0000883109F464C08E3109F48EC0813009F053
:100F100053C180916B0390916C0390937D048093F7
:100F20007C044AC1893609F4AAC08D3F09F429C15D
:100F30008A3409F041C180916F038093990420E0C5
:100F400030E048EC52E46091650370916603809153
:100F50006703909168030E94C21B0E943B1B609331
:100F6000950470939604809397049093980420E0DE
:100F700030E048EC52E46091690370916A0380911B
:100F80006B0390916C030E94C21B0E943B1B6093F9
:100F900091047093920480939304909394040E941C
:100FA000620E0AC180916103863009F405C1809107
:100FB0005A0380939C0480915D0380938C048091FC
:100FC0006303881F8827881F80933105F5C08091AF
:100FD000650390916603A0916703B09168038093C5
:100FE000220590932305A0932405B09325058091B5
:100FF000690390916A03A0916B03B0916C03809395
:10100000260590932705A0932805B0932905809184
:10101000790380939A0480917A0380939B04D09300
:10102000320577247394C8C021EE3EE245E652E4CF
:1010300060916503709166038091670390916803E6
:101040000E94C21B0E943B1B7093900460938F040C
:1010500021EE3EE245E652E4609161037091620345
:1010600080916303909164030E94C21B0E943B1B0A
:1010700070938E0460938D040E94630E9DC08091D6
:10108000840490918504A0918604B0918704809394
:10109000780490937904A0937A04B0937B0420E0C1
:1010A00030E048EC52E4609191037091920380919A
:1010B0009303909194030E94C21B0E943B1B609378
:1010C000840470938504809386049093870420E0C1
:1010D00030E04AE754E460916503709166038091C3
:1010E0006703909168030E94C21B0E943B1B709390
:1010F00083046093820420E030E04AE754E4609186
:10110000690370916A0380916B0390916C030E9454
:10111000C21B0E943B1B709381046093800420E0FB
:1011200030E04AE754E460916D0370916E03809162
:101130006F03909170030E94C21B0E943B1B70932F
:101140007F0460937E040E94640E36C020E030E08D
:1011500048EC52E4609165037091660380916703E7
:10116000909168030E94C21B0E943B1B60938804FD
:101170007093890480938A0490938B040E94650E77
:101180001BC080915D038430B8F4EEE5F3E0A1EA82
:10119000B4E0862D01900D928A95E1F71092D30468
:1011A00046E050E06EE075E081EA94E00E94CF1ADC
:1011B000892B11F4D09333050E9423178111A2CDFE
:1011C0008AEA90E00E9468129DCD872DDF91CF9131
:1011D0001F910F91FF90EF90DF90CF90BF90AF9055
:1011E0009F908F907F906F905F904F903F902F9047
:1011F0000895CF92DF92EF92FF92CF93DF93809189
:101200002D05882339F00E94590690912D05909361
:101210002E0571C080912E058111F5CF0E942017F7
:1012200061E085E00E94D21261E087E00E94D21264
:101230000E94FB116B017C0124E6C20ED11CE11C53
:10124000F11CDAEFCFEF24EC39E040E050E060E051
:1012500080E00E94F3126F3F71058105910509F04E
:1012600064F4662351F06C1708F4C62F0E94FB113A
:10127000C616D706E806F90610F0D15021F7CF3F81
:1012800019F4C091000102C0C0930001CB3060F09E
:10129000C33160F0CD3160F0C83260F0CC3360F023
:1012A000C63960F081E00BC088E109C08CE007C05E
:1012B00088E005C086E003C084E001C082E020EC45
:1012C00032E1829FB001839F700D1124072E000C24
:1012D000880B990B0E94E11660E087E00E94D21211
:1012E00060E085E00E94D21281E080932E0580911B
:1012F0003405811188CFDF91CF91FF90EF90DF907F
:10130000CF900895EF92FF920F931F93CF938C018C
:101310007B01C0E00E945106811109C0E114F10473
:1013200019F0F7010995F6CF0E94E304F3CF0E946C
:101330006F048D3051F4F801EC0FF11D1082CF9144
:101340001F910F91FF90EF900895CC2319F08A30F0
:1013500019F4F1CF8A30F1F2F801EC0FF11D80831E
:10136000C7FDD8CFCF5FD6CF60E070E00E94820982
:101370000895CF930E9496168823C9F06BEA73E014
:101380008EE694E00E947C170E949616882361F0F6
:101390000E946F16C82F682F8EE694E00E94691392
:1013A0008C2F0E940B06F0CF0E94EA04E3CFCF916E
:1013B0000895CF92DF92EF92FF920F931F93CF93F6
:1013C000DF937C01D62FC72F8A0169010E94B909DA
:1013D0001F930F93CF93DF9389E993E09F938F93AC
:1013E0008EE694E09F938F930E949C1763E973E0CD
:1013F0008EE694E00E947C17B7018EE694E00E948E
:1014000091176CE175E08AE694E00E947C17B701C1
:101410008AE694E00E949117A601B8018D2F9C2FB7
:101420000E94670A91E02DB73EB7285F3F4F0FB685
:10143000F8943EBF0FBE2DBF813009F090E0892F98
:10144000DF91CF911F910F91FF90EF90DF90CF90A0
:101450000895CF93CDE3C150D1F028EE33E045E0BD
:1014600054E06FE375E08BE295E00E94D909882390
:1014700071F0E0918502F09186028085833339F026
:10148000853339F0813329F00E941105E4CF80E0E3
:1014900001C081E0CF91089528EE33E040E050E0B4
:1014A0006FE375E00E94D909089580918B0288232B
:1014B00069F00E9404050E94180510928B028EEAC2
:1014C00093E00E944C0AEE27FF27099408954F925B
:1014D0005F926F927F92AF92BF92CF92DF92EF9224
:1014E000FF920F931F93CF93DF935C017B01EA017F
:1014F0000E94FB1144E64C9F90014D9F300D11243A
:101500002B013C01420E531E611C711C109286027D
:1015100010928502D1E0E114F10409F0D0E061E01D
:1015200085E00E94D2120E94F80460E085E00E94EB
:10153000D21269E773E08EE694E00E947C17C0E067
:101540000DE812E081E6C82E83E0D82E0E94EA045E
:101550000E949616882309F471C061E087E00E941A
:10156000D2120F5F1F4F0E946F16F80131978083D0
:10157000F8011082682F8EE694E00E9469130E94A1
:1015800096168111EECF60E087E00E94D212C11161
:1015900034C0B5018DE892E00E94F21A909388025F
:1015A00080938702892B41F067E773E08EE694E031
:1015B0000E947C17C1E013C061E773E08DE892E000
:1015C0000E94F21A9093880280938702892B39F047
:1015D0006CE673E08EE694E00E947C17C3E066E65A
:1015E00073E08DE892E00E94F21A90938802809353
:1015F0008702892B11F00E94550AE114F10411F1C0
:10160000B7018DE892E00E94F21A909386028093CF
:101610008502D1E0009709F4D0E09F938F93DF9289
:10162000CF928EE694E09F938F930E949C170F9029
:101630000F900F900F900F900F9004C0CC2311F0DB
:10164000D11108C00E94FB11641575058605970528
:1016500008F47CCF67E971E08EE694E00E9476138F
:10166000C0938C028C2FDF91CF911F910F91FF902F
:10167000EF90DF90CF90BF90AF907F906F905F9092
:101680004F90089545E050E06CEC70E084E092E00B
:101690000E94CF1A892B11F40E94550A08959B01CC
:1016A00040E050E06FE375E00E94D9090895CF93C0
:1016B000C7E362E070E084E094E00E944F0B811188
:1016C00003C0C150B1F701C081E0CF910895CF931D
:1016D000DF9320918A02211171C09B01AC0180919E
:1016E0006400877F80936400DA01C901B695A795ED
:1016F00097958795BC01CD017C5D8B409F4F0E94E3
:101700002F1CCA01B9010E9440140E941805CBE0A9
:101710000E94570B8823A9F186EF93E00E944C0AA0
:101720008EEE93E00E944C0A86EE93E00E944C0AF3
:1017300062E070E08BED93E00E944F0B28EE33E007
:1017400040E050E06FE175E082E395E00E94D90946
:10175000D82F83ED93E00E944C0ADD23B1F00E9464
:10176000290A882391F028EE33E040E050E06AEC4B
:1017700073E082EC93E00E94D909982F882329F026
:101780001FC00E9404050E94180588EB93E00E9488
:101790004C0AD7E00E941105D150E1F7C15009F081
:1017A000B7CF0E94A7168091640088608093640080
:1017B00090E081E0911108C080E006C081E004C0A3
:1017C00081E080938A02F5CFDF91CF91089560E0A8
:1017D00071EE80E090E00E94670B089582E493E050
:1017E0000E944C0A86E293E00E944C0A88E193E052
:1017F0000E944C0A80E193E00E944C0A882309F47D
:101800004DC088E093E00E944C0A882309F446C04A
:1018100082E093E00E944C0A882309F43FC08BEFDA
:1018200092E00E944C0A8823C9F183EF92E00E9463
:101830004C0A882399F189EE92E00E944C0A882391
:1018400069F180EE92E00E944C0A882339F187ED1D
:1018500092E00E944C0A882309F18DEC92E00E94EC
:101860004C0A8823D9F083EC92E00E944C0A88232A
:10187000A9F088EB92E00E944C0A882379F08BE96A
:1018800092E00E944C0A882349F06EEE72E082E9F1
:1018900092E00E944F0B91E0811101C090E0892FEE
:1018A0000895EF92FF920F931F93CF93DF9300D091
:1018B000CDB7DEB78C01F62EE72E49835A830E94FE
:1018C000B909EF92FF9281E893E09F938F938EE6A0
:1018D00094E09F938F930E949C176BE773E08EE6D2
:1018E00094E00E947C17B8018EE694E00E94911764
:1018F0006CE175E08AE694E00E947C17B8018AE604
:1019000094E00E94761349815A816F2D7E2D8FE3DA
:1019100095E00E94670A91E00F900F900F900F9052
:101920000F900F90813009F090E0892F0F900F9069
:10193000DF91CF911F910F91FF90EF900895EF925B
:10194000FF920F931F93CF93DF93CDB7DEB7C055B0
:10195000D1090FB6F894DEBF0FBECDBF7C0128E5DC
:1019600032E043E852E06FE375E08AE892E00E94DB
:10197000D9098823A9F02091850230918602295F38
:101980003F4FC9012F5F3F4FFC0140814032C9F3F7
:101990000E94A51A81E0611101C080E08093890254
:1019A0008E010F5F1F4F1093F7010093F60160E760
:1019B00072E085E395E00E947C17B70185E395E02E
:1019C0000E9466136EE672E085E395E00E947C1744
:1019D00048EE53E060E070E0C8010E94510C88239B
:1019E000F9F01093F7010093F60166E672E085E3E3
:1019F00095E00E947C17B70185E395E00E9466138D
:101A00006EE572E085E395E00E947C1748EE53E0B6
:101A100060E070E0C8010E94510C91E0813009F053
:101A200090E0892FC05BDF4F0FB6F894DEBF0FBE8A
:101A3000CDBFDF91CF911F910F91FF90EF9008954F
:101A4000CF93DF9363EF71E08EE694E00E949117ED
:101A50000E94E70B81111BC0CFE0D0E060E085E081
:101A60000E94D2120E94FD0461E085E00E94D21221
:101A700060E087E00E94D2120E94FD0461E087E0EE
:101A80000E94D212219751F7EE27FF2709946CED9F
:101A900071E08EE694E00E94911781E080938402C9
:101AA00069EB71E08EE694E00E9491170E94EE0BC4
:101AB000882371F287E491E00E949F0C882341F211
:101AC00061EB71E08EE694E00E949117DF91CF9177
:101AD0000895EF92FF920F931F93CF93DF93CDB7AB
:101AE000DEB7C054D1090FB6F894DEBF0FBECDBF2C
:101AF0007C016EE170E087E592E00E944F0B882345
:101B000089F128EE33E04FE355E065E572E08EE4BD
:101B100092E00E94D909882329F10E94B9098E0117
:101B20000F5F1F4F1093F7010093F6016FE372E010
:101B300085E395E00E947C174AE050E0B70185E319
:101B400095E00E942F14B8018EE694E00E9466137F
:101B500048EE53E060E070E0C8010E94510C91E053
:101B6000813009F090E0892FC05CDF4F0FB6F89408
:101B7000DEBF0FBECDBFDF91CF911F910F91FF90C0
:101B8000EF900895CF92DF92EF92FF920F931F9301
:101B9000CF93DF93CDB7DEB7C054D1090FB6F89419
:101BA000DEBF0FBECDBF6C017B010E94B9098E0163
:101BB0000F5F1F4F1093F7010093F6016DE272E083
:101BC00085E395E00E947C17B60185E395E00E94CD
:101BD00066136AE272E085E395E00E947C174AE0B2
:101BE00050E0B70185E395E00E942F1460E272E0B7
:101BF0008EE694E00E947C17B8018EE694E00E9485
:101C000066136EE172E08EE694E00E94911740E464
:101C100056E066E172E0C8010E94510C813019F46F
:101C200080938B0201C080E0C05CDF4F0FB6F89458
:101C3000DEBF0FBECDBFDF91CF911F910F91FF90FF
:101C4000EF90DF90CF9008950E94F90880912D05C4
:101C50008823B9F180916904811133C061E085E086
:101C60000E94D21261E087E00E94D21280910301AB
:101C7000909104010E94690D63EB70E08EE694E0A0
:101C80000E949117609103017091040187E091E037
:101C90000E94C20D81E08093690468EA70E08EE6DC
:101CA00094E00E94911761E087E00E94D21260E008
:101CB00085E00E94D2120E94110560E087E00E9438
:101CC000D2120895089508950895089585E395E042
:101CD0000E94AD0382E794E00E94D91644E060E0E0
:101CE0008EE694E00E9426188AE694E00E949C0406
:101CF00085E694E00E94D91683EB91E09093660408
:101D00008093650408958AEC91E090936B0480932E
:101D10006A040E94A7160895AF92BF92CF92DF92F5
:101D2000EF92FF920F931F93CF93DF93CDB7DEB760
:101D3000A0970FB6F894DEBF0FBECDBF6C010E9416
:101D4000B90900E0CE0101967C01F092F701E09222
:101D5000F60167E573E085E395E00E947C170023B8
:101D600011F06AE201C063E285E395E00E9493030B
:101D70004AE050E0B60185E395E00E942F1464E547
:101D800073E085E395E00E947C1748EC50E06DE439
:101D900073E0C7010E94510C182F813031F00111FE
:101DA00002C001E0D2CF10E05EC00E94FD04A0910D
:101DB0008502B09186025D0196E0A90EB11C50E04B
:101DC000E1EAF4E020E030E080E040E06DE2F62E71
:101DD000D5019D915D01992309F444C0923221F40B
:101DE000811141C081E0F4CF882391F30023B1F148
:101DF000B90124E0660F771F2A95E1F791360CF0C0
:101E0000905230ED390F3A3014F039EC390F6B0144
:101E1000C30ED11C37FDDA9496014F5F4430C1F6F2
:101E20009C2D652F70E06B5E7A4FDB014C91C412E4
:101E300002C05F5F07C0563021F4F08211823196F4
:101E400001C050E02F3F310529F020F020E030E0C4
:101E500040E0BECF908311823196F8CF90831182FB
:101E60003196B6CF182F812FA0960FB6F894DEBF0B
:101E70000FBECDBFDF91CF911F910F91FF90EF90DB
:101E8000DF90CF90BF90AF9008952F923F924F92E6
:101E90005F926F927F928F929F92AF92BF92CF92FA
:101EA000DF92EF92FF920F931F93CF93DF93CDB703
:101EB000DEB7C558D1090FB6F894DEBF0FBECDBF4F
:101EC00084E8E3E0F1E0DE01119601900D928A953D
:101ED000E1F761E087E00E94D21261E085E00E94B4
:101EE000D21268EE73E080E090E00E942C128DE93F
:101EF00091E09F938F9387EA91E09F938F9385E67C
:101F000094E09F938F930E949C1765E971E08EE6A1
:101F100094E00E947C178EE694E00E9471130F906B
:101F20000F900F900F900F900F9005E1AFE8EA2E01
:101F3000A1E0FA2EBEE6CB2EB4E0DB2E0E94FB1110
:101F40004B015C0128EB820E2BE0921EA11CB11C00
:101F500010E00E94FB11681579058A059B0500F5C4
:101F60000E9451068823A9F30E946F041F928F9349
:101F7000FF92EF92DF92CF92CB57DF4F8883C55805
:101F8000D0400E949C170F900F900F900F900F90D1
:101F90000F90CB57DF4F8881C558D040193020F0C3
:101FA000193009F05EC109C0E12FF0E0E356FE4FA1
:101FB000E4918E13CDCF1F5FCCCF64E871E08EE645
:101FC00094E00E9491170E94250581110CC06EE7D4
:101FD00071E08EE694E00E947C178EE694E00E9409
:101FE00071130E947E050E94760541E0642E41E057
:101FF000742E0EE614E055EFE52E50E0F52E6BE161
:10200000C62E61E0D62E7DE0A72E71E0B72EE6E663
:102010008E2EE1E09E2EF4E82F2E64E771E085E637
:1020200094E00E947C170E94C30581EA94E00E941C
:10203000B4093091A104332309F49FC08091A20414
:1020400081119BC01092A104832F90E0FC01E35604
:10205000F109E531F10508F7E15CFF4F0C94701CC4
:10206000FE013196A3E0B1E0822D01900D928A9598
:10207000E1F70E947E059F928F926CC0809184024E
:10208000811102C00E94200D84E690E00E948C0E17
:102090008091A104882339F061EA74E085E694E038
:1020A0000E947613BACF6EE571E010C08091840271
:1020B000811102C00E94200D85E690E00E948C0EE6
:1020C0008091A1048111E8CF66E571E085E694E096
:1020D0000E949117A2CF80918402811102C00E94B8
:1020E000200D81E080932D050E94240E6EE371E0A7
:1020F0008AE694E00E9491176AE271E0E7CF80914E
:102100008402811102C00E94200DDF92CF921F93A2
:102110000F930E949C170F900F900F900F906AE3FF
:1021200076E081EA94E00E9482098091A1048E32D7
:1021300021F48091A204882359F031EA432E34E03F
:10214000532E11C00E9471138091A1048111E7CF19
:10215000BF92AF921F930F930E949C170F900F9006
:102160000F900F905ACFF20161912F018AE694E00F
:10217000662341F30E94E914F6CF82EA94E0CB573C
:10218000DF4F3883C558D0400E94A51A362EE1EAA9
:10219000F4E0CB57DF4F3881C558D0402F018191F3
:1021A000882319F02F018D33C9F7323529F03335E3
:1021B00049F13C3409F031CFF1E0F31508F42DCFAB
:1021C000F2018081882309F428CFC2010E94A51A58
:1021D00024E0329EF0011124ED5FFE4F6083718395
:1021E000828393835F924F921F923F927F926F926E
:1021F0001F930F930E949C170FB6F894DEBF0FBE7B
:10220000CDBF0BCF92E0931508F407CF5F924F92AA
:102210001F923F92FF92EF921F930F930E949C1781
:102220002FEF230D0FB6F894DEBF0FBECDBF2230C7
:1022300008F0F3CE822F90E0FC01EE0FFF1F8E0F0F
:102240009F1FFC01E55CFA4F4491FC01E75CFA4FEB
:102250008591949150E041505109B2010E940C1BAC
:10226000DCCE0E942505882319F00E9476051DC04A
:10227000015019F40E947E0518C013E060E085E06B
:102280000E94D2120E94FD0461E085E00E94D212F9
:1022900060E087E00E94D2120E94FD0461E087E0C6
:1022A0000E94D212115051F749CE87EE90E09F93D1
:1022B0008F938EE694E09F938F930E949C1760E02B
:1022C00087E00E94D21260E085E00E94D2120F9057
:1022D0000F900F900F90CB57DF4F0FB6F894DEBFE3
:1022E0000FBECDBFDF91CF911F910F91FF90EF9067
:1022F000DF90CF90BF90AF909F908F907F906F9026
:102300005F904F903F902F90089561E087E00E948A
:10231000961261E085E00E94961260E087E00E94DC
:10232000D21261E085E00E94D2120E94A40460E013
:1023300071EE80E090E00E94311860E071EE80E084
:1023400090E00E94E11678940E94450F80918402EB
:10235000811102C00E94200D60E085E00E94D2122F
:1023600008951F920F920FB60F9211242F933F934F
:102370008F939F93AF93BF9380913A0590913B05C4
:10238000A0913C05B0913D053091390523E0230F24
:102390002D3720F40196A11DB11D05C026E8230F9D
:1023A0000296A11DB11D2093390580933A059093A3
:1023B0003B05A0933C05B0933D0580913E0590916F
:1023C0003F05A0914005B09141050196A11DB11DA9
:1023D00080933E0590933F05A0934005B09341053F
:1023E000BF91AF919F918F913F912F910F900FBE11
:1023F0000F901F9018952FB7F89460913A0570913F
:102400003B0580913C0590913D052FBF08953FB756
:10241000F89480913E0590913F05A0914005B091C0
:10242000410526B5A89B05C02F3F19F00196A11DB7
:10243000B11D3FBFBA2FA92F982F8827820F911D5A
:10244000A11DB11DBC01CD0142E0660F771F881FA1
:10245000991F4A95D1F708958F929F92AF92BF929C
:10246000CF92DF92EF92FF926B017C010E940712E4
:102470004B015C01C114D104E104F10401F10E949B
:10248000F2120E940712DC01CB0188199909AA09EE
:10249000BB09883E9340A105B10560F321E0C21A53
:1024A000D108E108F10888EE880E83E0981EA11C8F
:1024B000B11CC114D104E104F10419F7DBCFFF9082
:1024C000EF90DF90CF90BF90AF909F908F90089546
:1024D0008230910538F0880F991F880F991F059752
:1024E0000197F1F70895789484B5826084BD84B52E
:1024F000816084BD85B5826085BD85B5816085BDFF
:10250000EEE6F0E0808181608083EAE7F0E08081A0
:102510008460808380818260808380818160808309
:102520008081806880831092C1000895CF93DF93EB
:1025300090E0FC01EE5BFA4F2491FC01EA5AFA4F5D
:102540008491882361F190E0880F991FFC01E25883
:10255000FA4FC591D491FC01EC58FA4FA591B49172
:10256000611109C09FB7F8948881209582238883E0
:10257000EC912E230BC0623061F49FB7F894388140
:10258000822F809583238883EC912E2B2C939FBFE1
:1025900006C08FB7F894E8812E2B28838FBFDF9178
:1025A000CF91089590E0FC01EE5BFA4F2491FC017D
:1025B000EA5AFA4FE491EE23A1F0F0E0EE0FFF1F8C
:1025C000EC58FA4FA591B4918FB7F894611105C0FA
:1025D0009C91E22FE095E92302C0EC91E22BEC9371
:1025E0008FBF089508950F931F9390E0FC01EE5B59
:1025F000FA4F7491FC01EA5AFA4FE491662311F004
:10260000672F01C060E0F0E0EE0FFF1FE659FA4FC0
:102610008591949189019A013F70462F672F0E94FE
:10262000F002611571058105910549F0DC01CB01CE
:102630000196A11DB11DBC01CD019F7003C060E0DA
:1026400070E0CB011F910F910895CF92DF92EF922E
:10265000FF920F931F93CF93DF936C017A018B014D
:10266000C0E0D0E0CE15DF0589F0D8016D918D0175
:10267000D601ED91FC910190F081E02DC601099504
:10268000892B11F47E0102C02196ECCFC701DF91A6
:10269000CF911F910F91FF90EF90DF90CF90089511
:1026A0006115710581F0FB0101900020E9F7319778
:1026B000AF01461B570BDC01ED91FC910280F381C9
:1026C000E02D0995089580E090E008950E94501350
:1026D0000895DC01ED91FC910190F081E02D0995C8
:1026E00008956FEB71E00E94501308950F931F93AC
:1026F000CF93DF93EC010E9450138C01CE010E9416
:102700007113800F911FDF91CF911F910F91089549
:102710004F925F926F927F92EF92FF920F931F936F
:10272000CF93DF93CDB7DEB7A1970FB6F894DEBF96
:102730000FBECDBF7C01FA01CB0119A2223008F4F3
:102740002AE08E010F5D1F4F422E512C612C712CFF
:10275000BF01A30192010E942F1CF901CA0101507F
:1027600011096A3014F4605D01C0695CD8016C9392
:10277000232B242B252B61F7B801C7010E9450138E
:10278000A1960FB6F894DEBF0FBECDBFDF91CF91FB
:102790001F910F91FF90EF907F906F905F904F90FF
:1027A0000895CF92DF92EF92FF920F931F93CF93F2
:1027B000DF938C016A017B012115310549F4DC01AD
:1027C000ED91FC910190F081E02D642F09951DC0E1
:1027D0002A303105A9F477FF12C06DE20E94691317
:1027E000EC0144275527BA014C195D096E097F0990
:1027F0002AE0C8010E9488138C0F9D1F06C02AE0A2
:10280000B701A601C8010E948813DF91CF911F91E3
:102810000F91FF90EF90DF90CF9008950F931F934B
:10282000CF93DF93EC010E94D1138C01CE010E9463
:102830007113800F911FDF91CF911F910F91089518
:102840002115310549F4DC01ED91FC910190F081F5
:10285000E02D642F099508950E94881308959A0128
:10286000AB0160E070E00E942014089508950E947A
:1028700073120E9436140E9485110E94240EFDCF0F
:102880009B01AC012D3A8BE138074105510530F42D
:1028900010926F001092800081E812C063E056959C
:1028A0004795379527956A95D1F72D3A8BE13807EB
:1028B00041055105C0F510926F001092800082E82A
:1028C000809381003093E1052093E005A5E2B0E01C
:1028D0000E94761CDC01CB0122E0B695A795979566
:1028E00087952A95D1F79093DA058093D90562E010
:1028F00088E00E94961261E089E00E94D21261E0B5
:1029000089E00E9496121092DF051092D80510926D
:10291000D70510925605109253051092520580E289
:1029200086BB80936F000895CF92DF92EF92FF9263
:10293000CF93DF93D82FC0915305CF5FCF700E9404
:10294000FB116B017C0124E1C20ED11CE11CF11CC6
:10295000809152058C1309C00E94FB11C616D70640
:10296000E806F906A8F780E02DC02FB7F89480910B
:102970005605882341F0EC2FF0E0EE5BFA4FD08350
:10298000C09353051DC081E080935605D093550533
:102990001092540582E086BB80916F008260809324
:1029A0006F00809180008F73806880938000809199
:1029B00084009091850040969093890080938800D0
:1029C0002FBF81E0DF91CF91FF90EF90DF90CF900C
:1029D0000895862F0E94941490E008951F920F92FC
:1029E0000FB60F9211242F933F934F935F936F93E2
:1029F0007F938F939F93EF93FF9380915605609100
:102A0000550520918800309189004091E005509152
:102A1000E105909154058A30F8F4240F351F893070
:102A200019F0762F717001C071E066958F5F79178C
:102A300091F390918000772311F0906C02C09F7306
:102A40009068909380003093890020938800709361
:102A500054056093550548C0E09152059091530587
:102A60009E1319C08A3051F48BE080935605240FD1
:102A7000351F309389002093880038C01092560586
:102A8000809180008F738093800080916F008D7F94
:102A900080936F002BC0EF5FEF70E0935205F0E082
:102AA000EE5BFA4F908190935505109254059091EA
:102AB00080009F739068909380008A3059F48091D1
:102AC000E0059091E105280F391F3093890020938C
:102AD000880009C080918400909185004096909371
:102AE00089008093880081E080935605FF91EF91E3
:102AF0009F918F917F916F915F914F913F912F9116
:102B00000F900FBE0F901F90189580915605811160
:102B1000FCCF08951F920F920FB60F9211242F939E
:102B20003F934F935F936F937F938F939F93EF9315
:102B3000FF9380918600909187004091DD05209160
:102B40008100442331F02F7B209381001092DD051A
:102B500006C020642093810020E82093DD05309199
:102B6000DF05311125C0411166C02091D905309192
:102B7000DA05280F391F30938B0020938A0024E058
:102B800026BB20916F00246020936F002091E00508
:102B90003091E105820F931F36952795820F931F81
:102BA0009093DC058093DB0581E08093DF0543C0D3
:102BB0004091DB055091DC052091DE05E091DD05BB
:102BC0006091E0057091E105841B950B97FD2BC08A
:102BD00026952E2B460F571F3F5F861B970B3930CC
:102BE000A8F32093DE0580916F008B7F80936F00A8
:102BF0008091D8058F5F8F779091D705891749F01D
:102C0000E82FF0E09091DE05E95AFA4F9083809327
:102C1000D805809181008F7B809381001092DD0523
:102C20001092DF0508C02093DE055093DC05409329
:102C3000DB053093DF05FF91EF919F918F917F919D
:102C40006F915F914F913F912F910F900FBE0F9019
:102C50001F9018951F920F920FB60F9211242F9369
:102C60008F939F93EF93FF9380916F008B7F80935F
:102C70006F00809181008F7B809381008091DF05C0
:102C80002091DD0520589091DE05893020F496953D
:102C9000922B8F5FFACF9093DE058091D8058F5FDE
:102CA0008F772091D705821739F0E82FF0E0E95AA5
:102CB000FA4F90838093D8051092DF0580918100B0
:102CC0008F7B809381001092DD05FF91EF919F91A2
:102CD0008F912F910F900FBE0F901F90189590918C
:102CE000D7058091D805891751F09F5F9F77E92F0D
:102CF000F0E0E95AFA4F80819093D705089580E07B
:102D000008950E946F160895E091D7058091D80527
:102D10008E1739F0EF5FEF77F0E0E95AFA4F8081D4
:102D2000089580E008950E94841608958091D80542
:102D30009091D705891708F48058891B08950E943F
:102D4000961608958091D7058093D8050895CF935E
:102D5000DF93CFE6D0E088818B7F888388818F7D69
:102D600088830E94A2160E94851588818D7F8883A2
:102D7000DF91CF9108959091C100892F807194FFC8
:102D80000EC09091740680917506981302C080E081
:102D90000895E0917506F0E0EE50FA4F80810895B5
:102DA000E4E7F6E081818083E2E7F6E080818183D9
:102DB0000895FC01138212822AED31E031832083D1
:102DC00008959B01AC018091C10084FD1092C10067
:102DD0001092730610927206109275061092740685
:102DE0001216130614061506FCF4211581EE380799
:102DF0004105510501F182E08093C00060E079E077
:102E00008DE390E00E94511CCA01B9016150710923
:102E10008109910922E030E040E050E00E94511C1D
:102E20003093C5002093C40088E98093C10086E0F8
:102E30008093C20008951092C00020E130E0F0CFEE
:102E40001092C10008959091C100892F807194FF64
:102E500006C08091740690917506891B8F7708953E
:102E60000E94231708959091C100892F807194FFCB
:102E700014C09091740680917506981302C080E08A
:102E80000895E0917506F0E0EE50FA4F8081909140
:102E900075069F5F9F779093750608950E9433177C
:102EA00008959091C10094FF18C0909172069F5FA1
:102EB0009F70209173069217E1F3E0917206F0E0A3
:102EC000EE51FA4F8083909372068091C100806228
:102ED0008093C10081E090E0089580E090E0089543
:102EE000862F0E9451170895DC01ED91FC9101900D
:102EF000F081E02D099508950F931F93CF93DF93F1
:102F00008C01FB016491EF012196662329F0C80131
:102F10000E947417FE01F6CFDF91CF911F910F91A0
:102F20000895CF93DF93EC010E947C17CE010E949D
:102F30007113DF91CF910895CF93DF93CDB7DEB7B3
:102F40009E01275F3F4F4F81588561E08D819E81B3
:102F50000E94BF18DF91CF91089580E0089580E02E
:102F6000089580E00895089520917906211108C000
:102F700021E030E0FC013383228380E090E008957B
:102F800080917906109277061092B2008093B30078
:102F900082E08093B000809176068093B100B99A68
:102FA000809170008260809370001092780680910A
:102FB00078068823E1F388E0962F91709093770646
:102FC000669510927806909178069923E1F38150E6
:102FD00099F781E0809377061092780680917806C1
:102FE0008823E1F310927806809178068823E1F334
:102FF000109270001092B10081E090E00895CF939C
:10300000C82F61E00E94D21261E08C2F0E949612BC
:103010008C2F90E0FC01EE5BFA4FE491E0937D068B
:1030200020917D06209520937C06FC01EA5AFA4FF8
:10303000E491F0E0EE0FFF1FEC58FA4F8591949168
:1030400090937B0680937A06CF910895FC01842F9C
:10305000138212822AEE31E0318320830E94FF170F
:103060000895CF92DF92EF92FF92CF936B017C0194
:10307000C1148BE4D806E104F10459F194F480E81A
:10308000C81685E2D806E104F10419F1C1148DE2F5
:10309000D806E104F10411F582E08093760680E120
:1030A00015C0C11486E9D806E104F10459F0C11431
:1030B00081EED806E104F10489F482E0809376067B
:1030C00082E204C082E08093760683E380937906EF
:1030D00029C083E080937606C0E204C081E080933B
:1030E0007606C1E0C701B60122E030E040E050E0E2
:1030F0000E94511CCA01B9017C5D8B409F4FA70102
:1031000096010E94511CCC2ED12CE12CF12CCA012D
:10311000B901A70196010E94511C2093790681E014
:1031200080937806CF91FF90EF90DF90CF90089535
:103130001F920F920FB60F9211248F939F93EF93CC
:10314000FF9380917706E0917A06F0917B068823C1
:1031500029F080917D069081892B04C080917C06A6
:1031600090818923808381E080937806FF91EF919D
:103170009F918F910F900FBE0F901F9018952F92D7
:103180003F924F925F926F927F928F929F92AF92F7
:10319000BF92CF92DF92EF92FF920F931F93CF9344
:1031A000DF93CDB7DEB72C970FB6F894DEBF0FBE16
:1031B000CDBF7C01262E6A018901CE0101964C010A
:1031C000F60120FC359120FE31916F01332309F483
:1031D000A3C1353241F420FC359120FE31916F01BD
:1031E000353271F408C03A3031F46DE0C7013C87E4
:1031F0000E9474173C85632FC7010E947417E0CFAB
:10320000512C312C20E02032A0F43B3269F030F414
:10321000303259F0333269F420612CC03D3239F03C
:10322000303339F4216026C02260246023C0286036
:1032300021C027FD28C080ED830F8A3078F426FF57
:1032400006C0FAE05F9E800D1124582E13C09AE04C
:10325000399E800D1124382E20620CC03E3221F49C
:1032600026FD5AC1206406C03C3611F4206802C015
:10327000383649F4F60120FC359120FE31916F017A
:103280003111C1CF93C0333629F0333769F033356C
:1032900011F15AC0F801808189830E5F1F4F4424C9
:1032A0004394512C540115C03801F2E06F0E711C8B
:1032B000F801A080B18026FF03C0652D70E002C038
:1032C0006FEF7FEFC5012C870E941B1B2C01830130
:1032D0002C852F7716C03801F2E06F0E711CF801B3
:1032E000A080B18026FF03C0652D70E002C06FEFA3
:1032F0007FEFC5012C870E94E71A2C012C852068DE
:10330000830123FD1DC0832D90E048165906C0F4AB
:1033100060E2C7012C870E9474173A942C85F3CF82
:10332000F50127FD659127FF61915F01C7012C879A
:103330000E9474172C8531103A94F1E04F1A51080D
:103340004114510469F7DFC0343611F0393639F5CC
:10335000F80127FF07C060817181828193810C5F32
:103360001F4F08C060817181072E000C880B990BDC
:103370000E5F1F4F2F76722E97FF09C09095809594
:10338000709561957F4F8F4F9F4F2068722E2AE076
:1033900030E0A4010E943503A82EA81844C0353798
:1033A00029F42F7EB22E2AE030E025C0F22FF97FDB
:1033B000BF2E3F36C1F018F4383579F0ADC0303744
:1033C00019F0383721F0A8C02F2F2061B22EB4FE9B
:1033D0000DC08B2D8460B82E09C024FF0AC09F2F1A
:1033E0009660B92E06C028E030E005C020E130E04C
:1033F00002C020E132E0F801B7FE07C060817181B0
:10340000828193810C5F1F4F06C06081718180E0D3
:1034100090E00E5F1F4FA4010E943503A82EA8184C
:10342000FB2DFF777F2E76FE0BC0372D3E7FA51438
:1034300050F474FE0AC072FC08C0372D3E7E05C0F1
:10344000BA2C372D03C0BA2C01C0B52C34FF0DC0E7
:10345000FE01EA0DF11D8081803311F4397E09C02F
:1034600032FF06C0B394B39404C0832F867809F06A
:10347000B39433FD14C030FF08C0B31428F4532CA8
:103480005A0C5B18B32C01C05A2CB31460F460E2E0
:10349000C7013C870E947417B3943C85F6CFB314E0
:1034A00010F43B1801C0312C34FF0EC060E3C7019B
:1034B0003C870E9474173C8532FF13C031FD02C067
:1034C00068E70CC068E50AC0832F867851F031FFA9
:1034D00002C06BE201C060E237FD6DE2C7010E94ED
:1034E0007417A51430F460E3C7010E9474175A944E
:1034F000F8CFAA94F401EA0DF11D6081C7010E9482
:103500007417A110F6CF332009F45ACE60E2C70138
:103510000E9474173A94F7CF2C960FB6F894DEBF3A
:103520000FBECDBFDF91CF911F910F91FF90EF9014
:10353000DF90CF90BF90AF909F908F907F906F90D3
:103540005F904F903F902F9008951F93FC01992713
:103550008827BC01E89411911032E9F3193010F07A
:103560001E30C8F31B3251F01D3249F4689406C076
:103570000E94261B610F711D811D911D1191105319
:103580001A30B0F33EF490958095709561957F4F19
:103590008F4F9F4F1F910895F8940C94A61CFB0128
:1035A000DC014150504088F08D9181341CF08B3506
:1035B0000CF4805E659161341CF06B350CF4605E38
:1035C000861B611171F3990B0895881BFCCFFC01D8
:1035D0000590615070400110D8F7809590958E0F3E
:1035E0009F1F0895FB0155915523A9F0BF01DC01F0
:1035F0004D9145174111E1F759F4CD010590002097
:1036000049F04D9140154111C9F3FB014111EFCF34
:1036100081E090E001970895FB01DC0141505040AA
:1036200048F001900D920020C9F701C01D92415051
:103630005040E0F70895FC01615070400190011086
:10364000D8F7809590958E0F9F1F0895592F482F7A
:10365000372F262F660F771F881F991F660F771F3A
:10366000881F991F620F731F841F951F660F771F96
:10367000881F991F08950E94421B6894B1110C94F1
:10368000BC1B08950E94A11B88F09F5798F0B92F8A
:103690009927B751B0F0E1F0660F771F881F991F87
:1036A0001AF0BA95C9F714C0B13091F00E94BB1B53
:1036B000B1E008950C94BB1B672F782F8827B85F63
:1036C00039F0B93FCCF3869577956795B395D9F7DF
:1036D0003EF490958095709561957F4F8F4F9F4FE9
:1036E000089597F99F6780E870E060E008959FEF84
:1036F00080EC089500240A94161617061806090689
:10370000089500240A941216130614060506089557
:10371000092E0394000C11F4882352F0BB0F40F4DF
:10372000BF2B11F460FF04C06F5F7F4F8F4F9F4F1F
:10373000089557FD9058440F551F59F05F3F71F0A1
:103740004795880F97FB991F61F09F3F79F0879508
:103750000895121613061406551FF2CF4695F1DF91
:1037600008C0161617061806991FF1CF8695710521
:10377000610508940895E894BB2766277727CB0155
:1037800097F908950E94D51B0C94881B0E947A1B00
:1037900038F00E94811B20F0952311F00C94711BCE
:1037A0000C94771B11240C94BC1B0E94991B70F382
:1037B000959FC1F3950F50E0551F629FF001729FD6
:1037C000BB27F00DB11D639FAA27F00DB11DAA1FE5
:1037D000649F6627B00DA11D661F829F2227B00D32
:1037E000A11D621F739FB00DA11D621F839FA00DBD
:1037F000611D221F749F3327A00D611D231F849F0D
:10380000600D211D822F762F6A2F11249F57504063
:103810009AF0F1F088234AF0EE0FFF1FBB1F661FDE
:10382000771F881F91505040A9F79E3F510580F0A7
:103830000C94711B0C94BC1B5F3FE4F3983ED4F3D3
:10384000869577956795B795F795E7959F5FC1F74B
:10385000FE2B880F911D9695879597F90895A1E203
:103860001A2EAA1BBB1BFD010DC0AA1FBB1FEE1FFA
:10387000FF1FA217B307E407F50720F0A21BB30B45
:10388000E40BF50B661F771F881F991F1A9469F7C1
:1038900060957095809590959B01AC01BD01CF011D
:1038A0000895052E97FB1EF400940E94681C57FD96
:1038B00007D00E942F1C07FC03D04EF40C94681C08
:1038C00050954095309521953F4F4F4F5F4F08954C
:1038D00090958095709561957F4F8F4F9F4F08957C
:1038E000EE0FFF1F0590F491E02D09940E94811CBA
:1038F000A59F900DB49F900DA49F800D911D112444
:103900000895A29FB001B39FC001A39F700D811DB8
:103910001124911DB29F700D811D1124911D0895D8
:10392000F999FECF92BD81BDF89A992780B5089587
:10393000262FF999FECF1FBA92BD81BD20BD0FB6CB
:10394000F894FA9AF99A0FBE0196089512E0C5EC20
:10395000D2E004C0FE010E94701C2196C63CD10733
:06396000C9F7F894FFCF47
:103966000F0402B8220000796B6F637470612E72C7
:1039760075000000000000000000000000000000CC
:103986000000000000000000000000000000000031
:103996000000000000000000000000000000000021
:1039A6000000000000000000000000000000000011
:1039B6000000000000000000000000000000000001
:1039C60000000000000000000000000000000000F1
:1039D60000000000000000000000000000000000E1
:1039E600000000000000000000000093032513A65D
:1039F60003A803AA03AC030A2320646F6E650000C4
:103A0600000000E91425139F1681169316DD0300A6
:103A16000000007017251330174E17BB16D0160D71
:103A26000A006F76660000000000E91425139F1651
:103A360081169316DD03000000007017251330175A
:103A46004E17BB16D01600000000B4172513AF178B
:063A5600B117AD17B31714
:00000001FF
